:100000000C9423020C9453170C9440020C9440025D
:100010000C9440020C9440020C9440020C94400258
:100020000C9440020C9440020C9440020C94400248
:100030000C9440020C9440020C9440020C94400238
:100040000C9409170C9440020C9440020C9440024A
:100050000C9440020C9440020C9440020C94400218
:100060000C9440020C944002200020000FED03216C
:10007000534449534B494920434647004E6F205350
:100080004420696E7365727465640046415431366C
:1000900000464154333200547970653A2000436F72
:1000A00064653A2000534420426C6F636B204552D4
:1000B000524F52004D697373696E67204D42522052
:1000C000202000436C7573746572203C2033326BC2
:1000D00042004E6F742046415431362F3332202077
:1000E00000426F6F7420736563746F72202020006C
:1000F00053442063616E277420696E697420005335
:10010000442063616E27742069646C65200045207B
:10011000522052204F2052004E6F726D616C20535E
:1001200044206361726400202020534448432063CC
:1001300061726420200020536F7274696E672066BC
:10014000696C657300204E6F7468696E672068651E
:1001500072652100204275696C64696E67206C6964
:100160007374002053454C454354204E494320208E
:100170002000547261636B3A2000205344204445B0
:100180004C4159202020202000204C434420434F44
:100190004E545241535420002056616C75653A20EC
:1001A000002053657420636F6E7472617374200055
:1001B000205365742053442064656C6179200020CD
:1001C000202020202020202020202020200020531C
:1001D00045545550202020202020202000204E492A
:1001E000432020202020202020202000762E203593
:1001F0002E3020283230313729004170706C652054
:100200005D5B202D20425200534469736B205D5B7F
:100210000008141C1C1C1C1C1C366363220000FFFD
:10022000FFF7E3E3F7FFFD00000074325242424261
:100230004A4C2E00000000000402FF0204000000EF
:10024000000000002040FF402000000000000020CF
:1002500070A82020203F0000000000FE82828284DF
:1002600084FC000000000000000000005F000000AF
:1002700007000700147F147F14242A7F2A122313F7
:1002800008646236495522500005030000001C2214
:1002900041000041221C0014083E081408083E08D2
:1002A00008005030000008080808080060600000DE
:1002B00020100804023E5149453E00427F40004262
:1002C000615149462141454B311814127F10274591
:1002D0004545393C4A4949300171090503364949C8
:1002E0004936064949291E003636000000563600B8
:1002F000000814224100141414141400412214089C
:100300000201510906324979413E7E1111117E7F69
:10031000494949363E414141227F4141221C7F49A2
:100320004949417F090909013E4149497A7F080845
:10033000087F00417F41002040413F017F08142297
:10034000417F404040407F020C027F7F0408107FC5
:100350003E4141413E7F090909063E4151215E7FF0
:1003600009192946464949493101017F01013F40A8
:1003700040403F1F2040201F3F4038403F6314084B
:10038000146307087008076151494543007F4141E4
:100390000002040810200041417F00040201020411
:1003A0004040404040000102040020545454787FF3
:1003B000484444383844444420384444487F3854FE
:1003C000545418087E0901020C5252523E7F080410
:1003D000047800447D40002040443D007F102844C4
:1003E0000000417F40007C041804787C08040478F5
:1003F00038444444387C14141408081414187C7CC1
:10040000080404084854545420043F4440203C400D
:1004100040207C1C2040201C3C4030403C442810A4
:1004200028440C5050503C4464544C44000836411D
:100430000000007F00000041360800100808100886
:1004400000060909060011241FBECFEFD8E0DEBF69
:10045000CDBF11E0A0E0B1E0E8E7F3E302C0059012
:100460000D92A630B107D9F728E0A6E0B1E001C0AF
:100470001D92A635B207E1F70E94B7170C94BA197E
:100480000C9400000E94960F61E08FE00E94A40F80
:100490008EE091E00E94C51063E080E00E94A40F0E
:1004A0008CE790E00E94C5104B99FECF089514B8D8
:1004B00017B81AB815B818B81BB8249A2C9A399AD4
:1004C0003B9A419A17BC14BC91E095BD22E025BF30
:1004D000209369001092F4071092300810922F08B0
:1004E00010922E081092F3071092F2071092F9075B
:1004F00090930308109202081092120110921B01AF
:100500002CE131E03093050820930408882359F149
:100510000E94870F0E94960F60E080E00E94A40F67
:100520000E94B10F61E082E10E94A40F88E092E096
:100530000E94C51062E083E00E94A40F8AEF91E060
:100540000E94C51064E083E00E94A40F8CEE91E04D
:100550000E94C5102FED80E792E721508040904027
:10056000E1F700C0000008950F931F93CF93DF932E
:100570001F92CDB7DEB7082F162F65E080E04983C4
:100580000E94A40F0E94E4108FEB91E00E94C5101E
:1005900065E080E00E94A40F802F90E00E94E40FAD
:1005A00065E084E20E94A40F812F90E00E94E40F96
:1005B00065E087E40E94A40F4981842F90E00E94A7
:1005C000E40F0F90DF91CF911F910F910C94E410E5
:1005D000FC01009779F08081882369F0853E51F015
:1005E00080858E3439F48185893421F481E09285C7
:1005F000933409F080E00895FC01009749F0808170
:10060000882339F0853E21F0838582958170089595
:1006100080E00895CF92DF92EF92FF920F931F93A5
:10062000CF93DF938FEF9FEF9093010180930001B1
:100630000E9458156B017C016115710581059105BA
:10064000D9F180E090E00E947D1600E010E0C80142
:100650000E94E215EC01009749F18881853E11F076
:10066000811124C08B858F3009F110930101009313
:10067000000160E770E0CE010E941E1981E08B87C7
:10068000FD8AEC8ADB8ECA8E60913608709137083D
:100690008091380890913908DF91CF911F910F9187
:1006A000FF90EF90DF90CF900C94F0120F5F1F4FF0
:1006B000003981E0180759F6DF91CF911F910F9112
:1006C000FF90EF90DF90CF900895FF920F931F93CC
:1006D000CF93DF93D82FF62EC42FA62FB0E040E1A2
:1006E000C49FA00DB11D1124FD010090550802C04A
:1006F000F695E7950A94E2F7EE0FFF1FEE0FFF1F46
:10070000EA5FF74F008111812281338182E08BB94A
:100710001BB8E0915408F0E03197EA23FB234091A5
:1007200041085091420860914308709144084E0F6F
:100730005F1F611D711D02501109210931090090CF
:10074000550804C0000F111F221F331F0A94D2F74F
:10075000400F511F621F731F88E10E94BF118FEF6E
:100760000E94F3108EEF0E94F31080EB90E030E1D6
:1007700020E33BB92BB901970097D9F71BB883E069
:100780000E94F3108CEF0E94F3108FEF0E94F31081
:100790008FE30E94F3108FEC0E94F31083EF0E940E
:1007A000F3108CEF0E94F3108FEF0E94F3108FE391
:1007B0000E94F3108FEC0E94F31083EF0E94F3105D
:1007C0008CEF0E94F31085ED0E94F3108AEA0E94DC
:1007D000F31086E90E94F3108FEF0E94F3108EEF62
:1007E0000E94F3108C2F86958A6A0E94F3108C2F3A
:1007F0008A6A0E94F3108F2D86958A6A0E94F310F0
:100800008F2D8A6A0E94F3101EEF1F251C27812F4F
:1008100086958A6A0E94F310812F8A6A0E94F310DB
:100820008EED0E94F3108AEA0E94F3108BEE0E9474
:10083000F3108FEF0E94F3108FEF0E94F3108FEFF1
:100840000E94F3108FEF0E94F3108FEF0E94F310BD
:100850008EE591E0D89F9001D99F300D1124245E40
:100860003E4F80E090E070E2A0E1B0E3F901E80FD4
:10087000F91FE08148E050E060E8F62FFE2319F010
:10088000ABB9BBB902C01BB87BB9669541505109E1
:100890004115510591F701968D3541E0940731F7E7
:1008A0001BB880E790E030E120E33BB92BB901971A
:1008B0000097D9F71BB880E093E020E21BB82BB972
:1008C00001970097D9F71BB88FEF0E94F3108FEFB5
:1008D0000E94F3100E9409110E94F91382E08BB963
:1008E0001BB8DF91CF911F910F91FF900895CF9288
:1008F000DF92EF92FF920F931F93CF93DF934B9969
:1009000033C0EDE0F1E081918F3F51F1C3E1D1E0DF
:100910009EE1E92E91E0F92E0DE011E0D12CCC24DE
:10092000CA94F80160816F3F21F048818D2D0E94AB
:100930006503F801C1928F01C992F7011082D39427
:10094000F2EAEF1AFEEFFF0A85E0D812EACF109222
:1009500012018CE191E0909305088093040804C093
:1009600081E0E231F80779F6DF91CF911F910F9185
:10097000FF90EF90DF90CF9008958091F2079091D3
:10098000F30780399C40C0F480E18BB98091F20775
:100990009091F30720E330E1803140E1940730F497
:1009A0004B990AC02BB93BB90196F6CF80E99CE080
:1009B0009093F3078093F20708954B996EC040918E
:1009C0001201842F90E02EE531E0829FF001839F99
:1009D000F00D929FF00D1124E45EFE4F22812D3A1E
:1009E00009F042C020911B01211131C02091F40770
:1009F000FC01E35FFE4F2083FC01ED5EFE4F309172
:100A00000208369536953083822F8D7F8D3011F414
:100A100082E001C081E0820F8F708093F407443040
:100A200029F40E94BD040E9477041BC04F5F4093CD
:100A300012012EE531E0429FC001439F900D112429
:100A4000845E9E4F90930508809304080DC08091AA
:100A50000A018093F40710921B018F3029F40E9441
:100A6000BD0481E080930308209112018EE591E09E
:100A7000289FF001299FF00D1124E45EFE4F828132
:100A8000863959F487818575880F90859575892BEE
:100A900080930A0181E080931B0108952CE131E0ED
:100AA00080E090E0F901E80FF91F108201968E3581
:100AB00041E09407B9F7225A3E4F87E0223F3807BA
:100AC00079F7E3E1F1E0ADE0B1E08FEF81938D9351
:100AD00091E0E831F907D1F70895CF93C82F2FEFB0
:100AE0003FEF30930101209300010E94B711599804
:100AF0004B9B03C00E9442024CC02CE131E030937A
:100B00003B0820933A080E943E13811144C00E9482
:100B1000960F61E08FE00E94A40F8EE091E00E94AA
:100B2000C51063E080E00E94A40F809133088130FB
:100B300019F48FEF90E004C0823029F480EF90E048
:100B40000E94C51022C0833019F481EE90E0F8CFE6
:100B5000843019F482ED90E0F3CF853019F483EC02
:100B600090E0EECF863019F484EB90E0E9CF873047
:100B700019F485EA90E0E4CF8EE990E00E94C51078
:100B80008091330890E00E948B10109230084B9BAC
:100B9000FECF80E0B0C0CC23D9F00E94960F61E078
:100BA00080E00E94A40F80913E08823019F487E211
:100BB00091E002C088E191E00E94C51059982FE3AE
:100BC0008BE49CE4215080409040E1F700C000009D
:100BD0000E940014811143C00E94960F61E08FE0D3
:100BE0000E94A40F8EE091E00E94C51063E080E0B7
:100BF0000E94A40F80913308813019F48FEF90E0A8
:100C000004C0823029F480EF90E00E94C51022C019
:100C1000833019F481EE90E0F8CF843019F482ED3E
:100C200090E0F3CF853019F483EC90E0EECF86307E
:100C300019F484EB90E0E9CF873019F485EA90E06D
:100C4000E4CF8EE990E00E94C5108091330890E0D7
:100C50000E948B10109230084B9BFECF9ACF809150
:100C6000540840914E0850914F08849F9001859FF1
:100C7000300D112421153047D0F485E080933308DE
:100C80000E94960F61E08FE00E94A40F8EE091E039
:100C90000E94C51063E080E00E94A40F83EC90E006
:100CA0000E94C510109230084B9BFECF72CFCC2310
:100CB000E1F064E089E00E94A40F87E990E00E94DF
:100CC000C510809145088B3019F481E990E002C08D
:100CD0008BE890E00E94C5109FE32BE48CE49150D8
:100CE00020408040E1F700C0000059980E944E0566
:100CF0000E94B31181E0CF9108958F929F92AF929D
:100D0000BF92CF92DF92EF92FF920F931F93CF93F8
:100D1000DF93EC017B016115710519F480E090E02F
:100D200051C10E94960F60E080E00E94A40F0E94D3
:100D3000DC108DED91E00E94C51060E085E30E941B
:100D4000A40F809145088B3019F481E990E002C02E
:100D50008BE890E00E94C5100E94DC1042E061E048
:100D600080E00E94B40262E080E00E94A40F81E073
:100D700090E00E94E40F670100E010E0F60181912D
:100D80006F01803211F00E9438100F5F1F4F083042
:100D90001105A1F7D0930701C09306018091450882
:100DA000F701028D138D8B3071F464897589CB0145
:100DB000A0E0B0E07727662720E030E0602B712BC1
:100DC000822B932B03C0B80180E090E06115710580
:100DD0008105910509F4A2CFE6E0F8E011921192A5
:100DE0001192119228E0EE32F207C1F760930608E3
:100DF00070930708809308089093090811E0663FF4
:100E0000FFEF7F0781059105A8F40E94F714663F64
:100E1000EFEF7E078105910558F424E0129FF00161
:100E20001124EA5FF74F60837183828393831F5F8E
:100E30001A3028F3C0904A08D0904B08E0904C0834
:100E4000F0904D088091000190910101019609F404
:100E50008AC080E090E00E947D168FEF9FEFDC015A
:100E60008093360890933708A0933808B0933908D8
:100E700080910001909101010E94F2162091450895
:100E8000FC01428D538D2B3071F484899589A0E04B
:100E9000B0E0DC019927882760E070E0842B952B77
:100EA000A62BB72B03C0CA01A0E0B0E04C015D0146
:100EB000F2E08F1A9108A108B108A0915408B0E09F
:100EC000A50194010E941319009141081091420854
:100ED0002091430830914408600F711F821F931FB7
:100EE0000E948612E0913A08F0913B088DEC92E066
:100EF000ABEAB1E080839183A283B38345815681BD
:100F000067817085818592854C155D056E057F052D
:100F100019F48C179D0731F04387548765877687CE
:100F2000908B8787C582D682E782F086D287C18779
:100F30008091350884838091FC07818BA0915408AF
:100F4000B0E0A50194010E9413198090410890908F
:100F50004208A0904308B0904408680D791D8A1D8E
:100F60009B1D0E94F012C0924A08D0924B08E0925A
:100F70004C08F0924D081092F3071092F20710926D
:100F80002F081092F907C1E0C093030810920208DD
:100F90001092F4071092120110921B018CE191E063
:100FA0009093050880930408599840E052E060E06F
:100FB00070E080E10E940E120E944E05C09330083E
:100FC00081E090E0DF91CF911F910F91FF90EF9022
:100FD000DF90CF90BF90AF909F908F9008958F92A9
:100FE0009F92AF92BF92CF92DF92EF92FF920F93B8
:100FF0001F93CF93DF938CE191E090933B08809314
:101000003A088FEF9FEFDC01809336089093370802
:10101000A0933808B093390880E090E00E947D16D4
:101020008FEF9FEF909301018093000100E010E0AB
:10103000CFEFDFEFFEE1FF2EACE3EA2EC8010E9406
:10104000F2166C01009709F499C0FC018081882395
:1010500009F49BC0C6010E94E802882329F0CF3F13
:10106000FFEFDF0709F4E8014BE050E060E770E0D4
:10107000C6010E942519892B09F080C01093010137
:101080000093000120914508F601828D938D2B304D
:1010900071F44489558960E070E0BA01552744270E
:1010A000A0E0B0E0482B592B6A2B7B2B03C0AC018E
:1010B00060E070E09A01AB01225031094109510909
:1010C000A0915408B0E00E941319809041089090BC
:1010D0004208A0904308B0904408680D791D8A1D0D
:1010E0009B1D0E948612C0903A08D0903B08F601E2
:1010F00080819181A281B3818D3C9240AB4AB14005
:10110000A9F5F60184818093350881898D3318F41F
:101110008093FC0702C0E092FC078091FC078E31AF
:1011200010F4F092FC070E94680F5998F60185812F
:101130009681A781B08580934A0890934B08A0932D
:101140004C08B0934D08B184D2848B2D9D2D0E9404
:10115000F216009739F00E94E802882319F0CB2D8F
:10116000DD2D13C080E090E00E947D1680E090E0CD
:101170000E947D16CF3FFFEFDF07D1F40F5F1F4FB7
:10118000003921E0120709F059CFCF3F8FEFD80780
:1011900079F410923008DF91CF911F910F91FF9059
:1011A000EF90DF90CF90BF90AF909F908F90089579
:1011B000CE010E94F216BC01CE01DF91CF911F91AA
:1011C0000F91FF90EF90DF90CF90BF90AF909F90E6
:1011D0008F900C947D06CF92DF92EF92FF920F9347
:1011E0001F93CF93DF93C0904A08D0904B08E090B4
:1011F0004C08F0904D0880910001909101010196FA
:1012000009F477C080E090E00E947D168FEF9FEF99
:10121000DC018093360890933708A0933808B09388
:10122000390880910001909101010E94F2162091ED
:101230004508FC01428D538D2B3071F484899589CA
:10124000A0E0B0E0DC019927882760E070E0842B03
:10125000952BA62BB72B03C0CA01A0E0B0E09C01E0
:10126000AD012250310941095109A0915408B0E063
:101270000E941319009141081091420820914308DF
:1012800030914408600F711F821F931F0E948612C5
:10129000E0913A08F0913B088FEF9FEFDC018093DB
:1012A000360890933708A0933808B093390883859F
:1012B0009485A585B68580934A0890934B08A093A2
:1012C0004C08B0934D0807851089C8010E94F2169A
:1012D000EC010E94E802882361F0BE01C801DF91A1
:1012E000CF911F910F91FF90EF90DF90CF900C94D2
:1012F0007D06C0924A08D0924B08E0924C08F092CA
:101300004D08DF91CF911F910F91FF90EF90DF90EB
:10131000CF9008955E9A2D9A5F9A0895CF92DF92AA
:10132000EF92FF920F931F93CF93809100019091C2
:101330000101019611F40FEA5AC080E090E00E948A
:101340007D168CE191E090933B0880933A080E94CF
:101350004E051092360810923708109238081092F5
:10136000390880910001909101010E94F2162091AC
:101370004508FC01428D538D2B3071F48489958989
:10138000A0E0B0E0DC019927882760E070E0842BC2
:10139000952BA62BB72B03C0CA01A0E0B0E09C019F
:1013A000AD012250310941095109A0915408B0E022
:1013B0000E9413190091410810914208209143089E
:1013C00030914408600F711F821F931F0E94861284
:1013D000E0913A08F0913B0880819181A281B3812C
:1013E0008D3C9240AB4AB14009F0A5CF01890E94E3
:1013F000960F60E080E00E94A40F0E94DC1089E854
:1014000091E00E94C5100E94DC1043E065E084E09A
:101410000E94B40262E080E00E94A40F88E991E09B
:101420000E94C510802F90E00E948B10F02E102F8C
:101430000E948A091F1581F062E080E00E94A40FDB
:1014400088E991E00E94C510812F90E00E948B10E6
:101450008AE690E00E94C5104B99C6C04F9914C00F
:101460004F9BFECF8FE392E4EFE081509040E0404D
:10147000E1F700C00000CFEFC10FCE3138F0C093CC
:10148000FC070E94680F03C0C12F01C0CEE11D9967
:1014900014C01D9BFECFFFE322E48FE0F1502040FB
:1014A0008040E1F700C00000CF5FCD3328F4C09347
:1014B000FC070E94680F01C0CCE34E9B03C0F12ED5
:1014C0001C2FB6CF4E9BFECF9FE3E2E4FFE091508E
:1014D000E040F040E1F700C00000C01709F484C00C
:1014E000C093FC070E94680F599880910001909169
:1014F0000101019609F478C080E090E00E947D1619
:101500008CE191E090933B0880933A080E944E054D
:101510001092360810923708109238081092390845
:1015200080910001909101010E94F21620914508DE
:10153000FC01428D538D2B3071F484899589A0E094
:10154000B0E0DC019927882760E070E0842B952BC0
:10155000A62BB72B03C0CA01A0E0B0E06C017D014F
:10156000F2E0CF1AD108E108F108A0915408B0E0E8
:10157000A70196010E941319009141081091420899
:101580002091430830914408600F711F821F931F00
:101590000E948612E0913A08F0913B088081918187
:1015A000A281B3818D3C9240AB4AB140E9F4C18B3A
:1015B000A0915408B0E0A70196010E941319C090B1
:1015C0004108D0904208E0904308F09044086C0D28
:1015D0007D1D8E1D9F1DCF911F910F91FF90EF904C
:1015E000DF90CF900C94F012CF911F910F91FF904C
:1015F000EF90DF90CF900895CF92DF92EF92FF921D
:101600000F931F93CF93DF930E94960F60E080E0CB
:101610000E94A40F0E94DC108AE791E00E94C5108E
:101620000E94DC1043E065E084E00E94B40262E0C6
:1016300080E00E94A40F88E991E00E94C51080918B
:10164000350890E00E948B1010913508012FCAE0F8
:10165000D1E00E948A0980913508801799F062E0F4
:1016600080E00E94A40F88E991E00E94C51080915B
:10167000350890E00E948B1088E690E00E94C5102B
:10168000009135084B99C0C04F9914C04F9BFECFB5
:101690002FE382E49FE0215080409040E1F700C0BA
:1016A000000080913508815080933508811102C077
:1016B000C09335081D9914C01D9BFECFEFE3F2E4E3
:1016C0002FE0E150F0402040E1F700C000008091A1
:1016D00035088F5F809335088B3010F0D093350834
:1016E0004E99B7CF4E9BFECF8FE392E4EFE081504F
:1016F0009040E040E1F700C000008091350881177C
:1017000009F482C08091000190910101019609F4D1
:101710007BC080E090E00E947D168CE191E0909388
:101720003B0880933A080E944E05109236081092AA
:101730003708109238081092390880910001909172
:1017400001010E94F21620914508FC01428D538D43
:101750002B3071F484899589A0E0B0E0DC019927F1
:10176000882760E070E0842B952BA62BB72B03C055
:10177000CA01A0E0B0E06C017D01F2E0CF1AD1080F
:10178000E108F108A0915408B0E0A70196010E9479
:10179000131900914108109142082091430830919B
:1017A0004408600F711F821F931F0E948612E091F0
:1017B0003A08F0913B0880819181A281B3818D3CF0
:1017C0009240AB4AB14001F5809135088483A091E5
:1017D0005408B0E0A70196010E941319C090410877
:1017E000D0904208E0904308F09044086C0D7D1DB5
:1017F0008E1D9F1DDF91CF911F910F91FF90EF9054
:10180000DF90CF900C94F012DF91CF911F910F9148
:10181000FF90EF90DF90CF900895CF930E94960FA6
:1018200060E080E00E94A40F0E94DC108EEC91E04A
:101830000E94C5100E94DC1043E065E084E00E9435
:10184000B40262E080E00E94A40F0E94D41080EBFA
:1018500091E00E94C5100E94D41063E080E00E94D5
:10186000A40F81EA91E00E94C510C1E00E948A099C
:101870004F9924C04F9BFECF2FE382E49FE021507D
:1018800080409040E1F700C00000CF5FC330A8F473
:1018900062E080E00E94A40F80EB91E00E94C510FE
:1018A0000E94D41063E080E00E94A40F81EA91E0DE
:1018B0000E94C5100E94D41001C0C2E01D9923C02F
:1018C0001D9BFECF2FE382E49FE02150804090409B
:1018D000E1F700C00000C150A9F062E080E00E9482
:1018E000A40F0E94D41080EB91E00E94C5100E94CA
:1018F000D41063E080E00E94A40F81EA91E00E948E
:10190000C51001C0C1E04E99B1CF4E9BFECF2FE371
:1019100082E49FE0215080409040E1F700C0000049
:10192000C13019F4CF910C94FC0AC23019F4CF9154
:101930000C948E09CF910895AF92BF92CF92DF920F
:10194000EF92FF920F931F93CF93DF93CDB7DEB744
:1019500028970FB6F894DEBF0FBECDBF10920901D5
:10196000109208018CE191E090933B0880933A0833
:1019700088ED93E09093FF078093FE078FEF9FEF32
:10198000DC018093360890933708A0933808B09311
:1019900039080E944E050E94DC1060E080E00E9441
:1019A000A40F83E691E00E94C51061E080E00E94F0
:1019B000A40F0E94DC1043E065E084E00E94B402C2
:1019C00011E0612F80E00E94A40F8FEB91E00E9454
:1019D000C5101F5F1530A9F762E080E00E94A40FD8
:1019E00084E591E00E94C51000E010E0C8010E946B
:1019F000F2167C01009799F0FC01808181110FC0E3
:101A00008091080190910901892BC9F562E080E07D
:101A10000E94A40F85E491E00E94C5104BC1C7014C
:101A20000E94E802811105C0C7010E94FC028823C0
:101A3000B9F08091080190910901880F991FE091F8
:101A4000FE07F091FF07E80FF91F118300838091D3
:101A50000801909109010196909309018093080172
:101A60000F5F1F4F8091080190910901883C9105FB
:101A70003CF60039F1E01F0709F0B8CFC1CF62E0B2
:101A800080E00E94A40F86E391E00E94C51080913F
:101A900008019091090102978CF42091080130917E
:101AA00009014091060150910701E091FE07F09174
:101AB000FF0700E010E080E090E063C0C12CD12C73
:101AC00080910801909109010197C816D9062CF759
:101AD00000E010E0EE24E394F12C80910801909155
:101AE00009018C199D09E816F9060CF03FC0570151
:101AF000AA0CBB1CE091FE07F091FF07EA0DFB1D4D
:101B0000808191810E94F21648E050E0BC01CE0134
:101B100001960E944019E091FE07F091FF07E00F47
:101B2000F11F808191810E94F21648E050E0BC01D3
:101B3000CE0101960E94331997FF12C0E091FE0773
:101B4000F091FF07DF01AA0DBB1D8D919C911197AC
:101B5000E00FF11F208131812D933C93918380838D
:101B60002FEFE21AF20A0E5F1F4FB7CF8FEFC81A9E
:101B7000D80AA6CF619171914617570709F48C01D5
:101B8000019682179307B4F3EE24EA94FE2C0E9488
:101B90008A094B998FC04F9916C04F9BFECF9FE388
:101BA000E2E4FFE09150E040F040E1F700C00000C7
:101BB0000F5F1F4F809108019091090108171907C5
:101BC00011F400E010E01D9915C01D9BFECF2FE31E
:101BD00082E49FE0215080409040E1F700C0000087
:101BE0000150110917FF06C0009108011091090169
:101BF000015011094E9925C04E9BFECF000F111FB9
:101C0000E091FE07F091FF07E00FF11F80819181C5
:101C10000E94F2167C010E94FC02882331F0C70169
:101C20000E947D160E949C0C45C0E091FE07F09139
:101C3000FF07E00FF11FB701808191810E947D06AF
:101C400039C00E151F0509F4A2CFE091FE07F091EF
:101C5000FF07C801880F991FE80FF91F8081918144
:101C60000E94F2166C0162E080E00E94A40FC6019F
:101C70000E94FC02882319F086E090E002C081E017
:101C800090E00E94E40F7601C12CD12CF7018191E4
:101C90007F01803211F00E943810FFEFCF1ADF0A67
:101CA00028E0C216D10491F78FEB91E00E94C51095
:101CB00078016DCF28960FB6F894DEBF0FBECDBF6A
:101CC000DF91CF911F910F91FF90EF90DF90CF9018
:101CD000BF90AF9008950E948A094B9B13C08FEF6D
:101CE00090E04B9B70C001970097D9F780916E00F0
:101CF0008E7F80936E00E89810923008109203084F
:101D00000C944202309B42C04E9B04C04F9B02C0C9
:101D10001D993CC04E9911C084E690E021E04E9997
:101D200020E001970097D9F7222309F44CC04E9B7D
:101D3000FECFF8940E949C0C26C04F9913C084E6F5
:101D400090E021E04F9920E001970097D9F72223F6
:101D500009F439C04F9BFECFF8940E940D0C4B99AB
:101D600032C024C01D992FC084E690E021E01D9967
:101D700020E001970097D9F7222329F11D9BFECF80
:101D8000F8940E94EB084B9B13C01DC08091300853
:101D9000811119C08FEF90E04B9915C00197009702
:101DA000D9F7F89481E00E946D0581110E94EF0738
:101DB00080913008882331F080916E00816080939B
:101DC0006E00E89A789408956115710561F498B1F0
:101DD00021E030E0082E01C0220F0A94EAF7209596
:101DE000292328B908956130710541F498B1082E6E
:101DF00001C0660F0A94EAF7962B98B908958F925E
:101E00009F92AF92BF92CF92DF92EF92FF920F9389
:101E10001F93CF93DF93842EC62ED12C91E0992E61
:101E200001C0990C6A95EAF7C7E0D0E0022F10E0F4
:101E3000E82EF12C87E0A82EB12C81E088120BC08F
:101E4000B5016C1B7D0BC80102C0959587956A95FD
:101E5000E2F7BC0107C0B8010C2E02C0759567956A
:101E60000A94E2F761707727C7010E94E40E88B1F7
:101E7000892988B960E070E0C6010E94E40E2197CC
:101E8000E0F6DF91CF911F910F91FF90EF90DF90DF
:101E9000CF90BF90AF909F908F900895CF93DF9396
:101EA0001F92CDB7DEB7262F599A682F70E083E0D6
:101EB00090E029830E94E40E4598298140E064E087
:101EC00081E00E94FF0E459A0F90DF91CF91089517
:101ED000599A61E280E00E944E0F6091FC076068B1
:101EE00080E00E944E0F64E080E00E944E0F64E1AB
:101EF00080E00E944E0F6CE080E00E944E0F60E296
:101F000080E00E944E0F6CE080E00C944E0F8FE258
:101F10008093FC0710920008109201081092FD07B0
:101F20003D9A3B9A399A3C9A0C94680FCF93DF9371
:101F3000C8EFD1E060E081E00E944E0F219720972A
:101F4000C9F7DF91CF910895CF93C62F682F6068AE
:101F500080E00E944E0F6C2F606480E0CF910C9463
:101F60004E0FCF93C0E060E08C2F0E94A40F61E081
:101F700081E00E944E0FCF5FC435A9F7C0E065E055
:101F80008C2F0E94A40F60E881E00E944E0FCF5F6B
:101F9000C435A9F7C0E06C2F83E50E94A40F6FEF52
:101FA00081E00E944E0FCF5FC630A9F7C0E06C2FD2
:101FB00080E00E94A40F6FEF81E00E944E0FCF5F80
:101FC000C630A9F7CF910895EF92FF920F931F9318
:101FD000CF93DF937C018CE08E9D80018F9D100D4F
:101FE0001124C0E0D0E00F5E1D4F8FEFE816F10422
:101FF00029F0F801EC0FFD1FE49101C0E0E08091B1
:1020000000088111E09580910108813011F480E889
:1020100001C080E061E09091FD07913009F060E03F
:102020006E2B682B81E00E944E0F2196CC30D1059B
:10203000E1F661E080910008813009F060E061958F
:1020400080910108813011F480E801C080E091E0C6
:102050002091FD07213009F090E0692B682B81E089
:10206000DF91CF911F910F91FF90EF900C944E0F45
:102070000F931F93CF93DF9395E0899F80011124E5
:10208000C0E0D0E00B531E4FF801EC0FFD1FE491B0
:10209000809100088111E09580910108813011F450
:1020A00080E801C080E061E09091FD07913009F087
:1020B00060E06E2B682B81E00E944E0F2196C530A8
:1020C000D10511F761E080910008813009F060E0EE
:1020D000619580910108813011F480E801C080E0B1
:1020E00091E02091FD07213009F090E0692B682BE9
:1020F00081E0DF91CF911F910F910C944E0FCF9300
:10210000DF93EC018991882319F00E943810FACFEF
:10211000DF91CF910895CF93DF93CDB7DEB72A97A4
:102120000FB6F894DEBF0FBECDBF4AE0BE016F5FB1
:102130007F4F0E945419CE0101960E947F102A966B
:102140000FB6F894DEBF0FBECDBFDF91CF910895DB
:10215000CF93DF93CDB7DEB72A970FB6F894DEBFE3
:102160000FBECDBF2AE0AE014F5F5F4F0E945F19E7
:10217000CE0101960E947F102A960FB6F894DEBF1A
:102180000FBECDBFDF91CF910895CF93DF93FC01B8
:102190008491EF012196882321F00E943810FE01DE
:1021A000F7CFDF91CF91089581E0909100089111D0
:1021B00080E080930008089581E0909101089111DA
:1021C00080E080930108089581E09091FD079111CE
:1021D00080E08093FD070895519A549A559A50983B
:1021E00010923208089528E030E090E840E250E193
:1021F00060E3792F782319F05BB96BB902C01BB883
:102200004BB99695215031092115310591F71BB82D
:102210000895CF93DF931F92CDB7DEB780E18BB9DE
:10222000198280E020E330E19981983051F02BB998
:1022300099B1880F9170892B3BB999819F5F9983E0
:10224000F3CF0F90DF91CF91089582E38BB982E1B4
:102250008BB9089528E100002A95E9F70197D1F795
:1022600008950895DF92EF92FF920F931F93CF93FB
:10227000DF93082FC8E0D0E010E880E2F82E90E16C
:10228000E92E20E3D22E812F802339F0EBB881E0B4
:1022900090E00E942A11DBB806C01BB881E090E0F4
:1022A0000E942A11FBB816952197209761F781E0CB
:1022B00090E00E942A111BB8DF91CF911F910F91DE
:1022C000FF90EF90DF90089590913208911103C034
:1022D0000E94321102C00E94F31080E00895FF9224
:1022E0000F931F93CF93DF931F92CDB7DEB780E19B
:1022F0008BB981E090E00E942A11198210E030E34E
:10230000F32E00E18981883091F0FBB881E090E004
:102310000E942A1189B1110F8170182B0BB981E02D
:1023200090E00E942A1189818F5F8983EBCF812FF2
:102330000F90DF91CF911F910F91FF9008958091A1
:102340003208811102C00C946F110C94091182E3C0
:102350008BB981E090E00E942A1182E18BB981E083
:1023600090E00C942A1181E0809332080895109235
:10237000320808950E94091187FDFCCF08951F932C
:10238000CF93DF9300D000D0CDB7DEB7182F0090E9
:10239000340804C0440F551F661F771F0A94D2F7F4
:1023A0008FEF49835A836B837C830E94F310812FC4
:1023B00080640E94F3107C81872F0E94F3106B8150
:1023C000862F0E94F3105A81852F0E94F3104981B5
:1023D000842F0E94F31085E90E94F3108FEF0E9472
:1023E000F3100E94BA1180933F0881508E3FC8F3CA
:1023F0000F900F900F900F90DF91CF911F91089544
:10240000AB01BC0110923D0881E10E94BF110E9406
:102410000911809340088E3FD1F70895FF920F93E2
:102420001F93CF93DF9300D000D0CDB7DEB7082F36
:1024300080913C08811113C08FEE800F823040F0F4
:1024400088EE800F823020F080EE800F823038F4EA
:1024500089E0440F551F661F771F8A95D1F78FEFCC
:1024600049835A836B837C830E946411802F80642C
:102470000E9464117C81872F0E9464116B81862FDA
:102480000E9464115A81852F0E9464114981842F12
:102490000E946411083011F487E801C085E90E94A8
:1024A000641110E00E949F11F82E8FEFF81203C004
:1024B0001150C1F71EC0F1101CC00A33D1F40E94A4
:1024C0009F111092340886FF05C081E080933C087C
:1024D00082E006C010923C0889E08093340881E0D5
:1024E00080933E080E949F110E949F110E949F119D
:1024F000F12C0E949F118F2D0F900F900F900F9035
:10250000DF91CF911F910F91FF900895EF92FF926D
:102510000F931F93CF93DF9300D000D0CDB7DEB7DA
:10252000AB01BC018091360890913708A091380822
:10253000B0913908481759076A077B0709F444C066
:1025400040933608509337086093380870933908E1
:1025500059988FEF49835A836B837C830E9464115F
:102560008FEF0E94641149815A816B817C8181E1E6
:102570000E940E12811129C000E010E00E949F11FC
:102580008E3F41F00150110901151105B9F7599A13
:1025900080E01BC0E12CF12C00913A0810913B081F
:1025A0000E0D1F1D0E949F11F8018083FFEFEF1A8F
:1025B000FF0AE11482E0F80679F70E949F110E9459
:1025C0009F110E949F11599A81E00F900F900F90D8
:1025D0000F90DF91CF911F910F91FF90EF90089591
:1025E000CF93DF93AB01BC0188E10E940E128111F1
:1025F0003DC059988EEF0E946411C0E0D0E0E09198
:102600003A08F0913B08EC0FFD1F80810E94641195
:102610002196C11582E0D80791F78FEF0E946411CF
:102620008FEF0E9464110E949F11982F9F71953027
:1026300079F4C0E0D0E00E949F11811103C021967F
:10264000D1F706C0599A8FEF0E946411599808C0BB
:10265000599A0CC09E012F5F3F4F2196C9F3E901A3
:102660000E949F118823B1F3599A81E0DF91CF91A5
:102670000895AB01BC0180E10C940E12CF92DF9261
:10268000EF92FF921F93CF93DF931092330885E070
:10269000809335080E94EC100E94B7114B999AC0A4
:1026A00080E185B9599A8FE097E2A0E0B0E080938D
:1026B000360890933708A0933808B093390814E689
:1026C0000E94A7111150E1F759988FEF0E946411F1
:1026D0008FEF0E946411C0E0D8E040E050E0BA0102
:1026E00080E00E940E122197209731F415B8599A74
:1026F00081E0809333086FC0813079F78FEF0E94BB
:1027000064118FEF0E946411C1E0D2E04AEA51E007
:1027100060E070E088E00E940E128A3A49F481E09D
:1027200080933E08C12CD12CE12C90E4F92E0AC0F4
:102730008130A9F32197209749F710923E08C12CC8
:10274000D12C76018FEF0E9464118FEF0E946411EB
:10275000C1E0D2E040E050E0BA0187E30E940E12EF
:10276000B701A60189E20E940E122197209731F449
:1027700082E08093330815B8599A2DC08111EACFB1
:1027800010923C0889E08093340880913E088130A3
:1027900081F040E050E0BA018BE30E940E1260E04D
:1027A00072E080E090E00E94391315B8599A11E068
:1027B00012C0C5E6D0E08FEF0E94641140E050E007
:1027C000BA018AE30E940E122197209711F381111A
:1027D000F2CFDFCF10E0812FDF91CF911F91FF90DB
:1027E000EF90DF90CF90089580E185B9089515B8F6
:1027F00008950E9409114B9902C08F3FD1F70895A7
:102800004F925F926F927F928F929F92AF92BF9200
:10281000CF92DF92EF92FF921F93CF93DF9360E00E
:1028200070E0CB010E948612E0913A08F0913B08DB
:1028300080818D7F893E51F1DF01A250BE4F8D9185
:102840009C9185359A4A11F086E014C0E254FE4FFF
:1028500084818093450860857185828593850E9477
:102860008612E0913A08F0913B0880818D7F893E85
:1028700029F083E08093330880E0A9C08091450867
:102880008B3021F0863011F084E0F4CFC0913A080B
:10289000D0913B084385548550934F0840934E0890
:1028A00015851093540886859785C48CD58CE68C45
:1028B000F78CC80ED91EE11CF11CC0925008D092B2
:1028C0005108E0925208F092530860914508663032
:1028D00019F42689378902C02CA13DA1A089B0E056
:1028E0002A9FC0012B9F900D3A9F900D1124460105
:1028F0005701880E991EA11CB11C8092410890922C
:102900004208A0924308B09244084CA45DA46EA46F
:102910007FA46630B9F0A301920122503109410928
:102920005109A12FB0E00E941319680D791D8A1D6D
:102930009B1D6093460870934708809348089093C6
:10294000490826C00E9404194B015C018C0C9D1C97
:10295000AE1CBF1C8092460890924708A09248087F
:10296000B09249088189928935E0880F991F3A957C
:10297000E1F7BA010E94CE18860E971EA11CB11C69
:102980008092410890924208A0924308B092440875
:10299000812F90E020E031E0320F8130910521F06D
:1029A00096958795232FF7CF209355088091460859
:1029B00090914708A0914808B091490880934A082F
:1029C00090934B08A0934C08B0934D0881E0DF91A1
:1029D000CF911F91FF90EF90DF90CF90BF90AF907D
:1029E0009F908F907F906F905F904F9008954F923F
:1029F0005F926F927F928F929F92AF92BF92CF928F
:102A0000DF92EF92FF92CF9320914508263041F05C
:102A100088248A94982CA82C5FE0B52E22E006C06A
:102A200088248A94982CA12CB12C21E004C0660F34
:102A3000771F881F991F2A95D2F720914E08309151
:102A40004F0840E050E00E94E2182B013C01C0908A
:102A50005008D0905108E0905208F0905308C20EF0
:102A6000D31EE41EF51ECAE0C701B6010E948612FD
:102A7000882311F0C150C1F7E0913A08F0913B086A
:102A8000E40DF51D60817181828193816821792136
:102A90008A219B21CF91FF90EF90DF90CF90BF9044
:102AA000AF909F908F907F906F905F904F90089520
:102AB0004F925F926F927F928F929F92AF92BF924E
:102AC000CF92DF92EF92FF92CF9368EEC62E63E033
:102AD000D62EE12CF12CC701B6010E94F714611526
:102AE00071058105910591F030EAC31636E8D306E9
:102AF00031E0E306F10431F02FEFC21AD20AE20A04
:102B0000F20AE9CF60E070E0CB014EC040EAC416A3
:102B100046E8D40641E0E406F10409F445C080919A
:102B20004508863011F062E001C061E0A70196011E
:102B300004C0220F331F441F551F6A95D2F7CA01E4
:102B4000B90120914E0830914F0840E050E00E94BA
:102B5000E2182B013C018090500890905108A09001
:102B60005208B0905308820E931EA41EB51ECAE0F0
:102B7000C501B4010E948612882311F0C150C1F72B
:102B8000E0913A08F0913B08E40DF51D8FEF90E0DD
:102B9000A0E0B0E080839183A283B383C501B40138
:102BA0000E94F012C701B601CF91FF90EF90DF9025
:102BB000CF90BF90AF909F908F907F906F905F90DD
:102BC0004F9008958F929F92AF92BF92EF92FF9293
:102BD0000F931F93CF93DF937C01F5E0EE0CFF1C66
:102BE000FA95E1F7E701CD2FDD27C695209154082E
:102BF000622F70E0CE010E94CE188B0160914A08CE
:102C000070914B0880914C0890914D080115110569
:102C100009F44AC030914508363071F48090460876
:102C200090904708A0904808B09049086815790529
:102C30008A059B0509F454C0809041089090420891
:102C4000A0904308B0904408681979098A099B0943
:102C500030E040E050E00E94E218CA01B9016E5F26
:102C60007F4F8F4F9F4FA12CB12C0E94F7142FEF55
:102C7000A21AB20AA016B106C1F79B01AC012250FC
:102C8000310941095109A0915408B0E00E9413197B
:102C90008090410890904208A0904308B09044086A
:102CA000680D791D8A1D9B1D9E01322F2227330F2F
:102CB000E21AF30A40915408409F9001419F300D61
:102CC0001124C21BD30B6C0F7D1F811D911D0E940F
:102CD000861280913A0890913B088E0D9F1D02C08C
:102CE00080E090E0DF91CF911F910F91FF90EF90E6
:102CF000BF90AF909F908F9008950F931F93FC010A
:102D0000009789F48091460890914708A09148085F
:102D1000B091490880934A0890934B08A0934C08BF
:102D2000B0934D083FC09385892F807194FF3BC0BD
:102D300080914508428D538D8B3071F4848995893B
:102D4000A0E0B0E0DC019927882760E070E0842BE8
:102D5000952BA62BB72B03C0CA01A0E0B0E00097CB
:102D6000A105B10579F29C01AD012250310941095B
:102D70005109A0915408B0E00E9413190091410834
:102D8000109142082091430830914408600F711F50
:102D9000821F931F60934A0870934B0880934C08DE
:102DA00090934D0881E01F910F910895FC010097C9
:102DB00019F480E090E0089580818823D1F3853E66
:102DC000C1F38E3221F481818E3219F0F2CF853039
:102DD00081F383858E3169F38F3059F3883249F35B
:102DE000CF0108950E94E2150C94D6160000000051
:102DF0000000000000000000000000000000089536
:102E00000000000000000000209135082A95F1F72D
:102E10000895AF93AFB7AF93BF932F93A0912F08AF
:102E200020912E08A22BA8B9A4EBA6BD20E0E8DFD4
:102E3000A0912E08A8B9B0910308BB2341F02093BC
:102E40002F082F91BF91AF91AFBFAF911895A0E31D
:102E5000ABB9A9B1A170AA0F2A2FA0E1ABB9A0917B
:102E6000F207B091F3071196A093F207B093F3071E
:102E7000A03989F4BC3079F4A1E0A0930308CF9382
:102E8000C0E7A8E0B0E3BBB9B0E1BBB9AA95D1F700
:102E9000CA95B9F7CF9120932F082F91BF91AF9189
:102EA000AFBFAF9118952F932FB72F9330995BC079
:102EB0003F933091F90726B124702327E1F326B11F
:102EC00024702093F90728E02A95F1F700004F932A
:102ED0005F936F937F938F93EF93FF9360E0E09105
:102EE0000408F09105083DE541E00DC05091F90757
:102EF00076B174707527E1F376B174707093F90749
:102F00007EE07A95F1F727E081E079B17470D9F429
:102F1000000000007BE17A95F1F776B17470509172
:102F2000F9077093F907752776957695880F872BA3
:102F30002A9559F7853D09F461E06030B9F2819333
:102F40003150404099F69F93AF93BF930E94DD04A8
:102F5000BF91AF919F91FF91EF918F917F916F9171
:102F60005F914F913F912F912FBF2F91189581E045
:102F70000E9457028FEF80931801CBE80E946B0EDE
:102F8000309B03C00E94F713F9CF0E94F41383B162
:102F90008F7080930C0190910B01891761F18093E0
:102FA0000B01883049F0843009F4EFC0823009F415
:102FB000EEC0813001F5EDC082E020910208820F61
:102FC000982F97709695E92FF0E0E459FF4FE49120
:102FD00080FFE295EF708E2F887009F0E86F2E0F5A
:102FE000253C08F0D8C020930208809102088C3854
:102FF00010F0C093020880913008882309F4BECFF6
:1030000080910308882309F4B9CFF8943091F4072C
:103010003F5F3F703093F407209102082695269574
:103020002093310840E1249FC0011124830F911D9A
:103030009093FB078093FA070090550802C096957D
:1030400087950A94E2F790931A0180931901FC0185
:10305000EE0FFF1FEE0FFF1FEA5FF74F8081918198
:10306000A281B3818093F5079093F607A093F707A9
:10307000B093F807809118012817B9F02093180130
:1030800063E08CE00E94A40F82E791E00E94C510EB
:10309000809131088A3020F483E091E00E947F1013
:1030A0008091310890E00E948B108091F4079091FC
:1030B0000D01981306C02091130190913108291732
:1030C00041F190910E01981306C020911401909146
:1030D00031082917F1F090910F01981306C0209143
:1030E0001501909131082917A1F0909110019813C2
:1030F00006C02091160190913108291751F0909146
:103100001101981308C0909117018091310898130C
:1031100002C00E9477046091F5077091F6078091D4
:10312000F7079091F80762507109810991090090A1
:10313000550804C0660F771F881F991F0A94D2F79D
:1031400000914108109142082091430830914408B1
:10315000600F711F821F931F2091540830E021508F
:1031600031094091FA075091FB0724233523620F60
:10317000731F811D911D0E9400121092F30710927F
:10318000F207109203087894F9CE84E016CF86E017
:1031900014CF80E012CF1092020827CFAA1BBB1BCE
:1031A00051E107C0AA1FBB1FA617B70710F0A61B47
:1031B000B70B881F991F5A95A9F780959095BC0168
:1031C000CD010895A1E21A2EAA1BBB1BFD010DC063
:1031D000AA1FBB1FEE1FFF1FA217B307E407F507C7
:1031E00020F0A21BB30BE40BF50B661F771F881FA3
:1031F000991F1A9469F760957095809590959B0139
:10320000AC01BD01CF010895A29FB001B39FC001E1
:10321000A39F700D811D1124911DB29F700D811D02
:103220001124911D08950E940419A59F900DB49F2B
:10323000900DA49F800D911D11240895FB01DC01C8
:1032400005900D920020E1F70895FB01DC0141504B
:10325000504030F08D910590801919F40020B9F795
:10326000881B990B0895FB01DC0104C08D9101902E
:10327000801921F441505040C8F7881B990B0895DC
:10328000DC01FB014150504058F049F001900D9293
:103290000020C1F7E61BF70B3197CF0108951C9270
:1032A00001900020E9F7F6CFBB274A3031F499238B
:1032B00022F4BDE2909581959F4F0C949119BB2704
:1032C0002A3051F4992342F4BDE29095809570958F
:1032D00061957F4F8F4F9F4F0C946F19BB27FA0159
:1032E000A62F6217710581059105330B30FB66F03F
:1032F000AA27660F771F881F991FAA1FA21710F011
:10330000A21B63953850A9F7A05DAA3308F0A95D08
:10331000A19336F7B111B1931082CA010C94AA1986
:10332000BB27FB015527AA27880F991FAA1FA4179F
:1033300010F0A41B83955051B9F7A05DAA3308F093
:10334000A95DA193009779F7B111B1931192CB01C7
:103350000C94AA19DC01FC01672F71917723E1F726
:10336000329704C07C916D9370836291AE17BF0752
:08337000C8F30895F894FFCFA3
:06337800FFFFFE20000033
:00000001FF
