:100000000C94E9000C94A2150C9406010C940601C2
:100010000C9406010C9406010C9406010C94060144
:100020000C9406010C9406010C9406010C94060134
:100030000C9406010C9406010C9406010C94060124
:100040000C9458150C9406010C9406010C940601AE
:100050000C9406010C9406010C9406010C94060104
:100060000C9406010C94060120000FED032153446B
:1000700049534B494920434647004E6F2053442083
:10008000696E73657274656400464154313600468A
:100090004154333200547970653A2000436F6465EF
:1000A0003A2000534420426C6F636B204552524FFC
:1000B00052004D697373696E67204D4252202020B3
:1000C00000436C7573746572203C2033326B4200C0
:1000D0004E6F742046415431362F33322020004277
:1000E0006F6F7420736563746F7220202000534417
:1000F0002063616E277420696E6974200053442068
:1001000063616E27742069646C652000452052206D
:1001100052204F205200204E6F726D616C2053446C
:1001200020636172642000202020534448432063F0
:100130006172642020202000536F7274696E672002
:1001400066696C65732E2E2E00204E6F7468696E82
:10015000672068657265212020004275696C6469BA
:100160006E67206C6973742E2E2E0053656C656368
:1001700074204E494320696D6167650054523A20EE
:100180000053656C6563742064656C61793A202066
:100190000044656C61793A20002020202020202036
:1001A000202020202020202020004E49433A2000FB
:1001B00020204170706C65205D5B20425220202021
:1001C00000534449534B32204C434420762E352E65
:1001D000320011241FBECFEFD8E0DEBFCDBF11E04B
:1001E000A0E0B1E0E2E4F0E302C005900D92AA3095
:1001F000B107D9F726E0AAE0B1E001C01D92A83FFF
:10020000B207E1F70E9406160C941F180C94000028
:100210000E94D60E60E080E00E94DC0E8AE790E04B
:100220000E942C0F61E081E00E94DC0E89E991E0E0
:100230000E942C0F4B99FECF0895CF93C82F14B86E
:1002400017B81AB815B818B81BB8249A2C9A8AE3AC
:1002500087B982E38AB992E098B99BB9399A3B9AF7
:10026000419A17BC14BC21E025BD95BF909369004D
:10027000109298061092D2061092D1061092D006D3
:10028000109297061092960610929E062093A5064D
:100290001092A4061092150110921D012EE131E07A
:1002A0003093A7062093A60680E090E00E94F917FD
:1002B000823018F480939D0607C010929D0660E07E
:1002C00080E090E00E940118CC23E9F00E94920E99
:1002D0000E94D60E60E080E00E94DC0E81EC91E08E
:1002E0000E942C0F61E080E00E94DC0E80EB91E028
:1002F0000E942C0F2FED80E792E721508040904024
:10030000E1F700C00000CF910895FC01009779F05B
:100310008081882369F0853E51F080858E3439F4E0
:100320008185893421F481E09285933409F080E05D
:100330000895FC01009749F08081882339F0853EBB
:1003400021F0838582958170089580E00895CF9291
:10035000DF92EF92FF920F931F93CF93DF938FEF74
:100360009FEF90930101809300010E94A7136B01FE
:100370007C016115710581059105D9F180E090E05E
:100380000E94CC1400E010E0C8010E943114EC017E
:10039000009749F18881853E11F0811124C08B8539
:1003A0008F3009F110930101009300016EE670E0B7
:1003B000CE010E946D1781E08B87FD8AEC8ADB8E6F
:1003C000CA8E6091D8067091D9068091DA06909114
:1003D000DB06DF91CF911F910F91FF90EF90DF909F
:1003E000CF900C943F110F5F1F4F003981E0180729
:1003F00059F6DF91CF911F910F91FF90EF90DF9011
:10040000CF900895FF920F931F93CF93DF93D82F30
:10041000F62EC42FA62FB0E040E1C49FA00DB11D61
:100420001124FD010090F70602C0F695E7950A94A5
:10043000E2F7EE0FFF1FEE0FFF1FE855F94F0081A7
:1004400011812281338182E08BB91BB8E091F606DD
:10045000F0E03197EA23FB234091E3065091E40654
:100460006091E5067091E6064E0F5F1F611D711DDC
:1004700002501109210931090090F70604C0000F4C
:10048000111F221F331F0A94D2F7400F511F621F02
:10049000731F88E10E940E108FEF0E94420F8EEFB3
:1004A0000E94420F80EB90E030E120E33BB92BB992
:1004B00001970097D9F71BB883E00E94420F8CEF99
:1004C0000E94420F8FEF0E94420F8FE30E94420F63
:1004D0008FEC0E94420F83EF0E94420F8CEF0E942C
:1004E000420F8FEF0E94420F8FE30E94420F8FEC6A
:1004F0000E94420F83EF0E94420F8CEF0E94420F36
:1005000085ED0E94420F8AEA0E94420F86E90E940E
:10051000420F8FEF0E94420F8EEF0E94420F8C2FEE
:1005200086958A6A0E94420F8C2F8A6A0E94420F27
:100530008F2D86958A6A0E94420F8F2D8A6A0E94AB
:10054000420F1EEF1F251C27812F86958A6A0E9465
:10055000420F812F8A6A0E94420F8EED0E94420F45
:100560008AEA0E94420F8BEE0E94420F8FEF0E9498
:10057000420F8FEF0E94420F8FEF0E94420F8FEFCA
:100580000E94420F8FEF0E94420F8EE591E0D89FAC
:100590009001D99F300D1124225E3E4F80E090E003
:1005A00070E2A0E1B0E3F901E80FF91FE08148E053
:1005B00050E060E8F62FFE2319F0ABB9BBB902C0DA
:1005C0001BB87BB96695415051094115510591F70A
:1005D00001968D3541E0940731F71BB880E790E034
:1005E00030E120E33BB92BB901970097D9F71BB84D
:1005F00080E093E020E21BB82BB901970097D9F770
:100600001BB88FEF0E94420F8FEF0E94420F0E9493
:10061000580F0E94481282E08BB91BB8DF91CF912E
:100620001F910F91FF900895CF92DF92EF92FF926A
:100630000F931F93CF93DF934B9933C0E1E1F1E028
:1006400081918F3F51F1C6E1D1E090E2E92E91E036
:10065000F92E01E111E0D12CCC24CA94F80160817B
:100660006F3F21F048818D2D0E940202F801C19256
:100670008F01C992F7011082D394F2EAEF1AFEEFCC
:10068000FF0A84E0D812EACF109215018EE191E0C2
:100690009093A7068093A60604C081E0E531F80791
:1006A00079F6DF91CF911F910F91FF90EF90DF903E
:1006B000CF900895809196069091970680399C403E
:1006C000C0F480E18BB9809196069091970620E363
:1006D00030E1803140E1940730F44B990AC02BB9E6
:1006E0003BB90196F6CF80E99CE090939706809302
:1006F000960608954B996EC040911501842F90E0A5
:100700002EE531E0829FF001839FF00D929FF00D66
:100710001124E25EFE4F22812D3A09F042C0209161
:100720001D01211131C020919806FC01EF5EFE4FA2
:100730002083FC01EA5EFE4F3091A4063695369583
:100740003083822F8D7F8D3011F482E001C081E0F3
:10075000820F8F7080939806433029F40E945A03C9
:100760000E9414031BC04F5F409315012EE531E03A
:10077000429FC001439F900D1124825E9E4F909333
:10078000A7068093A6060DC080910E01809398065F
:1007900010921D018F3029F40E945A0381E080934A
:1007A000A506209115018EE591E0289FF001299F73
:1007B000F00D1124E25EFE4F8281863959F4878163
:1007C0008575880F90859575892B80930E0181E042
:1007D00080931D0108952EE131E080E090E0F90161
:1007E000E80FF91F108201968E3541E09407B9F7A2
:1007F000225A3E4F86E02639380779F78FEF8093EB
:100800001601809311018093170180931201809348
:1008100018018093130180931901809314010895A6
:10082000CF93C82F2FEF3FEF3093010120930001AA
:100830000E94061059984B9B03C00E9408014CC0AF
:100840002EE131E03093DD062093DC060E948D110D
:10085000811144C00E94D60E60E080E00E94DC0E50
:100860008CE091E00E942C0F61E080E00E94DC0EA1
:100870008091D506813019F48DEF90E004C082306C
:1008800029F48EEE90E00E942C0F22C0833019F4E0
:100890008FED90E0F8CF843019F480ED90E0F3CF45
:1008A000853019F481EC90E0EECF863019F482EBBC
:1008B00090E0E9CF873019F483EA90E0E4CF8CE947
:1008C00090E00E942C0F8091D50690E00E94F20EDD
:1008D0001092D2064B9BFECF80E0B0C0CC23D9F063
:1008E0000E94D60E60E080E00E94DC0E8091E0065F
:1008F000823019F487E291E002C086E191E00E9423
:100900002C0F59982FE38BE49CE4215080409040B9
:10091000E1F700C000000E944F12811143C00E9405
:10092000D60E60E080E00E94DC0E8CE091E00E9438
:100930002C0F61E080E00E94DC0E8091D5068130B2
:1009400019F48DEF90E004C0823029F48EEE90E02F
:100950000E942C0F22C0833019F48FED90E0F8CF65
:10096000843019F480ED90E0F3CF853019F481ECF8
:1009700090E0EECF863019F482EB90E0E9CF87303B
:1009800019F483EA90E0E4CF8CE990E00E942C0F08
:100990008091D50690E00E94F20E1092D2064B9BF9
:1009A000FECF9ACF8091F6064091F0065091F10665
:1009B000849F9001859F300D112421153047D0F47C
:1009C00085E08093D5060E94D60E60E080E00E940C
:1009D000DC0E8CE091E00E942C0F61E080E00E9430
:1009E000DC0E81EC90E00E942C0F1092D2064B9B03
:1009F000FECF72CFCC23E1F061E080E00E94DC0EFC
:100A000085E990E00E942C0F8091E7068B3019F465
:100A10008FE890E002C089E890E00E942C0F9FE3ED
:100A20002BE48CE4915020408040E1F700C00000AE
:100A300059980E94EB030E94021081E0CF91089523
:100A40008F929F92AF92BF92CF92DF92EF92FF92DE
:100A50000F931F93CF93DF93EC017B016115710519
:100A600019F480E090E048C160E080E00E94DC0E74
:100A70008AEA91E00E942C0F670100E010E0F60185
:100A800081916F01803211F00E94E40E0F5F1F4FC1
:100A900008301105A1F789E991E00E942C0F61E06F
:100AA00080E00E94DC0E89E991E00E942C0F61E059
:100AB00080E00E94DC0E81E991E00E942C0F809181
:100AC000D70690E00E94F20ED0930B01C0930A016A
:100AD0008091E706F701028D138D8B3071F46489E4
:100AE0007589CB01A0E0B0E07727662720E030E0F1
:100AF000602B712B822B932B03C0B80180E090E018
:100B0000611571058105910509F4ABCFE8EAF6E0BE
:100B1000119211921192119226E0E03DF207C1F775
:100B20006093A8067093A9068093AA069093AB06DB
:100B300011E0663FFFEF7F0781059105A8F40E9451
:100B40004613663FEFEF7E078105910558F424E0D8
:100B5000129FF0011124E855F94F6083718382835D
:100B600093831F5F1A3028F3C090EC06D090ED06F7
:100B7000E090EE06F090EF06809100019091010167
:100B8000019609F48AC080E090E00E94CC148FEFB7
:100B90009FEFDC018093D8069093D906A093DA06E4
:100BA000B093DB0680910001909101010E944115F4
:100BB0002091E706FC01428D538D2B3071F484891E
:100BC0009589A0E0B0E0DC019927882760E070E01B
:100BD000842B952BA62BB72B03C0CA01A0E0B0E055
:100BE0004C015D01F2E08F1A9108A108B108A091B3
:100BF000F606B0E0A50194010E9462170091E30699
:100C00001091E4062091E5063091E606600F711F11
:100C1000821F931F0E94D510E091DC06F091DD0643
:100C20008DEC92E0ABEAB1E080839183A283B38341
:100C30004581568167817085818592854C155D055A
:100C40006E057F0519F48C179D0731F04387548793
:100C500065877687908B8787C582D682E782F08604
:100C6000D287C1878091D70684838091A106818B2A
:100C7000A091F606B0E0A50194010E946217809051
:100C8000E3069090E406A090E506B090E606680DB5
:100C9000791D8A1D9B1D0E943F11C092EC06D092C7
:100CA000ED06E092EE06F092EF0610929706109293
:100CB00096061092D10610929E06C1E0C093A5063A
:100CC0001092A406109298061092150110921D0120
:100CD0008EE191E09093A7068093A606599840E094
:100CE00052E060E070E080E10E945D100E94EB0342
:100CF000C093D20681E090E0DF91CF911F910F91D8
:100D0000FF90EF90DF90CF90BF90AF909F908F902B
:100D10000895CF92DF92EF92FF920F931F93CF939C
:100D2000DF93C090EC06D090ED06E090EE06F090D8
:100D3000EF068091000190910101019609F477C0BE
:100D400080E090E00E94CC148FEF9FEFDC01809355
:100D5000D8069093D906A093DA06B093DB0680916B
:100D60000001909101010E9441152091E706FC01CC
:100D7000428D538D2B3071F484899589A0E0B0E0C9
:100D8000DC019927882760E070E0842B952BA62B47
:100D9000B72B03C0CA01A0E0B0E09C01AD01225016
:100DA000310941095109A091F606B0E00E9462178D
:100DB0000091E3061091E4062091E5063091E606E5
:100DC000600F711F821F931F0E94D510E091DC06F7
:100DD000F091DD068FEF9FEFDC018093D8069093B2
:100DE000D906A093DA06B093DB0683859485A585A2
:100DF000B6858093EC069093ED06A093EE06B09333
:100E0000EF0607851089C8010E944115EC010E9478
:100E10008501882361F0BE01C801DF91CF911F9148
:100E20000F91FF90EF90DF90CF900C942005C0922F
:100E3000EC06D092ED06E092EE06F092EF06DF911E
:100E4000CF911F910F91FF90EF90DF90CF90089579
:100E50005E9A2D9A5F9A08957F928F929F92AF9299
:100E6000BF92CF92DF92EF92FF920F931F93CF9397
:100E7000DF930E94D60E60E080E00E94DC0E81E8E5
:100E800091E00E942C0F61E080E00E94DC0E81E97D
:100E900091E00E942C0F8091D70690E00E94F20E04
:100EA0009090D706A92CBB24B39477247394DAE0EE
:100EB0008D2E0E9428078091D7068A1599F061E04F
:100EC00080E00E94DC0E81E991E00E942C0F80916D
:100ED000D70690E00E94F20E88E690E00E942C0F68
:100EE000A090D7064B996DC189B120919D0641E034
:100EF00050E0222311F040E050E093B161E070E057
:100F0000213011F060E070E09295969597709B25E6
:100F10009170C92F20E0D22FC69F9001C79F300D3E
:100F2000D69F300D1124992787FD90958095909537
:100F30008827990F881F9927849FF001859FF00DBE
:100F4000949FF00D11242E2B3F2B232BB1F189B14F
:100F500093B19295969597709B25092F017010E09B
:100F6000069F9001079F300D169F300D1124992781
:100F700087FD9095809590958827990F881F9927D0
:100F8000849FF001859FF00D949FF00D11242E2B6E
:100F90003F2B232BE1F68FE392E4EFE0815090406A
:100FA000E040E1F700C000008091D70681508093B7
:100FB000D706811102C08092D706E3B190919D06B9
:100FC00021E030E0992311F020E030E089B141E0E8
:100FD00050E0913011F040E050E0992787FD909566
:100FE000809590958827990F881F9927849FB00135
:100FF000859F700D949F700D11248E2F829586957C
:1010000087708B2580FBEE24E0F8F12CE29EC00176
:10101000E39E900DF29E900D1124682B792B672B87
:10102000B9F1E3B189B1992787FD909580959095A5
:101030008827990F881F9927849FB001859F700D7D
:10104000949F700D1124E295E695E770EB25E0FB87
:10105000CC24C0F8D12CC29EC001C39E900DD29E5C
:10106000900D1124682B792B672BD9F6FFE322E42E
:101070008FE0F15020408040E1F700C000008091F7
:10108000D7068F5F8093D7068B3010F07092D7060B
:101090004E990FCF4E9BFECF9FE3E2E4FFE09150CD
:1010A000E040F040E1F700C000008091D7068915CC
:1010B00009F487C08091000190910101019609F423
:1010C00080C080E090E00E94CC148EE191E090938B
:1010D000DD068093DC060E94EB031092D806109286
:1010E000D9061092DA061092DB06809100019091E9
:1010F00001010E9441152091E706FC01428D538DAC
:101100002B3071F484899589A0E0B0E0DC01992747
:10111000882760E070E0842B952BA62BB72B03C0AB
:10112000CA01A0E0B0E06C017D01F2E0CF1AD10865
:10113000E108F108A091F606B0E0A70196010E942F
:1011400062170091E3061091E4062091E5063091C4
:10115000E606600F711F821F931F0E94D510E09159
:10116000DC06F091DD0680819181A281B3818D3C06
:101170009240AB4AB14029F58091D7068483A09173
:10118000F606B0E0A70196010E9462170091E306FF
:101190001091E4062091E5063091E606600F711F7C
:1011A000821F931FDF91CF911F910F91FF90EF90BE
:1011B000DF90CF90BF90AF909F908F907F900C94D6
:1011C0003F11DF91CF911F910F91FF90EF90DF9032
:1011D000CF90BF90AF909F908F907F9008953F9257
:1011E0004F925F926F927F928F929F92AF92BF9237
:1011F000CF92DF92EF92FF920F931F93CF93DF93E3
:10120000CDB7DEB72A970FB6F894DEBF0FBECDBFBD
:1012100010920D0110920C018EE191E09093DD0689
:101220008093DC068AED93E09093A3068093A20658
:101230008FEF9FEFDC018093D8069093D906A0939F
:10124000DA06B093DB060E94EB0360E080E00E94C8
:10125000DC0E8BE691E00E942C0F61E080E00E94A2
:10126000DC0E8AE591E00E942C0F00E010E0C8013E
:101270000E9441155C01009799F0FC018081811169
:101280000FC080910C0190910D01892BC9F561E08F
:1012900080E00E94DC0E89E491E00E942C0F0AC2DB
:1012A000C5010E948501811105C0C5010E949901F7
:1012B0008823B9F080910C0190910D01880F991F3E
:1012C000E091A206F091A306E80FF91F11830083B5
:1012D00080910C0190910D01019690930D018093E6
:1012E0000C010F5F1F4F80910C0190910D01883C04
:1012F00091053CF60039F1E01F0709F0B8CFC1CFE6
:1013000061E080E00E94DC0E88E391E00E942C0FF7
:1013100080910C0190910D0102978CF420910C01A9
:1013200030910D0140910A0150910B01E091A2060C
:10133000F091A30600E010E080E090E063C0812C13
:10134000912C80910C0190910D01019788169906BE
:101350002CF700E010E0AA24A394B12C80910C019A
:1013600090910D0188199909A816B9060CF03FC093
:101370003501660C771CE091A206F091A306E60DFC
:10138000F71D808191810E94411548E050E0BC0129
:10139000CE0101960E948F17E091A206F091A3065C
:1013A000E00FF11F808191810E94411548E050E0DB
:1013B000BC01CE0101960E94821797FF12C0E091F6
:1013C000A206F091A306DF01A60DB71D8D919C9199
:1013D0001197E00FF11F208131812D933C93918370
:1013E00080832FEFA21AB20A0E5F1F4FB7CF8FEF85
:1013F000881A980AA6CF619171914617570709F488
:101400008C01019682179307B4F3AA24AA94BA2CEC
:10141000992493940E9428074B994CC189B120913B
:101420009D0641E050E0222311F040E050E093B1EE
:1014300061E070E0213011F060E070E092959695E7
:1014400097709925917099871A86E985FA85E69FA4
:101450009001E79F300DF69F300D1124992787FDED
:101460009095809590958827990F881F9927849F3C
:10147000F001859FF00D949FF00D11242E2B3F2B32
:10148000232BC9F189B193B19295969597709925BF
:1014900090FB442440F8512C469E9001479E300D0D
:1014A000569E300D1124992787FD90958095909533
:1014B0008827990F881F9927849FF001859FF00D39
:1014C000949FF00D11242E2B3F2B232BD9F6FFE3F5
:1014D00022E48FE0F15020408040E1F700C000009E
:1014E0000F5F1F4F80910C0190910D010817190794
:1014F00011F400E010E0E3B190919D0621E030E0AE
:10150000992311F020E030E089B141E050E09130C2
:1015100011F040E050E0992787FD909580959095D7
:101520008827990F881F9927849FB001859F700D88
:10153000949F700D11248E2F829586958770892532
:1015400080FBEE24E0F8F12CE29EC001E39E900DBA
:10155000F29E900D1124682B792B672BC1F1E3B11A
:1015600089B1992787FD9095809590958827990F47
:10157000881F9927849FB001859F700D949F700DDF
:101580001124E295E695E770E925E0FBCC24C0F84C
:10159000D12CC29EC001C39E900DD29E900D1124ED
:1015A000682B792B672BD9F69FE3E2E4FFE091509B
:1015B000E040F040E1F700C000000150110917FFC2
:1015C00006C000910C0110910D01015011094E99B6
:1015D0002EC04E9BFECF2FE382E49FE0215080403F
:1015E0009040E1F700C00000000F111FE091A2063B
:1015F000F091A306E00FF11F808191810E944115B7
:101600007C010E949901882331F0C7010E94CC140B
:101610000E94EF084FC0E091A206F091A306E00FF0
:10162000F11FB701808191810E94200543C00A15F6
:101630001B0509F4EFCEE091A206F091A306C801C4
:10164000880F991FE80FF91F808191810E94411531
:10165000382E892E61E080E00E94DC0E832D982DCB
:101660000E949901882321F083E091E00E94E60E18
:10167000A32CB82C612C712CF50181915F01803273
:1016800011F00E94E40EFFEF6F1A7F0A28E0621645
:10169000710491F7832D982D0E949901882321F0E0
:1016A00085E091E00E94E60E89E991E00E942C0F0E
:1016B0005801B0CE2A960FB6F894DEBF0FBECDBF4C
:1016C000DF91CF911F910F91FF90EF90DF90CF901E
:1016D000BF90AF909F908F907F906F905F904F9052
:1016E0003F900895CF92DF92EF92FF920F931F9356
:1016F000CF93DF938EE191E09093DD068093DC063B
:101700008FEF9FEFDC018093D8069093D906A093CA
:10171000DA06B093DB0680E090E00E94CC148FEFF5
:101720009FEF9093010180930001CFEFDFEF00E086
:1017300010E0C8010E9441157C01009709F483C0A4
:10174000FC018081882309F485C0C7010E948501BE
:10175000882329F0CF3FFFEFDF0709F4E8014BE0D2
:1017600050E06EE670E0C7010E947417892B09F003
:101770006AC010930101009300012091E706F70170
:10178000828D938D2B3071F44489558960E070E02F
:10179000BA0155274427A0E0B0E0482B592B6A2B0B
:1017A0007B2B03C0AC0160E070E09A01AB012250DA
:1017B000310941095109A091F606B0E00E94621773
:1017C000C090E306D090E406E090E506F090E606CF
:1017D0006C0D7D1D8E1D9F1D0E94D510E091DC06B5
:1017E000F091DD0680819181A281B3818D3C924090
:1017F000AB4AB14001F584818093D70685819681FB
:10180000A781B0858093EC069093ED06A093EE0639
:10181000B093EF06E184F284C7010E94411500975E
:1018200031F00E948501882311F0E70113C080E0A8
:1018300090E00E94CC1480E090E00E94CC14CF3F56
:101840008FEFD807E1F40F5F1F4F0039E1E01E076B
:1018500009F06FCFCF3FFFEFDF0789F4F8940E94C4
:10186000EF084B991BC08091D206882331F08091FC
:101870006E00816080936E00E89A78940FC0CE016C
:101880000E944115BC01CE01DF91CF911F910F91B4
:10189000FF90EF90DF90CF900C942005DF91CF91D7
:1018A0001F910F91FF90EF90DF90CF9008954F928E
:1018B0005F926F927F928F929F92AF92BF92CF92E0
:1018C000DF92EF92FF920F931F93CF93DF930E94CB
:1018D00028074B9B23C08FEF90E04B9BC3C1019720
:1018E0000097D9F780916E008E7F80936E00E89804
:1018F0001092D2061092A506DF91CF911F910F9101
:10190000FF90EF90DF90CF90BF90AF909F908F901F
:101910007F906F905F904F900C940801309B85C131
:101920004E9B5AC089B160919D0621E030E066234C
:1019300011F020E030E093B141E050E0613011F06F
:1019400040E050E0929596959770A1E09A2790FB21
:10195000882480F8912C849EB001859E700D949E01
:10196000700D1124992787FD909580959095882773
:10197000990F881F9927829FF001839FF00D929FF6
:10198000F00D11246E2B7F2B672B31F5E3B189B15C
:10199000992787FD9095809590958827990F881FA6
:1019A0009927849FB001859F700D949F700D11241D
:1019B000E295E695E770EA27E0FBAA24A0F8B12CAF
:1019C000A29EC001A39E900DB29E900D1124682B83
:1019D000792B672B09F429C14E9911C084E690E058
:1019E00021E04E9920E001970097D9F7222309F4CE
:1019F00039C14E9BFECFF8940E94EF0813C149B144
:101A000060919D0681E090E0662311F080E090E017
:101A100053B121E030E0613011F020E030E0529528
:101A200056955770A1E05A2750FBCC24C0F8D12C12
:101A3000C29EB001C39E700DD29E700D1124552719
:101A400047FD5095409550954427550F441F552705
:101A5000489FF001499FF00D589FF00D11246E2B07
:101A60007F2B672B09F45DC064E670E0C1E0D1E034
:101A700049B153B15295569557705D2750FBEE24EE
:101A8000E0F8F12CE29EF001E39EF00DF29EF00DE5
:101A90001124552747FD5095409550954427550FE3
:101AA000441F5527489FD001499FB00D589FB00D46
:101AB0001124EA2BFB2BEF2B09F4C0E061507109D4
:101AC00061157105A9F6CC2309F4CCC0A1E049B198
:101AD00053B15295569557705A27052F017010E053
:101AE000029FB001039F700D129F700D11245527A6
:101AF00047FD5095409550954427550F441F552755
:101B0000489FF001499FF00D589FF00D11246E2B56
:101B10007F2B672BE1F6F8940E942C074B99A2C00B
:101B200094C0E3B149B1552747FD50954095509574
:101B30004427550F441F5527429FB001439F700D06
:101B4000529F700D1124E295E695E770EA27E17047
:101B5000CE2F40E0D42FC89FA001C99F500DD89F21
:101B6000500D1124642B752B672B09F47BC064E6A0
:101B700070E0B1E0C1E0A3B149B1552747FD5095F0
:101B8000409550954427550F441F5527429FF0011B
:101B9000439FF00D529FF00D1124A295A695A770BA
:101BA000AC27A0FB662460F8712C689EA001699E9A
:101BB000500D789E500D1124E42BF52BEF2B09F4DA
:101BC000B0E06150710961157105A9F6BB2309F4F4
:101BD00049C0F1E0E3B149B1552747FD5095409523
:101BE00050954427550F441F5527429FB001439FEE
:101BF000700D529F700D1124E295E695E770EF2766
:101C0000E0FB442440F8512C489EA001499E500D11
:101C1000589E500D1124642B752B672BD9F6F89420
:101C20000E9489064B9B13C01DC08091D206811172
:101C300019C08FEF90E04B9915C001970097D9F725
:101C4000F89481E00E94100481110E94720B80912F
:101C5000D206882331F080916E00816080936E00FF
:101C6000E89A7894DF91CF911F910F91FF90EF90B8
:101C7000DF90CF90BF90AF909F908F907F906F90AC
:101C80005F904F900895459880FF02C0419A01C02F
:101C9000419881FF02C0439A01C0439882FF02C06D
:101CA0005C9A01C05C9883FF02C05D9A01C05D9898
:101CB000459A88E08A95F1F70000459888E08A9572
:101CC000F1F700000895CF93C82F599A4498829550
:101CD0008F700E94430E8C2F8F700E94430ECC7F1A
:101CE00029F086E791E00197F1F704C080E899E2D6
:101CF0000197F1F700C00000CF910895CF93C82F4E
:101D0000599A449A82958F700E94430E8C2F8F703F
:101D10000E94430E80E792E00197F1F700C00000B7
:101D2000CF91089544982FE880ED93E021508040B2
:101D30009040E1F700C0000083E00E94430E81E183
:101D40009AE70197F1F700C0000083E00E94430E7C
:101D500081E19AE70197F1F700C0000083E00E945B
:101D6000430E81E19AE70197F1F700C0000082E09D
:101D70000E94430E81E19AE70197F1F700C000004D
:101D800088E20E94630E88E00E94630E81E00E9458
:101D9000630E82E00E94630E86E00E94630E8CE078
:101DA0000E94630E8AEA8093A106089581E00E9452
:101DB000630E82E00C94630E8F7060FD02C0805849
:101DC00001C080540C94630E0C947E0ECF93DF936D
:101DD000EC018991882319F00E947E0EFACFDF91E1
:101DE000CF910895CF93DF93CDB7DEB72A970FB683
:101DF000F894DEBF0FBECDBF4AE0BE016F5F7F4FDC
:101E00000E94A317CE0101960E94E60E2A960FB6F5
:101E1000F894DEBF0FBECDBFDF91CF910895CF9371
:101E2000DF93CDB7DEB72A970FB6F894DEBF0FBEAB
:101E3000CDBF2AE0AE014F5F5F4F0E94AE17CE01CB
:101E400001960E94E60E2A960FB6F894DEBF0FBEEA
:101E5000CDBFDF91CF910895CF93DF93FC018491A3
:101E6000EF012196882321F00E947E0EFE01F7CF1C
:101E7000DF91CF910895519A549A559A50981092A3
:101E8000D406089528E030E090E840E250E160E3B5
:101E9000792F782319F05BB96BB902C01BB84BB925
:101EA0009695215031092115310591F71BB80895F8
:101EB000CF93DF931F92CDB7DEB780E18BB9198244
:101EC00080E020E330E19981983051F02BB999B14D
:101ED000880F9170892B3BB999819F5F9983F3CFCC
:101EE0000F90DF91CF91089582E38BB982E18BB996
:101EF000089528E100002A95E9F70197D1F70895A0
:101F00000895DF92EF92FF920F931F93CF93DF9389
:101F1000082FC8E0D0E010E880E2F82E90E1E92E2A
:101F200020E3D22E812F802339F0EBB881E090E0BE
:101F30000E94790FDBB806C01BB881E090E00E94D8
:101F4000790FFBB816952197209761F781E090E013
:101F50000E94790F1BB8DF91CF911F910F91FF90D5
:101F6000EF90DF9008959091D406911103C00E94E4
:101F7000810F02C00E94420F80E00895FF920F93EC
:101F80001F93CF93DF931F92CDB7DEB780E18BB95C
:101F900081E090E00E94790F198210E030E3F32E87
:101FA00000E18981883091F0FBB881E090E00E94E7
:101FB000790F89B1110F8170182B0BB981E090E076
:101FC0000E94790F89818F5F8983EBCF812F0F90DA
:101FD000DF91CF911F910F91FF9008958091D406CA
:101FE000811102C00C94BE0F0C94580F82E38BB980
:101FF00081E090E00E94790F82E18BB981E090E06E
:102000000C94790F81E08093D40608951092D40641
:1020100008950E94580F87FDFCCF08951F93CF931A
:10202000DF9300D000D0CDB7DEB7182F0090D606D2
:1020300004C0440F551F661F771F0A94D2F78FEF15
:1020400049835A836B837C830E94420F812F806473
:102050000E94420F7C81872F0E94420F6B81862F46
:102060000E94420F5A81852F0E94420F4981842F7E
:102070000E94420F85E90E94420F8FEF0E94420F9B
:102080000E9409108093E10681508E3FC8F30F90A3
:102090000F900F900F90DF91CF911F910895AB019A
:1020A000BC011092DF0681E10E940E100E94580FC1
:1020B0008093E2068E3FD1F70895FF920F931F930E
:1020C000CF93DF9300D000D0CDB7DEB7082F80913B
:1020D000DE06811113C08FEE800F823040F088EE53
:1020E000800F823020F080EE800F823038F489E05B
:1020F000440F551F661F771F8A95D1F78FEF4983CD
:102100005A836B837C830E94B30F802F80640E946C
:10211000B30F7C81872F0E94B30F6B81862F0E94A3
:10212000B30F5A81852F0E94B30F4981842F0E94DB
:10213000B30F083011F487E801C085E90E94B30F9E
:1021400010E00E94EE0FF82E8FEFF81203C011502E
:10215000C1F71EC0F1101CC00A33D1F40E94EE0F6B
:102160001092D60686FF05C081E08093DE0682E0ED
:1021700006C01092DE0689E08093D60681E0809347
:10218000E0060E94EE0F0E94EE0F0E94EE0FF12C6F
:102190000E94EE0F8F2D0F900F900F900F90DF91F8
:1021A000CF911F910F91FF900895EF92FF920F939F
:1021B0001F93CF93DF9300D000D0CDB7DEB7AB0134
:1021C000BC018091D8069091D906A091DA06B09111
:1021D000DB06481759076A077B0709F444C0409398
:1021E000D8065093D9066093DA067093DB065998A7
:1021F0008FEF49835A836B837C830E94B30F8FEFE9
:102200000E94B30F49815A816B817C8181E10E94D8
:102210005D10811129C000E010E00E94EE0F8E3F9A
:1022200041F00150110901151105B9F7599A80E0E3
:102230001BC0E12CF12C0091DC061091DD060E0D87
:102240001F1D0E94EE0FF8018083FFEFEF1AFF0AB7
:10225000E11482E0F80679F70E94EE0F0E94EE0F7B
:102260000E94EE0F599A81E00F900F900F900F90FF
:10227000DF91CF911F910F91FF90EF900895CF9331
:10228000DF93AB01BC0188E10E945D1081113DC06C
:1022900059988EEF0E94B30FC0E0D0E0E091DC06C9
:1022A000F091DD06EC0FFD1F80810E94B30F219697
:1022B000C11582E0D80791F78FEF0E94B30F8FEF1F
:1022C0000E94B30F0E94EE0F982F9F71953079F402
:1022D000C0E0D0E00E94EE0F811103C02196D1F73B
:1022E00006C0599A8FEF0E94B30F599808C0599AA7
:1022F0000CC09E012F5F3F4F2196C9F3E9010E9458
:10230000EE0F8823B1F3599A81E0DF91CF910895C0
:10231000AB01BC0180E10C945D10CF92DF92EF9293
:10232000FF921F93CF93DF931092D50685E08093A1
:10233000D7060E943B0F0E9406104B999AC080E17D
:1023400085B9599A8FE097E2A0E0B0E08093D80673
:102350009093D906A093DA06B093DB06C4E60E94F8
:10236000F60FC150E1F759981CE08FEF0E94B30FB0
:102370001150D9F7C0E0D8E040E050E0BA0180E069
:102380000E945D102197209731F415B8599A81E089
:102390008093D5066FC0813079F7CCE08FEF0E9433
:1023A000B30FC150D9F7C1E0D2E04AEA51E060E092
:1023B00070E088E00E945D108A3A49F481E08093E1
:1023C000E006C12CD12CE12C90E4F92E0AC081301A
:1023D000A9F32197209749F71092E006C12CD12C40
:1023E00076011CE08FEF0E94B30F1150D9F7C1E0C6
:1023F000D2E040E050E0BA0187E30E945D10B701EF
:10240000A60189E20E945D102197209731F482E0B5
:102410008093D50615B8599A2DC08111EACF109234
:10242000DE0689E08093D6068091E006813081F057
:1024300040E050E0BA018BE30E945D1060E072E082
:1024400080E090E00E94881115B8599A11E012C0FE
:10245000C5E6D0E08FEF0E94B30F40E050E0BA0134
:102460008AE30E945D102197209711F38111F2CF2A
:10247000DFCF10E0812FDF91CF911F91FF90EF9080
:10248000DF90CF90089580E185B9089515B808953B
:102490000E94580F4B9902C08F3FD1F708954F9279
:1024A0005F926F927F928F929F92AF92BF92CF92E4
:1024B000DF92EF92FF921F93CF93DF9360E070E083
:1024C000CB010E94D510E091DC06F091DD06808101
:1024D0008D7F893E51F1DF01A250BE4F8D919C91BD
:1024E00085359A4A11F086E014C0E254FE4F84818B
:1024F0008093E70660857185828593850E94D5105B
:10250000E091DC06F091DD0680818D7F893E29F027
:1025100083E08093D50680E0A9C08091E7068B30E8
:1025200021F0863011F084E0F4CFC091DC06D09128
:10253000DD06438554855093F1064093F0061585DA
:102540001093F60686859785C48CD58CE68CF78C1F
:10255000C80ED91EE11CF11CC092F206D092F306FF
:10256000E092F406F092F5066091E706663019F401
:102570002689378902C02CA13DA1A089B0E02A9FFD
:10258000C0012B9F900D3A9F900D112446015701D9
:10259000880E991EA11CB11C8092E3069092E4065D
:1025A000A092E506B092E6064CA45DA46EA47FA4BA
:1025B0006630B9F0A3019201225031094109510955
:1025C000A12FB0E00E946217680D791D8A1D9B1D26
:1025D0006093E8067093E9068093EA069093EB0611
:1025E00026C00E9453174B015C018C0C9D1CAE1C35
:1025F000BF1C8092E8069092E906A092EA06B0928B
:10260000EB068189928935E0880F991F3A95E1F7A9
:10261000BA010E941D17860E971EA11CB11C809244
:10262000E3069092E406A092E506B092E606812FBA
:1026300090E020E031E0320F8130910521F0969555
:102640008795232FF7CF2093F7068091E806909186
:10265000E906A091EA06B091EB068093EC06909310
:10266000ED06A093EE06B093EF0681E0DF91CF91E7
:102670001F91FF90EF90DF90CF90BF90AF909F9011
:102680008F907F906F905F904F9008954F925F92E0
:102690006F927F928F929F92AF92BF92CF92DF9272
:1026A000EF92FF92CF932091E706263041F08824E5
:1026B0008A94982CA82C5FE0B52E22E006C08824CE
:1026C0008A94982CA12CB12C21E004C0660F771FAE
:1026D000881F991F2A95D2F72091F0063091F106B4
:1026E00040E050E00E9431172B013C01C090F206FF
:1026F000D090F306E090F406F090F506C20ED31EDB
:10270000E41EF51ECAE0C701B6010E94D510882359
:1027100011F0C150C1F7E091DC06F091DD06E40D47
:10272000F51D6081718182819381682179218A21DF
:102730009B21CF91FF90EF90DF90CF90BF90AF9013
:102740009F908F907F906F905F904F9008954F92E1
:102750005F926F927F928F929F92AF92BF92CF9231
:10276000DF92EF92FF92CF9368EEC62E63E0D62EF3
:10277000E12CF12CC701B6010E94461361157105C9
:102780008105910591F030EAC31636E8D30631E0B1
:10279000E306F10431F02FEFC21AD20AE20AF20A7C
:1027A000E9CF60E070E0CB014EC040EAC41646E8D5
:1027B000D40641E0E406F10409F445C08091E7063F
:1027C000863011F062E001C061E0A701960104C00B
:1027D000220F331F441F551F6A95D2F7CA01B90152
:1027E0002091F0063091F10640E050E00E94311750
:1027F0002B013C018090F2069090F306A090F40625
:10280000B090F506820E931EA41EB51ECAE0C50147
:10281000B4010E94D510882311F0C150C1F7E09196
:10282000DC06F091DD06E40DF51D8FEF90E0A0E0F1
:10283000B0E080839183A283B383C501B4010E9479
:102840003F11C701B601CF91FF90EF90DF90CF907D
:10285000BF90AF909F908F907F906F905F904F90C0
:1028600008958F929F92AF92BF92EF92FF920F9333
:102870001F93CF93DF937C01F5E0EE0CFF1CFA95DC
:10288000E1F7E701CD2FDD27C6952091F606622FEF
:1028900070E0CE010E941D178B016091EC067091D3
:1028A000ED068091EE069091EF060115110509F4F1
:1028B0004AC03091E706363071F48090E806909077
:1028C000E906A090EA06B090EB06681579058A053E
:1028D0009B0509F454C08090E3069090E406A09014
:1028E000E506B090E606681979098A099B0930E087
:1028F00040E050E00E943117CA01B9016E5F7F4F7E
:102900008F4F9F4FA12CB12C0E9446132FEFA21A7C
:10291000B20AA016B106C1F79B01AC0122503109E1
:1029200041095109A091F606B0E00E94621780901B
:10293000E3069090E406A090E506B090E606680DE8
:10294000791D8A1D9B1D9E01322F2227330FE21A0B
:10295000F30A4091F606409F9001419F300D1124EB
:10296000C21BD30B6C0F7D1F811D911D0E94D510C2
:102970008091DC069091DD068E0D9F1D02C080E0E7
:1029800090E0DF91CF911F910F91FF90EF90BF905A
:10299000AF909F908F9008950F931F93FC01009725
:1029A00089F48091E8069091E906A091EA06B09139
:1029B000EB068093EC069093ED06A093EE06B093A1
:1029C000EF063FC09385892F807194FF3BC08091B3
:1029D000E706428D538D8B3071F484899589A0E090
:1029E000B0E0DC019927882760E070E0842B952B0C
:1029F000A62BB72B03C0CA01A0E0B0E00097A10549
:102A0000B10579F29C01AD0122503109410951090A
:102A1000A091F606B0E00E9462170091E3061091C3
:102A2000E4062091E5063091E606600F711F821FD3
:102A3000931F6093EC067093ED068093EE069093DF
:102A4000EF0681E01F910F910895FC01009719F4A2
:102A500080E090E0089580818823D1F3853EC1F322
:102A60008E3221F481818E3219F0F2CF853081F3DC
:102A700083858E3169F38F3059F3883249F3CF0162
:102A800008950E9431140C942515000000000000E8
:102A90000000000000000000000000000895000099
:102AA0000000000000002091D7062A95F1F7089554
:102AB000AF93AFB7AF93BF932F93A091D10620915F
:102AC000D006A22BA8B9A4EBA6BD20E0E8DFA09118
:102AD000D006A8B9B091A506BB2341F02093D1063A
:102AE0002F91BF91AF91AFBFAF911895A0E3ABB954
:102AF000A9B1A170AA0F2A2FA0E1ABB9A0919606A7
:102B0000B09197061196A0939606B0939706A039B8
:102B100089F4BC3079F4A1E0A093A506CF93C0E777
:102B2000A8E0B0E3BBB9B0E1BBB9AA95D1F7CA95AB
:102B3000B9F7CF912093D1062F91BF91AF91AFBF3D
:102B4000AF9118952F932FB72F9330995BC03F9378
:102B500030919E0626B124702327E1F326B124701C
:102B600020939E0628E02A95F1F700004F935F938B
:102B70006F937F938F93EF93FF9360E0E091A606AE
:102B8000F091A7063DE541E00DC050919E0676B15B
:102B900074707527E1F376B1747070939E067EE0D1
:102BA0007A95F1F727E081E079B17470D9F40000EB
:102BB00000007BE17A95F1F776B1747050919E0632
:102BC00070939E06752776957695880F872B2A95A4
:102BD00059F7853D09F461E06030B9F281933150D5
:102BE000404099F69F93AF93BF930E947A03BF91A1
:102BF000AF919F91FF91EF918F917F916F915F9135
:102C00004F913F912F912FBF2F91189581E00E94F6
:102C10001D018FEF80931A01CBE80E94570C309B67
:102C200003C00E944612F9CF0E94431283B18F70F5
:102C30008093100190910F01891761F180930F012A
:102C4000883049F0843009F4EFC0823009F4EEC0D6
:102C5000813001F5EDC082E02091A406820F982F0B
:102C600097709695E92FF0E0E659FF4FE49180FFC9
:102C7000E295EF708E2F887009F0E86F2E0F253CDB
:102C800008F0D8C02093A4068091A4068C3810F0D8
:102C9000C093A4068091D206882309F4BECF809108
:102CA000A506882309F4B9CFF894309198063F5FC0
:102CB0003F70309398062091A40626952695209380
:102CC000D30640E1249FC0011124830F911D9093EE
:102CD000A00680939F060090F70602C09695879500
:102CE0000A94E2F790931C0180931B01FC01EE0F04
:102CF000FF1FEE0FFF1FE855F94F80819181A281E0
:102D0000B3818093990690939A06A0939B06B09303
:102D10009C0680911A012817B9F020931A0161E0EE
:102D20008AE00E94DC0E8CE791E00E942C0F8091DB
:102D3000D3068A3020F487E091E00E94E60E80916D
:102D4000D30690E00E94F20E8091980690911101B6
:102D5000981306C0209116019091D306291741F1CE
:102D600090911201981306C0209117019091D306FB
:102D70002917F1F090911301981306C020911801C2
:102D80009091D3062917A1F090911401981306C0D1
:102D9000209119019091D306291751F090911501B6
:102DA000981308C090911A018091D306981302C01D
:102DB0000E9414036091990670919A0680919B0677
:102DC00090919C0662507109810991090090F70663
:102DD00004C0660F771F881F991F0A94D2F70091CD
:102DE000E3061091E4062091E5063091E606600FB7
:102DF000711F821F931F2091F60630E02150310988
:102E000040919F065091A00624233523620F731F23
:102E1000811D911D0E944F101092970610929606E8
:102E20001092A5067894F9CE84E016CF86E014CFF0
:102E300080E012CF1092A40627CFAA1BBB1B51E142
:102E400007C0AA1FBB1FA617B70710F0A61BB70B1A
:102E5000881F991F5A95A9F780959095BC01CD01BF
:102E60000895A1E21A2EAA1BBB1BFD010DC0AA1FCB
:102E7000BB1FEE1FFF1FA217B307E407F50720F0E3
:102E8000A21BB30BE40BF50B661F771F881F991F5E
:102E90001A9469F760957095809590959B01AC01A7
:102EA000BD01CF010895A29FB001B39FC001A39FB0
:102EB000700D811D1124911DB29F700D811D112473
:102EC000911D08950E945317A59F900DB49F900DDA
:102ED000A49F800D911D11240895FB01DC01059034
:102EE0000D920020E1F70895FB01DC0141505040B4
:102EF00030F08D910590801919F40020B9F7881BE6
:102F0000990B0895FB01DC0104C08D91019080199B
:102F100021F441505040C8F7881B990B0895DC01FB
:102F2000FB014150504058F049F001900D920020B3
:102F3000C1F7E61BF70B3197CF0108951C92019062
:102F40000020E9F7F6CFBB274A3031F4992322F469
:102F5000BDE2909581959F4F0C94E017BB272A30D6
:102F600051F4992342F4BDE2909580957095619556
:102F70007F4F8F4F9F4F0C94BE17BB27FA01A62F90
:102F80006217710581059105330B30FB66F0AA27A6
:102F9000660F771F881F991FAA1FA21710F0A21B88
:102FA00063953850A9F7A05DAA3308F0A95DA193F5
:102FB00036F7B111B1931082CA010C940F18BB27D8
:102FC000FB015527AA27880F991FAA1FA41710F0E5
:102FD000A41B83955051B9F7A05DAA3308F0A95DF1
:102FE000A193009779F7B111B1931192CB010C9491
:102FF0000F18F999FECF92BD81BDF89A992780B537
:103000000895262FF999FECF1FBA92BD81BD20BD2C
:103010000FB6F894FA9AF99A0FBE01960895DC015A
:10302000FC01672F71917723E1F7329704C07C91FF
:103030006D9370836291AE17BF07C8F30895F8943B
:02304000FFCFC0
:0A304200FFFFFE5B005D00200000B0
:00000001FF
