:100000000C9423020C942F1C0C9440020C9440027C
:100010000C9440020C9440020C9440020C94400258
:100020000C9440020C9440020C9440020C94400248
:100030000C9440020C9440020C9440020C94400238
:100040000C94E51B0C9440020C9440020C9440026A
:100050000C9440020C9440020C9440020C94400218
:100060000C9440020C944002200020000FED03216C
:10007000534449534B494920434647004E6F205350
:100080004420696E7365727465640046415431366C
:1000900000464154333200547970653A2000436F72
:1000A00064653A2000534420426C6F636B204552D4
:1000B000524F52004D697373696E67204D42522052
:1000C000202000436C7573746572203C2033326BC2
:1000D00042004E6F742046415431362F3332202077
:1000E00000426F6F7420736563746F72202020006C
:1000F00053442063616E277420696E697420005335
:10010000442063616E27742069646C65200045207B
:10011000522052204F2052004E6F726D616C20535E
:1001200044206361726400202020534448432063CC
:1001300061726420200020536F7274696E672066BC
:10014000696C657300204E6F7468696E672068651E
:1001500072652100204275696C64696E67206C6964
:100160007374002053454C454354204E494320208E
:100170002000547261636B3A2000205344204445B0
:100180004C4159202020202000204C434420434F44
:100190004E545241535420002056616C75653A20EC
:1001A000002053657420636F6E7472617374200055
:1001B000205365742053442064656C6179200020CD
:1001C000202020202020202020202020200020531C
:1001D00045545550202020202020202000204E492A
:1001E000432020202020202020202000762E203593
:1001F0002E3420283230313829004170706C65204F
:100200005D5B202D20425200534469736B205D5B7F
:100210000008141C1C1C1C1C1C366363220000FFFD
:10022000FFF7E3E3F7FFFD00000074325242424261
:100230004A4C2E00000000000402FF0204000000EF
:10024000000000002040FF402000000000000020CF
:1002500070A82020203F0000000000FE82828284DF
:1002600084FC000000000000000000005F000000AF
:1002700007000700147F147F14242A7F2A122313F7
:1002800008646236495522500005030000001C2214
:1002900041000041221C0014083E081408083E08D2
:1002A00008005030000008080808080060600000DE
:1002B00020100804023E5149453E00427F40004262
:1002C000615149462141454B311814127F10274591
:1002D0004545393C4A4949300171090503364949C8
:1002E0004936064949291E003636000000563600B8
:1002F000000814224100141414141400412214089C
:100300000201510906324979413E7E1111117E7F69
:10031000494949363E414141227F4141221C7F49A2
:100320004949417F090909013E4149497A7F080845
:10033000087F00417F41002040413F017F08142297
:10034000417F404040407F020C027F7F0408107FC5
:100350003E4141413E7F090909063E4151215E7FF0
:1003600009192946464949493101017F01013F40A8
:1003700040403F1F2040201F3F4038403F6314084B
:10038000146307087008076151494543007F4141E4
:100390000002040810200041417F00040201020411
:1003A0004040404040000102040020545454787FF3
:1003B000484444383844444420384444487F3854FE
:1003C000545418087E0901020C5252523E7F080410
:1003D000047800447D40002040443D007F102844C4
:1003E0000000417F40007C041804787C08040478F5
:1003F00038444444387C14141408081414187C7CC1
:10040000080404084854545420043F4440203C400D
:1004100040207C1C2040201C3C4030403C442810A4
:1004200028440C5050503C4464544C44000836411D
:100430000000007F00000041360800100808100886
:1004400000060909060011241FBECFEFD8E0DEBF69
:10045000CDBF11E0A0E0B1E0ECE5FDE302C0059006
:100460000D92A630B107D9F726E0A6E0B1E001C0B1
:100470001D92A73FB207E1F70E94931C0C94AC1E9B
:100480000C9400000E94721461E08FE00E948014BE
:100490008EE091E00E94A11563E080E00E9480144C
:1004A0008CE790E00E94A1154B99FECF0895CF9361
:1004B000C82F14B817B81AB815B818B81BB8249AAA
:1004C0002C9A399A3B9A419A17BC14BC91E095BD7D
:1004D00022E025BF20936900109294061092D10665
:1004E0001092D0061092CF061092930610929206A8
:1004F00010929A069093A4061092A30610921101EE
:10050000109219012AE131E03093A6062093A50646
:1005100080E090E00E94861E823018F48093990655
:1005200007C01092990660E080E090E00E948E1E65
:10053000CC2359F10E9463140E94721460E080E0A1
:100540000E9480140E948D1461E082E10E94801458
:1005500088E092E00E94A11562E083E00E9480148E
:100560008AEF91E00E94A11564E083E00E9480146C
:100570008CEE91E00E94A1152FED80E792E72150CB
:1005800080409040E1F700C00000CF9108950F93A4
:100590001F93CF93DF931F92CDB7DEB7082F162F8F
:1005A00065E080E049830E9480140E94C0158FEBB3
:1005B00091E00E94A11565E080E00E948014802FE8
:1005C00090E00E94C01465E084E20E948014812FB4
:1005D00090E00E94C01465E087E40E948014498185
:1005E000842F90E00E94C0140F90DF91CF911F9153
:1005F0000F910C94C015FC01009789F0808188232D
:1006000079F0853E61F08F3551F080858E3439F474
:100610008185893421F481E09285933409F080E06A
:100620000895FC01009759F08081882349F0853EA8
:1006300031F08F3521F0838582958170089580E0B7
:100640000895CF92DF92EF92FF920F931F93CF9373
:10065000DF938FEF9FEF90930101809300010E9441
:10066000341A6B017C016115710581059105D9F181
:1006700080E090E00E94591B00E010E0C8010E9459
:10068000BE1AEC01009749F18881853E11F0811175
:1006900024C08B858F3009F1109301010093000174
:1006A00060E770E0CE010E94FA1D81E08B87FD8A31
:1006B000EC8ADB8ECA8E6091D7067091D806809145
:1006C000D9069091DA06DF91CF911F910F91FF909B
:1006D000EF90DF90CF900C94CC170F5F1F4F003935
:1006E00081E0180759F6DF91CF911F910F91FF908C
:1006F000EF90DF90CF900895FF920F931F93CF93C9
:10070000DF93D82FF62EC42FA62FB0E040E1C49F70
:10071000A00DB11D1124FD010090F60602C0F69552
:10072000E7950A94E2F7EE0FFF1FEE0FFF1FE95562
:10073000F94F008111812281338182E08BB91BB88E
:10074000E091F506F0E03197EA23FB234091E206C1
:100750005091E3066091E4067091E5064E0F5F1F2D
:10076000611D711D02501109210931090090F60621
:1007700004C0000F111F221F331F0A94D2F7400F2D
:10078000511F621F731F88E10E949B168FEF0E940A
:10079000CF158EEF0E94CF1580EB90E030E120E383
:1007A0003BB92BB901970097D9F71BB883E00E949A
:1007B000CF158CEF0E94CF158FEF0E94CF158FE3DE
:1007C0000E94CF158FEC0E94CF1583EF0E94CF15AA
:1007D0008CEF0E94CF158FEF0E94CF158FE30E9400
:1007E000CF158FEC0E94CF1583EF0E94CF158CEFB1
:1007F0000E94CF1585ED0E94CF158AEA0E94CF1581
:1008000086E90E94CF158FEF0E94CF158EEF0E94D0
:10081000CF158C2F86958A6A0E94CF158C2F8A6AF5
:100820000E94CF158F2D86958A6A0E94CF158F2D35
:100830008A6A0E94CF151EEF1F251C27812F8695DF
:100840008A6A0E94CF15812F8A6A0E94CF158EED89
:100850000E94CF158AEA0E94CF158BEE0E94CF1519
:100860008FEF0E94CF158FEF0E94CF158FEF0E9460
:10087000CF158FEF0E94CF158FEF0E94CF158EE519
:1008800091E0D89F9001D99F300D1124265E3E4FF4
:1008900080E090E070E2A0E1B0E3F901E80FF91F19
:1008A000E08148E050E060E8F62FFE2319F0ABB994
:1008B000BBB902C01BB87BB96695415051094115BF
:1008C000510591F701968D3541E0940731F71BB83A
:1008D00080E790E030E120E33BB92BB90197009726
:1008E000D9F71BB880E093E020E21BB82BB9019741
:1008F0000097D9F71BB88FEF0E94CF158FEF0E949A
:10090000CF150E94E5150E94D51882E08BB91BB85F
:10091000DF91CF911F910F91FF900895CF92DF92B9
:10092000EF92FF920F931F93CF93DF934B9933C0B6
:10093000EDE0F1E081918F3F51F1C2E1D1E09CE126
:10094000E92E91E0F92E0DE011E0D12CCC24CA94CF
:10095000F80160816F3F21F048818D2D0E947C035A
:10096000F801C1928F01C992F7011082D394F2EA83
:10097000EF1AFEEFFF0A84E0D812EACF10921101BD
:100980008AE191E09093A6068093A50604C081E0D9
:10099000E131F80779F6DF91CF911F910F91FF9028
:1009A000EF90DF90CF9008958091920690919306FA
:1009B00080399C40C0F480E18BB98091920690917F
:1009C000930620E330E1803140E1940730F44B9905
:1009D0000AC02BB93BB90196F6CF80E99CE0909311
:1009E00093068093920608954B996EC04091110131
:1009F000842F90E02EE531E0829FF001839FF00D7F
:100A0000929FF00D1124E65EFE4F22812D3A09F0EF
:100A100042C020911901211131C020919406FC019E
:100A2000E35FFE4F2083FC01EE5EFE4F3091A30694
:100A3000369536953083822F8D7F8D3011F482E08C
:100A400001C081E0820F8F7080939406433029F4B7
:100A50000E94D4040E948E041BC04F5F409311017A
:100A60002EE531E0429FC001439F900D1124865E28
:100A70009E4F9093A6068093A5060DC080910A0113
:100A800080939406109219018F3029F40E94D404A7
:100A900081E08093A406209111018EE591E0289FCA
:100AA000F001299FF00D1124E65EFE4F8281863908
:100AB00059F487818575880F90859575892B80936A
:100AC0000A0181E08093190108952AE131E080E074
:100AD00090E0F901E80FF91F108201968E3541E090
:100AE0009407B9F7225A3E4F86E02239380779F742
:100AF0008FEF8093120180930D01809313018093F7
:100B00000E018093140180930F018093150180934F
:100B100010010895CF93C82F2FEF3FEF30930101BD
:100B2000209300010E94931659984B9B03C00E948A
:100B300042024CC02AE131E03093DC062093DB0610
:100B40000E941A18811144C00E94721461E08FE063
:100B50000E9480148EE091E00E94A11563E080E085
:100B60000E9480148091D406813019F48FEF90E0B8
:100B700004C0823029F480EF90E00E94A11522C0C9
:100B8000833019F481EE90E0F8CF843019F482EDCF
:100B900090E0F3CF853019F483EC90E0EECF86300F
:100BA00019F484EB90E0E9CF873019F485EA90E0FE
:100BB000E4CF8EE990E00E94A1158091D40690E0E8
:100BC0000E9467151092D1064B9BFECF80E0B0C00B
:100BD000CC23D9F00E94721461E080E00E9480145E
:100BE0008091DF06823019F487E291E002C088E14B
:100BF00091E00E94A11559982FE38BE49CE42150C9
:100C000080409040E1F700C000000E94DC18811194
:100C100043C00E94721461E08FE00E9480148EE055
:100C200091E00E94A11563E080E00E948014809111
:100C3000D406813019F48FEF90E004C0823029F49B
:100C400080EF90E00E94A11522C0833019F481EE5C
:100C500090E0F8CF843019F482ED90E0F3CF853046
:100C600019F483EC90E0EECF863019F484EB90E039
:100C7000E9CF873019F485EA90E0E4CF8EE990E07F
:100C80000E94A1158091D40690E00E9467151092F1
:100C9000D1064B9BFECF9ACF8091F5064091EF068F
:100CA0005091F006849F9001859F300D11242115ED
:100CB0003047D0F485E08093D4060E94721461E03E
:100CC0008FE00E9480148EE091E00E94A11563E005
:100CD00080E00E94801483EC90E00E94A1151092A5
:100CE000D1064B9BFECF72CFCC23E1F064E089E0CC
:100CF0000E94801487E990E00E94A1158091E60689
:100D00008B3019F481E990E002C08BE890E00E94FA
:100D1000A1159FE32BE48CE4915020408040E1F743
:100D200000C0000059980E9465050E948F1681E05E
:100D3000CF9108958F929F92AF92BF92CF92DF9200
:100D4000EF92FF920F931F93CF93DF93EC017B0100
:100D50006115710519F480E090E051C10E94721490
:100D600060E080E00E9480140E94B8158DED91E053
:100D70000E94A11560E085E30E9480148091E60640
:100D80008B3019F481E990E002C08BE890E00E947A
:100D9000A1150E94B81542E061E080E00E94C70200
:100DA00062E080E00E94801481E090E00E94C01424
:100DB000670100E010E0F60181916F01803211F0CF
:100DC0000E9414150F5F1F4F08301105A1F7D09333
:100DD0000701C09306018091E606F701028D138D8D
:100DE0008B3071F464897589CB01A0E0B0E077277E
:100DF000662720E030E0602B712B822B932B03C001
:100E0000B80180E090E0611571058105910509F454
:100E1000A2CFE7EAF6E0119211921192119226E028
:100E2000EF3CF207C1F76093A7067093A806809382
:100E3000A9069093AA0611E0663FFFEF7F078105A0
:100E40009105A8F40E94D319663FEFEF7E07810554
:100E5000910558F424E0129FF0011124E955F94F4F
:100E600060837183828393831F5F1A3028F3C0905D
:100E7000EB06D090EC06E090ED06F090EE06809147
:100E8000000190910101019609F48AC080E090E090
:100E90000E94591B8FEF9FEFDC018093D706909340
:100EA000D806A093D906B093DA06809100019091FC
:100EB00001010E94CE1B2091E606FC01428D538D5C
:100EC0002B3071F484899589A0E0B0E0DC0199278A
:100ED000882760E070E0842B952BA62BB72B03C0EE
:100EE000CA01A0E0B0E04C015D01F2E08F1A910868
:100EF000A108B108A091F506B0E0A50194010E94F7
:100F0000EF1D0091E2061091E3062091E406309176
:100F1000E506600F711F821F931F0E946217E09108
:100F2000DB06F091DC068DEC92E0ABEAB1E0808369
:100F30009183A283B38345815681678170858185C2
:100F400092854C155D056E057F0519F48C179D077C
:100F500031F04387548765877687908B8787C58272
:100F6000D682E782F086D287C1878091D6068483B5
:100F700080919D06818BA091F506B0E0A5019401BA
:100F80000E94EF1D8090E2069090E306A090E40698
:100F9000B090E506680D791D8A1D9B1D0E94CC1737
:100FA000C092EB06D092EC06E092ED06F092EE06CF
:100FB00010929306109292061092D00610929A0602
:100FC000C1E0C093A4061092A3061092940610925A
:100FD0001101109219018AE191E09093A606809385
:100FE000A506599840E052E060E070E080E10E9480
:100FF000EA160E946505C093D10681E090E0DF917A
:10100000CF911F910F91FF90EF90DF90CF90BF9005
:10101000AF909F908F900895CF92DF92EF92FF92C2
:101020000F931F93CF93DF93C090EB06D090EC0605
:10103000E090ED06F090EE068091000190910101A4
:10104000019609F477C080E090E00E94591B8FEF71
:101050009FEFDC018093D7069093D806A093D90622
:10106000B093DA0680910001909101010E94CE1B9D
:101070002091E606FC01428D538D2B3071F484895A
:101080009589A0E0B0E0DC019927882760E070E056
:10109000842B952BA62BB72B03C0CA01A0E0B0E090
:1010A0009C01AD012250310941095109A091F50679
:1010B000B0E00E94EF1D0091E2061091E30620913E
:1010C000E4063091E506600F711F821F931F0E9496
:1010D0006217E091DB06F091DC068FEF9FEFDC01F9
:1010E0008093D7069093D806A093D906B093DA06DA
:1010F00083859485A585B6858093EB069093EC0651
:10110000A093ED06B093EE0607851089C8010E94F2
:10111000CE1BEC010E94FB02882361F0BE01C801D6
:10112000DF91CF911F910F91FF90EF90DF90CF90C3
:101130000C949A06C092EB06D092EC06E092ED0673
:10114000F092EE06DF91CF911F910F91FF90EF90FB
:10115000DF90CF9008955E9A2D9A5F9A08954F92EE
:101160005F926F927F928F929F92AF92BF92CF9237
:10117000DF92EF92FF920F931F93CF93DF938091B3
:10118000000190910101019619F40FEAC02E5AC096
:1011900080E090E00E94591B8AE191E09093DC0688
:1011A0008093DB060E9465051092D7061092D80640
:1011B0001092D9061092DA068091000190910101F7
:1011C0000E94CE1B2091E606FC01428D538D2B30F0
:1011D00071F484899589A0E0B0E0DC019927882723
:1011E00060E070E0842B952BA62BB72B03C0CA01BF
:1011F000A0E0B0E09C01AD01225031094109510944
:10120000A091F506B0E00E94EF1D4090E2065090DC
:10121000E3066090E4067090E506640D751D861D7A
:10122000971D0E946217E091DB06F091DC06808139
:101230009181A281B3818D3C9240AB4AB14009F0CB
:10124000A4CFC1880E94721460E080E00E948014E4
:101250000E94B81589E891E00E94A1150E94B81576
:1012600043E065E084E00E94C70262E080E00E9403
:10127000801488E991E00E94A1158C2D90E00E94D5
:1012800067157C2CDC2CBB24B3940E94AB08D714CC
:1012900081F062E080E00E94801488E991E00E9481
:1012A000A1158D2D90E00E9467158AE690E00E94BE
:1012B000A1154B997CC189B12091990641E050E07C
:1012C000222311F040E050E093B161E070E0213062
:1012D00011F060E070E09295969597709B2590FBD9
:1012E000882480F8912C869E9001879E300D969ED2
:1012F000300D1124992787FD90958095909588272A
:10130000990F881F9927849FF001859FF00D949F66
:10131000F00D11242E2B3F2B232BC9F189B193B152
:101320009295969597709B259170C92F90E0D92F33
:10133000C69F9001C79F300DD69F300D112499276D
:1013400087FD9095809590958827990F881F9927FC
:10135000849FF001859FF00D949FF00D11242E2B9A
:101360003F2B232BD9F6EFE3F2E42FE0E150F040DE
:101370002040E1F700C00000AA24AA94AD0C8DE142
:101380008A1538F4A0929D060E94441404C0AD2C26
:1013900002C0BEE1AB2EE3B19091990621E030E0AE
:1013A000992311F020E030E089B141E050E0913024
:1013B00011F040E050E0992787FD90958095909539
:1013C0008827990F881F9927849FB001859F700DEA
:1013D000949F700D11248E2F8295869587708B2592
:1013E000082F017010E0029FC001039F900D129F13
:1013F000900D1124682B792B672BC9F1E3B189B1CA
:10140000992787FD9095809590958827990F881F3B
:101410009927849FB001859F700D949F700D1124B2
:10142000E295E695E770EB25E0FBEE24E0F8F12C81
:10143000E29EC001E39E900DF29E900D1124682B58
:10144000792B672BD9F69FE3E2E4FFE09150E0406F
:10145000F040E1F700C00000A3942CE32A1528F027
:10146000A0929D060E94441402C0ECE3AE2E4E9B57
:1014700003C07D2CDA2C09CF4E9BFECF8FE392E484
:10148000EFE081509040E040E1F700C00000AC1474
:1014900009F48DC0A0929D060E9444145998809131
:1014A000000190910101019609F481C080E090E073
:1014B0000E94591B8AE191E09093DC068093DB0641
:1014C0000E9465051092D7061092D8061092D90690
:1014D0001092DA0680910001909101010E94CE1BCA
:1014E0002091E606FC01428D538D2B3071F48489E6
:1014F0009589A0E0B0E0DC019927882760E070E0E2
:10150000842B952BA62BB72B03C0CA01A0E0B0E01B
:101510006C017D01F2E0CF1AD108E108F108A09139
:10152000F506B0E0A70196010E94EF1D0091E206CA
:101530001091E3062091E4063091E506600F711FDB
:10154000821F931F0E946217E091DB06F091DC0678
:1015500080819181A281B3818D3C9240AB4AB140A0
:1015600031F5A18AA091F506B0E0A70196010E948D
:10157000EF1D0091E2061091E3062091E406309100
:10158000E506600F711F821F931FDF91CF911F919E
:101590000F91FF90EF90DF90CF90BF90AF909F9012
:1015A0008F907F906F905F904F900C94CC17DF914D
:1015B000CF911F910F91FF90EF90DF90CF90BF9050
:1015C000AF909F908F907F906F905F904F90089515
:1015D0007F928F929F92AF92BF92CF92DF92EF92C3
:1015E000FF920F931F93CF93DF930E94721460E0DA
:1015F00080E00E9480140E94B8158AE791E00E9462
:10160000A1150E94B81543E065E084E00E94C7027E
:1016100062E080E00E94801488E991E00E94A115B8
:101620008091D60690E00E9467159090D606A92C6E
:10163000BB24B39477247394AAE08A2E0E94AB084B
:101640008091D6068A1599F062E080E00E948014AD
:1016500088E991E00E94A1158091D60690E00E9451
:10166000671588E690E00E94A115A090D6064B99D8
:101670006DC189B12091990641E050E0222311F01B
:1016800040E050E093B161E070E0213011F060E0A3
:1016900070E09295969597709B259170C92F20E0E8
:1016A000D22FC69F9001C79F300DD69F300D1124B9
:1016B000992787FD9095809590958827990F881F89
:1016C0009927849FF001859FF00D949FF00D1124C0
:1016D0002E2B3F2B232BB1F189B193B19295969587
:1016E00097709B25092F017010E0069F9001079FBE
:1016F000300D169F300D1124992787FD9095809508
:1017000090958827990F881F9927849FF001859FBE
:10171000F00D949FF00D11242E2B3F2B232BE1F67F
:101720008FE392E4EFE081509040E040E1F700C0A9
:1017300000008091D60681508093D606811102C0A8
:101740008092D606E3B19091990621E030E099238A
:1017500011F020E030E089B141E050E0913011F02B
:1017600040E050E0992787FD9095809590958827D7
:10177000990F881F9927849FB001859F700D949FB2
:10178000700D11248E2F8295869587708B2580FB96
:10179000EE24E0F8F12CE29EC001E39E900DF29E53
:1017A000900D1124682B792B672BB9F1E3B189B126
:1017B000992787FD9095809590958827990F881F88
:1017C0009927849FB001859F700D949F700D1124FF
:1017D000E295E695E770EB25E0FBCC24C0F8D12C30
:1017E000C29EC001C39E900DD29E900D1124682B05
:1017F000792B672BD9F6FFE322E48FE0F1502040EC
:101800008040E1F700C000008091D6068F5F809392
:10181000D6068B3010F07092D6064E990FCF4E9BA5
:10182000FECF9FE3E2E4FFE09150E040F040E1F7BB
:1018300000C000008091D606891509F487C0809108
:10184000000190910101019609F480C080E090E0D0
:101850000E94591B8AE191E09093DC068093DB069D
:101860000E9465051092D7061092D8061092D906EC
:101870001092DA0680910001909101010E94CE1B26
:101880002091E606FC01428D538D2B3071F4848942
:101890009589A0E0B0E0DC019927882760E070E03E
:1018A000842B952BA62BB72B03C0CA01A0E0B0E078
:1018B0006C017D01F2E0CF1AD108E108F108A09196
:1018C000F506B0E0A70196010E94EF1D0091E20627
:1018D0001091E3062091E4063091E506600F711F38
:1018E000821F931F0E946217E091DB06F091DC06D5
:1018F00080819181A281B3818D3C9240AB4AB140FD
:1019000029F58091D6068483A091F506B0E0A70161
:1019100096010E94EF1D0091E2061091E3062091CE
:10192000E4063091E506600F711F821F931FDF915F
:10193000CF911F910F91FF90EF90DF90CF90BF90CC
:10194000AF909F908F907F900C94CC17DF91CF91A8
:101950001F910F91FF90EF90DF90CF90BF90AF90CD
:101960009F908F907F9008958F929F92AF92CF9289
:10197000DF92EF92FF920F931F93CF93DF930E941A
:10198000721460E080E00E9480140E94B8158EEC12
:1019900091E00E94A1150E94B81543E065E084E043
:1019A0000E94C70262E080E00E9480140E94B0158D
:1019B00080EB91E00E94A1150E94B01563E080E0E9
:1019C0000E94801481EA91E00E94A115C1E0D1E05B
:1019D0000E94AB0889B12091990641E050E0222392
:1019E00011F040E050E093B161E070E0213011F07F
:1019F00060E070E09295969597709D2790FB882403
:101A000080F8912C869E9001879E300D969E300D19
:101A10001124992787FD9095809590958827990F97
:101A2000881F9927849FF001859FF00D949FF00DEA
:101A300011242E2B3F2B232B09F452C089B193B1D3
:101A40009295969597709D27092F017010E0069F3B
:101A50009001079F300D169F300D1124992787FDA7
:101A60009095809590958827990F881F9927849F36
:101A7000F001859FF00D949FF00D11242E2B3F2B2C
:101A8000232BE1F62FE382E49FE021508040904039
:101A9000E1F700C00000AA24A394AC0E22E02A15AE
:101AA00008F181E0A81202C00E94B01562E080E057
:101AB0000E94801480EB91E00E94A115C23010F4C6
:101AC0000E94B01563E080E00E94801481EA91E0FA
:101AD0000E94A11592E0A91207C00E94B01504C08F
:101AE000AC2E02C012E0A12EE3B19091990641E024
:101AF00050E0992311F040E050E089B161E070E0DE
:101B0000913011F060E070E0992787FD9095809505
:101B100090958827990F881F9927869F9001879F06
:101B2000300D969F300D11248E2F829586958770EB
:101B30008D2780FBEE24E0F8F12CE49EC001E59EA9
:101B4000900DF49E900D1124282B392B232B09F492
:101B500050C0E3B189B1992787FD90958095909504
:101B60008827990F881F9927869F9001879F300D9E
:101B7000969F300D1124E295E695E770ED27E0FB86
:101B8000CC24C0F8D12CC49EC001C59E900DD49E1B
:101B9000900D1124282B392B232BD9F62FE382E427
:101BA0009FE0215080409040E1F700C00000CFEF5F
:101BB000CA0D09F1C13011F40E94B01562E080E055
:101BC0000E94801480EB91E00E94A1158EEF8A0D97
:101BD000823010F40E94B01563E080E00E9480140F
:101BE00081EA91E00E94A115C23031F40E94B01543
:101BF00003C0CA2D01C0C1E04E99EACE4E9BFECF74
:101C00002FE382E49FE0215080409040E1F700C044
:101C10000000C13069F4DF91CF911F910F91FF90C7
:101C2000EF90DF90CF90AF909F908F900C94E80A48
:101C3000C23069F4DF91CF911F910F91FF90EF9027
:101C4000DF90CF90AF909F908F900C94AF08DF9172
:101C5000CF911F910F91FF90EF90DF90CF90AF90B9
:101C60009F908F9008952F923F924F925F926F9224
:101C70007F928F929F92AF92BF92CF92DF92EF921C
:101C8000FF920F931F93CF93DF93CDB7DEB72897C3
:101C90000FB6F894DEBF0FBECDBF109209011092AF
:101CA00008018AE191E09093DC068093DB0686EDE3
:101CB00093E09093A00680939F068FEF9FEFDC0147
:101CC0008093D7069093D806A093D906B093DA06EE
:101CD0000E9465050E94B81560E080E00E948014B3
:101CE00083E691E00E94A11561E080E00E948014EB
:101CF0000E94B81543E065E084E00E94C70211E04D
:101D0000612F80E00E9480148FEB91E00E94A1156A
:101D10001F5F1530A9F762E080E00E94801484E51F
:101D200091E00E94A11500E010E0C8010E94CE1BC6
:101D30005C01009799F0FC01808181110FC08091B6
:101D4000080190910901892BC9F562E080E00E94A9
:101D5000801485E491E00E94A11502C2C5010E9491
:101D6000FB02811105C0C5010E9411038823B9F04F
:101D70008091080190910901880F991FE0919F06B9
:101D8000F091A006E80FF91F1183008380910801EC
:101D900090910901019690930901809308010F5FCA
:101DA0001F4F8091080190910901883C91053CF6F4
:101DB0000039F1E01F0709F0B8CFC1CF62E080E041
:101DC0000E94801486E391E00E94A1158091080191
:101DD0009091090102978CF420910801309109013A
:101DE0004091060150910701E0919F06F091A006F5
:101DF00000E010E080E090E063C0812C912C8091A5
:101E00000801909109010197881699062CF700E0C6
:101E100010E0AA24A394B12C8091080190910901AB
:101E200088199909A816B9060CF03FC03501660C4F
:101E3000771CE0919F06F091A006E60DF71D8081CA
:101E400091810E94CE1B48E050E0BC01CE0101967A
:101E50000E941C1EE0919F06F091A006E00FF11F6A
:101E6000808191810E94CE1B48E050E0BC01CE01F0
:101E700001960E940F1E97FF12C0E0919F06F091FD
:101E8000A006DF01A60DB71D8D919C911197E00F63
:101E9000F11F208131812D933C93918380832FEF1B
:101EA000A21AB20A0E5F1F4FB7CF8FEF881A980A97
:101EB000A6CF619171914617570709F48C010196DD
:101EC00082179307B4F3AA24AA94BA2C9924939462
:101ED0000E94AB084B9944C189B12091990641E019
:101EE00050E0222311F040E050E093B161E070E057
:101EF000213011F060E070E09295969597709925E9
:101F000090FB222420F8312C269E9001279E300D34
:101F1000369E300D1124992787FD909580959095D8
:101F20008827990F881F9927849FF001859FF00DBE
:101F3000949FF00D11242E2B3F2B232BC9F189B137
:101F400093B1929596959770992590FB442440F80B
:101F5000512C469E9001479E300D569E300D112407
:101F6000992787FD9095809590958827990F881FD0
:101F70009927849FF001859FF00D949FF00D112407
:101F80002E2B3F2B232BD9F69FE3E2E4FFE0915069
:101F9000E040F040E1F700C000000F5F1F4F80916C
:101FA0000801909109010817190711F400E010E0E9
:101FB000E3B19091990621E030E0992311F020E0FF
:101FC00030E089B141E050E0913011F040E050E064
:101FD000992787FD9095809590958827990F881F60
:101FE0009927849FB001859F700D949F700D1124D7
:101FF0008E2F829586958770892580FBEE24E0F8E8
:10200000F12CE29EC001E39E900DF29E900D1124F2
:10201000682B792B672BC1F1E3B189B1992787FD33
:102020009095809590958827990F881F9927849F70
:10203000B001859F700D949F700D1124E295E69577
:10204000E770E925E0FBCC24C0F8D12CC29EC0018A
:10205000C39E900DD29E900D1124682B792B672B77
:10206000D9F62FE382E49FE0215080409040E1F7D1
:1020700000C000000150110917FF06C000910801BF
:1020800010910901015011094E992EC04E9BFECFAF
:10209000EFE3F2E42FE0E150F0402040E1F700C030
:1020A0000000000F111FE0919F06F091A006E00FC5
:1020B000F11F808191810E94CE1B7C010E9411033F
:1020C000882331F0C7010E94591B0E94330E48C07B
:1020D000E0919F06F091A006E00FF11FB70180810B
:1020E00091810E949A063CC00A151B0509F4F0CEA6
:1020F000E0919F06F091A006C801880F991FE80F94
:10210000F91F808191810E94CE1B782E892E62E07A
:1021100080E00E948014872D982D0E94110388234F
:1021200019F086E090E002C081E090E00E94C014C7
:10213000A72CB82C612C712CF50181915F018032A4
:1021400011F00E941415FFEF6F1A7F0A28E0621643
:10215000710491F78FEB91E00E94A1155801B8CE60
:1021600028960FB6F894DEBF0FBECDBFDF91CF919A
:102170001F910F91FF90EF90DF90CF90BF90AF90A5
:102180009F908F907F906F905F904F903F902F9097
:1021900008958F929F92AF92BF92CF92DF92EF926B
:1021A000FF920F931F93CF93DF938AE191E0909377
:1021B000DC068093DB068FEF9FEFDC018093D70670
:1021C0009093D806A093D906B093DA0680E090E009
:1021D0000E94591B8FEF9FEF9093010180930001A4
:1021E000CFEFDFEF00E010E04EE1F42E5CE3E52EF0
:1021F000C8010E94CE1B6C01009709F499C0FC0134
:102200008081882309F49BC0C6010E94FB028823B9
:1022100029F0CF3FFFEFDF0709F4E8014BE050E082
:1022200060E770E0C6010E94011E892B09F080C0A2
:1022300010930101009300012091E606F601828DC2
:10224000938D2B3071F44489558960E070E0BA01B8
:1022500055274427A0E0B0E0482B592B6A2B7B2B55
:1022600003C0AC0160E070E09A01AB01225031097B
:1022700041095109A091F506B0E00E94EF1D809040
:10228000E2069090E306A090E406B090E506680DA3
:10229000791D8A1D9B1D0E946217C090DB06D0909D
:1022A000DC06F60180819181A281B3818D3C924050
:1022B000AB4AB140A9F5F60184818093D6068189A5
:1022C0008D3318F480939D0602C0E0929D068091A4
:1022D0009D068E3110F4F0929D060E944414599888
:1022E000F60185819681A781B0858093EB06909356
:1022F000EC06A093ED06B093EE06B184D2848B2D4C
:102300009D2D0E94CE1B009739F00E94FB0288236E
:1023100019F0CB2DDD2D13C080E090E00E94591BF9
:1023200080E090E00E94591BCF3FFFEFDF07E1F410
:102330000F5F1F4F003921E0120709F059CFCF3F3F
:102340008FEFD80789F4F8940E94330E4B991FC081
:102350008091D106882331F080916E008160809356
:102360006E00E89A789413C0CE010E94CE1BBC0187
:10237000CE01DF91CF911F910F91FF90EF90DF90F1
:10238000CF90BF90AF909F908F900C949A06DF9162
:10239000CF911F910F91FF90EF90DF90CF90BF9062
:1023A000AF909F908F9008954F925F926F927F921F
:1023B0008F929F92AF92BF92CF92DF92EF92FF9255
:1023C0000F931F93CF93DF930E94AB084B9B23C0C7
:1023D0008FEF90E04B9BC3C101970097D9F7809195
:1023E0006E008E7F80936E00E8981092D106109256
:1023F000A406DF91CF911F910F91FF90EF90DF9096
:10240000CF90BF90AF909F908F907F906F905F9094
:102410004F900C944202309B85C14E9B5AC089B1AB
:102420006091990621E030E0662311F020E030E071
:1024300093B141E050E0613011F040E050E09295FE
:1024400096959770A1E09A2790FB882480F8912CAC
:10245000849EB001859E700D949E700D1124992765
:1024600087FD9095809590958827990F881F9927CB
:10247000829FF001839FF00D929FF00D11246E2B2F
:102480007F2B672B31F5E3B189B1992787FD9095B3
:10249000809590958827990F881F9927849FB00170
:1024A000859F700D949F700D1124E295E695E7705D
:1024B000EA27E0FBAA24A0F8B12CA29EC001A39EAB
:1024C000900DB29E900D1124682B792B672B09F487
:1024D00029C14E9911C084E690E021E04E9920E098
:1024E00001970097D9F7222309F439C14E9BFECFFB
:1024F000F8940E94330E13C149B16091990681E0AE
:1025000090E0662311F080E090E053B121E030E0EC
:10251000613011F020E030E0529556955770A1E0FF
:102520005A2750FBCC24C0F8D12CC29EB001C39EC8
:10253000700DD29E700D1124552747FD5095409582
:1025400050954427550F441F5527489FF001499F38
:10255000F00D589FF00D11246E2B7F2B672B09F483
:102560005DC064E670E0C1E0D1E049B153B152957D
:10257000569557705D2750FBEE24E0F8F12CE29E53
:10258000F001E39EF00DF29EF00D1124552747FD5A
:102590005095409550954427550F441F5527489F07
:1025A000D001499FB00D589FB00D1124EA2BFB2B91
:1025B000EF2B09F4C0E06150710961157105A9F6AE
:1025C000CC2309F4CCC0A1E049B153B15295569542
:1025D00057705A27052F017010E0029FB001039F2A
:1025E000700D129F700D1124552747FD5095409591
:1025F00050954427550F441F5527489FF001499F88
:10260000F00D589FF00D11246E2B7F2B672BE1F6F8
:10261000F8940E94B40C4B99A2C094C0E3B149B1A4
:10262000552747FD5095409550954427550F441F19
:102630005527429FB001439F700D529F700D11248A
:10264000E295E695E770EA27E170CE2F40E0D42FBF
:10265000C89FA001C99F500DD89F500D1124642B15
:10266000752B672B09F47BC064E670E0B1E0C1E034
:10267000A3B149B1552747FD509540955095442742
:10268000550F441F5527429FF001439FF00D529F65
:10269000F00D1124A295A695A770AC27A0FB662487
:1026A00060F8712C689EA001699E500D789E500DB7
:1026B0001124E42BF52BEF2B09F4B0E061507109E4
:1026C00061157105A9F6BB2309F449C0F1E0E3B136
:1026D00049B1552747FD5095409550954427550FD2
:1026E000441F5527429FB001439F700D529F700DAC
:1026F0001124E295E695E770EF27E0FB442440F8CB
:10270000512C489EA001499E500D589E500D1124F9
:10271000642B752B672BD9F6F8940E940C084B9B01
:1027200013C01DC08091D106811119C08FEF90E0B8
:102730004B9915C001970097D9F7F89481E00E9452
:102740008A0581110E94C9108091D106882331F039
:1027500080916E00816080936E00E89A7894DF919A
:10276000CF911F910F91FF90EF90DF90CF90BF908E
:10277000AF909F908F907F906F905F904F90089553
:102780006115710561F498B121E030E0082E01C0B7
:10279000220F0A94EAF72095292328B90895613079
:1027A000710541F498B1082E01C0660F0A94EAF74A
:1027B000962B98B908958F929F92AF92BF92CF9225
:1027C000DF92EF92FF920F931F93CF93DF93842EAC
:1027D000C62ED12C91E0992E01C0990C6A95EAF78A
:1027E000C7E0D0E0022F10E0E82EF12C87E0A82E01
:1027F000B12C81E088120BC0B5016C1B7D0BC801A8
:1028000002C0959587956A95E2F7BC0107C0B801AB
:102810000C2E02C0759567950A94E2F761707727D0
:10282000C7010E94C01388B1892988B960E070E0AF
:10283000C6010E94C0132197E0F6DF91CF911F914E
:102840000F91FF90EF90DF90CF90BF90AF909F904F
:102850008F900895CF93DF931F92CDB7DEB7262FC9
:10286000599A682F70E083E090E029830E94C0139A
:102870004598298140E064E081E00E94DB13459A9D
:102880000F90DF91CF910895599A61E280E00E9404
:102890002A1460919D06606880E00E942A1464E01A
:1028A00080E00E942A1464E180E00E942A146CE017
:1028B00080E00E942A1460E280E00E942A146CE00A
:1028C00080E00C942A148FE280939D061092A1065A
:1028D0001092A20610929E063D9A3B9A399A3C9A13
:1028E0000C944414CF93DF93C8EFD1E060E081E013
:1028F0000E942A1421972097C9F7DF91CF9108955C
:10290000CF93C62F682F606880E00E942A146C2F36
:10291000606480E0CF910C942A14CF93C0E060E013
:102920008C2F0E94801461E081E00E942A14CF5F06
:10293000C435A9F7C0E065E08C2F0E94801460E8E0
:1029400081E00E942A14CF5FC435A9F7C0E06C2F44
:1029500083E50E9480146FEF81E00E942A14CF5F0C
:10296000C630A9F7C0E06C2F80E00E9480146FEFA2
:1029700081E00E942A14CF5FC630A9F7CF91089555
:10298000EF92FF920F931F93CF93DF937C018CE024
:102990008E9D80018F9D100D1124C0E0D0E00F5E50
:1029A0001D4F8FEFE816F10429F0F801EC0FFD1F21
:1029B000E49101C0E0E08091A1068111E095809151
:1029C000A206813011F480E801C080E061E09091BE
:1029D0009E06913009F060E06E2B682B81E00E942A
:1029E0002A142196CC30D105E1F661E08091A10650
:1029F000813009F060E061958091A206813011F488
:102A000080E801C080E091E020919E06213009F02D
:102A100090E0692B682B81E0DF91CF911F910F919E
:102A2000FF90EF900C942A140F931F93CF93DF9392
:102A300095E0899F80011124C0E0D0E00B531E4F28
:102A4000F801EC0FFD1FE4918091A1068111E09542
:102A50008091A206813011F480E801C080E061E03D
:102A600090919E06913009F060E06E2B682B81E01A
:102A70000E942A142196C530D10511F761E080919A
:102A8000A106813009F060E061958091A206813055
:102A900011F480E801C080E091E020919E06213091
:102AA00009F090E0692B682B81E0DF91CF911F91B5
:102AB0000F910C942A14CF93DF93EC018991882312
:102AC00019F00E941415FACFDF91CF910895CF939A
:102AD000DF93CDB7DEB72A970FB6F894DEBF0FBEEF
:102AE000CDBF4AE0BE016F5F7F4F0E94301ECE0116
:102AF00001960E945B152A960FB6F894DEBF0FBEB2
:102B0000CDBFDF91CF910895CF93DF93CDB7DEB7DF
:102B10002A970FB6F894DEBF0FBECDBF2AE0AE01F4
:102B20004F5F5F4F0E943B1ECE0101960E945B15D6
:102B30002A960FB6F894DEBF0FBECDBFDF91CF91BE
:102B40000895CF93DF93FC018491EF0121968823B0
:102B500021F00E941415FE01F7CFDF91CF91089567
:102B600081E09091A106911180E08093A1060895E3
:102B700081E09091A206911180E08093A2060895D1
:102B800081E090919E06911180E080939E060895C9
:102B9000519A549A559A50981092D306089528E065
:102BA00030E090E840E250E160E3792F782319F0BB
:102BB0005BB96BB902C01BB84BB99695215031096E
:102BC0002115310591F71BB80895CF93DF931F921C
:102BD000CDB7DEB780E18BB9198280E020E330E128
:102BE0009981983051F02BB999B1880F9170892B48
:102BF0003BB999819F5F9983F3CF0F90DF91CF917C
:102C0000089582E38BB982E18BB9089528E1000031
:102C10002A95E9F70197D1F708950895DF92EF9289
:102C2000FF920F931F93CF93DF93082FC8E0D0E05C
:102C300010E880E2F82E90E1E92E20E3D22E812FD9
:102C4000802339F0EBB881E090E00E940616DBB8F3
:102C500006C01BB881E090E00E940616FBB81695EE
:102C60002197209761F781E090E00E9406161BB83B
:102C7000DF91CF911F910F91FF90EF90DF9008951A
:102C80009091D306911103C00E940E1602C00E94BB
:102C9000CF1580E00895FF920F931F93CF93DF939A
:102CA0001F92CDB7DEB780E18BB981E090E00E9442
:102CB0000616198210E030E3F32E00E18981883096
:102CC00091F0FBB881E090E00E94061689B1110FE7
:102CD0008170182B0BB981E090E00E940616898163
:102CE0008F5F8983EBCF812F0F90DF91CF911F9161
:102CF0000F91FF9008958091D306811102C00C942A
:102D00004B160C94E51582E38BB981E090E00E94AC
:102D1000061682E18BB981E090E00C94061681E002
:102D20008093D30608951092D30608950E94E51566
:102D300087FDFCCF08951F93CF93DF9300D000D081
:102D4000CDB7DEB7182F0090D50604C0440F551F2D
:102D5000661F771F0A94D2F78FEF49835A836B83DC
:102D60007C830E94CF15812F80640E94CF157C81C7
:102D7000872F0E94CF156B81862F0E94CF155A8115
:102D8000852F0E94CF154981842F0E94CF1585E998
:102D90000E94CF158FEF0E94CF150E949616809348
:102DA000E00681508E3FC8F30F900F900F900F9068
:102DB000DF91CF911F910895AB01BC011092DE0607
:102DC00081E10E949B160E94E5158093E1068E3FEB
:102DD000D1F70895FF920F931F93CF93DF9300D005
:102DE00000D0CDB7DEB7082F8091DD06811113C06A
:102DF0008FEE800F823040F088EE800F823020F01E
:102E000080EE800F823038F489E0440F551F661F32
:102E1000771F8A95D1F78FEF49835A836B837C8321
:102E20000E944016802F80640E9440167C81872F6C
:102E30000E9440166B81862F0E9440165A81852F72
:102E40000E9440164981842F0E944016083011F4D8
:102E500087E801C085E90E94401610E00E947B16B9
:102E6000F82E8FEFF81203C01150C1F71EC0F110F9
:102E70001CC00A33D1F40E947B161092D50686FF3F
:102E800005C081E08093DD0682E006C01092DD0679
:102E900089E08093D50681E08093DF060E947B164F
:102EA0000E947B160E947B16F12C0E947B168F2DB0
:102EB0000F900F900F900F90DF91CF911F910F9176
:102EC000FF900895EF92FF920F931F93CF93DF939C
:102ED00000D000D0CDB7DEB7AB01BC018091D706E2
:102EE0009091D806A091D906B091DA0648175907F3
:102EF0006A077B0709F444C04093D7065093D8066D
:102F00006093D9067093DA0659988FEF49835A83F4
:102F10006B837C830E9440168FEF0E94401649818C
:102F20005A816B817C8181E10E94EA16811129C05E
:102F300000E010E00E947B168E3F41F00150110925
:102F400001151105B9F7599A80E01BC0E12CF12C4D
:102F50000091DB061091DC060E0D1F1D0E947B16F2
:102F6000F8018083FFEFEF1AFF0AE11482E0F80610
:102F700079F70E947B160E947B160E947B16599A55
:102F800081E00F900F900F900F90DF91CF911F91E4
:102F90000F91FF90EF900895CF93DF93AB01BC01A9
:102FA00088E10E94EA1681113DC059988EEF0E9477
:102FB0004016C0E0D0E0E091DB06F091DC06EC0FBB
:102FC000FD1F80810E9440162196C11582E0D8071E
:102FD00091F78FEF0E9440168FEF0E9440160E94DB
:102FE0007B16982F9F71953079F4C0E0D0E00E9455
:102FF0007B16811103C02196D1F706C0599A8FEF35
:103000000E944016599808C0599A0CC09E012F5F23
:103010003F4F2196C9F3E9010E947B168823B1F343
:10302000599A81E0DF91CF910895AB01BC0180E115
:103030000C94EA16CF92DF92EF92FF921F93CF93F8
:10304000DF931092D40685E08093D6060E94C815BF
:103050000E9493164B999AC080E185B9599A8FE0E6
:1030600097E2A0E0B0E08093D7069093D806A093B3
:10307000D906B093DA06C4E60E948316C150E1F780
:1030800059981CE08FEF0E9440161150D9F7C0E00C
:10309000D8E040E050E0BA0180E00E94EA162197B3
:1030A000209731F415B8599A81E08093D4066FC007
:1030B000813079F7CCE08FEF0E944016C150D9F7EC
:1030C000C1E0D2E04AEA51E060E070E088E00E94AE
:1030D000EA168A3A49F481E08093DF06C12CD12CAC
:1030E000E12C90E4F92E0AC08130A9F321972097B2
:1030F00049F71092DF06C12CD12C76011CE08FEF2E
:103100000E9440161150D9F7C1E0D2E040E050E0F3
:10311000BA0187E30E94EA16B701A60189E20E947C
:10312000EA162197209731F482E08093D40615B8EF
:10313000599A2DC08111EACF1092DD0689E0809363
:10314000D5068091DF06813081F040E050E0BA0181
:103150008BE30E94EA1660E072E080E090E00E945B
:10316000151815B8599A11E012C0C5E6D0E08FEFD6
:103170000E94401640E050E0BA018AE30E94EA163D
:103180002197209711F38111F2CFDFCF10E0812F2B
:10319000DF91CF911F91FF90EF90DF90CF90089536
:1031A00080E185B9089515B808950E94E5154B99F9
:1031B00002C08F3FD1F708954F925F926F927F9236
:1031C0008F929F92AF92BF92CF92DF92EF92FF9237
:1031D0001F93CF93DF9360E070E0CB010E946217F2
:1031E000E091DB06F091DC0680818D7F893E51F114
:1031F000DF01A250BE4F8D919C9185359A4A11F006
:1032000086E014C0E254FE4F84818093E606608518
:103210007185828593850E946217E091DB06F091AB
:10322000DC0680818D7F893E29F083E08093D4067F
:1032300080E0A9C08091E6068B3021F0863011F045
:1032400084E0F4CFC091DB06D091DC064385548541
:103250005093F0064093EF0615851093F50686858A
:103260009785C48CD58CE68CF78CC80ED91EE11CD2
:10327000F11CC092F106D092F206E092F306F092B1
:10328000F4066091E606663019F42689378902C093
:103290002CA13DA1A089B0E02A9FC0012B9F900DD9
:1032A0003A9F900D112446015701880E991EA11CCA
:1032B000B11C8092E2069092E306A092E406B092DE
:1032C000E5064CA45DA46EA47FA46630B9F0A3010A
:1032D00092012250310941095109A12FB0E00E9409
:1032E000EF1D680D791D8A1D9B1D6093E706709385
:1032F000E8068093E9069093EA0626C00E94E01D46
:103300004B015C018C0C9D1CAE1CBF1C8092E7061F
:103310009092E806A092E906B092EA068189928925
:1033200035E0880F991F3A95E1F7BA010E94AA1D6E
:10333000860E971EA11CB11C8092E2069092E306B5
:10334000A092E406B092E506812F90E020E031E003
:10335000320F8130910521F096958795232FF7CF75
:103360002093F6068091E7069091E806A091E90681
:10337000B091EA068093EB069093EC06A093ED06DD
:10338000B093EE0681E0DF91CF911F91FF90EF9017
:10339000DF90CF90BF90AF909F908F907F906F9075
:1033A0005F904F9008954F925F926F927F928F92AD
:1033B0009F92AF92BF92CF92DF92EF92FF92CF9304
:1033C0002091E606263041F088248A94982CA82C77
:1033D0005FE0B52E22E006C088248A94982CA12CA8
:1033E000B12C21E004C0660F771F881F991F2A9512
:1033F000D2F72091EF063091F00640E050E00E94B5
:10340000BE1D2B013C01C090F106D090F206E09069
:10341000F306F090F406C20ED31EE41EF51ECAE0B9
:10342000C701B6010E946217882311F0C150C1F78D
:10343000E091DB06F091DC06E40DF51D6081718101
:1034400082819381682179218A219B21CF91FF90EC
:10345000EF90DF90CF90BF90AF909F908F907F9034
:103460006F905F904F9008954F925F926F927F920E
:103470008F929F92AF92BF92CF92DF92EF92FF9284
:10348000CF9368EEC62E63E0D62EE12CF12CC70157
:10349000B6010E94D319611571058105910591F05E
:1034A00030EAC31636E8D30631E0E306F10431F022
:1034B0002FEFC21AD20AE20AF20AE9CF60E070E006
:1034C000CB014EC040EAC41646E8D40641E0E4060B
:1034D000F10409F445C08091E606863011F062E0FF
:1034E00001C061E0A701960104C0220F331F441FF1
:1034F000551F6A95D2F7CA01B9012091EF063091A4
:10350000F00640E050E00E94BE1D2B013C0180907F
:10351000F1069090F206A090F306B090F406820EA9
:10352000931EA41EB51ECAE0C501B4010E94621715
:10353000882311F0C150C1F7E091DB06F091DC0661
:10354000E40DF51D8FEF90E0A0E0B0E08083918363
:10355000A283B383C501B4010E94CC17C701B60191
:10356000CF91FF90EF90DF90CF90BF90AF909F9062
:103570008F907F906F905F904F9008958F929F9261
:10358000AF92BF92EF92FF920F931F93CF93DF936F
:103590007C01F5E0EE0CFF1CFA95E1F7E701CD2F79
:1035A000DD27C6952091F506622F70E0CE010E94BE
:1035B000AA1D8B016091EB067091EC068091ED06DF
:1035C0009091EE060115110509F44AC03091E60606
:1035D000363071F48090E7069090E806A090E906F6
:1035E000B090EA06681579058A059B0509F454C070
:1035F0008090E2069090E306A090E406B090E50685
:10360000681979098A099B0930E040E050E00E947E
:10361000BE1DCA01B9016E5F7F4F8F4F9F4FA12C16
:10362000B12C0E94D3192FEFA21AB20AA016B1062C
:10363000C1F79B01AC012250310941095109A09108
:10364000F506B0E00E94EF1D8090E2069090E30640
:10365000A090E406B090E506680D791D8A1D9B1DBB
:103660009E01322F2227330FE21AF30A4091F5060A
:10367000409F9001419F300D1124C21BD30B6C0F52
:103680007D1F811D911D0E9462178091DB06909124
:10369000DC068E0D9F1D02C080E090E0DF91CF918F
:1036A0001F910F91FF90EF90BF90AF909F908F90E0
:1036B00008950F931F93FC01009789F48091E7060A
:1036C0009091E806A091E906B091EA068093EB0696
:1036D0009093EC06A093ED06B093EE063FC0938561
:1036E000892F807194FF3BC08091E606428D538DF7
:1036F0008B3071F484899589A0E0B0E0DC019927D2
:10370000882760E070E0842B952BA62BB72B03C095
:10371000CA01A0E0B0E00097A105B10579F29C01D3
:10372000AD012250310941095109A091F506B0E0DF
:103730000E94EF1D0091E2061091E3062091E4063D
:103740003091E506600F711F821F931F6093EB0697
:103750007093EC068093ED069093EE0681E01F9146
:103760000F910895FC01009719F480E090E008950E
:1037700080818823D1F3853EC1F38E3221F481818B
:103780008E3219F0F2CF853081F383858E3169F363
:103790008F3059F3883249F3CF0108950E94BE1A41
:1037A0000C94B21B000000000000000000000000AC
:1037B000000000000000089500000000000000006C
:1037C0002091D6062A95F1F70895AF93AFB7AF933E
:1037D000BF932F93A091D0062091CF06A22BA8B91A
:1037E000A4EBA6BD20E0E8DFA091CF06A8B9B09178
:1037F000A406BB2341F02093D0062F91BF91AF9137
:10380000AFBFAF911895A0E3ABB9A9B1A170AA0F52
:103810002A2FA0E1ABB9A0919206B0919306119620
:10382000A0939206B0939306A03989F4BC3079F442
:10383000A1E0A093A406CF93C0E7A8E0B0E3BBB992
:10384000B0E1BBB9AA95D1F7CA95B9F7CF9120934A
:10385000D0062F91BF91AF91AFBFAF9118952F9325
:103860002FB72F9330995BC03F9330919A0626B1C2
:1038700024702327E1F326B1247020939A0628E0D0
:103880002A95F1F700004F935F936F937F938F9387
:10389000EF93FF9360E0E091A506F091A6063DE569
:1038A00041E00DC050919A0676B174707527E1F32E
:1038B00076B1747070939A067EE07A95F1F727E0FE
:1038C00081E079B17470D9F4000000007BE17A9551
:1038D000F1F776B1747050919A0670939A06752735
:1038E00076957695880F872B2A9559F7853D09F4AB
:1038F00061E06030B9F281933150404099F69F9376
:10390000AF93BF930E94F404BF91AF919F91FF9139
:10391000EF918F917F916F915F914F913F912F9197
:103920002FBF2F91189581E00E9457028FEF80934F
:103930001601CBE80E94D411309B03C00E94D3181B
:10394000F9CF0E94D01883B18F7080930C019091B1
:103950000B01891761F180930B01883049F08430A5
:1039600009F4EFC0823009F4EEC0813001F5EDC0FA
:1039700082E02091A306820F982F97709695E92FE9
:10398000F0E0E459FF4FE49180FFE295EF708E2F55
:10399000887009F0E86F2E0F253C08F0D8C02093FE
:1039A000A3068091A3068C3810F0C093A3068091E3
:1039B000D106882309F4BECF8091A406882309F498
:1039C000B9CFF894309194063F5F3F7030939406DE
:1039D0002091A306269526952093D20640E1249FA8
:1039E000C0011124830F911D90939C0680939B0628
:1039F0000090F60602C0969587950A94E2F7909398
:103A0000180180931701FC01EE0FFF1FEE0FFF1F3F
:103A1000E955F94F80819181A281B3818093950608
:103A200090939606A0939706B093980680911601FE
:103A30002817B9F02093160163E08CE00E948014EF
:103A400082E791E00E94A1158091D2068A3020F48D
:103A500083E091E00E945B158091D20690E00E9485
:103A600067158091940690910D01981306C02091DE
:103A700012019091D206291741F190910E019813ED
:103A800006C0209113019091D2062917F1F0909170
:103A90000F01981306C0209114019091D2062917A6
:103AA000A1F090911001981306C0209115019091FA
:103AB000D206291751F090911101981308C09091E6
:103AC00016018091D206981302C00E948E04609164
:103AD000950670919606809197069091980662508F
:103AE0007109810991090090F60604C0660F771FDD
:103AF000881F991F0A94D2F70091E2061091E306FD
:103B00002091E4063091E506600F711F821F931F1C
:103B10002091F50630E02150310940919B065091EB
:103B20009C0624233523620F731F811D911D0E9463
:103B3000DC1610929306109292061092A4067894C6
:103B4000F9CE84E016CF86E014CF80E012CF109239
:103B5000A30627CFAA1BBB1B51E107C0AA1FBB1F8F
:103B6000A617B70710F0A61BB70B881F991F5A9509
:103B7000A9F780959095BC01CD010895A1E21A2E78
:103B8000AA1BBB1BFD010DC0AA1FBB1FEE1FFF1F01
:103B9000A217B307E407F50720F0A21BB30BE40B51
:103BA000F50B661F771F881F991F1A9469F7609598
:103BB0007095809590959B01AC01BD01CF01089552
:103BC000A29FB001B39FC001A39F700D811D11245E
:103BD000911DB29F700D811D1124911D08950E94A9
:103BE000E01DA59F900DB49F900DA49F800D911D89
:103BF00011240895FB01DC0105900D920020E1F7EE
:103C00000895FB01DC014150504030F08D9105904A
:103C1000801919F40020B9F7881B990B0895FB014E
:103C2000DC0104C08D910190801921F44150504075
:103C3000C8F7881B990B0895DC01FB0141505040E7
:103C400058F049F001900D920020C1F7E61BF70BE8
:103C50003197CF0108951C9201900020E9F7F6CF2B
:103C6000BB274A3031F4992322F4BDE29095819527
:103C70009F4F0C946D1EBB272A3051F4992342F4B8
:103C8000BDE290958095709561957F4F8F4F9F4FC6
:103C90000C944B1EBB27FA01A62F621771058105F4
:103CA0009105330B30FB66F0AA27660F771F881F3C
:103CB000991FAA1FA21710F0A21B63953850A9F7ED
:103CC000A05DAA3308F0A95DA19336F7B111B193B5
:103CD0001082CA010C949C1EBB27FB015527AA2702
:103CE000880F991FAA1FA41710F0A41B8395505189
:103CF000B9F7A05DAA3308F0A95DA193009779F701
:103D0000B111B1931192CB010C949C1EF999FECF85
:103D100092BD81BDF89A992780B50895262FF9990B
:103D2000FECF1FBA92BD81BD20BD0FB6F894FA9A9E
:103D3000F99A0FBE01960895DC01FC01672F71917D
:103D40007723E1F7329704C07C916D937083629181
:0C3D5000AE17BF07C8F30895F894FFCF2A
:063D5C00FFFFFE20000045
:00000001FF
