:100000000C94E9000C94A6150C9406010C940601BE
:100010000C9406010C9406010C9406010C94060144
:100020000C9406010C9406010C9406010C94060134
:100030000C9406010C9406010C9406010C94060124
:100040000C945C150C9406010C9406010C940601AA
:100050000C9406010C9406010C9406010C94060104
:100060000C9406010C94060120000FED032153446B
:1000700049534B494920434647004E6F2053442083
:10008000696E73657274656400464154313600468A
:100090004154333200547970653A2000436F6465EF
:1000A0003A2000534420426C6F636B204552524FFC
:1000B00052004D697373696E67204D4252202020B3
:1000C00000436C7573746572203C2033326B4200C0
:1000D0004E6F742046415431362F33322020004277
:1000E0006F6F7420736563746F7220202000534417
:1000F0002063616E277420696E6974200053442068
:1001000063616E27742069646C652000452052206D
:1001100052204F205200204E6F726D616C2053446C
:1001200020636172642000202020534448432063F0
:100130006172642020202000536F7274696E672002
:1001400066696C65732E2E2E00204E6F7468696E82
:10015000672068657265212020004275696C6469BA
:100160006E67206C6973742E2E2E0053656C656368
:1001700074204E494320696D6167650054523A20EE
:100180000053656C6563742064656C61793A202066
:100190000044656C61793A20002020202020202036
:1001A000202020202020202020004E49433A2000FB
:1001B00020204170706C65205D5B20425220202021
:1001C00000534449534B32204C434420762E352E65
:1001D000340011241FBECFEFD8E0DEBFCDBF11E049
:1001E000A0E0B1E0EAE4F0E302C005900D92AA308D
:1001F000B107D9F726E0AAE0B1E001C01D92A83FFF
:10020000B207E1F70E940A160C9423180C94000020
:100210000E94DA0E60E080E00E94E00E8AE790E043
:100220000E94300F61E081E00E94E00E89E991E0D8
:100230000E94300F4B99FECF0895CF93C82F14B86A
:1002400017B81AB815B818B81BB8249A2C9A8AE3AC
:1002500087B982E38AB992E098B99BB9399A3B9AF7
:10026000419A17BC14BC21E025BD95BF909369004D
:10027000109298061092D2061092D1061092D006D3
:10028000109297061092960610929E062093A5064D
:100290001092A4061092150110921D012EE131E07A
:1002A0003093A7062093A60680E090E00E94FD17F9
:1002B000823018F480939D0607C010929D0660E07E
:1002C00080E090E00E940518CC23E9F00E94960E91
:1002D0000E94DA0E60E080E00E94E00E81EC91E086
:1002E0000E94300F61E080E00E94E00E80EB91E020
:1002F0000E94300F2FED80E792E721508040904020
:10030000E1F700C00000CF910895FC01009789F04B
:100310008081882379F0853E61F08F3551F08085AA
:100320008E3439F48185893421F481E092859334C7
:1003300009F080E00895FC01009759F0808188233E
:1003400049F0853E31F08F3521F0838582958170AB
:10035000089580E00895CF92DF92EF92FF920F937D
:100360001F93CF93DF938FEF9FEF909301018093C3
:1003700000010E94AB136B017C01611571058105C1
:100380009105D9F180E090E00E94D01400E010E0E7
:10039000C8010E943514EC01009749F18881853E1F
:1003A00011F0811124C08B858F3009F11093010168
:1003B000009300016EE670E0CE010E94711781E0AB
:1003C0008B87FD8AEC8ADB8ECA8E6091D80670918D
:1003D000D9068091DA069091DB06DF91CF911F91CB
:1003E0000F91FF90EF90DF90CF900C9443110F5F2F
:1003F0001F4F003981E0180759F6DF91CF911F9107
:100400000F91FF90EF90DF90CF900895FF920F93A0
:100410001F93CF93DF93D82FF62EC42FA62FB0E0D3
:1004200040E1C49FA00DB11D1124FD010090F7060D
:1004300002C0F695E7950A94E2F7EE0FFF1FEE0F64
:10044000FF1FE855F94F008111812281338182E03D
:100450008BB91BB8E091F606F0E03197EA23FB2355
:100460004091E3065091E4066091E5067091E6063E
:100470004E0F5F1F611D711D0250110921093109C5
:100480000090F70604C0000F111F221F331F0A94AB
:10049000D2F7400F511F621F731F88E10E94121094
:1004A0008FEF0E94460F8EEF0E94460F80EB90E088
:1004B00030E120E33BB92BB901970097D9F71BB87E
:1004C00083E00E94460F8CEF0E94460F8FEF0E9440
:1004D000460F8FE30E94460F8FEC0E94460F83EF7A
:1004E0000E94460F8CEF0E94460F8FEF0E94460F2E
:1004F0008FE30E94460F8FEC0E94460F83EF0E940D
:10050000460F8CEF0E94460F85ED0E94460F8AEA47
:100510000E94460F86E90E94460F8FEF0E94460F09
:100520008EEF0E94460F8C2F86958A6A0E94460F96
:100530008C2F8A6A0E94460F8F2D86958A6A0E94A8
:10054000460F8F2D8A6A0E94460F1EEF1F251C271B
:10055000812F86958A6A0E94460F812F8A6A0E949F
:10056000460F8EED0E94460F8AEA0E94460F8BEEE0
:100570000E94460F8FEF0E94460F8FEF0E94460F9A
:100580008FEF0E94460F8FEF0E94460F8FEF0E9461
:10059000460F8EE591E0D89F9001D99F300D112430
:1005A000225E3E4F80E090E070E2A0E1B0E3F9010E
:1005B000E80FF91FE08148E050E060E8F62FFE23E5
:1005C00019F0ABB9BBB902C01BB87BB966954150F5
:1005D00051094115510591F701968D3541E0940778
:1005E00031F71BB880E790E030E120E33BB92BB94D
:1005F00001970097D9F71BB880E093E020E21BB881
:100600002BB901970097D9F71BB88FEF0E94460FBF
:100610008FEF0E94460F0E945C0F0E944C1282E0F6
:100620008BB91BB8DF91CF911F910F91FF90089567
:10063000CF92DF92EF92FF920F931F93CF93DF93AE
:100640004B9933C0E1E1F1E081918F3F51F1C6E177
:10065000D1E090E2E92E91E0F92E01E111E0D12CF8
:10066000CC24CA94F80160816F3F21F048818D2D20
:100670000E940602F801C1928F01C992F70110820F
:10068000D394F2EAEF1AFEEFFF0A84E0D812EACF21
:10069000109215018EE191E09093A7068093A60633
:1006A00004C081E0E531F80779F6DF91CF911F9121
:1006B0000F91FF90EF90DF90CF9008958091960674
:1006C0009091970680399C40C0F480E18BB980916D
:1006D00096069091970620E330E1803140E194073F
:1006E00030F44B990AC02BB93BB90196F6CF80E99B
:1006F0009CE0909397068093960608954B996EC060
:1007000040911501842F90E02EE531E0829FF001A9
:10071000839FF00D929FF00D1124E25EFE4F228127
:100720002D3A09F042C020911D01211131C02091C4
:100730009806FC01EF5EFE4F2083FC01EA5EFE4F4F
:100740003091A406369536953083822F8D7F8D307B
:1007500011F482E001C081E0820F8F7080939806CF
:10076000433029F40E945E030E9418031BC04F5FB0
:10077000409315012EE531E0429FC001439F900D4B
:100780001124825E9E4F9093A7068093A6060DC00B
:1007900080910E018093980610921D018F3029F4EC
:1007A0000E945E0381E08093A506209115018EE5ED
:1007B00091E0289FF001299FF00D1124E25EFE4F89
:1007C0008281863959F487818575880F9085957562
:1007D000892B80930E0181E080931D0108952EE105
:1007E00031E080E090E0F901E80FF91F10820196F6
:1007F0008E3541E09407B9F7225A3E4F86E02639FC
:10080000380779F78FEF8093160180931101809359
:100810001701809312018093180180931301809334
:100820001901809314010895CF93C82F2FEF3FEF44
:1008300030930101209300010E940A1059984B9BAC
:1008400003C00E9408014CC02EE131E03093DD0668
:100850002093DC060E949111811144C00E94DA0E9F
:1008600060E080E00E94E00E8CE091E00E94300F9A
:1008700061E080E00E94E00E8091D506813019F49D
:100880008DEF90E004C0823029F48EEE90E00E945B
:10089000300F22C0833019F48FED90E0F8CF843010
:1008A00019F480ED90E0F3CF853019F481EC90E0FD
:1008B000EECF863019F482EB90E0E9CF873019F45F
:1008C00083EA90E0E4CF8CE990E00E94300F8091C1
:1008D000D50690E00E94F60E1092D2064B9BFECFFA
:1008E00080E0B0C0CC23D9F00E94DA0E60E080E056
:1008F0000E94E00E8091E006823019F487E291E0D8
:1009000002C086E191E00E94300F59982FE38BE4FA
:100910009CE4215080409040E1F700C000000E941C
:100920005312811143C00E94DA0E60E080E00E9401
:10093000E00E8CE091E00E94300F61E080E00E94C8
:10094000E00E8091D506813019F48DEF90E004C05F
:10095000823029F48EEE90E00E94300F22C0833066
:1009600019F48FED90E0F8CF843019F480ED90E029
:10097000F3CF853019F481EC90E0EECF863019F496
:1009800082EB90E0E9CF873019F483EA90E0E4CF7E
:100990008CE990E00E94300F8091D50690E00E9493
:1009A000F60E1092D2064B9BFECF9ACF8091F606A0
:1009B0004091F0065091F106849F9001859F300D83
:1009C000112421153047D0F485E08093D5060E948C
:1009D000DA0E60E080E00E94E00E8CE091E00E9480
:1009E000300F61E080E00E94E00E81EC90E00E9418
:1009F000300F1092D2064B9BFECF72CFCC23E1F08A
:100A000061E080E00E94E00E85E990E00E94300FF6
:100A10008091E7068B3019F48FE890E002C089E8F6
:100A200090E00E94300F9FE32BE48CE49150204033
:100A30008040E1F700C0000059980E94EF030E9437
:100A4000061081E0CF9108958F929F92AF92BF924E
:100A5000CF92DF92EF92FF920F931F93CF93DF938A
:100A6000EC017B016115710519F480E090E048C14B
:100A700060E080E00E94E00E8AEA91E00E94300F80
:100A8000670100E010E0F60181916F01803211F002
:100A90000E94E80E0F5F1F4F08301105A1F789E98A
:100AA00091E00E94300F61E080E00E94E00E89E951
:100AB00091E00E94300F61E080E00E94E00E81E949
:100AC00091E00E94300F8091D70690E00E94F60ED0
:100AD000D0930B01C0930A018091E706F701028DC4
:100AE000138D8B3071F464897589CB01A0E0B0E07F
:100AF0007727662720E030E0602B712B822B932B29
:100B000003C0B80180E090E0611571058105910591
:100B100009F4ABCFE8EAF6E011921192119211922A
:100B200026E0E03DF207C1F76093A8067093A9069E
:100B30008093AA069093AB0611E0663FFFEF7F0714
:100B400081059105A8F40E944A13663FEFEF7E07E6
:100B50008105910558F424E0129FF0011124E85515
:100B6000F94F60837183828393831F5F1A3028F368
:100B7000C090EC06D090ED06E090EE06F090EF0607
:100B80008091000190910101019609F48AC080E0F2
:100B900090E00E94D0148FEF9FEFDC018093D80685
:100BA0009093D906A093DA06B093DB0680910001FA
:100BB000909101010E9445152091E706FC01428DAC
:100BC000538D2B3071F484899589A0E0B0E0DC016D
:100BD0009927882760E070E0842B952BA62BB72BF4
:100BE00003C0CA01A0E0B0E04C015D01F2E08F1A41
:100BF0009108A108B108A091F606B0E0A501940102
:100C00000E9466170091E3061091E4062091E50624
:100C10003091E606600F711F821F931F0E94D9104A
:100C2000E091DC06F091DD068DEC92E0ABEAB1E0FC
:100C300080839183A283B3834581568167817085C8
:100C4000818592854C155D056E057F0519F48C171D
:100C50009D0731F04387548765877687908B878718
:100C6000C582D682E782F086D287C1878091D70677
:100C700084838091A106818BA091F606B0E0A50146
:100C800094010E9466178090E3069090E406A0907D
:100C9000E506B090E606680D791D8A1D9B1D0E9431
:100CA0004311C092EC06D092ED06E092EE06F0926F
:100CB000EF0610929706109296061092D1061092A7
:100CC0009E06C1E0C093A5061092A4061092980655
:100CD0001092150110921D018EE191E09093A706EC
:100CE0008093A606599840E052E060E070E080E111
:100CF0000E9461100E94EF03C093D20681E090E051
:100D0000DF91CF911F910F91FF90EF90DF90CF90E7
:100D1000BF90AF909F908F900895CF92DF92EF9207
:100D2000FF920F931F93CF93DF93C090EC06D09068
:100D3000ED06E090EE06F090EF06809100019091B4
:100D40000101019609F477C080E090E00E94D01480
:100D50008FEF9FEFDC018093D8069093D906A09384
:100D6000DA06B093DB0680910001909101010E94A8
:100D700045152091E706FC01428D538D2B3071F40F
:100D800084899589A0E0B0E0DC019927882760E09C
:100D900070E0842B952BA62BB72B03C0CA01A0E0D3
:100DA000B0E09C01AD012250310941095109A091E7
:100DB000F606B0E00E9466170091E3061091E40683
:100DC0002091E5063091E606600F711F821F931F88
:100DD0000E94D910E091DC06F091DD068FEF9FEFC5
:100DE000DC018093D8069093D906A093DA06B093DD
:100DF000DB0683859485A585B6858093EC06909364
:100E0000ED06A093EE06B093EF0607851089C801A2
:100E10000E944515EC010E948501882361F0BE0106
:100E2000C801DF91CF911F910F91FF90EF90DF905C
:100E3000CF900C942405C092EC06D092ED06E0927F
:100E4000EE06F092EF06DF91CF911F910F91FF9088
:100E5000EF90DF90CF9008955E9A2D9A5F9A089553
:100E60007F928F929F92AF92BF92CF92DF92EF923A
:100E7000FF920F931F93CF93DF930E94DA0E60E0EF
:100E800080E00E94E00E81E891E00E94300F61E076
:100E900080E00E94E00E81E991E00E94300F809195
:100EA000D70690E00E94F60E9090D706A92CBB249E
:100EB000B39477247394DAE08D2E0E942C078091EE
:100EC000D7068A1599F061E080E00E94E00E81E982
:100ED00091E00E94300F8091D70690E00E94F60EBC
:100EE00088E690E00E94300FA090D7064B996DC124
:100EF00089B120919D0641E050E0222311F040E0AD
:100F000050E093B161E070E0213011F060E070E0FA
:100F10009295969597709B259170C92F20E0D22FBE
:100F2000C69F9001C79F300DD69F300D1124992781
:100F300087FD9095809590958827990F881F992710
:100F4000849FF001859FF00D949FF00D11242E2BAE
:100F50003F2B232BB1F189B193B192959695977060
:100F60009B25092F017010E0069F9001079F300D0F
:100F7000169F300D1124992787FD909580959095A7
:100F80008827990F881F9927849FF001859FF00D6E
:100F9000949FF00D11242E2B3F2B232BE1F68FE392
:100FA00092E4EFE081509040E040E1F700C00000A3
:100FB0008091D70681508093D706811102C080921C
:100FC000D706E3B190919D0621E030E0992311F01E
:100FD00020E030E089B141E050E0913011F040E094
:100FE00050E0992787FD9095809590958827990FD7
:100FF000881F9927849FB001859F700D949F700D65
:1010000011248E2F8295869587708B2580FBEE2488
:10101000E0F8F12CE29EC001E39E900DF29E900D4F
:101020001124682B792B672BB9F1E3B189B199278A
:1010300087FD9095809590958827990F881F99270F
:10104000849FB001859F700D949F700D1124E295CF
:10105000E695E770EB25E0FBCC24C0F8D12CC29ECE
:10106000C001C39E900DD29E900D1124682B792B48
:10107000672BD9F6FFE322E48FE0F1502040804057
:10108000E1F700C000008091D7068F5F8093D706FC
:101090008B3010F07092D7064E990FCF4E9BFECF3B
:1010A0009FE3E2E4FFE09150E040F040E1F700C050
:1010B00000008091D706891509F487C0809100014E
:1010C00090910101019609F480C080E090E00E94B7
:1010D000D0148EE191E09093DD068093DC060E94AF
:1010E000EF031092D8061092D9061092DA061092E9
:1010F000DB0680910001909101010E94451520912D
:10110000E706FC01428D538D2B3071F4848995895B
:10111000A0E0B0E0DC019927882760E070E0842B34
:10112000952BA62BB72B03C0CA01A0E0B0E06C0141
:101130007D01F2E0CF1AD108E108F108A091F6068E
:10114000B0E0A70196010E9466170091E306109196
:10115000E4062091E5063091E606600F711F821FBC
:10116000931F0E94D910E091DC06F091DD0680818A
:101170009181A281B3818D3C9240AB4AB14029F567
:101180008091D7068483A091F606B0E0A70196016E
:101190000E9466170091E3061091E4062091E5068F
:1011A0003091E606600F711F821F931FDF91CF9170
:1011B0001F910F91FF90EF90DF90CF90BF90AF9075
:1011C0009F908F907F900C944311DF91CF911F914E
:1011D0000F91FF90EF90DF90CF90BF90AF909F90D6
:1011E0008F907F9008953F924F925F926F927F927F
:1011F0008F929F92AF92BF92CF92DF92EF92FF9227
:101200000F931F93CF93DF93CDB7DEB72A970FB617
:10121000F894DEBF0FBECDBF10920D0110920C01ED
:101220008EE191E09093DD068093DC068AED93E0F9
:101230009093A3068093A2068FEF9FEFDC0180932B
:10124000D8069093D906A093DA06B093DB060E94E5
:10125000EF0360E080E00E94E00E8BE691E00E94E8
:10126000300F61E080E00E94E00E8AE591E00E948C
:10127000300F00E010E0C8010E9445155C010097A6
:1012800099F0FC01808181110FC080910C01909137
:101290000D01892BC9F561E080E00E94E00E89E430
:1012A00091E00E94300F0AC2C5010E9485018111A0
:1012B00005C0C5010E949B018823B9F080910C01F3
:1012C00090910D01880F991FE091A206F091A3065D
:1012D000E80FF91F1183008380910C0190910D019B
:1012E000019690930D0180930C010F5F1F4F809129
:1012F0000C0190910D01883C91053CF60039F1E01C
:101300001F0709F0B8CFC1CF61E080E00E94E00E76
:1013100088E391E00E94300F80910C0190910D01C3
:1013200002978CF420910C0130910D0140910A013B
:1013300050910B01E091A206F091A30600E010E0AD
:1013400080E090E063C0812C912C80910C01909101
:101350000D010197881699062CF700E010E0AA24E9
:10136000A394B12C80910C0190910D0188199909D9
:10137000A816B9060CF03FC03501660C771CE09149
:10138000A206F091A306E60DF71D808191810E94CF
:10139000451548E050E0BC01CE0101960E9493172C
:1013A000E091A206F091A306E00FF11F80819181E8
:1013B0000E94451548E050E0BC01CE0101960E9414
:1013C000861797FF12C0E091A206F091A306DF01F5
:1013D000A60DB71D8D919C911197E00FF11F2081F3
:1013E00031812D933C93918380832FEFA21AB20A0F
:1013F0000E5F1F4FB7CF8FEF881A980AA6CF619163
:1014000071914617570709F48C01019682179307CB
:10141000B4F3AA24AA94BA2C992493940E942C077A
:101420004B994CC189B120919D0641E050E02223A7
:1014300011F040E050E093B161E070E0213011F034
:1014400060E070E0929596959770992591709987D4
:101450001A86E985FA85E69F9001E79F300DF69F91
:10146000300D1124992787FD9095809590958827B8
:10147000990F881F9927849FF001859FF00D949FF5
:10148000F00D11242E2B3F2B232BC9F189B193B1E1
:10149000929596959770992590FB442440F8512C8D
:1014A000469E9001479E300D569E300D112499277F
:1014B00087FD9095809590958827990F881F99278B
:1014C000849FF001859FF00D949FF00D11242E2B29
:1014D0003F2B232BD9F6FFE322E48FE0F15020408D
:1014E0008040E1F700C000000F5F1F4F80910C01AA
:1014F00090910D010817190711F400E010E0E3B115
:1015000090919D0621E030E0992311F020E030E039
:1015100089B141E050E0913011F040E050E099276E
:1015200087FD9095809590958827990F881F99271A
:10153000849FB001859F700D949F700D11248E2F94
:10154000829586958770892580FBEE24E0F8F12C42
:10155000E29EC001E39E900DF29E900D1124682B37
:10156000792B672BC1F1E3B189B1992787FD90955C
:10157000809590958827990F881F9927849FB0019F
:10158000859F700D949F700D1124E295E695E7708C
:10159000E925E0FBCC24C0F8D12CC29EC001C39E3B
:1015A000900DD29E900D1124682B792B672BD9F6C4
:1015B0009FE3E2E4FFE09150E040F040E1F700C03B
:1015C00000000150110917FF06C000910C01109195
:1015D0000D01015011094E992EC04E9BFECF2FE3F5
:1015E00082E49FE0215080409040E1F700C000007D
:1015F000000F111FE091A206F091A306E00FF11F6A
:10160000808191810E9445157C010E949B01882365
:1016100031F0C7010E94D0140E94F3084FC0E0913E
:10162000A206F091A306E00FF11FB701808191811E
:101630000E94240543C00A151B0509F4EFCEE09172
:10164000A206F091A306C801880F991FE80FF91FA1
:10165000808191810E944515382E892E61E080E0BD
:101660000E94E00E832D982D0E949B01882321F07B
:1016700083E091E00E94EA0EA32CB82C612C712C1F
:10168000F50181915F01803211F00E94E80EFFEFB9
:101690006F1A7F0A28E06216710491F7832D982D46
:1016A0000E949B01882321F085E091E00E94EA0ED0
:1016B00089E991E00E94300F5801B0CE2A960FB60A
:1016C000F894DEBF0FBECDBFDF91CF911F910F9178
:1016D000FF90EF90DF90CF90BF90AF909F908F9052
:1016E0007F906F905F904F903F900895CF92DF92E0
:1016F000EF92FF920F931F93CF93DF938EE191E0D0
:101700009093DD068093DC068FEF9FEFDC018093E2
:10171000D8069093D906A093DA06B093DB0680E052
:1017200090E00E94D0148FEF9FEF9093010180937F
:101730000001CFEFDFEF00E010E0C8010E94451587
:101740007C01009709F483C0FC018081882309F49F
:1017500085C0C7010E948501882329F0CF3FFFEF94
:10176000DF0709F4E8014BE050E06EE670E0C701E6
:101770000E947817892B09F06AC010930101009329
:1017800000012091E706F701828D938D2B3071F4D3
:101790004489558960E070E0BA0155274427A0E0EC
:1017A000B0E0482B592B6A2B7B2B03C0AC0160E0C7
:1017B00070E09A01AB012250310941095109A09111
:1017C000F606B0E00E946617C090E306D090E406EB
:1017D000E090E506F090E6066C0D7D1D8E1D9F1DC8
:1017E0000E94D910E091DC06F091DD0680819181A4
:1017F000A281B3818D3C9240AB4AB14001F5848116
:101800008093D70685819681A781B0858093EC0669
:101810009093ED06A093EE06B093EF06E184F28478
:10182000C7010E944515009731F00E948501882369
:1018300011F0E70113C080E090E00E94D01480E036
:1018400090E00E94D014CF3F8FEFD807E1F40F5FF4
:101850001F4F0039E1E01E0709F06FCFCF3FFFEFC8
:10186000DF0789F4F8940E94F3084B991BC080911C
:10187000D206882331F080916E00816080936E00E3
:10188000E89A78940FC0CE010E944515BC01CE01A4
:10189000DF91CF911F910F91FF90EF90DF90CF904C
:1018A0000C942405DF91CF911F910F91FF90EF9041
:1018B000DF90CF9008954F925F926F927F928F92B8
:1018C0009F92AF92BF92CF92DF92EF92FF920F93CF
:1018D0001F93CF93DF930E942C074B9B23C08FEF66
:1018E00090E04B9BC3C101970097D9F780916E00A0
:1018F0008E7F80936E00E8981092D2061092A50613
:10190000DF91CF911F910F91FF90EF90DF90CF90DB
:10191000BF90AF909F908F907F906F905F904F900F
:101920000C940801309B85C14E9B5AC089B16091CF
:101930009D0621E030E0662311F020E030E093B115
:1019400041E050E0613011F040E050E09295969512
:101950009770A1E09A2790FB882480F8912C849EB0
:10196000B001859E700D949E700D1124992787FDFE
:101970009095809590958827990F881F9927829F29
:10198000F001839FF00D929FF00D11246E2B7F2BA1
:10199000672B31F5E3B189B1992787FD9095809543
:1019A00090958827990F881F9927849FB001859F5C
:1019B000700D949F700D1124E295E695E770EA276B
:1019C000E0FBAA24A0F8B12CA29EC001A39E900D1A
:1019D000B29E900D1124682B792B672B09F429C135
:1019E0004E9911C084E690E021E04E9920E00197E5
:1019F0000097D9F7222309F439C14E9BFECFF89402
:101A00000E94F30813C149B160919D0681E090E006
:101A1000662311F080E090E053B121E030E06130C6
:101A200011F020E030E0529556955770A1E05A270A
:101A300050FBCC24C0F8D12CC29EB001C39E700DC7
:101A4000D29E700D1124552747FD50954095509515
:101A50004427550F441F5527489FF001499FF00D1B
:101A6000589FF00D11246E2B7F2B672B09F45DC05E
:101A700064E670E0C1E0D1E049B153B152955695AA
:101A800057705D2750FBEE24E0F8F12CE29EF00148
:101A9000E39EF00DF29EF00D1124552747FD509561
:101AA000409550954427550F441F5527489FD00116
:101AB000499FB00D589FB00D1124EA2BFB2BEF2B43
:101AC00009F4C0E06150710961157105A9F6CC23D4
:101AD00009F4CCC0A1E049B153B152955695577065
:101AE0005A27052F017010E0029FB001039F700D6F
:101AF000129F700D1124552747FD50954095509524
:101B00004427550F441F5527489FF001499FF00D6A
:101B1000589FF00D11246E2B7F2B672BE1F6F89464
:101B20000E9430074B99A2C094C0E3B149B1552738
:101B300047FD5095409550954427550F441F552714
:101B4000429FB001439F700D529F700D1124E2958A
:101B5000E695E770EA27E170CE2F40E0D42FC89FCA
:101B6000A001C99F500DD89F500D1124642B752BD7
:101B7000672B09F47BC064E670E0B1E0C1E0A3B17B
:101B800049B1552747FD5095409550954427550F2D
:101B9000441F5527429FF001439FF00D529FF00DC7
:101BA0001124A295A695A770AC27A0FB662460F827
:101BB000712C689EA001699E500D789E500D1124D5
:101BC000E42BF52BEF2B09F4B0E06150710961159E
:101BD0007105A9F6BB2309F449C0F1E0E3B149B1AD
:101BE000552747FD5095409550954427550F441F64
:101BF0005527429FB001439F700D529F700D1124D5
:101C0000E295E695E770EF27E0FB442440F8512C7D
:101C1000489EA001499E500D589E500D1124642BE2
:101C2000752B672BD9F6F8940E948D064B9B13C039
:101C30001DC08091D206811119C08FEF90E04B99A1
:101C400015C001970097D9F7F89481E00E94140419
:101C500081110E94760B8091D206882331F0809109
:101C60006E00816080936E00E89A7894DF91CF9146
:101C70001F910F91FF90EF90DF90CF90BF90AF90AA
:101C80009F908F907F906F905F904F9008954598B0
:101C900080FF02C0419A01C0419881FF02C0439A6F
:101CA00001C0439882FF02C05C9A01C05C9883FF28
:101CB00002C05D9A01C05D98459A88E08A95F1F767
:101CC0000000459888E08A95F1F700000895CF93C9
:101CD000C82F599A449882958F700E94470E8C2F76
:101CE0008F700E94470ECC7F29F086E791E0019724
:101CF000F1F704C080E899E20197F1F700C0000015
:101D0000CF910895CF93C82F599A449A82958F7096
:101D10000E94470E8C2F8F700E94470E80E792E042
:101D20000197F1F700C00000CF91089544982FE883
:101D300080ED93E0215080409040E1F700C000002A
:101D400083E00E94470E81E19AE70197F1F700C016
:101D5000000083E00E94470E81E19AE70197F1F7C6
:101D600000C0000083E00E94470E81E19AE70197DE
:101D7000F1F700C0000082E00E94470E81E19AE77F
:101D80000197F1F700C0000088E20E94670E88E02A
:101D90000E94670E81E00E94670E82E00E94670E3B
:101DA00086E00E94670E8CE00E94670E8AEA8093AC
:101DB000A106089581E00E94670E82E00C94670EF0
:101DC0008F7060FD02C0805801C080540C94670E73
:101DD0000C94820ECF93DF93EC018991882319F044
:101DE0000E94820EFACFDF91CF910895CF93DF93B7
:101DF000CDB7DEB72A970FB6F894DEBF0FBECDBFC2
:101E00004AE0BE016F5F7F4F0E94A717CE01019687
:101E10000E94EA0E2A960FB6F894DEBF0FBECDBF21
:101E2000DF91CF910895CF93DF93CDB7DEB72A9797
:101E30000FB6F894DEBF0FBECDBF2AE0AE014F5FF4
:101E40005F4F0E94B217CE0101960E94EA0E2A96B9
:101E50000FB6F894DEBF0FBECDBFDF91CF910895CE
:101E6000CF93DF93FC018491EF012196882321F029
:101E70000E94820EFE01F7CFDF91CF910895519A13
:101E8000549A559A50981092D406089528E030E05C
:101E900090E840E250E160E3792F782319F05BB9D4
:101EA0006BB902C01BB84BB9969521503109211569
:101EB000310591F71BB80895CF93DF931F92CDB7EB
:101EC000DEB780E18BB9198280E020E330E19981AF
:101ED000983051F02BB999B1880F9170892B3BB98B
:101EE00099819F5F9983F3CF0F90DF91CF910895F0
:101EF00082E38BB982E18BB9089528E100002A952D
:101F0000E9F70197D1F708950895DF92EF92FF92D4
:101F10000F931F93CF93DF93082FC8E0D0E010E812
:101F200080E2F82E90E1E92E20E3D22E812F80234B
:101F300039F0EBB881E090E00E947D0FDBB806C07D
:101F40001BB881E090E00E947D0FFBB816952197A9
:101F5000209761F781E090E00E947D0F1BB8DF9130
:101F6000CF911F910F91FF90EF90DF900895909186
:101F7000D406911103C00E94850F02C00E94460F33
:101F800080E00895FF920F931F93CF93DF931F92EA
:101F9000CDB7DEB780E18BB981E090E00E947D0F84
:101FA000198210E030E3F32E00E18981883091F04E
:101FB000FBB881E090E00E947D0F89B1110F817024
:101FC000182B0BB981E090E00E947D0F89818F5F13
:101FD0008983EBCF812F0F90DF91CF911F910F91CC
:101FE000FF9008958091D406811102C00C94C20F15
:101FF0000C945C0F82E38BB981E090E00E947D0F2E
:1020000082E18BB981E090E00C947D0F81E08093B8
:10201000D40608951092D40608950E945C0F87FD9F
:10202000FCCF08951F93CF93DF9300D000D0CDB79E
:10203000DEB7182F0090D60604C0440F551F661F48
:10204000771F0A94D2F78FEF49835A836B837C837F
:102050000E94460F812F80640E94460F7C81872F4B
:102060000E94460F6B81862F0E94460F5A81852F52
:102070000E94460F4981842F0E94460F85E90E94E5
:10208000460F8FEF0E94460F0E940D108093E106CD
:1020900081508E3FC8F30F900F900F900F90DF91FB
:1020A000CF911F910895AB01BC011092DF0681E131
:1020B0000E9412100E945C0F8093E2068E3FD1F7BF
:1020C0000895FF920F931F93CF93DF9300D000D01A
:1020D000CDB7DEB7082F8091DE06811113C08FEED9
:1020E000800F823040F088EE800F823020F080EE4A
:1020F000800F823038F489E0440F551F661F771F28
:102100008A95D1F78FEF49835A836B837C830E9432
:10211000B70F802F80640E94B70F7C81872F0E94A9
:10212000B70F6B81862F0E94B70F5A81852F0E94AF
:10213000B70F4981842F0E94B70F083011F487E848
:1021400001C085E90E94B70F10E00E94F20FF82E3F
:102150008FEFF81203C01150C1F71EC0F1101CC060
:102160000A33D1F40E94F20F1092D60686FF05C002
:1021700081E08093DE0682E006C01092DE0689E0F0
:102180008093D60681E08093E0060E94F20F0E94C1
:10219000F20F0E94F20FF12C0E94F20F8F2D0F9080
:1021A0000F900F900F90DF91CF911F910F91FF90A3
:1021B0000895EF92FF920F931F93CF93DF9300D078
:1021C00000D0CDB7DEB7AB01BC018091D8069091AD
:1021D000D906A091DA06B091DB06481759076A07BD
:1021E0007B0709F444C04093D8065093D906609306
:1021F000DA067093DB0659988FEF49835A836B8315
:102200007C830E94B70F8FEF0E94B70F49815A81DC
:102210006B817C8181E10E946110811129C000E005
:1022200010E00E94F20F8E3F41F00150110901159C
:102230001105B9F7599A80E01BC0E12CF12C0091EF
:10224000DC061091DD060E0D1F1D0E94F20FF80135
:102250008083FFEFEF1AFF0AE11482E0F80679F7B6
:102260000E94F20F0E94F20F0E94F20F599A81E031
:102270000F900F900F900F90DF91CF911F910F91C2
:10228000FF90EF900895CF93DF93AB01BC0188E1FD
:102290000E94611081113DC059988EEF0E94B70FC6
:1022A000C0E0D0E0E091DC06F091DD06EC0FFD1F10
:1022B00080810E94B70F2196C11582E0D80791F75F
:1022C0008FEF0E94B70F8FEF0E94B70F0E94F20F9F
:1022D000982F9F71953079F4C0E0D0E00E94F20F02
:1022E000811103C02196D1F706C0599A8FEF0E9441
:1022F000B70F599808C0599A0CC09E012F5F3F4FE5
:102300002196C9F3E9010E94F20F8823B1F3599A8B
:1023100081E0DF91CF910895AB01BC0180E10C9485
:102320006110CF92DF92EF92FF921F93CF93DF93D2
:102330001092D50685E08093D7060E943F0F0E9439
:102340000A104B999AC080E185B9599A8FE097E2BB
:10235000A0E0B0E08093D8069093D906A093DA0667
:10236000B093DB06C4E60E94FA0FC150E1F759981A
:102370001CE08FEF0E94B70F1150D9F7C0E0D8E0F2
:1023800040E050E0BA0180E00E9461102197209760
:1023900031F415B8599A81E08093D5066FC0813029
:1023A00079F7CCE08FEF0E94B70FC150D9F7C1E0A9
:1023B000D2E04AEA51E060E070E088E00E946110FB
:1023C0008A3A49F481E08093E006C12CD12CE12CBB
:1023D00090E4F92E0AC08130A9F32197209749F79C
:1023E0001092E006C12CD12C76011CE08FEF0E94E8
:1023F000B70F1150D9F7C1E0D2E040E050E0BA0188
:1024000087E30E946110B701A60189E20E94611072
:102410002197209731F482E08093D50615B8599A18
:102420002DC08111EACF1092DE0689E08093D60696
:102430008091E006813081F040E050E0BA018BE30A
:102440000E94611060E072E080E090E00E948C11D8
:1024500015B8599A11E012C0C5E6D0E08FEF0E947E
:10246000B70F40E050E0BA018AE30E946110219763
:10247000209711F38111F2CFDFCF10E0812FDF9190
:10248000CF911F91FF90EF90DF90CF90089580E162
:1024900085B9089515B808950E945C0F4B9902C044
:1024A0008F3FD1F708954F925F926F927F928F92F4
:1024B0009F92AF92BF92CF92DF92EF92FF921F93C3
:1024C000CF93DF9360E070E0CB010E94D910E091E0
:1024D000DC06F091DD0680818D7F893E51F1DF01C0
:1024E000A250BE4F8D919C9185359A4A11F086E09D
:1024F00014C0E254FE4F84818093E70660857185A5
:10250000828593850E94D910E091DC06F091DD066A
:1025100080818D7F893E29F083E08093D50680E01D
:10252000A9C08091E7068B3021F0863011F084E05D
:10253000F4CFC091DC06D091DD06438554855093DD
:10254000F1064093F00615851093F606868597856B
:10255000C48CD58CE68CF78CC80ED91EE11CF11CFE
:10256000C092F206D092F306E092F406F092F506DD
:102570006091E706663019F42689378902C02CA1DC
:102580003DA1A089B0E02A9FC0012B9F900D3A9FEA
:10259000900D112446015701880E991EA11CB11CF3
:1025A0008092E3069092E406A092E506B092E606D9
:1025B0004CA45DA46EA47FA46630B9F0A30192017F
:1025C0002250310941095109A12FB0E00E9466173C
:1025D000680D791D8A1D9B1D6093E8067093E906BE
:1025E0008093EA069093EB0626C00E9457174B0192
:1025F0005C018C0C9D1CAE1CBF1C8092E806909266
:10260000E906A092EA06B092EB068189928935E04C
:10261000880F991F3A95E1F7BA010E942117860E9B
:10262000971EA11CB11C8092E3069092E406A09232
:10263000E506B092E606812F90E020E031E0320F0F
:102640008130910521F096958795232FF7CF209320
:10265000F7068091E8069091E906A091EA06B0910C
:10266000EB068093EC069093ED06A093EE06B093F4
:10267000EF0681E0DF91CF911F91FF90EF90DF9007
:10268000CF90BF90AF909F908F907F906F905F9012
:102690004F9008954F925F926F927F928F929F9288
:1026A000AF92BF92CF92DF92EF92FF92CF932091A1
:1026B000E706263041F088248A94982CA82C5FE005
:1026C000B52E22E006C088248A94982CA12CB12C27
:1026D00021E004C0660F771F881F991F2A95D2F743
:1026E0002091F0063091F10640E050E00E9435174D
:1026F0002B013C01C090F206D090F306E090F40666
:10270000F090F506C20ED31EE41EF51ECAE0C70106
:10271000B6010E94D910882311F0C150C1F7E09191
:10272000DC06F091DD06E40DF51D6081718182818A
:102730009381682179218A219B21CF91FF90EF908D
:10274000DF90CF90BF90AF909F908F907F906F90D1
:102750005F904F9008954F925F926F927F928F9209
:102760009F92AF92BF92CF92DF92EF92FF92CF9360
:1027700068EEC62E63E0D62EE12CF12CC701B6011F
:102780000E944A13611571058105910591F030EAA7
:10279000C31636E8D30631E0E306F10431F02FEF3B
:1027A000C21AD20AE20AF20AE9CF60E070E0CB0175
:1027B0004EC040EAC41646E8D40641E0E406F104FF
:1027C00009F445C08091E706863011F062E001C04F
:1027D00061E0A701960104C0220F331F441F551F5B
:1027E0006A95D2F7CA01B9012091F0063091F1063D
:1027F00040E050E00E9435172B013C018090F2062A
:102800009090F306A090F406B090F506820E931E09
:10281000A41EB51ECAE0C501B4010E94D9108823C8
:1028200011F0C150C1F7E091DC06F091DD06E40D36
:10283000F51D8FEF90E0A0E0B0E080839183A2834C
:10284000B383C501B4010E944311C701B601CF9102
:10285000FF90EF90DF90CF90BF90AF909F908F90C0
:102860007F906F905F904F9008958F929F92AF925C
:10287000BF92EF92FF920F931F93CF93DF937C0150
:10288000F5E0EE0CFF1CFA95E1F7E701CD2FDD270F
:10289000C6952091F606622F70E0CE010E942117A6
:1028A0008B016091EC067091ED068091EE0690919F
:1028B000EF060115110509F44AC03091E7063630DC
:1028C00071F48090E8069090E906A090EA06B09036
:1028D000EB06681579058A059B0509F454C08090BC
:1028E000E3069090E406A090E506B090E60668192D
:1028F00079098A099B0930E040E050E00E943517D1
:10290000CA01B9016E5F7F4F8F4F9F4FA12CB12C31
:102910000E944A132FEFA21AB20AA016B106C1F7FD
:102920009B01AC012250310941095109A091F606E1
:10293000B0E00E9466178090E3069090E406A090B5
:10294000E506B090E606680D791D8A1D9B1D9E0167
:10295000322F2227330FE21AF30A4091F606409FE6
:102960009001419F300D1124C21BD30B6C0F7D1FB2
:10297000811D911D0E94D9108091DC069091DD0689
:102980008E0D9F1D02C080E090E0DF91CF911F91DE
:102990000F91FF90EF90BF90AF909F908F90089510
:1029A0000F931F93FC01009789F48091E8069091A2
:1029B000E906A091EA06B091EB068093EC069093AD
:1029C000ED06A093EE06B093EF063FC09385892FE6
:1029D000807194FF3BC08091E706428D538D8B3010
:1029E00071F484899589A0E0B0E0DC0199278827FB
:1029F00060E070E0842B952BA62BB72B03C0CA0197
:102A0000A0E0B0E00097A105B10579F29C01AD010D
:102A10002250310941095109A091F606B0E00E9407
:102A200066170091E3061091E4062091E5063091C7
:102A3000E606600F711F821F931F6093EC06709370
:102A4000ED068093EE069093EF0681E01F910F91C3
:102A50000895FC01009719F480E090E008958081CA
:102A60008823D1F3853EC1F38E3221F481818E32E9
:102A700019F0F2CF853081F383858E3169F38F3081
:102A800059F3883249F3CF0108950E9435140C940C
:102A900029150000000000000000000000000000F8
:102AA00000000000089500000000000000002091D8
:102AB000D7062A95F1F70895AF93AFB7AF93BF93B9
:102AC0002F93A091D1062091D006A22BA8B9A4EBF8
:102AD000A6BD20E0E8DFA091D006A8B9B091A50678
:102AE000BB2341F02093D1062F91BF91AF91AFBF8F
:102AF000AF911895A0E3ABB9A9B1A170AA0F2A2F85
:102B0000A0E1ABB9A0919606B09197061196A0935B
:102B10009606B0939706A03989F4BC3079F4A1E009
:102B2000A093A506CF93C0E7A8E0B0E3BBB9B0E19E
:102B3000BBB9AA95D1F7CA95B9F7CF912093D10621
:102B40002F91BF91AF91AFBFAF9118952F932FB732
:102B50002F9330995BC03F9330919E0626B124702D
:102B60002327E1F326B1247020939E0628E02A95BE
:102B7000F1F700004F935F936F937F938F93EF93E1
:102B8000FF9360E0E091A606F091A7063DE541E0E5
:102B90000DC050919E0676B174707527E1F376B141
:102BA000747070939E067EE07A95F1F727E081E0DD
:102BB00079B17470D9F4000000007BE17A95F1F7E7
:102BC00076B1747050919E0670939E067527769527
:102BD0007695880F872B2A9559F7853D09F461E092
:102BE0006030B9F281933150404099F69F93AF9392
:102BF000BF930E947E03BF91AF919F91FF91EF9190
:102C00008F917F916F915F914F913F912F912FBF46
:102C10002F91189581E00E941D018FEF80931A017A
:102C2000CBE80E945B0C309B03C00E944A12F9CF94
:102C30000E94471283B18F708093100190910F0111
:102C4000891761F180930F01883049F0843009F4CD
:102C5000EFC0823009F4EEC0813001F5EDC082E0B2
:102C60002091A406820F982F97709695E92FF0E097
:102C7000E659FF4FE49180FFE295EF708E2F887048
:102C800009F0E86F2E0F253C08F0D8C02093A40669
:102C90008091A4068C3810F0C093A4068091D206CF
:102CA000882309F4BECF8091A506882309F4B9CF03
:102CB000F894309198063F5F3F70309398062091CA
:102CC000A406269526952093D30640E1249FC001B3
:102CD0001124830F911D9093A00680939F0600906E
:102CE000F70602C0969587950A94E2F790931C0127
:102CF00080931B01FC01EE0FFF1FEE0FFF1FE85535
:102D0000F94F80819181A281B3818093990690933C
:102D10009A06A0939B06B0939C0680911A012817EF
:102D2000B9F020931A0161E08AE00E94E00E8CE77E
:102D300091E00E94300F8091D3068A3020F487E022
:102D400091E00E94EA0E8091D30690E00E94F60E78
:102D50008091980690911101981306C02091160158
:102D60009091D306291741F190911201981306C052
:102D7000209117019091D3062917F1F0909113013A
:102D8000981306C0209118019091D3062917A1F03D
:102D900090911401981306C0209119019091D306C7
:102DA000291751F090911501981308C090911A01BC
:102DB0008091D306981302C00E941803609199066F
:102DC00070919A0680919B0690919C0662507109C1
:102DD000810991090090F70604C0660F771F881FCC
:102DE000991F0A94D2F70091E3061091E40620910E
:102DF000E5063091E606600F711F821F931F209138
:102E0000F60630E02150310940919F065091A0060E
:102E100024233523620F731F811D911D0E945310BF
:102E200010929706109296061092A5067894F9CE05
:102E300084E016CF86E014CF80E012CF1092A40673
:102E400027CFAA1BBB1B51E107C0AA1FBB1FA61798
:102E5000B70710F0A61BB70B881F991F5A95A9F743
:102E600080959095BC01CD010895A1E21A2EAA1B70
:102E7000BB1BFD010DC0AA1FBB1FEE1FFF1FA2172A
:102E8000B307E407F50720F0A21BB30BE40BF50B27
:102E9000661F771F881F991F1A9469F760957095B0
:102EA000809590959B01AC01BD01CF010895A29F33
:102EB000B001B39FC001A39F700D811D1124911D0E
:102EC000B29F700D811D1124911D08950E94571706
:102ED000A59F900DB49F900DA49F800D911D11246E
:102EE0000895FB01DC0105900D920020E1F70895A3
:102EF000FB01DC014150504030F08D91059080196C
:102F000019F40020B9F7881B990B0895FB01DC0127
:102F100004C08D910190801921F441505040C8F7B0
:102F2000881B990B0895DC01FB014150504058F07B
:102F300049F001900D920020C1F7E61BF70B319785
:102F4000CF0108951C9201900020E9F7F6CFBB272E
:102F50004A3031F4992322F4BDE2909581959F4F38
:102F60000C94E417BB272A3051F4992342F4BDE2B4
:102F700090958095709561957F4F8F4F9F4F0C94E2
:102F8000C217BB27FA01A62F6217710581059105AB
:102F9000330B30FB66F0AA27660F771F881F991F37
:102FA000AA1FA21710F0A21B63953850A9F7A05DC5
:102FB000AA3308F0A95DA19336F7B111B19310823D
:102FC000CA010C941318BB27FB015527AA27880FA9
:102FD000991FAA1FA41710F0A41B83955051B9F78D
:102FE000A05DAA3308F0A95DA193009779F7B1110C
:102FF000B1931192CB010C941318F999FECF92BDA5
:1030000081BDF89A992780B50895262FF999FECFAA
:103010001FBA92BD81BD20BD0FB6F894FA9AF99AF5
:103020000FBE01960895DC01FC01672F7191772393
:10303000E1F7329704C07C916D9370836291AE1773
:0A304000BF07C8F30895F894FFCF0E
:0A304A00FFFFFE5B005D00200000A8
:00000001FF
