:100000000C94BB000C947A100C94D8000C94D8007B
:100010000C94D8000C94D8000C94D8000C94D80000
:100020000C94D8000C94D8000C94D8000C94D800F0
:100030000C94D8000C94D8000C94D8000C94D800E0
:100040000C9430100C94D8000C94D8000C94D80068
:100050000C94D8000C94D8000C94D8000C94D800C0
:100060000C94D8000C94D80020000FED03215344C9
:1000700049534B4949204346470020202020202057
:10008000202020202020202020200053656C656344
:1000900074207370656564202020005344207370C1
:1000A0006565643A20004552524F523A200046415D
:1000B00054313600464154333200506172746974D1
:1000C000696F6E3A2000736F7274696E67206C6995
:1000D00073742E2E2E20006275696C64696E672021
:1000E0006C6973742E2E2E004E49433A2000204E28
:1000F0006F20696D61676520686572652120005316
:10010000656C656374204E494320696D61676500C5
:10011000204E6F20534420696E73657274656420AD
:1001200000204E6F726D616C2053442063617264D5
:100130002000202020205344484320636172642023
:1001400020200043616E206E6F7420696E697420F8
:10015000534420004170706C652049492D42522063
:100160003230313500202020534449534B32204C4B
:1001700043442020200011241FBECFEFD8E0DEBF73
:10018000CDBF11E0A0E0B1E0EAE3F5E202C00590E6
:100190000D92A830B107D9F728E0A8E0B1E001C07E
:1001A0001D92A634B207E1F70E94DE100C949B1258
:1001B0000C94000090E194B92AE327B922E32AB90C
:1001C00095B992E098B99BB917BC14BC21E025BD44
:1001D00095BF909369001092F30710922508109232
:1001E0002408109223081092F2071092F10710923F
:1001F000F4072093F8071092F70710921401109259
:100200001A012BE131E03093FA072093F907882394
:10021000C9F00E94D2090E94120A85E691E00E946C
:10022000680A61E080E00E94180A84E591E00E947B
:10023000680A2FE181EA97E0215080409040E1F781
:1002400000C000000895FC01009779F080818823A8
:1002500069F0853E51F080858E3439F4818589348A
:1002600021F481E09285933409F080E00895FC0147
:10027000009749F08081882339F0853E21F08385FD
:1002800082958170089580E00895CF92DF92EF9279
:10029000FF920F931F93CF93DF938FEF9FEF909376
:1002A0000101809300010E94880E6B017C016115A1
:1002B000710581059105D9F180E090E00E94AD0FB4
:1002C00000E010E0C8010E94120FEC01009749F114
:1002D0008881853E11F0811124C08B858F3009F112
:1002E00010930101009300016EE670E0CE010E94C0
:1002F000FF1181E08B87FD8AEC8ADB8ECA8E6091CC
:10030000290870912A0880912B0890912C08DF9180
:10031000CF911F910F91FF90EF90DF90CF900C94B1
:100320004C0C0F5F1F4F003981E0180759F6DF9121
:10033000CF911F910F91FF90EF90DF90CF90089594
:10034000FF920F931F93CF93DF93D82FF62EC42FD6
:10035000A62FB0E040E1C49FA00DB11D1124FD0106
:100360000090450802C0F695E7950A94E2F7EE0F73
:10037000FF1FEE0FFF1FE550F84F00811181228112
:10038000338182E08BB91BB8E0914408F0E03197EB
:10039000EA23FB23409131085091320860913308E1
:1003A000709134084E0F5F1F611D711D02501109BD
:1003B000210931090090450804C0000F111F221FB8
:1003C000331F0A94D2F7400F511F621F731F88E139
:1003D0000E944A0B8FEF0E947E0A8EEF0E947E0AD7
:1003E00080EB90E030E120E33BB92BB90197009717
:1003F000D9F71BB883E00E947E0A8CEF0E947E0A28
:100400008FEF0E947E0A8FE30E947E0A8FEC0E948B
:100410007E0A83EF0E947E0A8CEF0E947E0A8FEF95
:100420000E947E0A8FE30E947E0A8FEC0E947E0A61
:1004300083EF0E947E0A8CEF0E947E0A85ED0E9467
:100440007E0A8AEA0E947E0A86E90E947E0A8FEF6F
:100450000E947E0A8EEF0E947E0A8C2F86958A6A01
:100460000E947E0A8C2F8A6A0E947E0A8F2D8695B2
:100470008A6A0E947E0A8F2D8A6A0E947E0A1EEF77
:100480001F251C27812F86958A6A0E947E0A812F4C
:100490008A6A0E947E0A8EED0E947E0A8AEA0E9483
:1004A0007E0A8BEE0E947E0A8FEF0E947E0A8FEFFB
:1004B0000E947E0A8FEF0E947E0A8FEF0E947E0AC2
:1004C0008FEF0E947E0A8EE591E0D89F9001D99F20
:1004D000300D1124255E3E4F80E090E070E2A0E1F7
:1004E000B0E3F901E80FF91FE08148E050E060E86F
:1004F000F62FFE2319F0ABB9BBB902C01BB87BB90C
:100500006695415051094115510591F701968D3578
:1005100041E0940731F71BB880E790E030E120E339
:100520003BB92BB901970097D9F71BB880E093E04E
:1005300020E21BB82BB901970097D9F71BB88FEFB2
:100540000E947E0A8FEF0E947E0A0E94940A0E94F7
:100550002B0D82E08BB91BB8DF91CF911F910F91CA
:10056000FF900895CF92DF92EF92FF920F931F9327
:10057000CF93DF934B9933C0EFE0F1E081918F3F50
:1005800051F1C5E1D1E09DE1E92E91E0F92E0FE0B6
:1005900011E0D12CCC24CA94F80160816F3F21F086
:1005A00048818D2D0E94A001F801C1928F01C9924E
:1005B000F7011082D394F2EAEF1AFEEFFF0A85E00A
:1005C000D812EACF109214018BE191E09093FA07D0
:1005D0008093F90704C081E0E431F80779F6DF91F0
:1005E000CF911F910F91FF90EF90DF90CF900895E2
:1005F0008091F1079091F20780399C40C0F480E12E
:100600008BB98091F1079091F20720E330E18031BE
:1006100040E1940730F44B990AC02BB93BB90196DD
:10062000F6CF80E99CE09093F2078093F10708955C
:100630004B996EC040911401842F90E02EE531E07B
:10064000829FF001839FF00D929FF00D1124E55ED3
:10065000FE4F22812D3A09F042C020911A0121114A
:1006600031C02091F307FC01E15FFE4F2083FC01C4
:10067000EB5EFE4F3091F707369536953083822F2B
:100680008D7F8D3011F482E001C081E0820F8F7088
:100690008093F307443029F40E94F8020E94B202CA
:1006A0001BC04F5F409314012EE531E0429FC00113
:1006B000439F900D1124855E9E4F9093FA0780937F
:1006C000F9070DC080910C018093F30710921A0175
:1006D0008F3029F40E94F80281E08093F80720917E
:1006E00014018EE591E0289FF001299FF00D11245F
:1006F000E55EFE4F8281863959F487818575880FC2
:1007000090859575892B80930C0181E080931A0167
:1007100008952BE131E080E090E0F901E80FF91F46
:10072000108201968E3541E09407B9F7225A3E4F68
:1007300087E0213F380779F7E5E1F1E0AFE0B1E08C
:100740008FEF81938D9391E0EA31F907D1F7089506
:10075000CF93C82F2FEF3FEF30930101209300017B
:100760000E94420B4B9B0BC00E94120A60E080E08B
:100770000E94180A80E191E0CF910C94680A2BE165
:1007800031E030932E0820932D080E94940C8111A3
:100790001CC00E94120A60E080E00E94180A83E4F4
:1007A00091E00E94680A61E080E00E94180A86EAEF
:1007B00090E00E94680A8091270890E00E942E0A2B
:1007C000109225084B9BFCCF83C0CC2389F00E945C
:1007D000120A60E080E00E94180A8091300882309E
:1007E00019F482E391E002C081E291E00E94680A7C
:1007F0000E94320D81111CC00E94120A60E080E04C
:100800000E94180A83E491E00E94680A61E080E097
:100810000E94180A86EA90E00E94680A80912708E0
:1008200090E00E942E0A109225084B9BFCCF50C0EE
:100830008091440840913E0850913F08849F900168
:10084000859F300D112421153047F8F485E0809301
:1008500027080E94120A60E080E00E94180A83E4E0
:1008600091E00E94680A61E080E00E94180A86EA2E
:1008700090E00E94680A8091270890E00E942E0A6A
:10088000109225084B9BFCCF23C0CC23E1F061E004
:1008900080E00E94180A8AEB90E00E94680A80912A
:1008A00035088B3019F484EB90E002C08EEA90E0BA
:1008B0000E94680A9FE724E88EE191502040804022
:1008C000E1F700C000000E948903CF910C943E0B19
:1008D000CF910895CF92DF92EF92FF920F931F93E3
:1008E0000E94120A60E080E00E94180A8BE890E003
:1008F0000E94680A61E080E00E94180A8BE990E09B
:100900000E94680A8091280890E00E942E0A1091A7
:100910002808912F0AE080912808891799F061E052
:1009200080E00E94180A8BE990E00E94680A80919A
:10093000280890E00E942E0A88E690E00E94680A4B
:10094000909128084B99BFC04F9914C04F9BFECF80
:100950002FE332E48FE0215030408040E1F700C0C7
:10096000000080912808815080932808811102C0DE
:10097000009328081D9915C01D9BFECFEFE3F2E4FC
:100980002FE0E150F0402040E1F700C000008091EE
:1009900028088F5F809328088B3018F081E08093BF
:1009A00028084E99B8CF4E9BFECF3FE382E49FE0EC
:1009B000315080409040E1F700C00000809128084D
:1009C000811709F480C08091000190910101019686
:1009D00009F479C080E090E00E94AD0F8BE191E0D6
:1009E00090932E0880932D080E9489031092290865
:1009F00010922A0810922B0810922C088091000166
:100A0000909101010E94221020913508FC01428D35
:100A1000538D2B3071F484899589A0E0B0E0DC011E
:100A20009927882760E070E0842B952BA62BB72BA5
:100A300003C0CA01A0E0B0E06C017D01F2E0CF1A72
:100A4000D108E108F108A0914408B0E0A70196019F
:100A50000E94F4110091310810913208209133085E
:100A600030913408600F711F821F931F0E94040C85
:100A7000E0912D08F0912E0880819181A281B381AF
:100A80008D3C9240AB4AB140F1F4809128088483B8
:100A9000A0914408B0E0A70196010E94F411C09013
:100AA0003108D0903208E0903308F09034086C0D93
:100AB0007D1D8E1D9F1D1F910F91FF90EF90DF9068
:100AC000CF900C944C0C1F910F91FF90EF90DF9002
:100AD000CF900895CF92DF92EF92FF920F931F93E2
:100AE000CF93DF93EC017B016115710519F480E070
:100AF00090E013C160E080E00E94180A88EE90E068
:100B00000E94680A670100E010E0F60181916F0120
:100B1000803211F00E94200A0F5F1F4F083011052C
:100B2000A1F78AE790E00E94680A61E080E00E94F5
:100B3000180A8AE790E00E94680AD0930901C093DE
:100B4000080180913508F701028D138D8B3071F407
:100B500064897589CB01A0E0B0E07727662720E0A3
:100B600030E0602B712B822B932B03C0B80180E007
:100B700090E0611571058105910509F4B8CFEBEF9F
:100B8000F7E0119211921192119228E0E332F207EC
:100B9000C1F76093FB077093FC078093FD07909368
:100BA000FE0711E0663FFFEF7F0781059105A8F47E
:100BB0000E94270E663FEFEF7E078105910558F4EE
:100BC00024E0129FF0011124E550F84F60837183F7
:100BD000828393831F5F1A3028F3C0903A08D09025
:100BE0003B08E0903C08F0903D0880E090E00E94D7
:100BF000AD0F80910001909101018F3FEFEF9E07B3
:100C000009F450C01092290810922A0810922B085B
:100C100010922C080E94221020913508FC01428D70
:100C2000538D2B3071F484899589A0E0B0E0DC010C
:100C30009927882760E070E0842B952BA62BB72B93
:100C400003C0CA01A0E0B0E0E0912D08F0912E08A9
:100C50004DEC52E06BEA71E0408351836283738311
:100C6000C582D682E782F086D287C1872091280884
:100C700024839C01AD012250310941095109A09101
:100C80004408B0E00E94F41100913108109132083C
:100C90002091330830913408600F711F821F931F19
:100CA0000E944C0CC0923A08D0923B08E0923C085B
:100CB000F0923D0861E080E00E94180A8BE990E024
:100CC0000E94680A8091280890E00E942E0A1092E3
:100CD000F2071092F107109224081092F407C1E075
:100CE000C093F8071092F7071092F30710921401BF
:100CF00010921A018BE191E09093FA078093F90723
:100D000040E052E060E070E080E10E94950B0E94BC
:100D10008903C093250881E090E0DF91CF911F9176
:100D20000F91FF90EF90DF90CF900895AF92BF9218
:100D3000CF92DF92EF92FF920F931F93CF93DF93A7
:100D4000CDB7DEB728970FB6F894DEBF0FBECDBF84
:100D500010920B0110920A018BE191E090932E0802
:100D600080932D0887ED93E09093F6078093F50725
:100D70000E94890360E080E00E94180A8FEF90E0F3
:100D80000E94680A61E080E00E94180A87ED90E006
:100D90000E94680A00E010E0C8010E9422107C0155
:100DA000009799F0FC01808181110FC080910A01A8
:100DB00090910B01892BC9F561E080E00E94180A2F
:100DC0008EEE90E00E94680A4EC1C7010E94230186
:100DD000811105C0C7010E9437018823B9F08091B5
:100DE0000A0190910B01880F991FE091F507F0918E
:100DF000F607E80FF91F1183008380910A01909193
:100E00000B01019690930B0180930A010F5F1F4F16
:100E100080910A0190910B01883C91053CF60039C4
:100E2000F1E01F0709F0B8CFC1CF61E080E00E9478
:100E3000180A86EC90E00E94680A80910A0190915D
:100E40000B0102978CF420910A0130910B01409123
:100E5000080150910901E091F507F091F60700E0D3
:100E600010E080E090E063C0C12CD12C80910A0199
:100E700090910B010197C816D9062CF700E010E0FD
:100E8000EE24E394F12C80910A0190910B018C19CE
:100E90009D09E816F9060CF03FC05701AA0CBB1CCF
:100EA000E091F507F091F607EA0DFB1D8081918135
:100EB0000E94221048E050E0BC01CE0101960E9441
:100EC0002112E091F507F091F607E00FF11F808104
:100ED00091810E94221048E050E0BC01CE010196B1
:100EE0000E94141297FF12C0E091F507F091F607E7
:100EF000DF01AA0DBB1D8D919C911197E00FF11F91
:100F0000208131812D933C93918380832FEFE21ACE
:100F1000F20A0E5F1F4FB7CF3FEFC31AD30AA6CF17
:100F2000619171914617570709F48C010196821758
:100F30009307B4F38FEF9FEF4B9995C04F9916C06D
:100F40004F9BFECF4FE3E2E4FFE04150E040F04032
:100F5000E1F700C000000F5F1F4F20910A013091A0
:100F60000B010217130711F400E010E01D9915C0E2
:100F70001D9BFECF2FE332E44FE021503040404034
:100F8000E1F700C000000150110917FF06C00091F1
:100F90000A0110910B01015011094E9925C04E9B79
:100FA000FECF000F111FE091F507F091F607E00F5B
:100FB000F11F808191810E9422107C010E943701E3
:100FC000882331F0C7010E94AD0F0E9496064BC0E6
:100FD000E091F507F091F607E00FF11FB70180816E
:100FE00091810E946A053FC00817190709F4A4CF30
:100FF000E091F507F091F607C801880F991FE80FF7
:10100000F91F808191810E9422105C0161E080E0E3
:101010000E94180AC5010E943701882321F083E04D
:1010200091E00E94220A7501C12CD12CF701819117
:101030007F01803211F00E94200AFFEFCF1ADF0AF1
:1010400028E0C216D10491F7C5010E943701882318
:1010500021F085E091E00E94220A8AE790E00E9458
:10106000680AC80169CF28960FB6F894DEBF0FBE94
:10107000CDBFDF91CF911F910F91FF90EF90DF9047
:10108000CF90BF90AF900895CF92DF92EF92FF92F2
:101090000F931F93CF93DF938BE191E090932E08F2
:1010A00080932D080E9489031092290810922A0823
:1010B00010922B0810922C0880E090E00E94AD0F57
:1010C0008FEF9FEF909301018093000100E010E00B
:1010D000CFEFDFEFC8010E9422107C01009709F4D6
:1010E0007FC0FC018081882309F481C0C7010E9470
:1010F0002301882329F0CF3FFFEFDF0709F4E80140
:101100004BE050E06EE670E0C7010E940612892BAA
:1011100009F066C010930101009300012091350889
:10112000F701828D938D2B3071F44489558960E0ED
:1011300070E0BA0155274427A0E0B0E0482B592BB6
:101140006A2B7B2B03C0AC0160E070E09A01AB011D
:101150002250310941095109A0914408B0E00E9490
:10116000F411C0903108D0903208E0903308F0902C
:1011700034086C0D7D1D8E1D9F1D0E94040CE09196
:101180002D08F0912E0880819181A281B3818D3C40
:101190009240AB4AB140E1F4848180932808858174
:1011A0009681A781B08580933A0890933B08A093DD
:1011B0003C08B0933D08E184F284C7010E942210EC
:1011C000009731F00E942301882311F0E7010FC03E
:1011D00080E090E00E94AD0FCF3F8FEFD807B1F4D1
:1011E0000F5F1F4F0039E1E01E0709F073CFCF3FBB
:1011F000FFEFDF0759F410922508DF91CF911F917F
:101200000F91FF90EF90DF90CF900895CE010E9454
:101210002210BC01CE01DF91CF911F910F91FF9061
:10122000EF90DF90CF900C946A054B9B21C080E03B
:1012300095E04B9B67C001970097D9F780916E00AE
:101240008E7F80936E00E898109225081092F80720
:1012500060E080E00E94180A80E191E00E94680A44
:1012600061E080E00E94180A8AE790E00C94680A26
:10127000309B2CC04E9B02C04F9928C04E9912C083
:1012800084E690E021E04E9920E001970097D9F79D
:101290002223C1F14E9BFECFF8940E9496064B9BF1
:1012A00026C030C04F992EC084E690E021E04F99CF
:1012B00020E001970097D9F7222321F14F9BFECF21
:1012C000F8940E946A044B991DC00FC080912508B4
:1012D000811118C080E095E04B9914C001970097E8
:1012E000D9F7F89481E00E94A8030E9444088091F5
:1012F0002508882331F080916E00816080936E0014
:10130000E89A78940895459880FF02C0419A01C0F8
:10131000419881FF02C0439A01C0439882FF02C0F6
:101320005C9A01C05C9883FF02C05D9A01C05D9821
:10133000459A88E08A95F1F70000459888E08A95FB
:10134000F1F700000895CF93C82F599A44988295D9
:101350008F700E9483098C2F8F700E948309CC7F2D
:1013600029F086E791E00197F1F704C080E899E25F
:101370000197F1F700C00000CF910895CF93C82FD7
:10138000599A449A82958F700E9483098C2F8F708E
:101390000E94830980E792E00197F1F700C0000006
:1013A000CF91089544982FE880ED93E0215080403C
:1013B0009040E1F700C0000083E00E94830981E1D2
:1013C0009AE70197F1F700C0000083E00E948309CB
:1013D00081E19AE70197F1F700C0000083E00E94E5
:1013E000830981E19AE70197F1F700C0000082E0EC
:1013F0000E94830981E19AE70197F1F700C000009C
:1014000088E20E94A30988E00E94A30981E00E946B
:10141000A30982E00E94A30986E00E94A3098CE050
:101420000C94A30981E00E94A30982E00C94A30913
:101430008F7060FD02C0805801C080540C94A309D5
:101440000C94BE09CF93DF93EC018991882319F0A6
:101450000E94BE09FACFDF91CF910895CF93DF9319
:10146000CDB7DEB72A970FB6F894DEBF0FBECDBF5B
:101470004AE0BE016F5F7F4F0E943512CE01019698
:101480000E94220A2A960FB6F894DEBF0FBECDBF87
:10149000DF91CF910895CF93DF93CDB7DEB72A9731
:1014A0000FB6F894DEBF0FBECDBF2AE0AE014F5F8E
:1014B0005F4F0E944012CE0101960E94220A2A9696
:1014C0000FB6F894DEBF0FBECDBFDF91CF91089568
:1014D000CF93DF93FC018491EF012196882321F0C3
:1014E0000E94BE09FE01F7CFDF91CF910895519A76
:1014F000549A559A509810922608089528E030E0A2
:1015000090E840E250E160E3792F782319F05BB96D
:101510006BB902C01BB84BB9969521503109211502
:10152000310591F71BB80895CF93DF931F92CDB784
:10153000DEB780E18BB9198280E020E330E1998148
:10154000983051F02BB999B1880F9170892B3BB924
:1015500099819F5F9983F3CF0F90DF91CF91089589
:1015600082E38BB982E18BB9089528E100002A95C6
:10157000E9F70197D1F708950895DF92EF92FF926E
:101580000F931F93CF93DF93082FC8E0D0E010E8AC
:1015900080E2F82E90E1E92E20E3D22E812F8023E5
:1015A00039F0EBB881E090E00E94B50ADBB806C0E4
:1015B0001BB881E090E00E94B50AFBB81695219710
:1015C000209761F781E090E00E94B50A1BB8DF9197
:1015D000CF911F910F91FF90EF90DF900895909120
:1015E0002608911103C00E94BD0A02C00E947E0A13
:1015F00080E00895FF920F931F93CF93DF931F9284
:10160000CDB7DEB780E18BB981E090E00E94B50AEA
:10161000198210E030E3F32E00E18981883091F0E7
:10162000FBB881E090E00E94B50A89B1110F81708A
:10163000182B0BB981E090E00E94B50A89818F5F79
:101640008983EBCF812F0F90DF91CF911F910F9165
:10165000FF90089580912608811102C00C94FA0A27
:101660000C94940A82E38BB981E090E00E94B50A61
:1016700082E18BB981E090E00C94B50A81E080931F
:10168000260808951092260808950E94940A87FD5E
:10169000FCCF08951F93CF93DF9300D000D0CDB738
:1016A000DEB7182F80912F08811107C089E0440F01
:1016B000551F661F771F8A95D1F78FEF49835A838D
:1016C0006B837C830E947E0A812F80640E947E0A45
:1016D0007C81872F0E947E0A6B81862F0E947E0A62
:1016E0005A81852F0E947E0A4981842F0E947E0A9A
:1016F00085E90E947E0A8FEF0E947E0A0E94450BB8
:1017000081508E3FD8F30F900F900F900F90DF9184
:10171000CF911F910895AB01BC0181E10E944A0B5A
:101720000E94940A8E3FE1F70895FF920F931F9352
:10173000CF93DF9300D000D0CDB7DEB7082F8091D4
:101740002F08811113C08FEE800F823040F088EE99
:10175000800F823020F080EE800F823038F499E0E4
:10176000440F551F661F771F9A95D1F78FEF498356
:101770005A836B837C830E94EF0A802F80640E94CF
:10178000EF0A7C81872F0E94EF0A6B81862F0E94CF
:10179000EF0A5A81852F0E94EF0A4981842F0E9407
:1017A000EF0A083011F487E801C085E90E94EF0ACA
:1017B00010E00E942A0BF82E8FEFF81203C0115090
:1017C000C1F715C0F11013C00A3389F40E942A0B27
:1017D00086FF04C081E080932F0802C010922F087A
:1017E0000E942A0B0E942A0B0E942A0BF12C0E94B5
:1017F0002A0B8F2D0F900F900F900F90DF91CF91AC
:101800001F910F91FF9008950F931F93CF93DF9334
:10181000AB01BC018091290890912A08A0912B0866
:10182000B0912C08481759076A077B0779F1409354
:10183000290850932A0860932B0870932C0881E1A3
:101840000E94950B811123C0C0E0D0E00E942A0BBA
:101850008E3F29F021972097C9F780E018C0C0E09B
:10186000D0E000912D0810912E080C0F1D1F0E9432
:101870002A0BF80180832196C115F2E0DF0789F772
:101880000E942A0B0E942A0B0E942A0B81E0DF9102
:10189000CF911F910F910895CF93DF93AB01BC01BE
:1018A00088E10E94950B811137C08EEF0E94EF0AEC
:1018B000C0E0D0E0E0912D08F0912E08EC0FFD1F64
:1018C00080810E94EF0A2196C11522E0D20791F78C
:1018D0008FEF0E94EF0A8FEF0E94EF0A0E942A0BFF
:1018E000982F9F719530C1F4C0E0D0E00E942A0B80
:1018F000811104C02196D1F780E00EC08FEF0E94C5
:10190000EF0A0E942A0B811106C0CE010196219692
:1019100099F3EC01F6CF81E0DF91CF910895AB010F
:10192000BC0180E10C94950B1F93CF93DF9385E06E
:10193000809328080E94770A0E94420B4B9980C02E
:1019400080E185B98FE097E2A0E0B0E080932908BC
:1019500090932A08A0932B08B0932C0818EC0E94AF
:10196000320B1150E1F7C0E0D8E040E050E0BA019E
:1019700080E00E94950B2197209719F415B881E01B
:101980003DC0813091F78FEF0E94EF0A8FEF0E94E8
:10199000EF0A82E080933008CFEFD7E04AEA51E0C7
:1019A00060E070E088E00E94950B2197209721F479
:1019B00081E08093300802C0813081F7CFEFD7E01B
:1019C00040E050E0BA0187E30E94950B89E698E178
:1019D0000197F1F700C0000040E050E060E070E4E3
:1019E00089E20E94950BE9E6F8E13197F1F700C032
:1019F00000002197209729F415B882E080932708EA
:101A000020C08111DDCF10922F08809130088230E4
:101A100049F060E072E080E090E00E948F0C15B821
:101A200011E00FC0CFEFD0E040E050E0BA018AE310
:101A30000E94950B2197209761F38111F5CFE9CF93
:101A400010E0812FDF91CF911F91089580E185B93A
:101A5000089515B808950E94940A4B9902C08F3FCB
:101A6000D1F708954F925F926F927F928F929F92DB
:101A7000AF92BF92CF92DF92EF92FF921F93CF93DC
:101A8000DF9360E070E0CB010E94040CE0912D0830
:101A9000F0912E0880818D7F893E41F1DF01A250B7
:101AA000BE4F8D919C9185359A4A99F4E254FE4F30
:101AB00084818093350860857185828593850E9435
:101AC000040CE0912D08F0912E0880818D7F893ED5
:101AD00011F083E007C0809135088B3039F08630F3
:101AE00029F084E08093270880E0A1C0C0912D08F0
:101AF000D0912E084385548550933F0840933E086B
:101B000015851093440886859785C48CD58CE68C02
:101B1000F78CC80ED91EE11CF11CC0924008D0926F
:101B20004108E0924208F09243086091350866301F
:101B300019F42689378902C02CA13DA1A089B0E003
:101B40002A9FC0012B9F900D3A9F900D11244601B2
:101B50005701880E991EA11CB11C809231089092E9
:101B60003208A0923308B09234084CA45DA46EA44D
:101B70007FA46630B9F0A3019201225031094109D6
:101B80005109A12FB0E00E94F411680D791D8A1D42
:101B90009B1D6093360870933708809338089093A4
:101BA000390826C00E94E5114B015C018C0C9D1C7C
:101BB000AE1CBF1C8092360890923708A09238085D
:101BC000B09239088189928935E0880F991F3A953A
:101BD000E1F7BA010E94AF11860E971EA11CB11C3D
:101BE0008092310890923208A0923308B092340863
:101BF000812F90E020E031E0320F8130910521F01B
:101C000096958795232FF7CF209345088091360826
:101C100090913708A0913808B091390880933A081C
:101C200090933B08A0933C08B0933D0881E0DF917E
:101C3000CF911F91FF90EF90DF90CF90BF90AF902A
:101C40009F908F907F906F905F904F9008954F92EC
:101C50005F926F927F928F929F92AF92BF92CF923C
:101C6000DF92EF92FF92CF9320913508263041F01A
:101C700088248A94982CA82C5FE0B52E22E006C018
:101C800088248A94982CA12CB12C21E004C0660FE2
:101C9000771F881F991F2A95D2F720913E0830910F
:101CA0003F0840E050E00E94C3112B013C01C0906E
:101CB0004008D0904108E0904208F0904308C20EDE
:101CC000D31EE41EF51ECAE0C701B6010E94040C33
:101CD000882311F0C150C1F7E0912D08F0912E0832
:101CE000E40DF51D608171818281938168217921E4
:101CF0008A219B21CF91FF90EF90DF90CF90BF90F2
:101D0000AF909F908F907F906F905F904F900895CD
:101D10004F925F926F927F928F929F92AF92BF92FB
:101D2000CF92DF92EF92FF92CF9368EEC62E63E0E0
:101D3000D62EE12CF12CC701B6010E94270E6115A9
:101D400071058105910591F030EAC31636E8D30696
:101D500031E0E306F10431F02FEFC21AD20AE20AB1
:101D6000F20AE9CF60E070E0CB014EC040EAC41651
:101D700046E8D40641E0E406F10409F445C0809148
:101D80003508863011F062E001C061E0A7019601DC
:101D900004C0220F331F441F551F6A95D2F7CA0192
:101DA000B90120913E0830913F0840E050E00E9488
:101DB000C3112B013C018090400890904108A090F5
:101DC0004208B0904308820E931EA41EB51ECAE0BE
:101DD000C501B4010E94040C882311F0C150C1F761
:101DE000E0912D08F0912E08E40DF51D8FEF90E0A5
:101DF000A0E0B0E080839183A283B383C501B401E6
:101E00000E944C0CC701B601CF91FF90EF90DF907C
:101E1000CF90BF90AF909F908F907F906F905F908A
:101E20004F9008958F929F92AF92BF92EF92FF9240
:101E30000F931F93CF93DF937C01F5E0EE0CFF1C13
:101E4000FA95E1F7E701CD2FDD27C69520914408EB
:101E5000622F70E0CE010E94AF118B0160913A08B1
:101E600070913B0880913C0890913D080115110547
:101E700009F44AC030913508363071F48090360844
:101E800090903708A0903808B09039086815790507
:101E90008A059B0509F454C080903108909032085F
:101EA000A0903308B0903408681979098A099B0911
:101EB00030E040E050E00E94C311CA01B9016E5FFA
:101EC0007F4F8F4F9F4FA12CB12C0E94270E2FEFD9
:101ED000A21AB20AA016B106C1F79B01AC012250AA
:101EE000310941095109A0914408B0E00E94F41160
:101EF0008090310890903208A0903308B090340858
:101F0000680D791D8A1D9B1D9E01322F2227330FDC
:101F1000E21AF30A40914408409F9001419F300D1E
:101F20001124C21BD30B6C0F7D1F811D911D0E94BC
:101F3000040C80912D0890912E088E0D9F1D02C0DB
:101F400080E090E0DF91CF911F910F91FF90EF9093
:101F5000BF90AF909F908F9008950F931F93FC01B7
:101F6000009789F48091360890913708A09138083D
:101F7000B091390880933A0890933B08A0933C08AD
:101F8000B0933D083FC09385892F807194FF3BC07B
:101F900080913508428D538D8B3071F484899589F9
:101FA000A0E0B0E0DC019927882760E070E0842B96
:101FB000952BA62BB72B03C0CA01A0E0B0E0009779
:101FC000A105B10579F29C01AD0122503109410909
:101FD0005109A0914408B0E00E94F4110091310829
:101FE000109132082091330830913408600F711F2E
:101FF000821F931F60933A0870933B0880933C08BC
:1020000090933D0881E01F910F910895FC01009786
:1020100019F480E090E0089580818823D1F3853E13
:10202000C1F38E3221F481818E3219F0F2CF8530E6
:1020300081F383858E3169F38F3059F3883249F308
:10204000CF0108950E94120F0C94061000000000AA
:1020500000000000000000000000000000000895E3
:10206000AF93AFB7AF93BF932F93A0912408209164
:102070002308A22BA8B9A4EBA6BD20E0E7DFA0911E
:102080002308A8B9B091F807BB2341F02093240896
:102090002F91BF91AF91AFBFAF911895A0E3ABB9AE
:1020A000A9B1A170AA0F2A2FA0E1ABB9A091F107A5
:1020B000B091F2071196A093F107B093F207A039FF
:1020C00089F4BC3079F4A1E0A093F807CF93C0E77E
:1020D000A8E0B0E3BBB9B0E1BBB9AA95D1F7CA9506
:1020E000B9F7CF91209324082F91BF91AF91AFBF43
:1020F000AF9118952F932FB72F9330995BC03F93D3
:102100003091F40726B124702327E1F326B124701F
:102110002093F40728E02A95F1F700004F935F938E
:102120006F937F938F93EF93FF9360E0E091F907B4
:10213000F091FA073DE541E00DC05091F40776B10A
:1021400074707527E1F376B174707093F4077EE0D4
:102150007A95F1F727E081E079B17470D9F4000045
:1021600000007BE17A95F1F776B174705091F40735
:102170007093F407752776957695880F872B2A95A7
:1021800059F7853D09F461E06030B9F2819331502F
:10219000404099F69F93AF93BF930E941803BF915D
:1021A000AF919F91FF91EF918F917F916F915F918F
:1021B0004F913F912F912FBF2F91189581E00E9451
:1021C000DA00CBE80E941509309B03C00E94290D5C
:1021D000F9CF0E94260D83B18F7080930E019091EC
:1021E0000D01891761F180930D01883049F0843029
:1021F00009F4ACC0823009F4ABC0813001F5AAC04B
:1022000082E02091F707820F982F97709695E92F1B
:10221000F0E0E659FF4FE49180FFE295EF708E2FDA
:10222000887009F0E86F2E0F253C08F095C02093C8
:10223000F7078091F7078C3810F0C093F70780916B
:102240002508882309F4BECF8091F807882309F474
:10225000B9CFF8948091F3078F5F8F708093F30765
:102260009091F7079695969520E1929F8001112411
:10227000080F111DF8010090450802C0F695E7957A
:102280000A94E2F7EE0FFF1FEE0FFF1FE550F84F25
:10229000C080D180E280F38020910F01281304C018
:1022A00020911501291701F120911001281304C074
:1022B000209116012917C1F020911101281304C0A3
:1022C00020911701291781F020911201281304C0D1
:1022D00020911801291741F020911301281306C0FD
:1022E00080911901891302C00E94B2021092F20774
:1022F0001092F1071092F8072091440830E0215025
:102300003109202331236091310870913208809186
:10231000330890913408620F731F811D911D97013E
:10232000860102501109210931090090450804C0B5
:10233000000F111F221F331F0A94D2F7600F711F65
:10234000821F931F0E948B0B78943CCF84E059CF5F
:1023500086E057CF80E055CF1092F7076ACFAA1BCF
:10236000BB1B51E107C0AA1FBB1FA617B70710F080
:10237000A61BB70B881F991F5A95A9F780959095B2
:10238000BC01CD010895A1E21A2EAA1BBB1BFD01C1
:102390000DC0AA1FBB1FEE1FFF1FA217B307E40744
:1023A000F50720F0A21BB30BE40BF50B661F771F9C
:1023B000881F991F1A9469F760957095809590957C
:1023C0009B01AC01BD01CF010895A29FB001B39F55
:1023D000C001A39F700D811D1124911DB29F700D2E
:1023E000811D1124911D08950E94E511A59F900D56
:1023F000B49F900DA49F800D911D11240895FB01A1
:10240000DC0105900D920020E1F70895FB01DC014D
:102410004150504030F08D910590801919F4002002
:10242000B9F7881B990B0895FB01DC0104C08D915D
:102430000190801921F441505040C8F7881B990B36
:102440000895DC01FB014150504058F049F00190E3
:102450000D920020C1F7E61BF70B3197CF010895CD
:102460001C9201900020E9F7F6CFBB274A3031F4E7
:10247000992322F4BDE2909581959F4F0C9472129E
:10248000BB272A3051F4992342F4BDE29095809500
:10249000709561957F4F8F4F9F4F0C945012BB27C3
:1024A000FA01A62F6217710581059105330B30FBE8
:1024B00066F0AA27660F771F881F991FAA1FA21709
:1024C00010F0A21B63953850A9F7A05DAA3308F05D
:1024D000A95DA19336F7B111B1931082CA010C9492
:1024E0008B12BB27FB015527AA27880F991FAA1F0C
:1024F000A41710F0A41B83955051B9F7A05DAA331F
:1025000008F0A95DA193009779F7B111B1931192E9
:10251000CB010C948B12DC01FC01672F71917723A6
:10252000E1F7329704C07C916D9370836291AE178E
:0A253000BF07C8F30895F894FFCF29
:08253A00FFFFFE5B005D0000E5
:00000001FF
