:100000000C940C030C94FF1D0C9429030C942903ED
:100010000C9429030C9429030C9429030C942903B0
:100020000C9429030C9429030C9429030C942903A0
:100030000C9429030C9429030C9429030C94290390
:100040000C94B51D0C9429030C9429030C942903DA
:100050000C9429030C9429030C9429030C94290370
:100060000C9429030C942903200020000FED032198
:10007000534449534B494920434647004E6F205350
:100080004420696E7365727465640046415431366C
:1000900000464154333200547970653A2000436F72
:1000A00064653A2000534420426C6F636B204552D4
:1000B000524F52004D697373696E67204D42522052
:1000C000202000436C7573746572203C2033326BC2
:1000D00042004E6F742046415431362F3332202077
:1000E00000426F6F7420736563746F72202020006C
:1000F00053442063616E277420696E697420005335
:10010000442063616E27742069646C65200045207B
:10011000522052204F2052004E6F726D616C20535E
:1001200044206361726400534448432063617264F5
:1001300020202020200020536F7274696E67206693
:10014000696C6573202E2E2E20202000204E6F74A7
:1001500068696E6720666F756E64206865726521D8
:100160002000204275696C64696E67206C69737445
:10017000002053454C454354204E49432020202025
:1001800020202020202000547261636B3A20002040
:1001900053442053454C4543542044454C41592039
:1001A0002020202000204C434420434F4E545241F5
:1001B00053542020202020202020002056616C75E0
:1001C000653A200020526F74617465206469737011
:1001D0006C6179202020202020002053657420634A
:1001E0006F6E747261737420202020202020200004
:1001F000205365742053442064656C61792020206D
:10020000202020202000202020202020202020200E
:100210002020202020202020202020002053455472
:100220005550202020202020202020202020202069
:100230002000204E49432020202020202020202064
:100240002020202020202000202076657273696FF6
:100250006E20352E342028323031382900202053AA
:100260004449534B205D5B202D2042524153494C61
:1002700000000000000000000000000000000080FE
:10028000C0E0F0F8F83800000000000000000000B6
:10029000000000000000000000000000000000005E
:1002A000000000000000000000000000000000004E
:1002B000000000000000000000000000C0E0F0F0BE
:1002C000F8F8F8F8F8F8F8F0F0F7F7FFFBF9F8F8B5
:1002D000F8F8F8F8F07000000000000000000000DE
:1002E000000000000000000000000000000000000E
:1002F00000000000000000C0E0E00000000000007E
:100300000000000000FFFFFFFFFFFFFFFFFFFFFFF8
:10031000FFFFFFFFFFFFFFFFFFFFFFFFFF83007CEB
:10032000FEFFC7C7C70707FFFF00FFFFFF0787C71D
:10033000C7EFFEFE1800FFFFFF07C7C7C7FFFE7C21
:1003400000FFFFFF007CFEFFC7C7E7F7FFFFDF07E7
:100350001F7FFFFFFFFFFFFFFFFFFFFFFFFFFFFF0D
:10036000FFFFFFFFFFFFFFFFFEFC3801010101005F
:1003700000010100070F0F00010101010000000052
:100380000F0F070001010101000000010101000041
:100390000001010101010101010000000103070F3B
:1003A0001F1F1F1F1F0F0F0F0F0F0F1F1F1F1F1FBD
:1003B0000F07030000000000000000000000000024
:1003C000000000000000000000000000000000002D
:1003D000000000000000000000000000000000001D
:1003E00000000008141C1C1C1C1C1C36636322002B
:1003F00000FFFFF7E3E3F7FFFD0000007432524215
:1004000042424A4C2E00000000000402FF02040099
:100410000000000000002040FF402000000000001D
:10042000002070A82020203F0000000000FE8282F3
:10043000828484FC000000000000000000005F00D7
:10044000000007000700147F147F14242A7F2A125B
:10045000231308646236495522500005030000004A
:100460001C2241000041221C0014083E0814080808
:100470003E080800503000000808080808006060C6
:10048000000020100804023E5149453E00427F40D2
:100490000042615149462141454B311814127F10E9
:1004A00027454545393C4A4949300171090503361C
:1004B00049494936064949291E003636000000568A
:1004C00036000008142241001414141414004122B0
:1004D00014080201510906324979413E7E11111179
:1004E0007E7F494949363E414141227F4141221C9C
:1004F0007F494949417F090909013E4149497A7FBC
:100500000808087F00417F41002040413F017F08EB
:100510001422417F404040407F020C027F7F04084C
:10052000107F3E4141413E7F090909063E4151216C
:100530005E7F09192946464949493101017F010178
:100540003F4040403F1F2040201F3F4038403F6316
:100550001408146307087008076151494543007F78
:1005600041410002040810200041417F00040201C3
:100570000204404040404000010204002054545412
:10058000787F484444383844444420384444487FC1
:100590003854545418087E0901020C5252523E7FBE
:1005A0000804047800447D40002040443D007F1052
:1005B00028440000417F40007C041804787C080433
:1005C000047838444444387C14141408081414186B
:1005D0007C7C080404084854545420043F444020C0
:1005E0003C4040207C1C2040201C3C4030403C448F
:1005F000281028440C5050503C4464544C4400088B
:1006000036410000007F0000004136080010080855
:10061000100800060909060011241FBECFEFD8E01C
:10062000DEBFCDBF11E0A0E0B1E0ECEFF0E402C02E
:1006300005900D92A630B107D9F726E0A6E0B1E00B
:1006400001C01D92A93FB207E1F70E94631E0C94FE
:100650007C200C9400000E94C61662E085E20E9495
:10066000FA158EE091E00E94041764E086E10E9492
:10067000FA158CE790E00E9404174999FECF08957F
:10068000CF93C82F14B817B81AB815B818B81BB834
:10069000259A2D9A399A3B9A419A17BC14BC91E03D
:1006A00095BD22E025BF2093690010929406109218
:1006B000CF061092CE061092CD061092930610929D
:1006C000920610929A069093A2061092A10610929A
:1006D0001101109219012AE131E03093A406209310
:1006E000A30680E090E00E945620823018F48093A8
:1006F000990607C01092990660E080E090E00E94A1
:100700005E20CC2349F10E94C41680919906813065
:1007100011F40E9436160E94C61660E080E00E9426
:10072000FA150E946C1766E08DE00E94FA158DE5BF
:1007300092E00E94041767E087E00E94FA1588E4BF
:1007400092E00E9404172FED80E792E7215080404D
:100750009040E1F700C00000CF9108950F931F93E0
:10076000CF93DF931F92CDB7DEB7082F162F67E028
:1007700080E049830E94FA150E946A1786E092E0A1
:100780000E94041767E080E00E94FA15802F90E035
:100790000E94131767E08AE30E94FA15812F90E008
:1007A0000E94131767E083E70E94FA154981842F9E
:1007B00090E00E9413170F90DF91CF911F910F913E
:1007C0000C946A17FC01009789F08081882379F0E6
:1007D000853E61F08F3551F080858E3439F4818506
:1007E000893421F481E09285933409F080E0089502
:1007F000FC01009759F08081882349F0853E31F053
:100800008F3521F0838582958170089580E0089569
:10081000CF92DF92EF92FF920F931F93CF93DF93CC
:100820008FEF9FEF90930101809300010E94041CC1
:100830006B017C016115710581059105D9F180E09D
:1008400090E00E94291D00E010E0C8010E948E1C6B
:10085000EC01009749F18881853E11F0811124C097
:100860008B858F3009F1109301010093000160E73F
:1008700070E0CE010E94CA1F81E08B87FD8AEC8A5E
:10088000DB8ECA8E6091D9067091DA068091DB0604
:100890009091DC06DF91CF911F910F91FF90EF9027
:1008A000DF90CF900C949C190F5F1F4F003981E0AF
:1008B000180759F6DF91CF911F910F91FF90EF909C
:1008C000DF90CF900895FF920F931F93CF93DF9304
:1008D000D82FF62EC42FA62FB0E040E1C49FA00D64
:1008E000B11D1124FD010090F80602C0F695E795B0
:1008F0000A94E2F7EE0FFF1FEE0FFF1FEB55F94FC3
:10090000008111812281338180E18BB91BB8E09194
:10091000F706F0E03197EA23FB234091E40650917B
:10092000E5066091E6067091E7064E0F5F1F611DB8
:10093000711D02501109210931090090F80604C007
:10094000000F111F221F331F0A94D2F7400F511FAF
:10095000621F731F88E10E946B188FEF0E949F1720
:100960008EEF0E949F1780EB90E038E028E23BB9C1
:100970002BB901970097D9F71BB883E00E949F1706
:100980008CEF0E949F178FEF0E949F178FE30E94AA
:100990009F178FEC0E949F1783EF0E949F178CEF89
:1009A0000E949F178FEF0E949F178FE30E949F174F
:1009B0008FEC0E949F1783EF0E949F178CEF0E947D
:1009C0009F1785ED0E949F178AEA0E949F1786E96C
:1009D0000E949F178FEF0E949F178EEF0E949F1714
:1009E0008C2F86958A6A0E949F178C2F8A6A0E9494
:1009F0009F178F2D86958A6A0E949F178F2D8A6A6E
:100A00000E949F171EEF1F251C27812F86958A6A3B
:100A10000E949F17812F8A6A0E949F178EED0E9465
:100A20009F178AEA0E949F178BEE0E949F178FEFF5
:100A30000E949F178FEF0E949F178FEF0E949F17B2
:100A40008FEF0E949F178FEF0E949F178EE591E016
:100A5000D89F9001D99F300D1124265E3E4F80E033
:100A600090E070E2A8E0B8E2F901E80FF91FE08138
:100A700048E050E060E8F62FFE2319F0ABB9BBB9AF
:100A800002C01BB87BB9669541505109411551050B
:100A900091F701968D3541E0940731F71BB880E757
:100AA00090E038E028E23BB92BB901970097D9F7DD
:100AB0001BB880E093E020E21BB82BB901970097A8
:100AC000D9F71BB88FEF0E949F178FEF0E949F17D7
:100AD0000E94B5170E94A51A80E18BB91BB8DF915F
:100AE000CF911F910F91FF900895CF92DF92EF92D7
:100AF000FF920F931F93CF93DF93499933C0EDE09B
:100B0000F1E081918F3F51F1C2E1D1E09CE1E92E0A
:100B100091E0F92E0DE011E0D12CCC24CA94F8011B
:100B200060816F3F21F048818D2D0E946304F801A0
:100B3000C1928F01C992F7011082D394F2EAEF1AA1
:100B4000FEEFFF0A84E0D812EACF109211018AE189
:100B500091E09093A4068093A30604C081E0E13164
:100B6000F80779F6DF91CF911F910F91FF90EF90E9
:100B7000DF90CF90089580919206909193068039EE
:100B80009C40C0F488E08BB98091920690919306C6
:100B900028E238E0803140E1940730F449990AC0F6
:100BA0002BB93BB90196F6CF80E99CE09093930670
:100BB00080939206089549996EC040911101842F47
:100BC00090E02EE531E0829FF001839FF00D929F2F
:100BD000F00D1124E65EFE4F22812D3A09F042C04D
:100BE00020911901211131C020919406FC01E35F8D
:100BF000FE4F2083FC01EE5EFE4F3091A10636953C
:100C000036953083822F8D7F8D3011F482E001C0C4
:100C100081E0820F8F7080939406433029F40E9404
:100C2000BB050E9475051BC04F5F409311012EE567
:100C300031E0429FC001439F900D1124865E9E4F7C
:100C40009093A4068093A3060DC080910A0180931F
:100C50009406109219018F3029F40E94BB0581E09F
:100C60008093A206209111018EE591E0289FF0016A
:100C7000299FF00D1124E65EFE4F8281863959F4DA
:100C800087818575880F90859575892B80930A01DA
:100C900081E08093190108952AE131E080E090E03D
:100CA000F901E80FF91F108201968E3541E0940793
:100CB000B9F7225A3E4F86E02239380779F78FEF8D
:100CC0008093120180930D018093130180930E0194
:100CD0008093140180930F0180931501809310017C
:100CE0000895CF93C82F2FEF3FEF3093010120934A
:100CF00000010E9463185C98499B03C00E942B036B
:100D00004CC02AE131E03093DE062093DD060E94DC
:100D1000EA19811144C00E94C61662E085E20E9471
:100D2000FA158EE091E00E94041764E086E10E94CB
:100D3000FA158091D606813019F48FEF90E004C047
:100D4000823029F480EF90E00E94041722C08330A3
:100D500019F481EE90E0F8CF843019F482ED90E040
:100D6000F3CF853019F483EC90E0EECF863019F4A0
:100D700084EB90E0E9CF873019F485EA90E0E4CF86
:100D80008EE990E00E9404178091D60690E00E94C0
:100D9000CA161092CF06499BFECF80E0B0C0CC238C
:100DA000D9F00E94C61662E080E00E94FA15809198
:100DB000E106823019F487E291E002C088E191E017
:100DC0000E9404175C982FE38BE49CE42150804040
:100DD0009040E1F700C000000E94AC1A811143C0AE
:100DE0000E94C61662E085E20E94FA158EE091E04C
:100DF0000E94041764E086E10E94FA158091D606ED
:100E0000813019F48FEF90E004C0823029F480EF34
:100E100090E00E94041722C0833019F481EE90E024
:100E2000F8CF843019F482ED90E0F3CF853019F4D7
:100E300083EC90E0EECF863019F484EB90E0E9CFBC
:100E4000873019F485EA90E0E4CF8EE990E00E94C3
:100E500004178091D60690E00E94CA161092CF0621
:100E6000499BFECF9ACF8091F7064091F1065091B1
:100E7000F206849F9001859F300D11242115304783
:100E8000D0F485E08093D6060E94C61662E085E223
:100E90000E94FA158EE091E00E94041764E086E15A
:100EA0000E94FA1583EC90E00E9404171092CF067E
:100EB000499BFECF72CFCC23E1F064E080E00E943A
:100EC000FA1587E990E00E9404178091E8068B30BC
:100ED00019F481E990E002C08BE890E00E940417C9
:100EE0009FE32BE48CE4915020408040E1F700C068
:100EF00000005C980E944C060E945F1881E0CF9130
:100F000008958F929F92AF92BF92CF92DF92EF920D
:100F1000FF920F931F93CF93DF93EC017B01611539
:100F2000710519F480E090E051C10E94C61660E09E
:100F300080E00E94FA150E94681782E392E00E9406
:100F4000041760E080E60E94FA158091E8068B3075
:100F500019F481E990E002C08BE890E00E94041748
:100F60000E94681742E061E080E00E94AE0362E008
:100F700080E00E94FA1581E090E00E94131767015B
:100F800000E010E0F60181916F01803211F00E94C3
:100F900087150F5F1F4F08301105A1F7D093070188
:100FA000C09306018091E806F701028D138D8B3006
:100FB00071F464897589CB01A0E0B0E077276627DA
:100FC00020E030E0602B712B822B932B03C0B80103
:100FD00080E090E0611571058105910509F4A2CFCB
:100FE000E5EAF6E0119211921192119226E0ED3CA1
:100FF000F207C1F76093A5067093A6068093A70633
:101000009093A80611E0663FFFEF7F0781059105E9
:10101000A8F40E94A31B663FEFEF7E0781059105B0
:1010200058F424E0129FF0011124EB55F94F60832E
:101030007183828393831F5F1A3028F3C090ED067B
:10104000D090EE06E090EF06F090F006809100015F
:1010500090910101019609F48AC080E090E00E941D
:10106000291D8FEF9FEFDC018093D9069093DA065C
:10107000A093DB06B093DC06809100019091010102
:101080000E949E1D2091E806FC01428D538D2B305D
:1010900071F484899589A0E0B0E0DC019927882764
:1010A00060E070E0842B952BA62BB72B03C0CA0100
:1010B000A0E0B0E04C015D01F2E08F1A9108A108B8
:1010C000B108A091F706B0E0A50194010E94BF1FEE
:1010D0000091E4061091E5062091E6063091E706BE
:1010E000600F711F821F931F0E943219E091DD066D
:1010F000F091DE068DEC92E0ABEAB1E08083918363
:10110000A283B383458156816781708581859285ED
:101110004C155D056E057F0519F48C179D0731F0A0
:101120004387548765877687908B8787C582D68269
:10113000E782F086D287C1878091D8068483809128
:101140009D06818BA091F706B0E0A50194010E9455
:10115000BF1F8090E4069090E506A090E606B09050
:10116000E706680D791D8A1D9B1D0E949C19C0927F
:10117000ED06D092EE06E092EF06F092F0061092A5
:101180009306109292061092CE0610929A06C1E033
:10119000C093A2061092A10610929406109211011B
:1011A000109219018AE191E09093A4068093A3061E
:1011B0005C9840E052E060E070E080E10E94BA1884
:1011C0000E944C06C093CF0681E090E0DF91CF9162
:1011D0001F910F91FF90EF90DF90CF90BF90AF9055
:1011E0009F908F900895CF92DF92EF92FF920F938E
:1011F0001F93CF93DF93C090ED06D090EE06E09062
:10120000EF06F090F00680910001909101010196A7
:1012100009F477C080E090E00E94291D8FEF9FEFD6
:10122000DC018093D9069093DA06A093DB06B09395
:10123000DC0680910001909101010E949E1D209189
:10124000E806FC01428D538D2B3071F48489958919
:10125000A0E0B0E0DC019927882760E070E0842BF3
:10126000952BA62BB72B03C0CA01A0E0B0E09C01D0
:10127000AD012250310941095109A091F706B0E0B2
:101280000E94BF1F0091E4061091E5062091E6063A
:101290003091E706600F711F821F931F0E94321961
:1012A000E091DD06F091DE068FEF9FEFDC01809389
:1012B000D9069093DA06A093DB06B093DC0683850B
:1012C0009485A585B6858093ED069093EE06A09350
:1012D000EF06B093F00607851089C8010E949E1D95
:1012E000EC010E94E203882361F0BE01C801DF9196
:1012F000CF911F910F91FF90EF90DF90CF900C94C2
:101300008107C092ED06D092EE06E092EF06F092D1
:10131000F006DF91CF911F910F91FF90EF90DF903A
:10132000CF9008955E9A2C9A5F9A08954F925F929B
:101330006F927F928F929F92AF92BF92CF92DF92E5
:10134000EF92FF920F931F93CF93DF938091000151
:1013500090910101019619F41FEAC12E5AC080E054
:1013600090E00E94291D8AE191E09093DE0680932F
:10137000DD060E944C061092D9061092DA061092F1
:10138000DB061092DC0680910001909101010E9421
:101390009E1D2091E806FC01428D538D2B3071F487
:1013A00084899589A0E0B0E0DC019927882760E076
:1013B00070E0842B952BA62BB72B03C0CA01A0E0AD
:1013C000B0E09C01AD012250310941095109A091C1
:1013D000F706B0E00E94BF1F4090E4065090E5067B
:1013E0006090E6067090E706640D751D861D971DDA
:1013F0000E943219E091DD06F091DE068081918134
:10140000A281B3818D3C9240AB4AB14009F0A4CF98
:10141000C1880E94C61660E080E00E94FA150E9412
:10142000681785EA91E00E9404170E94681743E05C
:1014300065E084E00E94AE0362E080E00E94FA155D
:101440008BEB91E00E9404178C2D90E00E94CA164D
:101450007C2CDC2CBB24B3940E949209D71481F01D
:1014600062E080E00E94FA158BEB91E00E94041785
:101470008D2D90E00E94CA168AE690E00E94041723
:1014800049996FC189B12091990641E050E022232A
:1014900011F040E050E093B161E070E0213011F0D4
:1014A00060E070E092959F709B2590FB882480F807
:1014B000912C869E9001879E300D969E300D1124B2
:1014C000992787FD9095809590958827990F881F7B
:1014D0009927849FF001859FF00D949FF00D1124B2
:1014E0002E2B3F2B232BB1F189B193B192959F7095
:1014F0009B259170C92F90E0D92FC69F9001C79F5F
:10150000300DD69F300D1124992787FD9095809539
:1015100090958827990F881F9927849FF001859FB0
:10152000F00D949FF00D11242E2B3F2B232BE1F671
:10153000EFE3F2E42FE0E150F0402040E1F700C09B
:101540000000AA24AA94AD0CA0929D068A2D0E94A8
:10155000791501C0AD2CE3B18091990641E050E0CE
:10156000882311F040E050E029B161E070E0813063
:1015700011F060E070E0332727FD3095209530951D
:101580002227330F221F3327269FC001279F900D4C
:10159000369F900D11242E2F22952F702B25022F70
:1015A000017010E0049F9001059F300D149F300DD5
:1015B0001124822B932B892B99F1E3B129B1332785
:1015C00027FD3095209530952227330F221F332792
:1015D000269FC001279F900D369F900D1124E29504
:1015E000EF70EB25E0FBEE24E0F8F12CE49E900197
:1015F000E59E300DF49E300D1124822B932B892B08
:10160000E1F68FE392E4EFE081509040E040E1F7B3
:1016100000C00000A394A0929D068A2D0E94791517
:101620004E9B03C07D2CDA2C17CF4E9BFECFFFE3E1
:1016300022E48FE0F15020408040E1F700C000003C
:10164000AC1409F48EC0A0929D068A2D0E947915D3
:101650005C988091000190910101019609F481C08C
:1016600080E090E00E94291D8AE191E09093DE06DF
:101670008093DD060E944C061092D9061092DA067D
:101680001092DB061092DC0680910001909101011E
:101690000E949E1D2091E806FC01428D538D2B3047
:1016A00071F484899589A0E0B0E0DC01992788274E
:1016B00060E070E0842B952BA62BB72B03C0CA01EA
:1016C000A0E0B0E06C017D01F2E0CF1AD108E108A2
:1016D000F108A091F706B0E0A70196010E94BF1F94
:1016E0000091E4061091E5062091E6063091E706A8
:1016F000600F711F821F931F0E943219E091DD0657
:10170000F091DE0680819181A281B3818D3C92406F
:10171000AB4AB14031F5A18AA091F706B0E0A7012C
:1017200096010E94BF1F0091E4061091E5062091EA
:10173000E6063091E706600F711F821F931FDF914D
:10174000CF911F910F91FF90EF90DF90CF90BF90BE
:10175000AF909F908F907F906F905F904F900C9480
:101760009C19DF91CF911F910F91FF90EF90DF9027
:10177000CF90BF90AF909F908F907F906F905F9031
:101780004F9008957F928F929F92AF92BF92CF9287
:10179000DF92EF92FF920F931F93CF93DF930E94FC
:1017A000C61660E080E00E94FA150E9468178FE874
:1017B00091E00E9404170E94681743E065E084E00E
:1017C0000E94AE0363E080E00E94FA158BEB91E08B
:1017D0000E9404178091D80690E00E94CA1690904B
:1017E000D806A92CBB24B39477247394AAE08A2E3C
:1017F0000E9492098091D8068A1599F063E080E0F2
:101800000E94FA158BEB91E00E9404178091D80694
:1018100090E00E94CA1688E690E00E940417A0900B
:10182000D806499969C189B12091990641E050E0F3
:10183000222311F040E050E093B161E070E02130EC
:1018400011F060E070E092959F709B259170C92F18
:1018500020E0D22FC69F9001C79F300DD69F300D3C
:101860001124992787FD9095809590958827990F49
:10187000881F9927849FF001859FF00D949FF00D9C
:1018800011242E2B3F2B232BA9F189B193B19295D3
:101890009F709B25092F017010E0069F9001079F04
:1018A000300D169F300D1124992787FD9095809556
:1018B00090958827990F881F9927849FF001859F0D
:1018C000F00D949FF00D11242E2B3F2B232BE9F6C6
:1018D0008FE392E4EFE081509040E040E1F700C0F8
:1018E00000008091D80681508093D806811102C0F3
:1018F0008092D806E3B19091990621E030E09923D7
:1019000011F020E030E089B141E050E0913011F079
:1019100040E050E0992787FD909580959095882725
:10192000990F881F9927849FB001859F700D949F00
:10193000700D11248E2F82958F708B2580FBEE24E5
:10194000E0F8F12CE29EC001E39E900DF29E900D16
:101950001124682B792B672BB1F1E3B189B1992759
:1019600087FD9095809590958827990F881F9927D6
:10197000849FB001859F700D949F700D1124E29596
:10198000EF70EB25E0FBCC24C0F8D12CC29EC00147
:10199000C39E900DD29E900D1124682B792B672B3E
:1019A000E1F6FFE322E48FE0F15020408040E1F7D0
:1019B00000C000008091D8068F5F8093D8068B30DE
:1019C00010F07092D8064E9913CF4E9BFECF9FE336
:1019D000E2E4FFE09150E040F040E1F700C0000099
:1019E0008091D806891509F487C0809100019091F3
:1019F0000101019609F480C080E090E00E94291D59
:101A00008AE191E09093DE068093DD060E944C0609
:101A10001092D9061092DA061092DB061092DC06BC
:101A200080910001909101010E949E1D2091E80685
:101A3000FC01428D538D2B3071F484899589A0E08F
:101A4000B0E0DC019927882760E070E0842B952BBB
:101A5000A62BB72B03C0CA01A0E0B0E06C017D014A
:101A6000F2E0CF1AD108E108F108A091F706B0E042
:101A7000A70196010E94BF1F0091E4061091E506A0
:101A80002091E6063091E706600F711F821F931FB9
:101A90000E943219E091DD06F091DE06808191818D
:101AA000A281B3818D3C9240AB4AB14029F580912F
:101AB000D8068483A091F706B0E0A70196010E94A2
:101AC000BF1F0091E4061091E5062091E6063091D3
:101AD000E706600F711F821F931FDF91CF911F9147
:101AE0000F91FF90EF90DF90CF90BF90AF909F90BD
:101AF0008F907F900C949C19DF91CF911F910F9143
:101B0000FF90EF90DF90CF90BF90AF909F908F901D
:101B10007F9008958F929F92AF92BF92CF92DF9263
:101B2000EF92FF921F93CF93DF930E94C61660E05F
:101B300080E00E94FA150E9468178CE192E00E94F2
:101B400004170E94681743E065E084E00E94AE033A
:101B500062E080E00E94FA150E94661780EF91E033
:101B60000E9404170E94661763E080E00E94FA1545
:101B70008AED91E00E94041764E080E00E94FA156B
:101B800084EC91E00E940417C1E0D1E00E94920928
:101B900089B12091990641E050E0222311F040E004
:101BA00050E093B161E070E0213011F060E070E04E
:101BB00092959F709D2790FBAA24A0F8B12CA69E19
:101BC0009001A79E300DB69E300D1124992787FDF8
:101BD0009095809590958827990F881F9927849FC5
:101BE000F001859FF00D949FF00D11242E2B3F2BBB
:101BF000232B09F45CC089B193B192959F709D2706
:101C000090FB882480F8912C869E9001879E300D51
:101C1000969E300D1124992787FD9095809590957B
:101C20008827990F881F9927849FF001859FF00DC1
:101C3000949FF00D11242E2B3F2B232BE1F62FE345
:101C400082E49FE0215080409040E1F700C0000016
:101C500011E01C0F143068F5113011F40E94661762
:101C600062E080E00E94FA1580EF91E00E94041784
:101C7000C23010F40E94661763E080E00E94FA15FB
:101C80008AED91E00E9404178FEF8C0F823010F4E0
:101C90000E94661764E080E00E94FA1584EC91E0EF
:101CA0000E940417133031F40E94661703C01C2FE2
:101CB00001C013E0E3B19091990641E050E099230F
:101CC00011F040E050E089B161E070E0913011F036
:101CD00060E070E0992787FD909580959095882722
:101CE000990F881F9927869F9001879F300D969F97
:101CF000300D11248E2F82958F708D2780FBEE245E
:101D0000E0F8F12CE49EC001E59E900DF49E900D4C
:101D10001124282B392B232B09F45DC0E3B189B1A1
:101D2000992787FD9095809590958827990F881F12
:101D30009927869F9001879F300D969F300D112423
:101D4000E295EF70ED27E0FBCC24C0F8D12CC49EC7
:101D5000C001C59E900DD49E900D1124282B392BC7
:101D6000232BE1F62FE382E49FE021508040904056
:101D7000E1F700C00000CFEFC10F79F1C13011F4DD
:101D80000E94661762E080E00E94FA1580EF91E001
:101D90000E9404178EEF810F823010F40E946617A4
:101DA00063E080E00E94FA158AED91E00E9404173A
:101DB0008DEF810F823010F40E94661764E080E09E
:101DC0000E94FA1584EC91E00E940417C33031F4AC
:101DD0000E94661703C0C12F01C0C1E04E99D6CE44
:101DE0004E9BFECF2FE382E49FE021508040904045
:101DF000E1F700C00000C13069F4DF91CF911F917D
:101E0000FF90EF90DF90CF90BF90AF909F908F901A
:101E10000C94C20BC23069F4DF91CF911F91FF90F7
:101E2000EF90DF90CF90BF90AF909F908F900C94E9
:101E30009609C330F9F480919906811106C081E0BA
:101E4000809399060E94361604C0109299060E944B
:101E500040166091990680E090E0DF91CF911F914C
:101E6000FF90EF90DF90CF90BF90AF909F908F90BA
:101E70000C945E20DF91CF911F91FF90EF90DF9047
:101E8000CF90BF90AF909F908F9008952F923F92E8
:101E90004F925F926F927F928F929F92AF92BF927A
:101EA000CF92DF92EF92FF920F931F93CF93DF9326
:101EB000CDB7DEB728970FB6F894DEBF0FBECDBF03
:101EC00010920901109208018AE191E09093DE06D8
:101ED0008093DD0686ED93E090939F0680939E06A7
:101EE0008FEF9FEFDC018093D9069093DA06A093E1
:101EF000DB06B093DC060E944C060E94681760E087
:101F000080E00E94FA1581E791E00E9404170E9488
:101F1000681743E065E084E00E94AE0311E0612FA2
:101F200080E00E94FA1586E092E00E9404171F5F8D
:101F30001630A9F763E080E00E94FA1582E691E08E
:101F40000E94041700E010E0C8010E949E1D5C0181
:101F5000009799F0FC01808181110FC080910801E8
:101F600090910901892BC9F563E080E00E94FA1580
:101F70008CE491E00E9404170CC2C5010E94E203A8
:101F8000811105C0C5010E94F8038823B9F0809132
:101F9000080190910901880F991FE0919E06F09128
:101FA0009F06E80FF91F118300838091080190912B
:101FB0000901019690930901809308010F5F1F4F5B
:101FC0008091080190910901883C91053CF6003907
:101FD000F1E01F0709F0B8CFC1CF63E080E00E94B5
:101FE000FA1586E391E00E94041780910801909110
:101FF000090102978CF42091080130910901409168
:10200000060150910701E0919E06F0919F0600E0C5
:1020100010E080E090E063C0812C912C8091080159
:10202000909109010197881699062CF700E010E0BD
:10203000AA24A394B12C80910801909109018819D8
:102040009909A816B9060CF03FC03501660C771C3B
:10205000E0919E06F0919F06E60DF71D808191812B
:102060000E949E1D48E050E0BC01CE0101960E94F6
:10207000EC1FE0919E06F0919F06E00FF11F80811A
:1020800091810E949E1D48E050E0BC01CE01019666
:102090000E94DF1F97FF12C0E0919E06F0919F06FD
:1020A000DF01A60DB71D8D919C911197E00FF11FD7
:1020B000208131812D933C93918380832FEFA21A4D
:1020C000B20A0E5F1F4FB7CF8FEF881A980AA6CFBC
:1020D000619171914617570709F48C010196821797
:1020E0009307B4F3AA24AA94BA2C992493940E9437
:1020F000920949994EC189B12091990641E050E079
:10210000222311F040E050E093B161E070E0213013
:1021100011F060E070E092959F70992590FB222469
:1021200020F8312C269E9001279E300D369E300DD2
:102130001124992787FD9095809590958827990F70
:10214000881F9927849FF001859FF00D949FF00DC3
:1021500011242E2B3F2B232BC1F189B193B19295E2
:102160009F70992590FB442440F8512C469E900185
:10217000479E300D569E300D1124992787FD90956E
:10218000809590958827990F881F9927849FF00143
:10219000859FF00D949FF00D11242E2B3F2B232BA8
:1021A000E1F69FE3E2E4FFE09150E040F040E1F728
:1021B00000C000000F5F1F4F80910801909109013E
:1021C0000817190711F400E010E0E3B190919906A7
:1021D00021E030E0992311F020E030E089B141E0C6
:1021E00050E0913011F040E050E0992787FD909544
:1021F000809590958827990F881F9927849FB00113
:10220000859F700D949F700D11248E2F82958F7075
:10221000892580FBEE24E0F8F12CE29EC001E39ECC
:10222000900DF29E900D1124682B792B672BB9F13C
:10223000E3B189B1992787FD90958095909588277E
:10224000990F881F9927849FB001859F700D949FD7
:10225000700D1124E295EF70E925E0FBCC24C0F865
:10226000D12CC29EC001C39E900DD29E900D112410
:10227000682B792B672BE1F62FE382E49FE0215056
:1022800080409040E1F700C000000150110917FFA5
:1022900006C00091080110910901015011094E99E1
:1022A0002EC04E9BFECFEFE3F2E42FE0E150F04072
:1022B0002040E1F700C00000000F111FE0919E06D2
:1022C000F0919F06E00FF11F808191810E949E1D79
:1022D0007C010E94F803882331F0C7010E94291D68
:1022E0000E94460F56C0E0919E06F0919F06E00FB7
:1022F000F11FB701808191810E9481074AC00A15B0
:102300001B0509F4F4CEE0919E06F0919F06C801EA
:10231000880F991FE80FF91F808191810E949E1DEF
:10232000782E892E63E080E00E94FA15872D982D83
:102330000E94F803882319F086E090E002C081E053
:1023400090E00E941317A72CB82C612C712C812CC3
:10235000F50181915F01803219F00E948715839405
:10236000FFEF6F1A7F0A28E06216710489F7612C6B
:10237000712CA82CB12CC3018A0D9B1D40973CF4F5
:1023800080E20E9487158FEF681A780AF4CF58010F
:10239000AECE28960FB6F894DEBF0FBECDBFDF914C
:1023A000CF911F910F91FF90EF90DF90CF90BF9052
:1023B000AF909F908F907F906F905F904F903F90E5
:1023C0002F900895CF92DF92EF92FF920F931F9379
:1023D000CF93DF938AE191E09093DE068093DD0650
:1023E0008FEF9FEFDC018093D9069093DA06A093DC
:1023F000DB06B093DC0680E090E00E94291D8FEFA1
:102400009FEF9093010180930001CFEFDFEF00E099
:1024100010E0C8010E949E1D7C01009709F48EC047
:10242000FC018081882309F490C0C7010E94E20367
:10243000882329F0CF3FFFEFDF0709F4E8014BE0E5
:1024400050E060E770E0C7010E94D11F892B09F0BE
:1024500075C010930101009300012091E806F70177
:10246000828D938D2B3071F44489558960E070E042
:10247000BA0155274427A0E0B0E0482B592B6A2B1E
:102480007B2B03C0AC0160E070E09A01AB012250ED
:10249000310941095109A091F706B0E00E94BF1F20
:1024A000C090E406D090E506E090E606F090E706DE
:1024B0006C0D7D1D8E1D9F1D0E943219E090DD0662
:1024C000F090DE06F70180819181A281B3818D3C7D
:1024D0009240AB4AB14051F5F70184818093D80610
:1024E000818980939D060E9479155C98F70185810A
:1024F0009681A781B0858093ED069093EE06A09318
:10250000EF06B093F006D184F2848D2D9F2D0E94AA
:102510009E1D009739F00E94E203882319F0CD2D0B
:10252000DF2D13C080E090E00E94291D80E090E044
:102530000E94291DCF3FFFEFDF07E1F40F5F1F4F20
:10254000003921E0120709F064CFCF3F8FEFD807A1
:1025500089F4F8940E94460F49991BC08091CF06D8
:10256000882331F080916E00816080936E00E89A3C
:1025700078940FC0CE010E949E1DBC01CE01DF9158
:10258000CF911F910F91FF90EF90DF90CF900C941F
:102590008107DF91CF911F910F91FF90EF90DF9016
:1025A000CF9008954F925F926F927F928F929F92F9
:1025B000AF92BF92CF92DF92EF92FF920F931F9351
:1025C000CF93DF930E949209499B23C08FEF90E045
:1025D000499BBBC101970097D9F780916E008E7F10
:1025E00080936E00E8981092CF061092A206DF91B9
:1025F000CF911F910F91FF90EF90DF90CF90BF9000
:10260000AF909F908F907F906F905F904F900C94C1
:102610002B03309B7DC14E9B58C089B160919906B8
:1026200021E030E0662311F020E030E093B141E09A
:1026300050E0613011F040E050E092959F70A1E0D1
:102640009A2790FB882480F8912C849EB001859E67
:10265000700D949E700D1124992787FD909580959B
:1026600090958827990F881F9927829FF001839F53
:10267000F00D929FF00D11246E2B7F2B672B29F507
:10268000E3B189B1992787FD90958095909588272A
:10269000990F881F9927849FB001859F700D949F83
:1026A000700D1124E295EF70EA27E0FBAA24A0F850
:1026B000B12CA29EC001A39E900DB29E900D11243C
:1026C000682B792B672B09F423C14E9911C084E63E
:1026D00090E021E04E9920E001970097D9F722235E
:1026E00009F433C14E9BFECFF8940E94460F0DC1F2
:1026F00049B16091990681E090E0662311F080E095
:1027000090E053B121E030E0613011F020E030E0A2
:1027100052955F70A1E05A2750FBCC24C0F8D12C11
:10272000C29EB001C39E700DD29E700D112455271C
:1027300047FD5095409550954427550F441F552708
:10274000489FF001499FF00D589FF00D11246E2B0A
:102750007F2B672B09F45BC064E670E0C1E0D1E039
:1027600049B153B152955F705D2750FBEE24E0F8FC
:10277000F12CE29EF001E39EF00DF29EF00D11248B
:10278000552747FD5095409550954427550F441FB8
:102790005527489FD001499FB00D589FB00D112477
:1027A000EA2BFB2BEF2B09F4C0E061507109611596
:1027B0007105B1F6CC2309F4C8C0A1E049B153B109
:1027C00052955F705A27052F017010E0029FB001EB
:1027D000039F700D129F700D1124552747FD5095D2
:1027E000409550954427550F441F5527489FF001A9
:1027F000499FF00D589FF00D11246E2B7F2B672BF6
:10280000E9F6F8940E948A0D49999FC091C0E3B1FE
:1028100049B1552747FD5095409550954427550F90
:10282000441F5527429FB001439F700D529F700D6A
:102830001124E295EF70EA27E170CE2F40E0D42F0B
:10284000C89FA001C99F500DD89F500D1124642B23
:10285000752B672B09F479C064E670E0B1E0C1E044
:10286000A3B149B1552747FD509540955095442750
:10287000550F441F5527429FF001439FF00D529F73
:10288000F00D1124A295AF70AC27A0FB662460F870
:10289000712C689EA001699E500D789E500D1124E8
:1028A000E42BF52BEF2B09F4B0E0615071096115B1
:1028B0007105B1F6BB2309F448C0F1E0E3B149B1B9
:1028C000552747FD5095409550954427550F441F77
:1028D0005527429FB001439F700D529F700D1124E8
:1028E000E295EF70EF27E0FB442440F8512C489E1E
:1028F000A001499E500D589E500D1124642B752B3C
:10290000672BE1F6F8940E94F308499B13C01DC0A1
:102910008091CF06811119C08FEF90E0499915C0C1
:1029200001970097D9F7F89481E00E947106811110
:102930000E94E2118091CF06882331F080916E00D1
:10294000816080936E00E89A7894DF91CF911F9117
:102950000F91FF90EF90DF90CF90BF90AF909F903E
:102960008F907F906F905F904F90089595E09A952B
:10297000F1F708950895359BFECFA8940895089522
:102980003C983D984498459888279927349B08950A
:10299000359B089581E0089581E00895359BEBDF34
:1029A0003C9AE4DF2AD0089581E008953D9ADEDF65
:1029B0003C98DCDF3D98DADF359BDDDF3C9AD6DFE3
:1029C0001CD0089581E008958F938F918F93359B4C
:1029D000D2DF3C9ACBDF11D0882311F404D0F5CF9D
:1029E0000F90089508953D9A3C9AC0DF3D98BEDF50
:1029F000359BC1DF3C98BADF08950894881F01C059
:102A0000880FB9F03D9A00000000000018F40000A3
:102A10003C9802C03C9A00C0A9DF3D98A8940000F1
:102A200000000000359BA7DF12F4882712C09EDF4C
:102A3000E7CF3D9A000000003C9898DF992788274F
:102A40003D98A8940000359B96DF7AF3349B81E093
:102A50008DDF000000003D9A089581E0089571E047
:102A60003D9A3C9800000000000080DF3D987EDF2A
:102A7000A894000000000000359B7DDFB2F0889430
:102A800034990894771F60F73D9A803011F03C9894
:102A900001C03C9A00000000000068DF3D98A89447
:102AA00000000000359B67DF61DF000000003D9AF9
:102AB000872F9927089580E20895CF93C82F88E73C
:102AC0000E94CE1480E00E94FD148C2F0E94FD1401
:102AD000CF910C94F314CF93C82F88E70E94CE14A3
:102AE00080E40E94FD148C2F0E94FD14CF910C9461
:102AF000F314CF93C82F81E890E00E945D158C2FCE
:102B000090E00E945D15C093D306CF9108950F9376
:102B10001F93CF93DF93082F88E70E94CE1480E4A1
:102B20000E94FD1485E0089F80011124C0E0D0E0E0
:102B300009561C4FF801EC0FFD1FE4918091D1065E
:102B40008111E0958091D406813011F490E801C0A4
:102B500090E081E02091D206213009F080E08E2BB8
:102B6000892B0E94FD142196C530D10519F781E00B
:102B70009091D106913009F080E0282F2195809125
:102B8000D406813011F490E801C090E081E03091EA
:102B9000D206313009F080E0822B892B0E94FD148F
:102BA000DF91CF911F910F910C94F314CF93DF938A
:102BB000EC018991882319F00E948715FACFDF91E3
:102BC000CF91089581E09091D106911180E080939A
:102BD000D106089581E09091D406911180E0809310
:102BE000D406089581E09091D206911180E08093FF
:102BF000D2060895CF93DF93C82F862F90E080559B
:102C00009F4F0E945D15C695C695C69588E0C89FE2
:102C1000E00111242091A006CE0188709927820F2F
:102C2000911D0E945D15CE0124E0959587952A950A
:102C3000E1F74096DF91CF910C945D151F93CF93F0
:102C4000DF9310E0612F80E00E94FA15C4E8D0E025
:102C500080E00E946B1521972097D1F71F5F1830F5
:102C600089F7DF91CF911F910C94F31481EA90E0E2
:102C70000E945D1588EC90E00E945D150C941E1674
:102C800080EA90E00E945D1580EC90E00E945D1566
:102C90000C941E160E94C0148EEA90E00E945D15EE
:102CA00086EA90E00E945D1585ED90E00E945D153A
:102CB00080E890E00E945D1588EA90E00E945D1532
:102CC0008FE390E00E945D1583ED90E00E945D151A
:102CD00080E090E00E945D1580E490E00E945D1528
:102CE0008DE890E00E945D1584E190E00E945D1502
:102CF00080E290E00E945D1580E090E00E945D150A
:102D000080EA90E00E945D1588EC90E00E945D15DD
:102D10008AED90E00E945D1582E190E00E945D15D1
:102D200081E890E00E945D158FEC90E00E945D15B7
:102D300089ED90E00E945D1581EF90E00E945D15A5
:102D40008BED90E00E945D1580E490E00E945D159F
:102D500084EA90E00E945D1586EA90E00E945D158D
:102D60008FEA90E00E945D158FEC8093D3068093EC
:102D70009D0682E08093A0061092D1061092D406A0
:102D80001092D2060C9440160C944A160C941E16FF
:102D90000C94D615CF93DF93CDB7DEB72A970FB635
:102DA000F894DEBF0FBECDBF4AE0BE016F5F7F4F1C
:102DB0000E940020CE0101960E94D6152A960FB6D9
:102DC000F894DEBF0FBECDBFDF91CF910895CF93B2
:102DD000DF93CDB7DEB72A970FB6F894DEBF0FBEEC
:102DE000CDBF2AE0AE014F5F5F4F0E940B20CE01A6
:102DF00001960E94D6152A960FB6F894DEBF0FBE34
:102E0000CDBFDF91CF910895CF93DF93FC018491E3
:102E1000EF012196882321F00E948715FE01F7CF4C
:102E2000DF91CF910895EF92FF920F931F93CF936D
:102E3000DF937C018CE08E9D80018F9D100D11240D
:102E4000C0E0D0E00D511C4F8FEFE816F10429F0DF
:102E5000F801EC0FFD1FE49101C0E0E08091D10684
:102E60008111E0958091D406813011F490E801C081
:102E700090E081E02091D206213009F080E08E2B95
:102E8000892B0E946B152196CC30D105E9F681E0A3
:102E90009091D106913009F080E0282F2195809102
:102EA000D406813011F490E801C090E081E03091C7
:102EB000D206313009F080E0822B892BDF91CF914F
:102EC0001F910F91FF90EF900C946B150C94E215ED
:102ED0000C94EA150C94F215DF92EF92FF920F9387
:102EE0001F93CF93DF9300E010E0D12C6D2D89E18B
:102EF0000E94FA15C0E0D0E0C8018F589D4F7C01B8
:102F0000F701EC0FFD1F84910E946B152196CA34C6
:102F1000D105B1F7D394065B1F4F95E0D912E6CFE8
:102F2000DF91CF911F910F91FF90EF90DF90089567
:102F3000549A539A559A50981092D506089528E0BD
:102F400030E090E840E258E068E2792F782319F009
:102F50005BB96BB902C01BB84BB9969521503109CA
:102F60002115310591F71BB80895CF93DF931F9278
:102F7000CDB7DEB788E08BB9198280E028E238E06F
:102F80009981983051F02BB999B1880F9170892BA4
:102F90003BB999819F5F9983F3CF0F90DF91CF91D8
:102FA000089588E38BB988E18BB9089528E1000082
:102FB0002A95E9F70197D1F708950895DF92EF92E6
:102FC000FF920F931F93CF93DF93082FC8E0D0E0B9
:102FD00010E880E2F82E98E0E92E28E2D22E812F28
:102FE000802339F0EBB881E090E00E94D617DBB87F
:102FF00006C01BB881E090E00E94D617FBB816957A
:103000002197209761F781E090E00E94D6171BB8C6
:10301000DF91CF911F910F91FF90EF90DF90089576
:103020009091D506911103C00E94DE1702C00E9444
:103030009F1780E00895FF920F931F93CF93DF9324
:103040001F92CDB7DEB788E08BB981E090E00E9497
:10305000D617198210E038E2F32E08E08981883013
:1030600091F0FBB881E090E00E94D61789B1110F72
:103070008170182B0BB981E090E00E94D6178981EE
:103080008F5F8983EBCF812F0F90DF91CF911F91BD
:103090000F91FF9008958091D506811102C00C9484
:1030A0001B180C94B51788E38BB981E090E00E945F
:1030B000D61788E18BB981E090E00C94D61781E0B7
:1030C0008093D50608951092D50608950E94B517ED
:1030D00087FDFCCF08951F93CF93DF9300D000D0DE
:1030E000CDB7DEB7182F0090D70604C0440F551F88
:1030F000661F771F0A94D2F78FEF49835A836B8339
:103100007C830E949F17812F80640E949F177C817F
:10311000872F0E949F176B81862F0E949F175A81CD
:10312000852F0E949F174981842F0E949F1785E950
:103130000E949F178FEF0E949F170E94661880932E
:10314000E20681508E3FC8F30F900F900F900F90C2
:10315000DF91CF911F910895AB01BC011092E00661
:1031600081E10E946B180E94B5178093E3068E3FA1
:10317000D1F70895FF920F931F93CF93DF9300D061
:1031800000D0CDB7DEB7082F8091DF06811113C0C4
:103190008FEE800F823040F088EE800F823020F07A
:1031A00080EE800F823038F489E0440F551F661F8F
:1031B000771F8A95D1F78FEF49835A836B837C837E
:1031C0000E941018802F80640E9410187C81872F25
:1031D0000E9410186B81862F0E9410185A81852F2B
:1031E0000E9410184981842F0E941018083011F491
:1031F00087E801C085E90E94101810E00E944B1872
:10320000F82E8FEFF81203C01150C1F71EC0F11055
:103210001CC00A33D1F40E944B181092D70686FFC7
:1032200005C081E08093DF0682E006C01092DF06D1
:1032300089E08093D70681E08093E1060E944B18D5
:103240000E944B180E944B18F12C0E944B188F2D96
:103250000F900F900F900F90DF91CF911F910F91D2
:10326000FF900895EF92FF920F931F93CF93DF93F8
:1032700000D000D0CDB7DEB7AB01BC018091D9063C
:103280009091DA06A091DB06B091DC064817590749
:103290006A077B0709F444C04093D9065093DA06C5
:1032A0006093DB067093DC065C988FEF49835A834A
:1032B0006B837C830E9410188FEF0E941018498145
:1032C0005A816B817C8181E10E94BA18811129C0E9
:1032D00000E010E00E944B188E3F41F001501109B0
:1032E00001151105B9F75C9A80E01BC0E12CF12CA7
:1032F0000091DD061091DE060E0D1F1D0E944B1879
:10330000F8018083FFEFEF1AFF0AE11482E0F8066C
:1033100079F70E944B180E944B180E944B185C9A38
:1033200081E00F900F900F900F90DF91CF911F9140
:103330000F91FF90EF900895CF93DF93AB01BC0105
:1033400088E10E94BA1881113DC05C988EEF0E94FE
:103350001018C0E0D0E0E091DD06F091DE06EC0F41
:10336000FD1F80810E9410182196C11582E0D807A8
:1033700091F78FEF0E9410188FEF0E9410180E9493
:103380004B18982F9F71953079F4C0E0D0E00E94DF
:103390004B18811103C02196D1F706C05C9A8FEFBC
:1033A0000E9410185C9808C05C9A0CC09E012F5FA8
:1033B0003F4F2196C9F3E9010E944B188823B1F3CE
:1033C0005C9A81E0DF91CF910895AB01BC0180E16F
:1033D0000C94BA18CF92DF92EF92FF921F93CF9383
:1033E000DF931092D60685E08093D8060E94981746
:1033F0000E94631849999AC080E285B95C9A8FE06F
:1034000097E2A0E0B0E08093D9069093DA06A0930B
:10341000DB06B093DC06C4E60E945318C150E1F706
:103420005C981CE08FEF0E9410181150D9F7C0E093
:10343000D8E040E050E0BA0180E00E94BA1821973D
:10344000209731F415B85C9A81E08093D6066FC05E
:10345000813079F7CCE08FEF0E941018C150D9F776
:10346000C1E0D2E04AEA51E060E070E088E00E940A
:10347000BA188A3A49F481E08093E106C12CD12C34
:10348000E12C90E4F92E0AC08130A9F3219720970E
:1034900049F71092E106C12CD12C76011CE08FEF88
:1034A0000E9410181150D9F7C1E0D2E040E050E07E
:1034B000BA0187E30E94BA18B701A60189E20E9407
:1034C000BA182197209731F482E08093D60615B878
:1034D0005C9A2DC08111EACF1092DF0689E08093BB
:1034E000D7068091E106813081F040E050E0BA01DA
:1034F0008BE30E94BA1860E072E080E090E00E94E6
:10350000E51915B85C9A11E012C0C5E6D0E08FEF5E
:103510000E94101840E050E0BA018AE30E94BA18F5
:103520002197209711F38111F2CFDFCF10E0812F87
:10353000DF91CF911F91FF90EF90DF90CF90089592
:1035400080E285B9089515B808950E94B517499984
:1035500002C08F3FD1F708954F925F926F927F9292
:103560008F929F92AF92BF92CF92DF92EF92FF9293
:103570001F93CF93DF9360E070E0CB010E9432197C
:10358000E091DD06F091DE0680818D7F893E51F16C
:10359000DF01A250BE4F8D919C9185359A4A11F062
:1035A00086E014C0E254FE4F84818093E806608573
:1035B0007185828593850E943219E091DD06F09134
:1035C000DE0680818D7F893E29F083E08093D606D8
:1035D00080E0A9C08091E8068B3021F0863011F0A0
:1035E00084E0F4CFC091DD06D091DE06438554859A
:1035F0005093F2064093F10615851093F7068685E1
:103600009785C48CD58CE68CF78CC80ED91EE11C2E
:10361000F11CC092F306D092F406E092F506F09207
:10362000F6066091E806663019F42689378902C0EB
:103630002CA13DA1A089B0E02A9FC0012B9F900D35
:103640003A9F900D112446015701880E991EA11C26
:10365000B11C8092E4069092E506A092E606B09234
:10366000E7064CA45DA46EA47FA46630B9F0A30164
:1036700092012250310941095109A12FB0E00E9465
:10368000BF1F680D791D8A1D9B1D6093E90670930D
:10369000EA068093EB069093EC0626C00E94B01FCA
:1036A0004B015C018C0C9D1CAE1CBF1C8092E9067A
:1036B0009092EA06A092EB06B092EC06818992897C
:1036C00035E0880F991F3A95E1F7BA010E947A1FF9
:1036D000860E971EA11CB11C8092E4069092E5060E
:1036E000A092E606B092E706812F90E020E031E05C
:1036F000320F8130910521F096958795232FF7CFD2
:103700002093F8068091E9069091EA06A091EB06D5
:10371000B091EC068093ED069093EE06A093EF0631
:10372000B093F00681E0DF91CF911F91FF90EF9071
:10373000DF90CF90BF90AF909F908F907F906F90D1
:103740005F904F9008954F925F926F927F928F9209
:103750009F92AF92BF92CF92DF92EF92FF92CF9360
:103760002091E806263041F088248A94982CA82CD1
:103770005FE0B52E22E006C088248A94982CA12C04
:10378000B12C21E004C0660F771F881F991F2A956E
:10379000D2F72091F1063091F20640E050E00E940D
:1037A0008E1F2B013C01C090F306D090F406E090F0
:1037B000F506F090F606C20ED31EE41EF51ECAE012
:1037C000C701B6010E943219882311F0C150C1F718
:1037D000E091DD06F091DE06E40DF51D608171815A
:1037E00082819381682179218A219B21CF91FF9049
:1037F000EF90DF90CF90BF90AF909F908F907F9091
:103800006F905F904F9008954F925F926F927F926A
:103810008F929F92AF92BF92CF92DF92EF92FF92E0
:10382000CF9368EEC62E63E0D62EE12CF12CC701B3
:10383000B6010E94A31B611571058105910591F0E8
:1038400030EAC31636E8D30631E0E306F10431F07E
:103850002FEFC21AD20AE20AF20AE9CF60E070E062
:10386000CB014EC040EAC41646E8D40641E0E40667
:10387000F10409F445C08091E806863011F062E059
:1038800001C061E0A701960104C0220F331F441F4D
:10389000551F6A95D2F7CA01B9012091F1063091FE
:1038A000F20640E050E00E948E1F2B013C01809008
:1038B000F3069090F406A090F506B090F606820EFE
:1038C000931EA41EB51ECAE0C501B4010E943219A0
:1038D000882311F0C150C1F7E091DD06F091DE06BA
:1038E000E40DF51D8FEF90E0A0E0B0E080839183C0
:1038F000A283B383C501B4010E949C19C701B6011C
:10390000CF91FF90EF90DF90CF90BF90AF909F90BE
:103910008F907F906F905F904F9008958F929F92BD
:10392000AF92BF92EF92FF920F931F93CF93DF93CB
:103930007C01F5E0EE0CFF1CFA95E1F7E701CD2FD5
:10394000DD27C6952091F706622F70E0CE010E9418
:103950007A1F8B016091ED067091EE068091EF0663
:103960009091F0060115110509F44AC03091E8065E
:10397000363071F48090E9069090EA06A090EB064C
:10398000B090EC06681579058A059B0509F454C0CA
:103990008090E4069090E506A090E606B090E706D9
:1039A000681979098A099B0930E040E050E00E94DB
:1039B0008E1FCA01B9016E5F7F4F8F4F9F4FA12CA1
:1039C000B12C0E94A31B2FEFA21AB20AA016B106B7
:1039D000C1F79B01AC012250310941095109A09165
:1039E000F706B0E00E94BF1F8090E4069090E506C5
:1039F000A090E606B090E706680D791D8A1D9B1D14
:103A00009E01322F2227330FE21AF30A4091F70664
:103A1000409F9001419F300D1124C21BD30B6C0FAE
:103A20007D1F811D911D0E9432198091DD069091AC
:103A3000DE068E0D9F1D02C080E090E0DF91CF91E9
:103A40001F910F91FF90EF90BF90AF909F908F903C
:103A500008950F931F93FC01009789F48091E90664
:103A60009091EA06A091EB06B091EC068093ED06EA
:103A70009093EE06A093EF06B093F0063FC09385B7
:103A8000892F807194FF3BC08091E806428D538D51
:103A90008B3071F484899589A0E0B0E0DC0199272E
:103AA000882760E070E0842B952BA62BB72B03C0F2
:103AB000CA01A0E0B0E00097A105B10579F29C0130
:103AC000AD012250310941095109A091F706B0E03A
:103AD0000E94BF1F0091E4061091E5062091E606C2
:103AE0003091E706600F711F821F931F6093ED06F0
:103AF0007093EE068093EF069093F00681E01F919D
:103B00000F910895FC01009719F480E090E008956A
:103B100080818823D1F3853EC1F38E3221F48181E7
:103B20008E3219F0F2CF853081F383858E3169F3BF
:103B30008F3059F3883249F3CF0108950E948E1CCB
:103B40000C94821D00000000000000000000000036
:103B500000000000000008950000000000000000C8
:103B60002091D8062A95F1F70895AF93AFB7AF9398
:103B7000BF932F93A091CE062091CD06A22BA8B97A
:103B8000A4EBA6BD20E0E8DFA091CD06A8B9B091D6
:103B9000A206BB2341F02093CE062F91BF91AF9197
:103BA000AFBFAF911895A8E2ABB9A9B1A170AA0FA8
:103BB0002A2FA8E0ABB9A0919206B0919306119676
:103BC000A0939206B0939306A03989F4BC3079F49F
:103BD000A1E0A093A206CF93C0E7A8E0B8E2BBB9EA
:103BE000B8E0BBB9AA95D1F7CA95B9F7CF912093A0
:103BF000CE062F91BF91AF91AFBFAF9118952F9384
:103C00002FB72F9330995BC03F9330919A0626B11E
:103C100024702327E1F326B1247020939A0628E02C
:103C20002A95F1F700004F935F936F937F938F93E3
:103C3000EF93FF9360E0E091A306F091A4063DE5C9
:103C400041E00DC050919A0676B174707527E1F38A
:103C500076B1747070939A067EE07A95F1F727E05A
:103C600081E079B17470D9F4000000007BE17A95AD
:103C7000F1F776B1747050919A0670939A06752791
:103C800076957695880F872B2A9559F7853D09F407
:103C900061E06030B9F281933150404099F69F93D2
:103CA000AF93BF930E94DB05BF91AF919F91FF91AE
:103CB000EF918F917F916F915F914F913F912F91F4
:103CC0002FBF2F91189581E00E9440038FEF8093C2
:103CD0001601CBE80E94D212309B03C00E94A31AA7
:103CE000F9CF0E94A01A83B18F7080930C0190913C
:103CF0000B01891761F180930B01883049F0843002
:103D000009F4EFC0823009F4EEC0813001F5EDC056
:103D100082E02091A106820F982F97709695E92F47
:103D2000F0E0E459FF4FE49180FFE295EF708E2FB1
:103D3000887009F0E86F2E0F253C08F0D8C020935A
:103D4000A1068091A1068C3810F0C093A106809145
:103D5000CF06882309F4BECF8091A206882309F4F8
:103D6000B9CFF894309194063F5F3F70309394063A
:103D70002091A106269526952093D00640E1249F08
:103D8000C0011124830F911D90939C0680939B0684
:103D90000090F80602C0969587950A94E2F79093F2
:103DA000180180931701FC01EE0FFF1FEE0FFF1F9C
:103DB000EB55F94F80819181A281B3818093950663
:103DC00090939606A0939706B0939806809116015B
:103DD0002817B9F02093160164E08CE00E94FA15D0
:103DE00087E891E00E9404178091D0068A3020F481
:103DF00083E091E00E94C8168091D00690E00E9476
:103E0000CA168091940690910D01981306C02091D6
:103E100012019091D006291741F190910E0198134B
:103E200006C0209113019091D0062917F1F09091CE
:103E30000F01981306C0209114019091D006291704
:103E4000A1F090911001981306C020911501909156
:103E5000D006291751F090911101981308C0909144
:103E600016018091D006981302C00E9475056091DA
:103E700095067091960680919706909198066250EB
:103E80007109810991090090F80604C0660F771F37
:103E9000881F991F0A94D2F70091E4061091E50655
:103EA0002091E6063091E706600F711F821F931F75
:103EB0002091F70630E02150310940919B06509146
:103EC0009C0624233523620F731F811D911D0E94C0
:103ED000AC1810929306109292061092A206789453
:103EE000F9CE84E016CF86E014CF80E012CF109296
:103EF000A10627CFAA1BBB1B51E107C0AA1FBB1FEE
:103F0000A617B70710F0A61BB70B881F991F5A9565
:103F1000A9F780959095BC01CD010895A1E21A2ED4
:103F2000AA1BBB1BFD010DC0AA1FBB1FEE1FFF1F5D
:103F3000A217B307E407F50720F0A21BB30BE40BAD
:103F4000F50B661F771F881F991F1A9469F76095F4
:103F50007095809590959B01AC01BD01CF010895AE
:103F6000A29FB001B39FC001A39F700D811D1124BA
:103F7000911DB29F700D811D1124911D08950E9405
:103F8000B01FA59F900DB49F900DA49F800D911D13
:103F900011240895FB01DC0105900D920020E1F74A
:103FA0000895FB01DC014150504030F08D910590A7
:103FB000801919F40020B9F7881B990B0895FB01AB
:103FC000DC0104C08D910190801921F441505040D2
:103FD000C8F7881B990B0895DC01FB014150504044
:103FE00058F049F001900D920020C1F7E61BF70B45
:103FF0003197CF0108951C9201900020E9F7F6CF88
:10400000BB274A3031F4992322F4BDE29095819583
:104010009F4F0C943D20BB272A3051F4992342F442
:10402000BDE290958095709561957F4F8F4F9F4F22
:104030000C941B20BB27FA01A62F6217710581057E
:104040009105330B30FB66F0AA27660F771F881F98
:10405000991FAA1FA21710F0A21B63953850A9F749
:10406000A05DAA3308F0A95DA19336F7B111B19311
:104070001082CA010C946C20BB27FB015527AA278C
:10408000880F991FAA1FA41710F0A41B83955051E5
:10409000B9F7A05DAA3308F0A95DA193009779F75D
:1040A000B111B1931192CB010C946C20F999FECF10
:1040B00092BD81BDF89A992780B50895262FF99968
:1040C000FECF1FBA92BD81BD20BD0FB6F894FA9AFB
:1040D000F99A0FBE01960895DC01FC01672F7191DA
:1040E0007723E1F7329704C07C916D9370836291DE
:0C40F000AE17BF07C8F30895F894FFCF87
:0640FC00FFFFFE200000A2
:00000001FF
