:100000000C94FF020C9409190C941C030C941C030F
:100010000C941C030C941C030C941C030C941C03E4
:100020000C941C030C941C030C941C030C941C03D4
:100030000C941C030C941C030C941C030C941C03C4
:100040000C94BF180C941C030C941C030C941C03FC
:100050000C941C030C941C030C941C030C941C03A4
:100060000C941C030C941C03200020000FED0321B2
:10007000534449534B494920434647004E6F205350
:100080004420696E7365727465640046415431366C
:1000900000464154333200547970653A2000436F72
:1000A00064653A2000534420426C6F636B204552D4
:1000B000524F52004D697373696E67204D42522052
:1000C000202000436C7573746572203C2033326BC2
:1000D00042004E6F742046415431362F3332202077
:1000E00000426F6F7420736563746F72202020006C
:1000F00053442063616E277420696E697420005335
:10010000442063616E27742069646C65200045207B
:10011000522052204F2052004E6F726D616C20535E
:1001200044206361726400534448432063617264F5
:1001300020202020200020536F7274696E67206693
:10014000696C6573202E2E2E20202000204E6F74A7
:1001500068696E6720666F756E64206865726521D8
:100160002000204275696C64696E67206C69737445
:10017000002053454C454354204E49432020202025
:1001800020202020202000547261636B3A20002040
:1001900053442053454C4543542044454C41592039
:1001A0002020202000204C434420434F4E545241F5
:1001B00053542020202020202020002056616C75E0
:1001C000653A20002053657420636F6E747261730A
:1001D00074202020202020202000205365742053EC
:1001E000442064656C61792020202020202020009C
:1001F00020202020202020202020202020202020FF
:10020000202020202000205345545550202020201D
:10021000202020202020202020202000204E494384
:1002200020202020202020202020202020202020CE
:10023000200076657273696F6E20352E302028326B
:100240003031372900534449534B205D5B202D202A
:1002500042524153494C00000000000000000000E1
:10026000000000000080C0E0F0F8F8380000000056
:10027000000000000000000000000000000000007E
:10028000000000000000000000000000000000006E
:10029000000000000000000000000000000000005E
:1002A0000000C0E0F0F0F8F8F8F8F8F8F8F0F0F72F
:1002B000F7FFFBF9F8F8F8F8F8F8F0700000000024
:1002C000000000000000000000000000000000002E
:1002D00000000000000000000000000000C0E0E09E
:1002E0000000000000000000000000FFFFFFFFFF13
:1002F000FFFFFFFFFFFFFFFFFFFFFFFFFFFFFFFF0E
:10030000FFFFFF83007CFEFFC7C7C70707FFFF0093
:10031000FFFFFF0787C7C7EFFEFE1800FFFFFF07BD
:10032000C7C7C7FFFE7C00FFFFFF007CFEFFC7C7FB
:10033000E7F7FFFFDF071F7FFFFFFFFFFFFFFFFF65
:10034000FFFFFFFFFFFFFFFFFFFFFFFFFFFFFEFCC1
:1003500038010101010000010100070F0F00010138
:100360000101000000000F0F070001010101000062
:100370000001010100000001010101010101010072
:1003800000000103070F1F1F1F1F1F0F0F0F0F0F6D
:100390000F1F1F1F1F1F0F0703000000000000009A
:1003A000000000000000000000000000000000004D
:1003B000000000000000000000000000000000003D
:1003C00000000000000000000008141C1C1C1C1C85
:1003D0001C366363220000FFFFF7E3E3F7FFFD0035
:1003E00000007432524242424A4C2E00000000008B
:1003F0000402FF0204000000000000002040FF4053
:10040000200000000000002070A82020203F0000F5
:10041000000000FE8282828484FC00000000000054
:10042000000000005F00000007000700147F147F39
:1004300014242A7F2A122313086462364955225055
:100440000005030000001C2241000041221C001492
:10045000083E081408083E0808005030000008084C
:10046000080808006060000020100804023E51499E
:10047000453E00427F400042615149462141454B83
:10048000311814127F1027454545393C4A494930F7
:1004900001710905033649494936064949291E00B3
:1004A00036360000005636000008142241001414AD
:1004B000141414004122140802015109063249792A
:1004C000413E7E1111117E7F494949363E414141ED
:1004D000227F4141221C7F494949417F0909090185
:1004E0003E4149497A7F0808087F00417F4100204A
:1004F00040413F017F081422417F404040407F023D
:100500000C027F7F0408107F3E4141413E7F090974
:1005100009063E4151215E7F09192946464949494C
:100520003101017F01013F4040403F1F2040201F1B
:100530003F4038403F6314081463070870080761A0
:1005400051494543007F4141000204081020004109
:10055000417F00040201020440404040400001028B
:10056000040020545454787F484444383844444468
:1005700020384444487F3854545418087E090102F6
:100580000C5252523E7F0804047800447D40002003
:1005900040443D007F1028440000417F40007C041F
:1005A0001804787C0804047838444444387C1414D3
:1005B0001408081414187C7C080404084854545483
:1005C00020043F4440203C4040207C1C2040201C14
:1005D0003C4030403C44281028440C5050503C448F
:1005E00064544C44000836410000007F0000004184
:1005F0003608001008081008000609090600112432
:100600001FBECFEFD8E0DEBFCDBF11E0A0E0B1E06C
:10061000E4EEF6E302C005900D92A630B107D9F7DB
:1006200028E0A6E0B1E001C01D92A735B207E1F7CE
:100630000E946D190C94701B0C9400000E94C5114F
:1006400062E085E20E94C7118EE091E00E940E12E6
:1006500064E086E10E94C7118CE790E00E940E12D0
:100660004B99FECF089514B817B81AB815B818B832
:100670001BB8249A2C9A399A3B9A419A17BC14BCFD
:1006800091E095BD22E025BF209369001092F40708
:1006900010922D0810922C0810922B081092F3073C
:1006A0001092F2071092F907909300081092FF073A
:1006B0001092120110921B012CE131E030930208DC
:1006C00020930108882319F10E94C3110E94C511CB
:1006D00060E080E00E94C7110E94761265E08DE024
:1006E0000E94C71185E492E00E940E1266E087E046
:1006F0000E94C71182E392E00E940E122FED80E764
:1007000092E7215080409040E1F700C0000008953A
:100710000F931F93CF93DF931F92CDB7DEB7082FB0
:10072000162F66E080E049830E94C7110E94741270
:1007300080EF91E00E940E1266E080E00E94C711F7
:10074000802F90E00E941D1266E08AE30E94C7118C
:10075000812F90E00E941D1266E083E70E94C7117E
:100760004981842F90E00E941D120F90DF91CF915C
:100770001F910F910C947412FC01009779F0808105
:10078000882369F0853E51F080858E3439F4818567
:10079000893421F481E09285933409F080E0089552
:1007A000FC01009749F08081882339F0853E21F0D3
:1007B000838582958170089580E00895CF92DF92BD
:1007C000EF92FF920F931F93CF93DF938FEF9FEFE3
:1007D00090930101809300010E940E176B017C0130
:1007E0006115710581059105D9F180E090E00E94C5
:1007F000331800E010E0C8010E949817EC01009740
:1008000049F18881853E11F0811124C08B858F309C
:1008100009F1109301010093000160E770E0CE013F
:100820000E94D41A81E08B87FD8AEC8ADB8ECA8E07
:1008300060913708709138088091390890913A0892
:10084000DF91CF911F910F91FF90EF90DF90CF90AC
:100850000C94A6140F5F1F4F003981E0180759F65A
:10086000DF91CF911F910F91FF90EF90DF90CF908C
:100870000895FF920F931F93CF93DF93D82FF62EF7
:10088000C42FA62FB0E040E1C49FA00DB11D1124DC
:10089000FD010090560802C0F695E7950A94E2F72C
:1008A000EE0FFF1FEE0FFF1FED5FF74F008111816D
:1008B0002281338182E08BB91BB8E0915508F0E0CA
:1008C0003197EA23FB2340914208509143086091FD
:1008D0004408709145084E0F5F1F611D711D025045
:1008E0001109210931090090560804C0000F111F99
:1008F000221F331F0A94D2F7400F511F621F731F2C
:1009000088E10E9475138FEF0E94A9128EEF0E945A
:10091000A91280EB90E030E120E33BB92BB90197BD
:100920000097D9F71BB883E00E94A9128CEF0E94B0
:10093000A9128FEF0E94A9128FE30E94A9128FECD7
:100940000E94A91283EF0E94A9128CEF0E94A912A3
:100950008FEF0E94A9128FE30E94A9128FEC0E94D0
:10096000A91283EF0E94A9128CEF0E94A91285EDB3
:100970000E94A9128AEA0E94A91286E90E94A9127D
:100980008FEF0E94A9128EEF0E94A9128C2F8695DC
:100990008A6A0E94A9128C2F8A6A0E94A9128F2D3E
:1009A00086958A6A0E94A9128F2D8A6A0E94A912CE
:1009B0001EEF1F251C27812F86958A6A0E94A91287
:1009C000812F8A6A0E94A9128EED0E94A9128AEADA
:1009D0000E94A9128BEE0E94A9128FEF0E94A91209
:1009E0008FEF0E94A9128FEF0E94A9128FEF0E9431
:1009F000A9128FEF0E94A9128EE591E0D89F900175
:100A0000D99F300D1124245E3E4F80E090E070E2CB
:100A1000A0E1B0E3F901E80FF91FE08148E050E000
:100A200060E8F62FFE2319F0ABB9BBB902C01BB8C2
:100A30007BB96695415051094115510591F70196D1
:100A40008D3541E0940731F71BB880E790E030E145
:100A500020E33BB92BB901970097D9F71BB880E089
:100A600093E020E21BB82BB901970097D9F71BB888
:100A70008FEF0E94A9128FEF0E94A9120E94BF124D
:100A80000E94AF1582E08BB91BB8DF91CF911F9107
:100A90000F91FF900895CF92DF92EF92FF920F9304
:100AA0001F93CF93DF934B9933C0EDE0F1E0819139
:100AB0008F3F51F1C3E1D1E09EE1E92E91E0F92EA3
:100AC0000DE011E0D12CCC24CA94F80160816F3F75
:100AD00021F048818D2D0E943904F801C1928F01C7
:100AE000C992F7011082D394F2EAEF1AFEEFFF0ADF
:100AF00085E0D812EACF109212018CE191E0909338
:100B000002088093010804C081E0E231F80779F619
:100B1000DF91CF911F910F91FF90EF90DF90CF90D9
:100B200008958091F2079091F30780399C40C0F4BA
:100B300080E18BB98091F2079091F30720E330E1D7
:100B4000803140E1940730F44B990AC02BB93BB98E
:100B50000196F6CF80E99CE09093F3078093F2072B
:100B600008954B996EC040911201842F90E02EE5BC
:100B700031E0829FF001839FF00D929FF00D1124D0
:100B8000E45EFE4F22812D3A09F042C020911B0104
:100B9000211131C02091F407FC01E35FFE4F208357
:100BA000FC01ED5EFE4F3091FF07369536953083A0
:100BB000822F8D7F8D3011F482E001C081E0820FA1
:100BC0008F708093F407443029F40E9491050E94AD
:100BD0004B051BC04F5F409312012EE531E0429F51
:100BE000C001439F900D1124845E9E4F9093020894
:100BF000809301080DC080910A018093F407109240
:100C00001B018F3029F40E94910581E08093000838
:100C1000209112018EE591E0289FF001299FF00DAF
:100C20001124E45EFE4F8281863959F487818575EF
:100C3000880F90859575892B80930A0181E08093B8
:100C40001B0108952CE131E080E090E0F901E80F0C
:100C5000F91F108201968E3541E09407B9F7225AA8
:100C60003E4F87E0223F380779F7E3E1F1E0ADE05E
:100C7000B1E08FEF81938D9391E0E831F907D1F7DF
:100C80000895CF93C82F2FEF3FEF309301012093AA
:100C900000010E946D1359984B9B03C00E941E03D4
:100CA0004CC02CE131E030933C0820933B080E947B
:100CB000F414811144C00E94C51162E085E20E94D3
:100CC000C7118EE091E00E940E1264E086E10E945E
:100CD000C71180913408813019F48FEF90E004C07F
:100CE000823029F480EF90E00E940E1222C08330FF
:100CF00019F481EE90E0F8CF843019F482ED90E0A1
:100D0000F3CF853019F483EC90E0EECF863019F400
:100D100084EB90E0E9CF873019F485EA90E0E4CFE6
:100D20008EE990E00E940E128091340890E00E94BB
:100D3000D41110922D084B9BFECF80E0B0C0CC2385
:100D4000D9F00E94C51162E080E00E94C711809135
:100D50003F08823019F487E291E002C088E191E017
:100D60000E940E1259982FE38BE49CE4215080409E
:100D70009040E1F700C000000E94B615811143C009
:100D80000E94C51162E085E20E94C7118EE091E0E9
:100D90000E940E1264E086E10E94C711809134081F
:100DA000813019F48FEF90E004C0823029F480EF95
:100DB00090E00E940E1222C0833019F481EE90E080
:100DC000F8CF843019F482ED90E0F3CF853019F438
:100DD00083EC90E0EECF863019F484EB90E0E9CF1D
:100DE000873019F485EA90E0E4CF8EE990E00E9424
:100DF0000E128091340890E00E94D41110922D08B8
:100E00004B9BFECF9ACF8091550840914F0850914F
:100E10005008849F9001859F300D11242115304783
:100E2000D0F485E0809334080E94C51162E085E229
:100E30000E94C7118EE091E00E940E1264E086E1EC
:100E40000E94C71183EC90E00E940E1210922D08B0
:100E50004B9BFECF72CFCC23E1F064E080E00E9498
:100E6000C71187E990E00E940E12809146088B30EE
:100E700019F481E990E002C08BE890E00E940E1224
:100E80009FE32BE48CE4915020408040E1F700C0C8
:100E9000000059980E9422060E94691381E0CF91B8
:100EA00008958F929F92AF92BF92CF92DF92EF926E
:100EB000FF920F931F93CF93DF93EC017B0161159A
:100EC000710519F480E090E051C10E94C51160E005
:100ED00080E00E94C7110E9472128CE192E00E9491
:100EE0000E1260E080E60E94C711809146088B30A8
:100EF00019F481E990E002C08BE890E00E940E12A4
:100F00000E94721242E061E080E00E94880362E089
:100F100080E00E94C71181E090E00E941D126701ED
:100F200000E010E0F60181916F01803211F00E9423
:100F30003C110F5F1F4F08301105A1F7D093070137
:100F4000C093060180914608F701028D138D8B3006
:100F500071F464897589CB01A0E0B0E0772766273A
:100F600020E030E0602B712B822B932B03C0B80163
:100F700080E090E0611571058105910509F4A2CF2B
:100F8000E3E0F8E0119211921192119228E0EB3215
:100F9000F207C1F760930308709304088093050873
:100FA0009093060811E0663FFFEF7F0781059105EA
:100FB000A8F40E94AD16663FEFEF7E07810591050C
:100FC00058F424E0129FF0011124ED5FF74F608385
:100FD0007183828393831F5F1A3028F3C0904B087C
:100FE000D0904C08E0904D08F0904E0880910001A0
:100FF00090910101019609F48AC080E090E00E947E
:1010000033188FEF9FEFDC018093370890933808F7
:10101000A0933908B0933A088091000190910101A2
:101020000E94A81820914608FC01428D538D2B3058
:1010300071F484899589A0E0B0E0DC0199278827C4
:1010400060E070E0842B952BA62BB72B03C0CA0160
:10105000A0E0B0E04C015D01F2E08F1A9108A10818
:10106000B108A0915508B0E0A50194010E94C91AE9
:10107000009142081091430820914408309145089E
:10108000600F711F821F931F0E943C14E0913B0868
:10109000F0913C088DEC92E0ABEAB1E08083918363
:1010A000A283B3834581568167817085818592854E
:1010B0004C155D056E057F0519F48C179D0731F001
:1010C0004387548765877687908B8787C582D682CA
:1010D000E782F086D287C187809136088483809129
:1010E000FC07818BA0915508B0E0A50194010E94F6
:1010F000C91A8090420890904308A0904408B0908C
:101100004508680D791D8A1D9B1D0E94A614C0927A
:101110004B08D0924C08E0924D08F0924E08109285
:10112000F3071092F20710922C081092F907C1E011
:10113000C09300081092FF071092F407109212015A
:1011400010921B018CE191E09093020880930108BA
:10115000599840E052E060E070E080E10E94C413E2
:101160000E942206C0932D0881E090E0DF91CF918C
:101170001F910F91FF90EF90DF90CF90BF90AF90B5
:101180009F908F900895CF92DF92EF92FF920F93EE
:101190001F93CF93DF938CE191E090933C08809371
:1011A0003B088FEF9FEFDC0180933708909338085E
:1011B000A0933908B0933A0880E090E00E94331879
:1011C0008FEF9FEF909301018093000100E010E00A
:1011D000CFEFDFEFC8010E94A8187C01009709F447
:1011E0008EC0FC018081882309F490C0C7010E9451
:1011F000BC03882329F0CF3FFFEFDF0709F4E801A4
:101200004BE050E060E770E0C7010E94DB1A892BD9
:1012100009F075C010930101009300012091460868
:10122000F701828D938D2B3071F44489558960E0EC
:1012300070E0BA0155274427A0E0B0E0482B592BB5
:101240006A2B7B2B03C0AC0160E070E09A01AB011C
:101250002250310941095109A0915508B0E00E947E
:10126000C91AC0904208D0904308E0904408F0901A
:1012700045086C0D7D1D8E1D9F1D0E943C14E09045
:101280003B08F0903C08F70180819181A281B381F5
:101290008D3C9240AB4AB14051F5F7018481809377
:1012A000360881898093FC070E94A0105998F701A5
:1012B00085819681A781B08580934B0890934C08D7
:1012C000A0934D08B0934E08D184F2848D2D9F2DAC
:1012D0000E94A818009739F00E94BC03882319F0D7
:1012E000CD2DDF2D13C080E090E00E94331880E008
:1012F00090E00E943318CF3FFFEFDF07B1F40F5F9C
:101300001F4F003921E0120709F064CFCF3F8FEF64
:10131000D80759F410922D08DF91CF911F910F91AA
:10132000FF90EF90DF90CF900895CE010E94A81813
:10133000BC01CE01DF91CF911F910F91FF90EF90F3
:10134000DF90CF900C945107CF92DF92EF92FF92F3
:101350000F931F93CF93DF93C0904B08D0904C080E
:10136000E0904D08F0904E088091000190910101AD
:10137000019609F477C080E090E00E9433188FEF67
:101380009FEFDC018093370890933808A0933908C9
:10139000B0933A0880910001909101010E94A81831
:1013A00020914608FC01428D538D2B3071F48489C5
:1013B0009589A0E0B0E0DC019927882760E070E023
:1013C000842B952BA62BB72B03C0CA01A0E0B0E05D
:1013D0009C01AD012250310941095109A0915508E4
:1013E000B0E00E94C91A0091420810914308209170
:1013F000440830914508600F711F821F931F0E949F
:101400003C14E0913B08F0913C088FEF9FEFDC012A
:101410008093370890933808A0933908B0933A081E
:1014200083859485A585B68580934B0890934C0859
:10143000A0934D08B0934E0807851089C8010E94FB
:10144000A818EC010E94BC03882361F0BE01C8010A
:10145000DF91CF911F910F91FF90EF90DF90CF9090
:101460000C945107C0924B08D0924C08E0924D0862
:10147000F0924E08DF91CF911F910F91FF90EF9066
:10148000DF90CF9008955E9A2D9A5F9A0895CF923B
:10149000DF92EF92FF920F931F93CF938091000101
:1014A00090910101019611F40FEA5AC080E090E09A
:1014B0000E9433188CE191E090933C0880933B08A4
:1014C0000E942206109237081092380810923908AC
:1014D00010923A0880910001909101010E94A81891
:1014E00020914608FC01428D538D2B3071F4848984
:1014F0009589A0E0B0E0DC019927882760E070E0E2
:10150000842B952BA62BB72B03C0CA01A0E0B0E01B
:101510009C01AD012250310941095109A0915508A2
:10152000B0E00E94C91A009142081091430820912E
:10153000440830914508600F711F821F931F0E945D
:101540003C14E0913B08F0913C0880819181A2819C
:10155000B3818D3C9240AB4AB14009F0A5CF0189DF
:101560000E94C51160E080E00E94C7110E947212C3
:1015700085EA91E00E940E120E94721243E065E03B
:1015800084E00E94880362E080E00E94C7118BEB38
:1015900091E00E940E12802F90E00E94D411F02E54
:1015A000102F0E94430A1F1581F062E080E00E9424
:1015B000C7118BEB91E00E940E12812F90E00E94E8
:1015C000D4118AE690E00E940E124B99C1C04F9947
:1015D00013C04F9BFECF8FE392E4EFE08150904029
:1015E000E040E1F700C00000CFEFC10FC093FC075F
:1015F0008C2F0E94A01001C0C12F1D9911C01D9BEE
:10160000FECFFFE322E48FE0F15020408040E1F77D
:1016100000C00000CF5FC093FC078C2F0E94A01079
:101620004E9B03C0F12E1C2FBCCF4E9BFECF9FE3E1
:10163000E2E4FFE09150E040F040E1F700C000003C
:10164000C01709F485C0C093FC078C2F0E94A0101E
:1016500059988091000190910101019609F478C098
:1016600080E090E00E9433188CE191E090933C0878
:1016700080933B080E942206109237081092380887
:101680001092390810923A0880910001909101015E
:101690000E94A81820914608FC01028D138D2B3062
:1016A00071F44489558960E070E0BA0155274427F8
:1016B00020E030E0402B512B622B732B03C0A8019C
:1016C00060E070E06A017B01F2E0CF1AD108E10826
:1016D000F108A0915508B0E0A70196010E94C91A2F
:1016E0000091420810914308209144083091450828
:1016F000600F711F821F931F0E943C14E0913B08F2
:10170000F0913C0840815181628173814D3C52408F
:101710006B4A7140E9F4C18BA0915508B0E0A70174
:1017200096010E94C91AC0904208D0904308E090E8
:101730004408F09045086C0D7D1D8E1D9F1DCF91B6
:101740001F910F91FF90EF90DF90CF900C94A61413
:10175000CF911F910F91FF90EF90DF90CF90089560
:10176000CF92DF92EF92FF920F931F93CF93DF936D
:101770000E94C51160E080E00E94C7110E947212B1
:101780008FE891E00E940E120E94721243E065E021
:1017900084E00E94880363E080E00E94C7118BEB25
:1017A00091E00E940E128091360890E00E94D411C0
:1017B00010913608012FCAE0D1E00E94430A8091BF
:1017C0003608801799F063E080E00E94C7118BEB28
:1017D00091E00E940E128091360890E00E94D41190
:1017E00088E690E00E940E12009136084B99C0C026
:1017F0004F9914C04F9BFECF2FE382E49FE021500E
:1018000080409040E1F700C0000080913608815090
:1018100080933608811102C0C09336081D9914C008
:101820001D9BFECFEFE3F2E42FE0E150F0402040BB
:10183000E1F700C00000809136088F5F8093360882
:101840008B3010F0D09336084E99B7CF4E9BFECF19
:101850008FE392E4EFE081509040E040E1F700C078
:10186000000080913608811709F482C08091000140
:1018700090910101019609F47BC080E090E00E9404
:1018800033188CE191E090933C0880933B080E94D0
:1018900022061092370810923808109239081092D8
:1018A0003A0880910001909101010E94A8182091AE
:1018B0004608FC01428D538D2B3071F48489958943
:1018C000A0E0B0E0DC019927882760E070E0842B7D
:1018D000952BA62BB72B03C0CA01A0E0B0E06C018A
:1018E0007D01F2E0CF1AD108E108F108A091550876
:1018F000B0E0A70196010E94C91A00914208109118
:1019000043082091440830914508600F711F821FE1
:10191000931F0E943C14E0913B08F0913C088081A9
:101920009181A281B3818D3C9240AB4AB14001F5D7
:10193000809136088483A0915508B0E0A7019601F4
:101940000E94C91AC0904208D0904308E090440811
:10195000F09045086C0D7D1D8E1D9F1DDF91CF9170
:101960001F910F91FF90EF90DF90CF900C94A614F1
:10197000DF91CF911F910F91FF90EF90DF90CF906B
:101980000895CF930E94C51160E080E00E94C711C6
:101990000E94721286E092E00E940E120E94721261
:1019A00043E065E084E00E94880362E080E00E94FA
:1019B000C7110E9470128AED91E00E940E120E94DF
:1019C000701263E080E00E94C71184EC91E00E94F5
:1019D0000E12C1E00E94430A4F9924C04F9BFECFD4
:1019E0002FE382E49FE0215080409040E1F700C067
:1019F0000000CF5FC330A8F462E080E00E94C7110E
:101A00008AED91E00E940E120E94701263E080E065
:101A10000E94C71184EC91E00E940E120E94701285
:101A200001C0C2E01D9923C01D9BFECF2FE382E4BD
:101A30009FE0215080409040E1F700C00000C1507D
:101A4000A9F062E080E00E94C7110E9470128AED46
:101A500091E00E940E120E94701263E080E00E94EA
:101A6000C71184EC91E00E940E1201C0C1E04E99B2
:101A7000B1CF4E9BFECF2FE382E49FE02150804008
:101A80009040E1F700C00000C13019F4CF910C94F0
:101A9000B00BC23019F4CF910C94470ACF9108953E
:101AA000AF92BF92CF92DF92EF92FF920F931F936C
:101AB000CF93DF93CDB7DEB728970FB6F894DEBF8C
:101AC0000FBECDBF10920901109208018CE191E088
:101AD00090933C0880933B0888ED93E09093FE0739
:101AE0008093FD078FEF9FEFDC0180933708909381
:101AF0003808A0933908B0933A080E9422060E9441
:101B0000721260E080E00E94C71181E791E00E94BC
:101B10000E120E94721243E065E084E00E94880386
:101B200011E0612F80E00E94C71180EF91E00E94D8
:101B30000E121F5F1630A9F763E080E00E94C71104
:101B400082E691E00E940E1200E010E0C8010E94BF
:101B5000A8187C01009799F0FC01808181110FC0C9
:101B60008091080190910901892BC9F563E080E01B
:101B70000E94C7118CE491E00E940E124BC1C70174
:101B80000E94BC03811105C0C7010E94D0038823B5
:101B9000B9F08091080190910901880F991FE09197
:101BA000FD07F091FE07E80FF91F11830083809174
:101BB0000801909109010196909309018093080111
:101BC0000F5F1F4F8091080190910901883C91059A
:101BD0003CF60039F1E01F0709F0B8CFC1CF63E050
:101BE00080E00E94C71186E391E00E940E1280916E
:101BF00008019091090102978CF42091080130911D
:101C000009014091060150910701E091FD07F09113
:101C1000FE0700E010E080E090E063C0C12CD12C12
:101C200080910801909109010197C816D9062CF7F7
:101C300000E010E0EE24E394F12C809108019091F3
:101C400009018C199D09E816F9060CF03FC05701EF
:101C5000AA0CBB1CE091FD07F091FE07EA0DFB1DED
:101C6000808191810E94A81848E050E0BC01CE011B
:101C700001960E94F61AE091FD07F091FE07E00F31
:101C8000F11F808191810E94A81848E050E0BC01BA
:101C9000CE0101960E94E91A97FF12C0E091FD075C
:101CA000F091FE07DF01AA0DBB1D8D919C9111974C
:101CB000E00FF11F208131812D933C93918380832C
:101CC0002FEFE21AF20A0E5F1F4FB7CF8FEFC81A3D
:101CD000D80AA6CF619171914617570709F48C0174
:101CE000019682179307B4F3EE24EA94FE2C0E9427
:101CF000430A4B998FC04F9916C04F9BFECF9FE36D
:101D0000E2E4FFE09150E040F040E1F700C0000065
:101D10000F5F1F4F80910801909109010817190763
:101D200011F400E010E01D9915C01D9BFECF2FE3BC
:101D300082E49FE0215080409040E1F700C0000025
:101D40000150110917FF06C0009108011091090107
:101D5000015011094E9925C04E9BFECF000F111F57
:101D6000E091FD07F091FE07E00FF11F8081918166
:101D70000E94A8187C010E94D003882331F0C7017B
:101D80000E9433180E94500D45C0E091FD07F0916C
:101D9000FE07E00FF11FB701808191810E9451077A
:101DA00039C00E151F0509F4A2CFE091FD07F0918F
:101DB000FE07C801880F991FE80FF91F80819181E4
:101DC0000E94A8186C0163E080E00E94C711C60160
:101DD0000E94D003882319F086E090E002C081E0E1
:101DE00090E00E941D127601C12CD12CF701819147
:101DF0007F01803211F00E943C11FFEFCF1ADF0A01
:101E000028E0C216D10491F780EF91E00E940E12F3
:101E100078016DCF28960FB6F894DEBF0FBECDBF08
:101E2000DF91CF911F910F91FF90EF90DF90CF90B6
:101E3000BF90AF9008950E94430A4B9B13C08FEF51
:101E400090E04B9B70C001970097D9F780916E008E
:101E50008E7F80936E00E89810922D0810920008F3
:101E60000C941E03309B42C04E9B04C04F9B02C08B
:101E70001D993CC04E9911C084E690E021E04E9936
:101E800020E001970097D9F7222309F44CC04E9B1C
:101E9000FECFF8940E94500D26C04F9913C084E6DF
:101EA00090E021E04F9920E001970097D9F7222395
:101EB00009F439C04F9BFECFF8940E94C10C4B9996
:101EC00032C024C01D992FC084E690E021E01D9906
:101ED00020E001970097D9F7222329F11D9BFECF1F
:101EE000F8940E94A4094B9B13C01DC080912D083B
:101EF000811119C08FEF90E04B9915C001970097A1
:101F0000D9F7F89481E00E94410681110E94C3082C
:101F100080912D08882331F080916E00816080933C
:101F20006E00E89A7894089595E09A95F1F70895EF
:101F30000895359BFECFA894089508953C983D9848
:101F40004498459888279927349B0895359B089590
:101F500081E0089581E00895359BEBDF3C9AE4DF52
:101F60002AD0089581E008953D9ADEDF3C98DCDFB9
:101F70003D98DADF359BDDDF3C9AD6DF1CD0089533
:101F800081E008958F938F918F93359BD2DF3C9A98
:101F9000CBDF11D0882311F404D0F5CF0F90089532
:101FA00008953D9A3C9AC0DF3D98BEDF359BC1DF66
:101FB0003C98BADF08950894881F01C0880FB9F0D3
:101FC0003D9A00000000000018F400003C9802C098
:101FD0003C9A00C0A9DF3D98A894000000000000D2
:101FE000359BA7DF12F4882712C09EDFE7CF3D9A0A
:101FF000000000003C9898DF992788273D98A89416
:102000000000359B96DF7AF3349B81E08DDF000082
:1020100000003D9A089581E0089571E03D9A3C9852
:1020200000000000000080DF3D987EDFA8940000E3
:1020300000000000359B7DDFB2F08894349908944D
:10204000771F60F73D9A803011F03C9801C03C9AB0
:1020500000000000000068DF3D98A8940000000028
:10206000359B67DF61DF000000003D9A872F9927CD
:10207000089580E20895CF93C82F88E70E94AC0F9F
:1020800080E00E94DB0F8C2F0E94DB0FCF910C941D
:10209000D10FCF93C82F88E70E94AC0F80E40E9435
:1020A000DB0F8C2F0E94DB0FCF910C94D10FCF93BD
:1020B000DF93EC0181E290E00E943B10CE010E9490
:1020C0003B108FE790E0DF91CF910C943B10CF93C2
:1020D000DF93EC0182E290E00E943B10CE010E946F
:1020E0003B1087E090E0DF91CF910C943B10EF9292
:1020F000FF920F931F93CF93DF938C017B0180E0BE
:1021000090E00E94571080E090E00E94671088E7FE
:102110000E94AC0F80E40E94DB0FE801CE01801B1F
:10212000910B8E159F0524F489910E94DB0FF6CF49
:10213000DF91CF911F910F91FF90EF900C94D10FF1
:10214000CF93C82F81E890E00E943B108C2F90E045
:102150000E943B10C0933108CF9108950E949E0FBA
:102160008EEA90E00E943B1085ED90E00E943B10CB
:1021700080E890E00E943B1088EA90E00E943B10CB
:102180008FE390E00E943B1083ED90E00E943B10B3
:1021900080E090E00E943B1080E490E00E943B10C1
:1021A0008DE890E00E943B1084E190E00E943B109B
:1021B00080E290E00E943B1080E090E00E943B10A3
:1021C00081EA90E00E943B1088EC90E00E943B1076
:1021D0008AED90E00E943B1082E190E00E943B106B
:1021E00081E890E00E943B108FEC90E00E943B1051
:1021F00089ED90E00E943B1081EF90E00E943B103F
:102200008BED90E00E943B1080E490E00E943B1038
:1022100084EA90E00E943B1086EA90E00E943B1026
:102220008FEA90E00E943B108FEC809331088093FE
:10223000FC0710922F08109232081092300808956F
:10224000CF93DF9380E090E00E94571080E090E011
:102250000E94671088E70E94AC0F80E40E94DB0FA9
:10226000C0E0D4E080E00E94DB0F21972097D1F7F7
:10227000DF91CF910C94D10F0F931F93CF93DF93E6
:10228000082F88E70E94AC0F80E40E94DB0F85E0F6
:10229000089F80011124C0E0D0E003581C4FF801D2
:1022A000EC0FFD1FE49180912F088111E095809142
:1022B0003208813011F490E801C090E081E0209173
:1022C0003008213009F080E08E2B892B0E94DB0F33
:1022D0002196C530D10519F781E090912F089130F2
:1022E00009F080E0282F219580913208813011F487
:1022F00090E801C090E081E030913008313009F081
:1023000080E0822B892B0E94DB0FDF91CF911F9100
:102310000F910C94D10FCF93DF93EC018991882317
:1023200019F00E943C11FACFDF91CF91089581EA14
:1023300090E00E943B1088EC90E00E943B100C94CF
:10234000201180EA90E00E943B1080EC90E00E9417
:102350003B100C94201181E090912F08911180E0A6
:1023600080932F08089581E090913208911180E0C8
:1023700080933208089581E090913008911180E0B7
:102380008093300808950C94AE100C942011CF93D4
:10239000C82F862F90E00E9467108C2F90E0CF917D
:1023A0000C9457100C948B11CF93DF93CDB7DEB7FD
:1023B0002A970FB6F894DEBF0FBECDBF4AE0BE012C
:1023C0006F5F7F4F0E940A1BCE0101960E948B1106
:1023D0002A960FB6F894DEBF0FBECDBFDF91CF9126
:1023E0000895CF93DF93CDB7DEB72A970FB6F89451
:1023F000DEBF0FBECDBF2AE0AE014F5F5F4F0E9430
:10240000151BCE0101960E948B112A960FB6F894E7
:10241000DEBF0FBECDBFDF91CF910895CF93DF9385
:10242000FC018491EF012196882321F00E943C1148
:10243000FE01F7CFDF91CF910895EF92FF920F93B6
:102440001F93CF93DF937C018CE08E9D80018F9D45
:10245000100D1124C0E0D0E007531C4F8FEFE81699
:10246000F10429F0F801EC0FFD1FE49101C0E0E058
:1024700080912F088111E09580913208813011F40C
:1024800090E801C090E081E020913008213009F00F
:1024900080E08E2B892B0E9449102196CC30D105EB
:1024A000E9F681E090912F08913009F080E0282F23
:1024B000219580913208813011F490E801C090E0BC
:1024C00081E030913008313009F080E0822B892B97
:1024D000DF91CF911F910F91FF90EF900C944910D5
:1024E0000C94AB110C94B3110C94BB11DF92EF92CE
:1024F000FF920F931F93CF93DF9300E010E0D12C56
:102500006D2D89E10E94C711C0E0D0E0C801895A51
:102510009D4F7C01F701EC0FFD1F84910E94491033
:102520002196CA34D105B1F7D394065B1F4F95E0CD
:10253000D912E6CFDF91CF911F910F91FF90EF90CD
:10254000DF900895519A549A559A509810923308F2
:10255000089528E030E090E840E250E160E3792F10
:10256000782319F05BB96BB902C01BB84BB99695CB
:10257000215031092115310591F71BB80895CF93EA
:10258000DF931F92CDB7DEB780E18BB9198280E06F
:1025900020E330E19981983051F02BB999B1880F3F
:1025A0009170892B3BB999819F5F9983F3CF0F90ED
:1025B000DF91CF91089582E38BB982E18BB90895C1
:1025C00028E100002A95E9F70197D1F708950895C9
:1025D000DF92EF92FF920F931F93CF93DF93082F19
:1025E000C8E0D0E010E880E2F82E90E1E92E20E388
:1025F000D22E812F802339F0EBB881E090E00E9449
:10260000E012DBB806C01BB881E090E00E94E01247
:10261000FBB816952197209761F781E090E00E9422
:10262000E0121BB8DF91CF911F910F91FF90EF90B7
:10263000DF90089590913308911103C00E94E81231
:1026400002C00E94A91280E00895FF920F931F9389
:10265000CF93DF931F92CDB7DEB780E18BB981E0D6
:1026600090E00E94E012198210E030E3F32E00E1C6
:102670008981883091F0FBB881E090E00E94E012FF
:1026800089B1110F8170182B0BB981E090E00E9485
:10269000E01289818F5F8983EBCF812F0F90DF91CB
:1026A000CF911F910F91FF90089580913308811170
:1026B00002C00C9425130C94BF1282E38BB981E005
:1026C00090E00E94E01282E18BB981E090E00C94EE
:1026D000E01281E080933308089510923308089542
:1026E0000E94BF1287FDFCCF08951F93CF93DF9305
:1026F00000D000D0CDB7DEB7182F0090350804C049
:10270000440F551F661F771F0A94D2F78FEF498336
:102710005A836B837C830E94A912812F80640E945C
:10272000A9127C81872F0E94A9126B81862F0E949B
:10273000A9125A81852F0E94A9124981842F0E94D3
:10274000A91285E90E94A9128FEF0E94A9120E9486
:1027500070138093400881508E3FC8F30F900F9004
:102760000F900F90DF91CF911F910895AB01BC01A5
:1027700010923E0881E10E9475130E94BF1280935F
:1027800041088E3FD1F70895FF920F931F93CF9387
:10279000DF9300D000D0CDB7DEB7082F80913D0881
:1027A000811113C08FEE800F823040F088EE800FD1
:1027B000823020F080EE800F823038F489E0440FC0
:1027C000551F661F771F8A95D1F78FEF49835A836C
:1027D0006B837C830E941A13802F80640E941A13DB
:1027E0007C81872F0E941A136B81862F0E941A13F7
:1027F0005A81852F0E941A134981842F0E941A132F
:10280000083011F487E801C085E90E941A1310E02E
:102810000E945513F82E8FEFF81203C01150C1F724
:102820001EC0F1101CC00A33D1F40E94551310923F
:10283000350886FF05C081E080933D0882E006C030
:1028400010923D0889E08093350881E080933F082D
:102850000E9455130E9455130E945513F12C0E949B
:1028600055138F2D0F900F900F900F90DF91CF91F8
:102870001F910F91FF900895EF92FF920F931F9376
:10288000CF93DF9300D000D0CDB7DEB7AB01BC0152
:102890008091370890913808A0913908B0913A0892
:1028A000481759076A077B0709F444C04093370863
:1028B000509338086093390870933A0859988FEF0D
:1028C00049835A836B837C830E941A138FEF0E9483
:1028D0001A1349815A816B817C8181E10E94C41362
:1028E000811129C000E010E00E9455138E3F41F095
:1028F0000150110901151105B9F7599A80E01BC063
:10290000E12CF12C00913B0810913C080E0D1F1D8D
:102910000E945513F8018083FFEFEF1AFF0AE114BC
:1029200082E0F80679F70E9455130E9455130E9421
:102930005513599A81E00F900F900F900F90DF91EF
:10294000CF911F910F91FF90EF900895CF93DF9358
:10295000AB01BC0188E10E94C41381113DC05998AC
:102960008EEF0E941A13C0E0D0E0E0913B08F09196
:102970003C08EC0FFD1F80810E941A132196C1159F
:1029800082E0D80791F78FEF0E941A138FEF0E9411
:102990001A130E945513982F9F71953079F4C0E057
:1029A000D0E00E945513811103C02196D1F706C0D3
:1029B000599A8FEF0E941A13599808C0599A0CC05F
:1029C0009E012F5F3F4F2196C9F3E9010E945513E5
:1029D0008823B1F3599A81E0DF91CF910895AB013B
:1029E000BC0180E10C94C413CF92DF92EF92FF926E
:1029F0001F93CF93DF931092340885E080933608BD
:102A00000E94A2120E946D134B999AC080E185B971
:102A1000599A8FE097E2A0E0B0E080933708909356
:102A20003808A0933908B0933A0814E60E945D1361
:102A30001150E1F759988FEF0E941A138FEF0E94FF
:102A40001A13C0E0D8E040E050E0BA0180E00E94F4
:102A5000C4132197209731F415B8599A81E08093D7
:102A600034086FC0813079F78FEF0E941A138FEF0F
:102A70000E941A13C1E0D2E04AEA51E060E070E03F
:102A800088E00E94C4138A3A49F481E080933F08A9
:102A9000C12CD12CE12C90E4F92E0AC08130A9F38D
:102AA0002197209749F710923F08C12CD12C76012D
:102AB0008FEF0E941A138FEF0E941A13C1E0D2E029
:102AC00040E050E0BA0187E30E94C413B701A601B9
:102AD00089E20E94C4132197209731F482E0809309
:102AE000340815B8599A2DC08111EACF10923D08CB
:102AF00089E08093350880913F08813081F040E083
:102B000050E0BA018BE30E94C41360E072E080E001
:102B100090E00E94EF1415B8599A11E012C0C5E672
:102B2000D0E08FEF0E941A1340E050E0BA018AE330
:102B30000E94C4132197209711F38111F2CFDFCFA8
:102B400010E0812FDF91CF911F91FF90EF90DF90E8
:102B5000CF90089580E185B9089515B808950E9431
:102B6000BF124B9902C08F3FD1F708954F925F92E9
:102B70006F927F928F929F92AF92BF92CF92DF928D
:102B8000EF92FF921F93CF93DF9360E070E0CB0151
:102B90000E943C14E0913B08F0913C0880818D7FBD
:102BA000893E51F1DF01A250BE4F8D919C91853538
:102BB0009A4A11F086E014C0E254FE4F848180935B
:102BC000460860857185828593850E943C14E0915A
:102BD0003B08F0913C0880818D7F893E29F083E09D
:102BE0008093340880E0A9C0809146088B3021F0A2
:102BF000863011F084E0F4CFC0913B08D0913C08BE
:102C0000438554855093500840934F081585109381
:102C1000550886859785C48CD58CE68CF78CC80EB4
:102C2000D91EE11CF11CC0925108D0925208E092CA
:102C30005308F092540860914608663019F42689CA
:102C4000378902C02CA13DA1A089B0E02A9FC00114
:102C50002B9F900D3A9F900D112446015701880E2D
:102C6000991EA11CB11C8092420890924308A09228
:102C70004408B09245084CA45DA46EA47FA46630BD
:102C8000B9F0A30192012250310941095109A12F44
:102C9000B0E00E94C91A680D791D8A1D9B1D6093C2
:102CA0004708709348088093490890934A0826C0C3
:102CB0000E94BA1A4B015C018C0C9D1CAE1CBF1CFF
:102CC0008092470890924808A0924908B0924A081A
:102CD0008189928935E0880F991F3A95E1F7BA0109
:102CE0000E94841A860E971EA11CB11C8092420875
:102CF00090924308A0924408B0924508812F90E03A
:102D000020E031E0320F8130910521F096958795D2
:102D1000232FF7CF209356088091470890914808B9
:102D2000A0914908B0914A0880934B0890934C08B1
:102D3000A0934D08B0934E0881E0DF91CF911F9191
:102D4000FF90EF90DF90CF90BF90AF909F908F90CB
:102D50007F906F905F904F9008954F925F926F9227
:102D60007F928F929F92AF92BF92CF92DF92EF921B
:102D7000FF92CF9320914608263041F088248A9410
:102D8000982CA82C5FE0B52E22E006C088248A94F7
:102D9000982CA12CB12C21E004C0660F771F881F4E
:102DA000991F2A95D2F720914F083091500840E0A2
:102DB00050E00E94981A2B013C01C0905108D0901D
:102DC0005208E0905308F0905408C20ED31EE41E3F
:102DD000F51ECAE0C701B6010E943C14882311F019
:102DE000C150C1F7E0913B08F0913C08E40DF51D9E
:102DF0006081718182819381682179218A219B215F
:102E0000CF91FF90EF90DF90CF90BF90AF909F90C9
:102E10008F907F906F905F904F9008954F925F9248
:102E20006F927F928F929F92AF92BF92CF92DF92DA
:102E3000EF92FF92CF9368EEC62E63E0D62EE12C80
:102E4000F12CC701B6010E94AD166115710581050F
:102E5000910591F030EAC31636E8D30631E0E30677
:102E6000F10431F02FEFC21AD20AE20AF20AE9CFD6
:102E700060E070E0CB014EC040EAC41646E8D406DC
:102E800041E0E406F10409F445C08091460886302B
:102E900011F062E001C061E0A701960104C0220FB9
:102EA000331F441F551F6A95D2F7CA01B9012091FB
:102EB0004F083091500840E050E00E94981A2B01D2
:102EC0003C018090510890905208A0905308B09017
:102ED0005408820E931EA41EB51ECAE0C501B4019B
:102EE0000E943C14882311F0C150C1F7E0913B08C7
:102EF000F0913C08E40DF51D8FEF90E0A0E0B0E00C
:102F000080839183A283B383C501B4010E94A61478
:102F1000C701B601CF91FF90EF90DF90CF90BF90A7
:102F2000AF909F908F907F906F905F904F9008959B
:102F30008F929F92AF92BF92EF92FF920F931F9347
:102F4000CF93DF937C01F5E0EE0CFF1CFA95E1F7DF
:102F5000E701CD2FDD27C69520915508622F70E03F
:102F6000CE010E94841A8B0160914B0870914C082D
:102F700080914D0890914E080115110509F44AC041
:102F800030914608363071F4809047089090480898
:102F9000A0904908B0904A08681579058A059B05F4
:102FA00009F454C08090420890904308A0904408CF
:102FB000B0904508681979098A099B0930E040E01A
:102FC00050E00E94981ACA01B9016E5F7F4F8F4F7F
:102FD0009F4FA12CB12C0E94AD162FEFA21AB20A5E
:102FE000A016B106C1F79B01AC012250310941097D
:102FF0005109A0915508B0E00E94C91A809042087A
:1030000090904308A0904408B0904508680D791D41
:103010008A1D9B1D9E01322F2227330FE21AF30ACD
:1030200040915508409F9001419F300D1124C21BD3
:10303000D30B6C0F7D1F811D911D0E943C1480914C
:103040003B0890913C088E0D9F1D02C080E090E0EF
:10305000DF91CF911F910F91FF90EF90BF90AF90B4
:103060009F908F9008950F931F93FC01009789F410
:103070008091470890914808A0914908B0914A086A
:1030800080934B0890934C08A0934D08B0934E0842
:103090003FC09385892F807194FF3BC08091460883
:1030A000428D538D8B3071F484899589A0E0B0E016
:1030B000DC019927882760E070E0842B952BA62BF4
:1030C000B72B03C0CA01A0E0B0E00097A105B1058D
:1030D00079F29C01AD012250310941095109A091B9
:1030E0005508B0E00E94C91A0091420810914308A7
:1030F0002091440830914508600F711F821F931F73
:1031000060934B0870934C0880934D0890934E0841
:1031100081E01F910F910895FC01009719F480E060
:1031200090E0089580818823D1F3853EC1F38E32EB
:1031300021F481818E3219F0F2CF853081F38385BD
:103140008E3169F38F3059F3883249F3CF010895F6
:103150000E9498170C948C180000000000000000DA
:1031600000000000000000000000089500000000C2
:1031700000000000209136082A95F1F70895AF93DA
:10318000AFB7AF93BF932F93A0912C0820912B083A
:10319000A22BA8B9A4EBA6BD20E0E8DFA0912B08E4
:1031A000A8B9B0910008BB2341F020932C082F91BF
:1031B000BF91AF91AFBFAF911895A0E3ABB9A9B1E3
:1031C000A170AA0F2A2FA0E1ABB9A091F207B0918C
:1031D000F3071196A093F207B093F307A03989F48F
:1031E000BC3079F4A1E0A0930008CF93C0E7A8E039
:1031F000B0E3BBB9B0E1BBB9AA95D1F7CA95B9F7AD
:10320000CF9120932C082F91BF91AF91AFBFAF9179
:1032100018952F932FB72F9330995BC03F93309120
:10322000F90726B124702327E1F326B124702093F7
:10323000F90728E02A95F1F700004F935F936F9309
:103240007F938F93EF93FF9360E0E0910108F091FB
:1032500002083DE541E00DC05091F90776B1747068
:103260007527E1F376B174707093F9077EE07A9573
:10327000F1F727E081E079B17470D9F40000000023
:103280007BE17A95F1F776B174705091F9077093FC
:10329000F907752776957695880F872B2A9559F724
:1032A000853D09F461E06030B9F2819331504040CE
:1032B00099F69F93AF93BF930E94B105BF91AF91D1
:1032C0009F91FF91EF918F917F916F915F914F91BE
:1032D0003F912F912FBF2F91189581E00E943303CA
:1032E0008FEF80931801CBE80E941B0F309B03C027
:1032F0000E94AD15F9CF0E94AA1583B18F708093FB
:103300000C0190910B01891761F180930B018830BA
:1033100049F0843009F4EFC0823009F4EEC0813006
:1033200001F5EDC082E02091FF07820F982F977082
:103330009695E92FF0E0E459FF4FE49180FFE29584
:10334000EF708E2F887009F0E86F2E0F253C08F083
:10335000D8C02093FF078091FF078C3810F0C093EE
:10336000FF0780912D08882309F4BECF80910008C3
:10337000882309F4B9CFF8943091F4073F5F3F7088
:103380003093F4072091FF072695269520932E0869
:1033900040E1249FC0011124830F911D9093FB07EE
:1033A0008093FA070090560802C0969587950A9474
:1033B000E2F790931A0180931901FC01EE0FFF1FB1
:1033C000EE0FFF1FED5FF74F80819181A281B381E6
:1033D0008093F5079093F607A093F707B093F8074B
:1033E000809118012817B9F02093180164E08CE04F
:1033F0000E94C71187E891E00E940E1280912E086A
:103400008A3020F483E091E00E94D21180912E084E
:1034100090E00E94D4118091F40790910D019813CF
:1034200006C02091130190912E08291741F1909127
:103430000E01981306C02091140190912E082917AF
:10344000F1F090910F01981306C020911501909111
:103450002E082917A1F090911001981306C0209111
:10346000160190912E08291751F09091110198138F
:1034700008C09091170180912E08981302C00E94F5
:103480004B056091F5077091F6078091F7079091D1
:10349000F80762507109810991090090560804C02B
:1034A000660F771F881F991F0A94D2F70091420870
:1034B000109143082091440830914508600F711F16
:1034C000821F931F2091550830E02150310940910F
:1034D000FA075091FB0724233523620F731F811DC8
:1034E000911D0E94B6131092F3071092F2071092EA
:1034F00000087894F9CE84E016CF86E014CF80E0FF
:1035000012CF1092FF0727CFAA1BBB1B51E107C0A8
:10351000AA1FBB1FA617B70710F0A61BB70B881F63
:10352000991F5A95A9F780959095BC01CD010895F2
:10353000A1E21A2EAA1BBB1BFD010DC0AA1FBB1FB7
:10354000EE1FFF1FA217B307E407F50720F0A21B29
:10355000B30BE40BF50B661F771F881F991F1A9496
:1035600069F760957095809590959B01AC01BD01C0
:10357000CF010895A29FB001B39FC001A39F700D1A
:10358000811D1124911DB29F700D811D1124911D6B
:1035900008950E94BA1AA59F900DB49F900DA49F04
:1035A000800D911D11240895FB01DC0105900D9201
:1035B0000020E1F70895FB01DC014150504030F05C
:1035C0008D910590801919F40020B9F7881B990B8B
:1035D0000895FB01DC0104C08D910190801921F454
:1035E00041505040C8F7881B990B0895DC01FB013E
:1035F0004150504058F049F001900D920020C1F721
:10360000E61BF70B3197CF0108951C920190002023
:10361000E9F7F6CFBB274A3031F4992322F4BDE213
:10362000909581959F4F0C94471BBB272A3051F4EE
:10363000992342F4BDE290958095709561957F4FF6
:103640008F4F9F4F0C94251BBB27FA01A62F6217A3
:10365000710581059105330B30FB66F0AA27660FD3
:10366000771F881F991FAA1FA21710F0A21B63952E
:103670003850A9F7A05DAA3308F0A95DA19336F7E9
:10368000B111B1931082CA010C94601BBB27FB01DE
:103690005527AA27880F991FAA1FA41710F0A41B4B
:1036A00083955051B9F7A05DAA3308F0A95DA193A5
:1036B000009779F7B111B1931192CB010C94601B73
:1036C000DC01FC01672F71917723E1F7329704C089
:1036D0007C916D9370836291AE17BF07C8F3089514
:0436E000F894FFCF8C
:0636E400FFFFFE200000C4
:00000001FF
