:100000000C94E7000C946B120C9404010C94040102
:100010000C9404010C9404010C9404010C9404014C
:100020000C9404010C9404010C9404010C9404013C
:100030000C9404010C9404010C9404010C9404012C
:100040000C9421120C9404010C9404010C940401EE
:100050000C9404010C9404010C9404010C9404010C
:100060000C9404010C94040120000FED032153446F
:1000700049534B494920434647004E6F2053442083
:10008000696E73657274656400464154313600468A
:100090004154333200547970653A20004E6F726DCE
:1000A000616C20534420636172640020202053441B
:1000B00048432063617264202000436F64653A20E6
:1000C00000534420426C6F636B204552524F5200E4
:1000D0004D697373696E67204D42522020200043A2
:1000E0006C7573746572203C2033326B42004E6F26
:1000F000742046415431362F3332202000426F6F36
:100100007420736563746F72202020005344206351
:10011000616E277420696E69742000534420636106
:100120006E27742069646C6520004520522052209F
:100130004F205200536F7274696E672066696C6558
:10014000732E2E2E00204E6F7468696E67206865CE
:100150007265212020004275696C64696E67206CAD
:100160006973742E2E2E0053656C656374204E499E
:100170004320696D6167650054523A200053656CF5
:100180006563742064656C61793A20200044656C75
:1001900061793A20002020202020202020202020CB
:1001A0002020202020004E49433A2000202041708A
:1001B000706C65205D5B2042522020200053444932
:1001C000534B32204C434420762E342E31001124E0
:1001D0001FBECFEFD8E0DEBFCDBF11E0A0E0B1E0A1
:1001E000E8EAF9E202C005900D92AA30B107D9F70A
:1001F00028E0AAE0B1E001C01D92A735B207E1F7FF
:100200000E94CF120C94D2140C9400000E94A30BF5
:1002100060E080E00E94A90B8AE790E00E94F90B61
:1002200061E081E00E94A90B85E991E00E94F90B51
:100230004B99FECF089514B817B81AB815B818B866
:100240001BB8249A2C9A9AE397B992E39AB992E050
:1002500098B99BB9399A3B9A419A17BC14BC21E0D2
:1002600025BD95BF909369001092F8071092310850
:100270001092300810922F081092F7071092F6078C
:100280001092FD07209304081092030810921601A3
:1002900010921F0120E231E03093060820930508F8
:1002A0008823E9F00E945F0B0E94A30B60E080E0CE
:1002B0000E94A90B8DEB91E00E94F90B61E080E0B8
:1002C0000E94A90B8CEA91E00E94F90B2FE38BE4CA
:1002D0009CE4215080409040E1F700C00000089568
:1002E000FC01009779F08081882369F0853E51F008
:1002F00080858E3439F48185893421F481E09285BA
:10030000933409F080E00895FC01009749F0808162
:10031000882339F0853E21F0838582958170089588
:1003200080E00895CF92DF92EF92FF920F931F9398
:10033000CF93DF938FEF9FEF9093010180930001A4
:100340000E9470106B017C0161157105810591059A
:10035000D9F180E090E00E94951100E010E0C80122
:100360000E94FA10EC01009749F18881853E11F056
:10037000811124C08B858F3009F110930101009306
:1003800000016EE670E0CE010E94361481E08B879A
:10039000FD8AEC8ADB8ECA8E60913708709138082E
:1003A0008091390890913A08DF91CF911F910F9178
:1003B000FF90EF90DF90CF900C94080E0F5F1F4FCF
:1003C000003981E0180759F6DF91CF911F910F9105
:1003D000FF90EF90DF90CF900895FF920F931F93BF
:1003E000CF93DF93D82FF62EC42FA62FB0E040E195
:1003F000C49FA00DB11D1124FD010090560802C03C
:10040000F695E7950A94E2F7EE0FFF1FEE0FFF1F38
:10041000E95FF74F008111812281338182E08BB93E
:100420001BB8E0915508F0E03197EA23FB23409197
:1004300042085091430860914408709145084E0F5E
:100440005F1F611D711D02501109210931090090C2
:10045000560804C0000F111F221F331F0A94D2F741
:10046000400F511F621F731F88E10E94DB0C8FEF4A
:100470000E940F0C8EEF0E940F0C80EB90E030E199
:1004800020E33BB92BB901970097D9F71BB883E05C
:100490000E940F0C8CEF0E940F0C8FEF0E940F0C2C
:1004A0008FE30E940F0C8FEC0E940F0C83EF0E94D1
:1004B0000F0C8CEF0E940F0C8FEF0E940F0C8FE33C
:1004C0000E940F0C8FEC0E940F0C83EF0E940F0C08
:1004D0008CEF0E940F0C85ED0E940F0C8AEA0E949F
:1004E0000F0C86E90E940F0C8FEF0E940F0C8EEF0D
:1004F0000E940F0C8C2F86958A6A0E940F0C8C2FFD
:100500008A6A0E940F0C8F2D86958A6A0E940F0CB2
:100510008F2D8A6A0E940F0C1EEF1F251C27812F2A
:1005200086958A6A0E940F0C812F8A6A0E940F0C9E
:100530008EED0E940F0C8AEA0E940F0C8BEE0E9437
:100540000F0C8FEF0E940F0C8FEF0E940F0C8FEF9C
:100550000E940F0C8FEF0E940F0C8FEF0E940F0C68
:100560008EE591E0D89F9001D99F300D1124205E37
:100570003E4F80E090E070E2A0E1B0E3F901E80FC7
:10058000F91FE08148E050E060E8F62FFE2319F003
:10059000ABB9BBB902C01BB87BB9669541505109D4
:1005A0004115510591F701968D3541E0940731F7DA
:1005B0001BB880E790E030E120E33BB92BB901970D
:1005C0000097D9F71BB880E093E020E21BB82BB965
:1005D00001970097D9F71BB88FEF0E940F0C8FEF90
:1005E0000E940F0C0E94250C0E94110F82E08BB913
:1005F0001BB8DF91CF911F910F91FF900895CF927B
:10060000DF92EF92FF920F931F93CF93DF934B995B
:1006100033C0E1E1F1E081918F3F51F1C7E1D1E0D9
:1006200092E2E92E91E0F92E01E111E0D12CCC24E7
:10063000CA94F80160816F3F21F048818D2D0E949E
:10064000ED01F801C1928F01C992F7011082D39494
:10065000F2EAEF1AFEEFFF0A85E0D812EACF109215
:10066000160180E291E0909306088093050804C08B
:1006700081E0E631F80779F6DF91CF911F910F9174
:10068000FF90EF90DF90CF9008958091F6079091C2
:10069000F70780399C40C0F480E18BB98091F60760
:1006A0009091F70720E330E1803140E1940730F486
:1006B0004B990AC02BB93BB90196F6CF80E99CE073
:1006C0009093F7078093F60708954B996EC0409179
:1006D0001601842F90E02EE531E0829FF001839F88
:1006E000F00D929FF00D1124E05EFE4F22812D3A15
:1006F00009F042C020911F01211131C02091F8075B
:10070000FC01EF5EFE4F2083FC01E95EFE4F30915D
:100710000308369536953083822F8D7F8D3011F406
:1007200082E001C081E0820F8F708093F80744302F
:1007300029F40E9445030E94FF021BC04F5F4093B3
:1007400016012EE531E0429FC001439F900D112418
:10075000805E9E4F90930608809305080DC080919F
:100760000E018093F80710921F018F3029F40E9428
:10077000450381E080930408209116018EE591E005
:10078000289FF001299FF00D1124E05EFE4F828129
:10079000863959F487818575880F90859575892BE1
:1007A00080930E0181E080931F01089520E231E0E3
:1007B00080E090E0F901E80FF91F108201968E3574
:1007C00041E09407B9F7225A3E4F87E0263F3807A9
:1007D00079F7E7E1F1E0A1E1B1E08FEF81938D934B
:1007E00091E0EC31F907D1F70895CF93C82F2FEF9F
:1007F0003FEF30930101209300010E94D30C5998E0
:100800004B9B03C0CF910C94060120E231E0309362
:100810003C0820933B080E94560E811143C00E9461
:10082000A30B60E080E00E94A90B8AE291E00E94A5
:10083000F90B61E080E00E94A90B809134088130BF
:1008400019F48BE191E01DC0823019F48CE091E045
:1008500018C0833019F48DEF90E013C0843019F480
:100860008EEE90E00EC0853019F48FED90E009C057
:10087000863019F480ED90E004C0873029F481ECD3
:1008800090E00E94F90B09C08AEB90E00E94F90BFE
:100890008091340890E00E94BF0B109231084B9B6E
:1008A000FCCFB0C0CC23D9F00E94A30B60E081E064
:1008B0000E94A90B80913F08823019F48BEA90E0E6
:1008C00002C08CE990E00E94F90B59982FE985E26B
:1008D00096E2215080409040E1F700C000000E9465
:1008E000180F811143C00E94A30B60E080E00E94BA
:1008F000A90B8AE291E00E94F90B61E080E00E947E
:10090000A90B80913408813019F48BE191E01DC06E
:10091000823019F48CE091E018C0833019F48DEF27
:1009200090E013C0843019F48EEE90E00EC0853054
:1009300019F48FED90E009C0863019F480ED90E055
:1009400004C0873029F481EC90E00E94F90B09C0C3
:100950008AEB90E00E94F90B8091340890E00E94AD
:10096000BF0B109231084B9BFCCF4CC080915508B7
:1009700040914F0850915008849F9001859F300D01
:10098000112421153047D0F485E0809334080E946B
:10099000A30B60E080E00E94A90B8AE291E00E9434
:1009A000F90B61E080E00E94A90B8FED90E00E94BE
:1009B000F90B109231084B9BFCCF24C0CC23E9F0FB
:1009C00061E080E00E94A90B85E990E00E94F90BAC
:1009D000809146088B3019F48FE890E002C089E8D6
:1009E00090E00E94F90B9FE32BE48CE491502040AF
:1009F0008040E1F700C0000059980E94D603CF91D3
:100A00000C94CF0CCF910895CF92DF92EF92FF928A
:100A10000F931F930E94A30B60E080E00E94A90B3C
:100A20008DE791E00E94F90B61E080E00E94A90B44
:100A30008DE891E00E94F90B8091360890E00E94C9
:100A4000BF0B10913608912F0AE080913608891764
:100A500099F061E080E00E94A90B8DE891E00E948E
:100A6000F90B8091360890E00E94BF0B88E690E079
:100A70000E94F90B909136084B99BFC04F9914C052
:100A80004F9BFECF2FE332E48FE021503040804077
:100A9000E1F700C00000809136088150809336084D
:100AA000811102C0009336081D9915C01D9BFECF11
:100AB000EFE3F2E42FE0E150F0402040E1F700C026
:100AC0000000809136088F5F809336088B3018F0D5
:100AD00081E0809336084E99B8CF4E9BFECF3FE31E
:100AE00082E49FE0315080409040E1F700C0000078
:100AF00080913608811709F480C08091000190919F
:100B00000101019609F479C080E090E00E949511FE
:100B100080E291E090933C0880933B080E94D603CA
:100B200010923708109238081092390810923A083B
:100B300080910001909101010E940A1220914608C3
:100B4000FC01428D538D2B3071F484899589A0E08E
:100B5000B0E0DC019927882760E070E0842B952BBA
:100B6000A62BB72B03C0CA01A0E0B0E06C017D0149
:100B7000F2E0CF1AD108E108F108A0915508B0E0E1
:100B8000A70196010E942B1400914208109143087E
:100B90002091440830914508600F711F821F931FF8
:100BA0000E949E0DE0913B08F0913C08808191816C
:100BB000A281B3818D3C9240AB4AB140F1F4809167
:100BC00036088483A0915508B0E0A70196010E94E1
:100BD0002B14C0904208D0904308E0904408F09055
:100BE00045086C0D7D1D8E1D9F1D1F910F91FF905F
:100BF000EF90DF90CF900C94080E1F910F91FF9013
:100C0000EF90DF90CF9008958F929F92AF92BF9216
:100C1000CF92DF92EF92FF920F931F93CF93DF93C8
:100C2000EC017B016115710519F480E090E048C189
:100C300060E080E00E94A90B86EA91E00E94F90B37
:100C4000670100E010E0F60181916F01803211F040
:100C50000E94B10B0F5F1F4F08301105A1F785E906
:100C600091E00E94F90B61E080E00E94A90B85E908
:100C700091E00E94F90B61E080E00E94A90B8DE8F1
:100C800091E00E94F90B8091360890E00E94BF0B22
:100C9000D0930B01C0930A0180914608F701028DA1
:100CA000138D8B3071F464897589CB01A0E0B0E0BD
:100CB0007727662720E030E0602B712B822B932B67
:100CC00003C0B80180E090E06115710581059105D0
:100CD00009F4ABCFE7E0F8E0119211921192119272
:100CE00028E0EF32F207C1F7609307087093080815
:100CF0008093090890930A0811E0663FFFEF7F0791
:100D000081059105A8F40E940F10663FEFEF7E0762
:100D10008105910558F424E0129FF0011124E95F48
:100D2000F74F60837183828393831F5F1A3028F3A8
:100D3000C0904B08D0904C08E0904D08F0904E08C1
:100D40008091000190910101019609F48AC080E030
:100D500090E00E9495118FEF9FEFDC0180933708A0
:100D600090933808A0933908B0933A088091000115
:100D7000909101010E940A1220914608FC01428DC7
:100D8000538D2B3071F484899589A0E0B0E0DC01AB
:100D90009927882760E070E0842B952BA62BB72B32
:100DA00003C0CA01A0E0B0E04C015D01F2E08F1A7F
:100DB0009108A108B108A0915508B0E0A5019401DF
:100DC0000E942B140091420810914308209144087E
:100DD00030914508600F711F821F931F0E949E0D66
:100DE000E0913B08F0913C088DEC92E0ABEAB1E079
:100DF00080839183A283B383458156816781708507
:100E0000818592854C155D056E057F0519F48C175B
:100E10009D0731F04387548765877687908B878756
:100E2000C582D682E782F086D287C1878091360854
:100E3000848380910008818BA0915508B0E0A501C2
:100E400094010E942B148090420890904308A09037
:100E50004408B0904508680D791D8A1D9B1D0E94AD
:100E6000080EC0924B08D0924C08E0924D08F092C8
:100E70004E081092F7071092F60710923008109261
:100E8000FD07C1E0C0930408109203081092F80710
:100E90001092160110921F0180E291E090930608D3
:100EA00080930508599840E052E060E070E080E1EE
:100EB0000E942A0D0E94D603C093310881E090E081
:100EC000DF91CF911F910F91FF90EF90DF90CF9026
:100ED000BF90AF909F908F900895CF92DF92EF9246
:100EE000FF920F931F93CF93DF9380E291E0909353
:100EF0003C0880933B088FEF9FEFDC01809337081D
:100F000090933808A0933908B0933A0880E090E0B5
:100F10000E9495118FEF9FEF909301018093000144
:100F200000E010E0CFEFDFEFC8010E940A127C0161
:100F3000009709F483C0FC018081882309F485C0EF
:100F4000C7010E947001882329F0CF3FFFEFDF0720
:100F500009F4E8014BE050E06EE670E0C7010E9442
:100F60003D14892B09F06AC0109301010093000120
:100F700020914608F701828D938D2B3071F44489BE
:100F8000558960E070E0BA0155274427A0E0B0E041
:100F9000482B592B6A2B7B2B03C0AC0160E070E01F
:100FA0009A01AB012250310941095109A09155081C
:100FB000B0E00E942B14C0904208D0904308E0900B
:100FC0004408F09045086C0D7D1D8E1D9F1D0E94EC
:100FD0009E0DE0913B08F0913C0880819181A281B7
:100FE000B3818D3C9240AB4AB14001F5848180933E
:100FF000360885819681A781B08580934B089093B0
:101000004C08A0934D08B0934E08E184F284C701C8
:101010000E940A12009731F00E947001882311F09B
:10102000E70113C080E090E00E94951180E090E01D
:101030000E949511CF3F8FEFD807B1F40F5F1F4F7C
:101040000039E1E01E0709F06FCFCF3FFFEFDF0768
:1010500059F410923108DF91CF911F910F91FF90B9
:10106000EF90DF90CF900895CE010E940A12BC014C
:10107000CE01DF91CF911F910F91FF90EF90DF9004
:10108000CF900C940406CF92DF92EF92FF920F93D1
:101090001F93CF93DF93C0904B08D0904C08E09003
:1010A0004D08F0904E088091000190910101019649
:1010B00009F477C080E090E00E9495118FEF9FEFD8
:1010C000DC018093370890933808A0933908B093D7
:1010D0003A0880910001909101010E940A1220912A
:1010E0004608FC01428D538D2B3071F4848995891B
:1010F000A0E0B0E0DC019927882760E070E0842B55
:10110000952BA62BB72B03C0CA01A0E0B0E09C0131
:10111000AD012250310941095109A0915508B0E0B3
:101120000E942B140091420810914308209144081A
:1011300030914508600F711F821F931F0E949E0D02
:10114000E0913B08F0913C088FEF9FEFDC0180932A
:10115000370890933808A0933908B0933A088385EC
:101160009485A585B68580934B0890934C08A093F1
:101170004D08B0934E0807851089C8010E940A12D5
:10118000EC010E947001882361F0BE01C801DF916B
:10119000CF911F910F91FF90EF90DF90CF900C9423
:1011A0000406C0924B08D0924C08E0924D08F09291
:1011B0004E08DF91CF911F910F91FF90EF90DF903C
:1011C000CF900895AF92BF92CF92DF92EF92FF92AD
:1011D0000F931F93CF93DF93CDB7DEB728970FB64A
:1011E000F894DEBF0FBECDBF10920D0110920C011E
:1011F00080E291E090933C0880933B088CED93E073
:1012000090930208809301088FEF9FEFDC01809399
:10121000370890933808A0933908B0933A080E9491
:10122000D60360E080E00E94A90B87E691E00E946F
:10123000F90B61E080E00E94A90B86E591E00E9435
:10124000F90B00E010E0C8010E940A127C0100972F
:1012500099F0FC01808181110FC080910C01909167
:101260000D01892BC9F561E080E00E94A90B85E49E
:1012700091E00E94F90B4EC1C7010E9470018111DB
:1012800005C0C7010E9484018823B9F080910C0138
:1012900090910D01880F991FE0910108F0910208CB
:1012A000E80FF91F1183008380910C0190910D01CB
:1012B000019690930D0180930C010F5F1F4F809159
:1012C0000C0190910D01883C91053CF60039F1E04C
:1012D0001F0709F0B8CFC1CF61E080E00E94A90BE1
:1012E00084E391E00E94F90B80910C0190910D0133
:1012F00002978CF420910C0130910D0140910A016C
:1013000050910B01E0910108F091020800E010E01B
:1013100080E090E063C0C12CD12C80910C019091B1
:101320000D010197C816D9062CF700E010E0EE2455
:10133000E394F12C80910C0190910D018C199D0981
:10134000E816F9060CF03FC05701AA0CBB1CE0914F
:101350000108F0910208EA0DFB1D808191810E9435
:101360000A1248E050E0BC01CE0101960E945814D8
:10137000E0910108F0910208E00FF11F8081918156
:101380000E940A1248E050E0BC01CE0101960E9482
:101390004B1497FF12C0E0910108F0910208DF01A1
:1013A000AA0DBB1D8D919C911197E00FF11F20811B
:1013B00031812D933C93918380832FEFE21AF20ABF
:1013C0000E5F1F4FB7CF3FEFC31AD30AA6CF61916D
:1013D00071914617570709F48C01019682179307FC
:1013E000B4F38FEF9FEF4B9995C04F9916C04F9B69
:1013F000FECF4FE3E2E4FFE04150E040F040E1F790
:1014000000C000000F5F1F4F20910C0130910D01B3
:101410000217130711F400E010E01D9915C01D9B81
:10142000FECF2FE332E44FE0215030404040E1F75F
:1014300000C000000150110917FF06C000910C0107
:1014400010910D01015011094E9925C04E9BFECF00
:10145000000F111FE0910108F0910208E00FF11F49
:10146000808191810E940A127C010E94840188235C
:1014700031F0C7010E9495110E94E2084BC0E09133
:101480000108F0910208E00FF11FB70180819181FE
:101490000E9404063FC00817190709F4A4CFE09181
:1014A0000108F0910208C801880F991FE80FF91F81
:1014B000808191810E940A125C0161E080E00E94BB
:1014C000A90BC5010E948401882321F083E091E0EB
:1014D0000E94B30B7501C12CD12CF70181917F01C2
:1014E000803211F00E94B10BFFEFCF1ADF0A28E023
:1014F000C216D10491F7C5010E948401882321F00E
:1015000085E091E00E94B30B85E991E00E94F90B20
:10151000C80169CF28960FB6F894DEBF0FBECDBFC5
:10152000DF91CF911F910F91FF90EF90DF90CF90BF
:10153000BF90AF9008954B9B13C080E095E04B9B0C
:101540006EC001970097D9F780916E008E7F8093CF
:101550006E00E89810923108109204080C9406016D
:10156000309B41C04E9B04C04F9B02C01D993BC0A5
:101570004E9911C084E690E021E04E9920E0019759
:101580000097D9F7222309F44AC04E9BFECFF89466
:101590000E94E20825C04F9912C084E690E021E045
:1015A0004F9920E001970097D9F72223C1F14F9B73
:1015B000FECFF8940E9404054B9931C023C01D99B9
:1015C0002EC084E690E021E01D9920E0019700976D
:1015D000D9F7222321F11D9BFECFF8940E944308E6
:1015E0004B9B12C01CC080913108811118C080E053
:1015F00095E04B9914C001970097D9F7F89481E0D2
:101600000E94F5030E946D0780913108882331F014
:1016100080916E00816080936E00E89A78940895BE
:10162000459880FF02C0419A01C0419881FF02C0E5
:10163000439A01C0439882FF02C05C9A01C05C9843
:1016400083FF02C05D9A01C05D98459A88E08A9543
:10165000F1F70000459888E08A95F1F700000895B9
:10166000CF93C82F599A449882958F700E94100B7F
:101670008C2F8F700E94100BCC7F29F086E791E0B1
:101680000197F1F704C080E899E20197F1F700C0F3
:101690000000CF910895CF93C82F599A449A82950C
:1016A0008F700E94100B8C2F8F700E94100B80E7A0
:1016B00092E00197F1F700C00000CF91089544989F
:1016C0002FE880ED93E0215080409040E1F700C08A
:1016D000000083E00E94100B81E19AE70197F1F787
:1016E00000C0000083E00E94100B81E19AE701979F
:1016F000F1F700C0000083E00E94100B81E19AE73F
:101700000197F1F700C0000082E00E94100B81E118
:101710009AE70197F1F700C0000088E20E94300BC1
:1017200088E00E94300B81E00E94300B82E00E9432
:10173000300B86E00E94300B8CE00E94300B8AEA6E
:1017400080930008089581E00E94300B82E00C94A1
:10175000300B8F7060FD02C0805801C080540C9423
:10176000300B0C944B0BCF93DF93EC0189918823C2
:1017700019F00E944B0BFACFDF91CF910895CF93D0
:10178000DF93CDB7DEB72A970FB6F894DEBF0FBE52
:10179000CDBF4AE0BE016F5F7F4F0E946C14CE0147
:1017A00001960E94B30B2A960FB6F894DEBF0FBEC7
:1017B000CDBFDF91CF910895CF93DF93CDB7DEB743
:1017C0002A970FB6F894DEBF0FBECDBF2AE0AE0158
:1017D0004F5F5F4F0E947714CE0101960E94B30BBA
:1017E0002A960FB6F894DEBF0FBECDBFDF91CF9122
:1017F0000895CF93DF93FC018491EF012196882314
:1018000021F00E944B0BFE01F7CFDF91CF9108959D
:10181000519A549A559A509810923308089528E096
:1018200030E090E840E250E160E3792F782319F04E
:101830005BB96BB902C01BB84BB996952150310901
:101840002115310591F71BB80895CF93DF931F92AF
:10185000CDB7DEB780E18BB9198280E020E330E1BB
:101860009981983051F02BB999B1880F9170892BDB
:101870003BB999819F5F9983F3CF0F90DF91CF910F
:10188000089582E38BB982E18BB9089528E10000C5
:101890002A95E9F70197D1F708950895DF92EF921D
:1018A000FF920F931F93CF93DF93082FC8E0D0E0F0
:1018B00010E880E2F82E90E1E92E20E3D22E812F6D
:1018C000802339F0EBB881E090E00E94460CDBB851
:1018D00006C01BB881E090E00E94460CFBB816954C
:1018E0002197209761F781E090E00E94460C1BB899
:1018F000DF91CF911F910F91FF90EF90DF900895AE
:1019000090913308911103C00E944E0C02C00E94B6
:101910000F0C80E00895FF920F931F93CF93DF93F6
:101920001F92CDB7DEB780E18BB981E090E00E94D5
:10193000460C198210E030E3F32E00E189818830F3
:1019400091F0FBB881E090E00E94460C89B1110F44
:101950008170182B0BB981E090E00E94460C8981C0
:101960008F5F8983EBCF812F0F90DF91CF911F91F4
:101970000F91FF90089580913308811102C00C945B
:101980008B0C0C94250C82E38BB981E090E00E94D3
:10199000460C82E18BB981E090E00C94460C81E02A
:1019A0008093330808951092330808950E94250CFF
:1019B00087FDFCCF08951F93CF93DF9300D000D015
:1019C000CDB7DEB7182F0090350804C0440F551F5F
:1019D000661F771F0A94D2F78FEF49835A836B8370
:1019E0007C830E940F0C812F80640E940F0C7C81ED
:1019F000872F0E940F0C6B81862F0E940F0C5A813B
:101A0000852F0E940F0C4981842F0E940F0C85E9BD
:101A10000E940F0C8FEF0E940F0C0E94D60C809337
:101A2000400881508E3FC8F30F900F900F900F9099
:101A3000DF91CF911F910895AB01BC0110923E0838
:101A400081E10E94DB0C0E94250C809341088E3FAF
:101A5000D1F70895FF920F931F93CF93DF9300D098
:101A600000D0CDB7DEB7082F80913D08811113C09B
:101A70008FEE800F823040F088EE800F823020F0B1
:101A800080EE800F823038F489E0440F551F661FC6
:101A9000771F8A95D1F78FEF49835A836B837C83B5
:101AA0000E94800C802F80640E94800C7C81872F94
:101AB0000E94800C6B81862F0E94800C5A81852F9A
:101AC0000E94800C4981842F0E94800C083011F400
:101AD00087E801C085E90E94800C10E00E94BB0CE1
:101AE000F82E8FEFF81203C01150C1F71AC0F11091
:101AF00018C00A33B1F40E94BB0C1092350886FF5F
:101B000004C081E080933D0805C010923D0889E043
:101B1000809335080E94BB0C0E94BB0C0E94BB0C3A
:101B2000F12C0E94BB0C8F2D0F900F900F900F90F7
:101B3000DF91CF911F910F91FF900895EF92FF9247
:101B40000F931F93CF93DF9300D000D0CDB7DEB7B4
:101B5000AB01BC018091370890913808A0913908F9
:101B6000B0913A08481759076A077B0709F444C03F
:101B700040933708509338086093390870933A08B7
:101B800059988FEF49835A836B837C830E94800C22
:101B90008FEF0E94800C49815A816B817C8181E1A9
:101BA0000E942A0D811129C000E010E00E94BB0CA8
:101BB0008E3F41F00150110901151105B9F7599AED
:101BC00080E01BC0E12CF12C00913B0810913C08F7
:101BD0000E0D1F1D0E94BB0CF8018083FFEFEF1A52
:101BE000FF0AE11482E0F80679F70E94BB0C0E941C
:101BF000BB0C0E94BB0C599A81E00F900F900F9084
:101C00000F90DF91CF911F910F91FF90EF9008956A
:101C1000CF93DF93AB01BC0188E10E942A0D8111B3
:101C20003DC059988EEF0E94800CC0E0D0E0E0915A
:101C30003B08F0913C08EC0FFD1F80810E94800C56
:101C40002196C11582E0D80791F78FEF0E94800C92
:101C50008FEF0E94800C0E94BB0C982F9F719530D3
:101C600079F4C0E0D0E00E94BB0C811103C0219642
:101C7000D1F706C0599A8FEF0E94800C599808C07E
:101C8000599A0CC09E012F5F3F4F2196C9F3E9017D
:101C90000E94BB0C8823B1F3599A81E0DF91CF9168
:101CA0000895AB01BC0180E10C942A0DCF92DF9224
:101CB000EF92FF921F93CF93DF931092340885E049
:101CC000809336080E94080C0E94D30C4B999AC04E
:101CD00080E185B9599A8FE097E2A0E0B0E0809367
:101CE000370890933808A0933908B0933A0814E65F
:101CF0000E94C30C1150E1F759988FEF0E94800C9D
:101D00008FEF0E94800CC0E0D8E040E050E0BA01C4
:101D100080E00E942A0D2197209721F415B8599A46
:101D200081E03CC0813089F78FEF0E94800C8FEFFB
:101D30000E94800C82E080933F08CFEFD1E04AEA16
:101D400051E060E070E088E00E942A0D2197209722
:101D500039F481E080933F08C12CD12C760107C073
:101D6000813069F7C12CD12CE12C90E4F92E8FEF52
:101D70000E94800C8FEF0E94800CCFEFD1E040E0FA
:101D800050E0BA0187E30E942A0DB701A60189E25B
:101D90000E942A0D2197209721F488E0809334082F
:101DA00032C08111ECCF10923D0889E08093350854
:101DB00080913F08823081F040E050E0BA018BE32F
:101DC0000E942A0D60E072E080E090E00E94510ED7
:101DD00015B8599A11E017C081E080933D08109220
:101DE0003508CFEFD0E08FEF0E94800C40E050E04C
:101DF000BA018AE30E942A0D21972097E9F2811106
:101E0000F2CFDACF10E0812FDF91CF911F91FF90B9
:101E1000EF90DF90CF90089580E185B9089515B8CF
:101E200008950E94250C4B9902C08F3FD1F7089569
:101E30004F925F926F927F928F929F92AF92BF92DA
:101E4000CF92DF92EF92FF921F93CF93DF9360E0E8
:101E500070E0CB010E949E0DE0913B08F0913C08A0
:101E600080818D7F893E51F1DF01A250BE4F8D915F
:101E70009C9185359A4A11F086E014C0E254FE4FD9
:101E800084818093460860857185828593850E9450
:101E90009E0DE0913B08F0913C0880818D7F893E4A
:101EA00029F083E08093340880E0A9C0809146083F
:101EB0008B3021F0863011F084E0F4CFC0913B08E4
:101EC000D0913C08438554855093500840934F0867
:101ED00015851093550886859785C48CD58CE68C1E
:101EE000F78CC80ED91EE11CF11CC0925108D0928B
:101EF0005208E0925308F092540860914608663008
:101F000019F42689378902C02CA13DA1A089B0E02F
:101F10002A9FC0012B9F900D3A9F900D11244601DE
:101F20005701880E991EA11CB11C80924208909204
:101F30004308A0924408B09245084CA45DA46EA446
:101F40007FA46630B9F0A301920122503109410902
:101F50005109A12FB0E00E942B14680D791D8A1D34
:101F60009B1D60934708709348088093490890939D
:101F70004A0826C00E941C144B015C018C0C9D1C5D
:101F8000AE1CBF1C8092470890924808A092490856
:101F9000B0924A088189928935E0880F991F3A9555
:101FA000E1F7BA010E94E613860E971EA11CB11C30
:101FB0008092420890924308A0924408B09245084B
:101FC000812F90E020E031E0320F8130910521F047
:101FD00096958795232FF7CF209356088091470831
:101FE00090914808A0914908B0914A0880934B0805
:101FF00090934C08A0934D08B0934E0881E0DF9178
:10200000CF911F91FF90EF90DF90CF90BF90AF9056
:102010009F908F907F906F905F904F9008954F9218
:102020005F926F927F928F929F92AF92BF92CF9268
:10203000DF92EF92FF92CF9320914608263041F035
:1020400088248A94982CA82C5FE0B52E22E006C044
:1020500088248A94982CA12CB12C21E004C0660F0E
:10206000771F881F991F2A95D2F720914F0830912A
:10207000500840E050E00E94FA132B013C01C09050
:102080005108D0905208E0905308F0905408C20EC6
:10209000D31EE41EF51ECAE0C701B6010E949E0DC4
:1020A000882311F0C150C1F7E0913B08F0913C0842
:1020B000E40DF51D60817181828193816821792110
:1020C0008A219B21CF91FF90EF90DF90CF90BF901E
:1020D000AF909F908F907F906F905F904F900895FA
:1020E0004F925F926F927F928F929F92AF92BF9228
:1020F000CF92DF92EF92FF92CF9368EEC62E63E00D
:10210000D62EE12CF12CC701B6010E940F106115EB
:1021100071058105910591F030EAC31636E8D306C2
:1021200031E0E306F10431F02FEFC21AD20AE20ADD
:10213000F20AE9CF60E070E0CB014EC040EAC4167D
:1021400046E8D40641E0E406F10409F445C0809174
:102150004608863011F062E001C061E0A7019601F7
:1021600004C0220F331F441F551F6A95D2F7CA01BE
:10217000B90120914F083091500840E050E00E9492
:10218000FA132B013C018090510890905208A090C6
:102190005308B0905408820E931EA41EB51ECAE0C8
:1021A000C501B4010E949E0D882311F0C150C1F7F2
:1021B000E0913B08F0913C08E40DF51D8FEF90E0B5
:1021C000A0E0B0E080839183A283B383C501B40112
:1021D0000E94080EC701B601CF91FF90EF90DF90EB
:1021E000CF90BF90AF909F908F907F906F905F90B7
:1021F0004F9008958F929F92AF92BF92EF92FF926D
:102200000F931F93CF93DF937C01F5E0EE0CFF1C3F
:10221000FA95E1F7E701CD2FDD27C6952091550806
:10222000622F70E0CE010E94E6138B0160914B0893
:1022300070914C0880914D0890914E080115110540
:1022400009F44AC030914608363071F4809047084E
:1022500090904808A0904908B0904A086815790500
:102260008A059B0509F454C0809042089090430869
:10227000A0904408B0904508681979098A099B091B
:1022800030E040E050E00E94FA13CA01B9016E5FED
:102290007F4F8F4F9F4FA12CB12C0E940F102FEF1B
:1022A000A21AB20AA016B106C1F79B01AC012250D6
:1022B000310941095109A0915508B0E00E942B1441
:1022C0008090420890904308A0904408B090450840
:1022D000680D791D8A1D9B1D9E01322F2227330F09
:1022E000E21AF30A40915508409F9001419F300D3A
:1022F0001124C21BD30B6C0F7D1F811D911D0E94E9
:102300009E0D80913B0890913C088E0D9F1D02C050
:1023100080E090E0DF91CF911F910F91FF90EF90BF
:10232000BF90AF909F908F9008950F931F93FC01E3
:10233000009789F48091470890914808A091490836
:10234000B0914A0880934B0890934C08A0934D0895
:10235000B0934E083FC09385892F807194FF3BC096
:1023600080914608428D538D8B3071F48489958914
:10237000A0E0B0E0DC019927882760E070E0842BC2
:10238000952BA62BB72B03C0CA01A0E0B0E00097A5
:10239000A105B10579F29C01AD0122503109410935
:1023A0005109A0915508B0E00E942B1400914208F9
:1023B000109143082091440830914508600F711F27
:1023C000821F931F60934B0870934C0880934D08B5
:1023D00090934E0881E01F910F910895FC010097A2
:1023E00019F480E090E0089580818823D1F3853E40
:1023F000C1F38E3221F481818E3219F0F2CF853013
:1024000081F383858E3169F38F3059F3883249F334
:10241000CF0108950E94FA100C94EE110000000004
:10242000000000000000000000000000000008950F
:102430000000000000000000209136082A95F1F706
:102440000895AF93AFB7AF93BF932F93A091300888
:1024500020912F08A22BA8B9A4EBA6BD20E0E8DFAD
:10246000A0912F08A8B9B0910408BB2341F0209394
:1024700030082F91BF91AF91AFBFAF911895A0E3F6
:10248000ABB9A9B1A170AA0F2A2FA0E1ABB9A09155
:10249000F607B091F7071196A093F607B093F707E8
:1024A000A03989F4BC3079F4A1E0A0930408CF935B
:1024B000C0E7A8E0B0E3BBB9B0E1BBB9AA95D1F7DA
:1024C000CA95B9F7CF91209330082F91BF91AF9162
:1024D000AFBFAF9118952F932FB72F9330995BC053
:1024E0003F933091FD0726B124702327E1F326B1F5
:1024F00024702093FD0728E02A95F1F700004F9300
:102500005F936F937F938F93EF93FF9360E0E091DE
:102510000508F09106083DE541E00DC05091FD072A
:1025200076B174707527E1F376B174707093FD071E
:102530007EE07A95F1F727E081E079B17470D9F403
:10254000000000007BE17A95F1F776B1747050914C
:10255000FD077093FD07752776957695880F872B75
:102560002A9559F7853D09F461E06030B9F281930D
:102570003150404099F69F93AF93BF930E946503FB
:10258000BF91AF919F91FF91EF918F917F916F914B
:102590005F914F913F912F912FBF2F91189581E01F
:1025A0000E941B018FEF80931C01CBE80E949B0AC5
:1025B000309B03C00E940F0FF9CF0E940C0F83B114
:1025C0008F708093100190910F01891761F18093B2
:1025D0000F01883049F0843009F4EFC0823009F4EB
:1025E000EEC0813001F5EDC082E020910308820F3A
:1025F000982F97709695E92FF0E0E659FF4FE491F8
:1026000080FFE295EF708E2F887009F0E86F2E0F33
:10261000253C08F0D8C020930308809103088C382B
:1026200010F0C093030880913108882309F4BECFCD
:1026300080910408882309F4B9CFF8943091F80701
:102640003F5F3F703093F807209103082695269549
:102650002093320840E1249FC0011124830F911D73
:102660009093FF078093FE070090560802C096954E
:1026700087950A94E2F790931E0180931D01FC0157
:10268000EE0FFF1FEE0FFF1FE95FF74F8081918173
:10269000A281B3818093F9079093FA07A093FB0777
:1026A000B093FC0780911C012817B9F020931C01FE
:1026B00061E08AE00E94A90B88E791E00E94F90B93
:1026C000809132088A3020F487E091E00E94B30BB9
:1026D0008091320890E00E94BF0B8091F8079091A2
:1026E0001101981306C02091170190913208291703
:1026F00041F190911201981306C020911801909118
:1027000032082917F1F090911301981306C0209117
:102710001901909132082917A1F090911401981392
:1027200006C020911A0190913208291751F090911A
:102730001501981308C090911B01809132089813DD
:1027400002C00E94FF026091F9077091FA07809120
:10275000FB079091FC076250710981099109009073
:10276000560804C0660F771F881F991F0A94D2F776
:102770000091420810914308209144083091450887
:10278000600F711F821F931F2091550830E0215068
:1027900031094091FE075091FF0724233523620F32
:1027A000731F811D911D0E941C0D1092F70710923E
:1027B000F607109204087894F9CE84E016CF86E0EC
:1027C00014CF80E012CF1092030827CFAA1BBB1BA7
:1027D00051E107C0AA1FBB1FA617B70710F0A61B21
:1027E000B70B881F991F5A95A9F780959095BC0142
:1027F000CD010895A1E21A2EAA1BBB1BFD010DC03D
:10280000AA1FBB1FEE1FFF1FA217B307E407F507A0
:1028100020F0A21BB30BE40BF50B661F771F881F7C
:10282000991F1A9469F760957095809590959B0112
:10283000AC01BD01CF010895A29FB001B39FC001BB
:10284000A39F700D811D1124911DB29F700D811DDC
:102850001124911D08950E941C14A59F900DB49FF2
:10286000900DA49F800D911D11240895FB01DC01A2
:1028700005900D920020E1F70895FB01DC01415025
:10288000504030F08D910590801919F40020B9F76F
:10289000881B990B0895FB01DC0104C08D91019008
:1028A000801921F441505040C8F7881B990B0895B6
:1028B000DC01FB014150504058F049F001900D926D
:1028C0000020C1F7E61BF70B3197CF0108951C924A
:1028D00001900020E9F7F6CFBB274A3031F4992365
:1028E00022F4BDE2909581959F4F0C94A914BB27CB
:1028F0002A3051F4992342F4BDE290958095709569
:1029000061957F4F8F4F9F4F0C948714BB27FA011F
:10291000A62F6217710581059105330B30FB66F018
:10292000AA27660F771F881F991FAA1FA21710F0EA
:10293000A21B63953850A9F7A05DAA3308F0A95DE2
:10294000A19336F7B111B1931082CA010C94C2144D
:10295000BB27FB015527AA27880F991FAA1FA41779
:1029600010F0A41B83955051B9F7A05DAA3308F06D
:10297000A95DA193009779F7B111B1931192CB01A1
:102980000C94C214DC01FC01672F71917723E1F7ED
:10299000329704C07C916D9370836291AE17BF072C
:0829A000C8F30895F894FFCF7D
:0A29A800FFFFFE5B005D0020000051
:00000001FF
