:100000000C94F1000C946D110C940E010C940E01E3
:100010000C940E010C940E010C940E010C940E0124
:100020000C940E010C940E010C940E010C940E0114
:100030000C940E010C940E010C940E010C940E0104
:100040000C9423110C940E010C940E010C940E01CF
:100050000C940E010C940E010C940E010C940E01E4
:100060000C940E010C940E0120000FED032153445B
:1000700049534B4949204346470045727220636FFC
:1000800064653A20004D697373696E67204D425272
:10009000202020202000436C7573746572203C2062
:1000A00036346B422020004E6F7420464154313666
:1000B000206F722033322000426F6F7420736563AB
:1000C0002062726F6B656E200053442063616E2066
:1000D0006E6F7420696E6974200053442063616EF2
:1000E000206E6F742069646C652000202020202021
:1000F00020202020202020202020200054523A20A0
:100100000053656C6563742064656C61793A2020E6
:100110000044656C61793A2000464154313600460E
:100120004154333200506172746974696F6E3A20C1
:1001300000536F7274696E67206C6973742E2E2E73
:1001400020004275696C64696E67206C6973742E57
:100150002E2E004E49433A2000204E6F20696D61DB
:100160006765206865726521200053656C6563745E
:10017000204E494320696D61676500204E6F205312
:100180004420696E7365727465642000204E6F723E
:100190006D616C2053442063617264200020202034
:1001A000205344484320636172642020200045525C
:1001B000524F52206F6E20534420636172640020BE
:1001C000204170706C652049492D4252202020004A
:1001D000534449534B32204C434420762E332E3324
:1001E000000011241FBECFEFD8E0DEBFCDBF11E06D
:1001F000A0E0B1E0E4EAF7E202C005900D92AA3077
:10020000B107D9F728E0AAE0B1E001C01D92A635F8
:10021000B207E1F70E94D1110C94D0130C940000A6
:1002200090E194B92AE327B922E32AB995B992E07B
:1002300098B99BB917BC14BC21E025BD95BF90931C
:1002400069001092F8071092300810922F0810924F
:100250002E081092F7071092F6071092FD072093D0
:100260000308109202081092160110921F0120E25A
:1002700031E030930508209304088823C9F00E94D8
:100280005C0A0E949C0A80ED91E00E94F20A61E003
:1002900080E00E94A20A8FEB91E00E94F20A2FE315
:1002A00082E49FE0215080409040E1F700C00000D0
:1002B0000895FC01009779F08081882369F0853EDC
:1002C00051F080858E3439F48185893421F481E0C0
:1002D0009285933409F080E00895FC01009749F07D
:1002E0008081882339F0853E21F083858295817055
:1002F000089580E00895CF92DF92EF92FF920F93DE
:100300001F93CF93DF938FEF9FEF90930101809323
:1003100000010E94720F6B017C016115710581055E
:100320009105D9F180E090E00E94971000E010E084
:10033000C8010E94FC0FEC01009749F18881853EBD
:1003400011F0811124C08B858F3009F110930101C8
:10035000009300016EE670E0CE010E94341381E04C
:100360008B87FD8AEC8ADB8ECA8E6091360870918D
:1003700037088091380890913908DF91CF911F910B
:100380000F91FF90EF90DF90CF900C94FE0C0F5FD9
:100390001F4F003981E0180759F6DF91CF911F9167
:1003A0000F91FF90EF90DF90CF900895FF920F9301
:1003B0001F93CF93DF93D82FF62EC42FA62FB0E034
:1003C00040E1C49FA00DB11D1124FD01009055080E
:1003D00002C0F695E7950A94E2F7EE0FFF1FEE0FC5
:1003E000FF1FEA5FF74F008111812281338182E094
:1003F0008BB91BB8E0915408F0E03197EA23FB2356
:10040000409141085091420860914308709144081E
:100410004E0F5F1F611D711D025011092109310925
:100420000090550804C0000F111F221F331F0A94AB
:10043000D2F7400F511F621F731F88E10E94D40B37
:100440008FEF0E94080B8EEF0E94080B80EB90E06C
:1004500030E120E33BB92BB901970097D9F71BB8DE
:1004600083E00E94080B8CEF0E94080B8FEF0E9424
:10047000080B8FE30E94080B8FEC0E94080B83EFA0
:100480000E94080B8CEF0E94080B8FEF0E94080B54
:100490008FE30E94080B8FEC0E94080B83EF0E94F1
:1004A000080B8CEF0E94080B85ED0E94080B8AEA6E
:1004B0000E94080B86E90E94080B8FEF0E94080B30
:1004C0008EEF0E94080B8C2F86958A6A0E94080B7B
:1004D0008C2F8A6A0E94080B8F2D86958A6A0E944B
:1004E000080B8F2D8A6A0E94080B1EEF1F251C2700
:1004F000812F86958A6A0E94080B812F8A6A0E9442
:10050000080B8EED0E94080B8AEA0E94080B8BEE06
:100510000E94080B8FEF0E94080B8FEF0E94080BC0
:100520008FEF0E94080B8FEF0E94080B8FEF0E9445
:10053000080B8EE591E0D89F9001D99F300D1124D2
:10054000205E3E4F80E090E070E2A0E1B0E3F90170
:10055000E80FF91FE08148E050E060E8F62FFE2345
:1005600019F0ABB9BBB902C01BB87BB96695415055
:1005700051094115510591F701968D3541E09407D8
:1005800031F71BB880E790E030E120E33BB92BB9AD
:1005900001970097D9F71BB880E093E020E21BB8E1
:1005A0002BB901970097D9F71BB88FEF0E94080B62
:1005B0008FEF0E94080B0E941E0B0E94130E82E018
:1005C0008BB91BB8DF91CF911F910F91FF900895C8
:1005D000CF92DF92EF92FF920F931F93CF93DF930F
:1005E0004B9933C0E1E1F1E081918F3F51F1C7E1D7
:1005F000D1E092E2E92E91E0F92E01E111E0D12C57
:10060000CC24CA94F80160816F3F21F048818D2D80
:100610000E94D601F801C1928F01C992F7011082A0
:10062000D394F2EAEF1AFEEFFF0A85E0D812EACF80
:100630001092160180E291E09093050880930408DF
:1006400004C081E0E631F80779F6DF91CF911F9180
:100650000F91FF90EF90DF90CF9008958091F60773
:100660009091F70780399C40C0F480E18BB980916C
:10067000F6079091F70720E330E1803140E19407DD
:1006800030F44B990AC02BB93BB90196F6CF80E9FB
:100690009CE09093F7078093F60708954B996EC0FE
:1006A00040911601842F90E02EE531E0829FF00109
:1006B000839FF00D929FF00D1124E05EFE4F22818A
:1006C0002D3A09F042C020911F01211131C0209123
:1006D000F807FC01EF5EFE4F2083FC01E95EFE4F50
:1006E00030910208369536953083822F8D7F8D307C
:1006F00011F482E001C081E0820F8F708093F807CF
:10070000443029F40E942E030E94E8021BC04F5F70
:10071000409316012EE531E0429FC001439F900DAA
:100720001124805E9E4F90930508809304080DC0AD
:1007300080910E018093F80710921F018F3029F4E9
:100740000E942E0381E080930308209116018EE51C
:1007500091E0289FF001299FF00D1124E05EFE4FEB
:100760008281863959F487818575880F90859575C2
:10077000892B80930E0181E080931F01089520E270
:1007800031E080E090E0F901E80FF91F1082019656
:100790008E3541E09407B9F7225A3E4F87E0263F55
:1007A000380779F7E7E1F1E0A1E1B1E08FEF81935C
:1007B0008D9391E0EC31F907D1F70895CF93C82FCD
:1007C0002FEF3FEF30930101209300010E94CC0BEB
:1007D0004B9B0BC00E949C0A60E080E00E94A20A32
:1007E0008BE791E0CF910C94F20A20E231E0309354
:1007F0003B0820933A080E94460D81113EC00E949A
:100800009C0A60E080E00E94A20A8EEA91E00E94C9
:10081000F20A61E080E00E94A20A809133088130F0
:1008200019F48AED90E018C0823019F489EC90E058
:1008300013C0833019F488EB90E00EC0843019F4B3
:1008400087EA90E009C0853019F486E990E004C099
:10085000863029F485E890E00E94F20A09C08AE710
:1008600090E00E94F20A8091330890E00E94B80A5A
:10087000109230084B9BFCCFA0C0CC2389F00E9483
:100880009C0A60E080E00E94A20A80913E088230CB
:1008900019F48DE991E002C08CE891E00E94F20A1F
:1008A0000E941A0E81113EC00E949C0A60E080E006
:1008B0000E94A20A8EEA91E00E94F20A61E080E0C2
:1008C0000E94A20A80913308813019F48AED90E0E9
:1008D00018C0823019F489EC90E013C0833019F409
:1008E00088EB90E00EC0843019F487EA90E009C0EC
:1008F000853019F486E990E004C0863029F485E853
:1009000090E00E94F20A09C08AE790E00E94F20A91
:100910008091330890E00E94B80A109230084B9BF7
:10092000FCCF4BC08091540840914E0850914F0825
:10093000849F9001859F300D112421153047D0F4FC
:1009400085E0809333080E949C0A60E080E00E946A
:10095000A20A8EEA91E00E94F20A61E080E00E9421
:10096000A20A86E990E00E94F20A109230084B9B9E
:10097000FCCF23C0CC23E1F061E080E00E94A20A1A
:1009800085E291E00E94F20A809145088B3019F4CB
:100990008FE191E002C089E191E00E94F20A9FE9B3
:1009A00025E286E2915020408040E1F700C000003F
:1009B0000E94BF03CF910C94C80BCF910895CF92A2
:1009C000DF92EF92FF920F931F930E949C0A60E0C8
:1009D00080E00E94A20A81E091E00E94F20A61E0B8
:1009E00080E00E94A20A81E191E00E94F20A8091D7
:1009F000350890E00E94B80A10913508912F0AE05E
:100A000080913508891799F061E080E00E94A20A80
:100A100081E191E00E94F20A8091350890E00E9405
:100A2000B80A88E690E00E94F20A909135084B9946
:100A3000BFC04F9914C04F9BFECF2FE332E48FE02D
:100A4000215030408040E1F700C00000809135081F
:100A5000815080933508811102C0009335081D999B
:100A600015C01D9BFECFEFE3F2E42FE0E150F04014
:100A70002040E1F700C00000809135088F5F80932F
:100A800035088B3018F081E0809335084E99B8CF47
:100A90004E9BFECF3FE382E49FE031508040904088
:100AA000E1F700C0000080913508811709F480C08B
:100AB0008091000190910101019609F479C080E0D4
:100AC00090E00E94971080E291E090933B08809321
:100AD0003A080E94BF03109236081092370810920D
:100AE00038081092390880910001909101010E940C
:100AF0000C1120914508FC01428D538D2B3071F46F
:100B000084899589A0E0B0E0DC019927882760E01E
:100B100070E0842B952BA62BB72B03C0CA01A0E055
:100B2000B0E06C017D01F2E0CF1AD108E108F108D4
:100B3000A0915408B0E0A70196010E9429130091EA
:100B40004108109142082091430830914408600FF9
:100B5000711F821F931F0E94970CE0913A08F09139
:100B60003B0880819181A281B3818D3C9240AB4A48
:100B7000B140F1F4809135088483A0915408B0E02D
:100B8000A70196010E942913C0904108D090420805
:100B9000E0904308F09044086C0D7D1D8E1D9F1D54
:100BA0001F910F91FF90EF90DF90CF900C94FE0C6F
:100BB0001F910F91FF90EF90DF90CF900895CF920B
:100BC000DF92EF92FF920F931F93CF93DF93EC018D
:100BD0007B016115710519F480E090E018C160E0B7
:100BE00080E00E94A20A83E591E00E94F20A670178
:100BF00000E010E0F60181916F01803211F00E9457
:100C0000AA0A0F5F1F4F08301105A1F78BEE90E085
:100C10000E94F20A61E080E00E94A20A8BEE90E05E
:100C20000E94F20AD0930B01C0930A0180914508FB
:100C3000F701028D138D8B3071F464897589CB01B6
:100C4000A0E0B0E07727662720E030E0602B712B32
:100C5000822B932B03C0B80180E090E061157105F1
:100C60008105910509F4B8CFE6E0F8E01192119200
:100C70001192119228E0EE32F207C1F76093060854
:100C800070930708809308089093090811E0663F65
:100C9000FFEF7F0781059105A8F40E94110F663FC1
:100CA000EFEF7E078105910558F424E0129FF001D3
:100CB0001124EA5FF74F60837183828393831F5F00
:100CC0001A3028F3C0904A08D0904B08E0904C08A6
:100CD000F0904D088091000190910101019609F476
:100CE0005BC080E090E00E9497108FEF9FEFDC01E7
:100CF0008093360890933708A0933808B09339084A
:100D000080910001909101010E940C1120914508F1
:100D1000FC01428D538D2B3071F484899589A0E0BC
:100D2000B0E0DC019927882760E070E0842B952BE8
:100D3000A62BB72B03C0CA01A0E0B0E0E0913A08AF
:100D4000F0913B084DEC52E06BEA71E04083518337
:100D500062837383C582D682E782F086D287C18799
:100D60002091350824839C01AD01225031094109AD
:100D70005109A0915408B0E00E9429130091410844
:100D8000109142082091430830914408600F711F70
:100D9000821F931F0E94FE0CC0924A08D0924B08FB
:100DA000E0924C08F0924D0861E080E00E94A20AB7
:100DB00081E191E00E94F20A8091350890E00E9462
:100DC000B80A1092F7071092F60710922F081092A7
:100DD000FD07C1E0C0930308109202081092F807C3
:100DE0001092160110921F0180E291E09093050885
:100DF0008093040840E052E060E070E080E10E94EF
:100E0000230C0E94BF03C093300881E090E0DF9183
:100E1000CF911F910F91FF90EF90DF90CF900895A9
:100E2000CF92DF92EF92FF920F931F93CF93DF93B6
:100E300080E291E090933B0880933A088FEF9FEF18
:100E4000DC018093360890933708A0933808B0935C
:100E5000390880E090E00E9497108FEF9FEF909309
:100E600001018093000100E010E0CFEFDFEFC80147
:100E70000E940C117C01009709F483C0FC01808161
:100E8000882309F485C0C7010E945901882329F0ED
:100E9000CF3FFFEFDF0709F4E8014BE050E06EE6DB
:100EA00070E0C7010E943B13892B09F06AC01093C0
:100EB00001010093000120914508F701828D938D77
:100EC0002B3071F44489558960E070E0BA015527F0
:100ED0004427A0E0B0E0482B592B6A2B7B2B03C0A2
:100EE000AC0160E070E09A01AB0122503109410988
:100EF0005109A0915408B0E00E942913C090410804
:100F0000D0904208E0904308F09044086C0D7D1D9D
:100F10008E1D9F1D0E94970CE0913A08F0913B08AE
:100F200080819181A281B3818D3C9240AB4AB140D6
:100F300001F584818093350885819681A781B085EC
:100F400080934A0890934B08A0934C08B0934D08A7
:100F5000E184F284C7010E940C11009731F00E94D5
:100F60005901882311F0E70113C080E090E00E944E
:100F7000971080E090E00E949710CF3F8FEFD80746
:100F8000B1F40F5F1F4F0039E1E01E0709F06FCF8A
:100F9000CF3FFFEFDF0759F410923008DF91CF9178
:100FA0001F910F91FF90EF90DF90CF900895CE01A9
:100FB0000E940C11BC01CE01DF91CF911F910F91C6
:100FC000FF90EF90DF90CF900C94DF05AF92BF922F
:100FD000CF92DF92EF92FF920F931F93CF93DF9305
:100FE000CDB7DEB728970FB6F894DEBF0FBECDBFE2
:100FF00010920D0110920C0180E291E090933B0859
:1010000080933A088CED93E0909301088093000858
:101010008FEF9FEFDC018093360890933708A09301
:101020003808B09339080E94BF0360E080E00E9456
:10103000A20A8AE691E00E94F20A61E080E00E9442
:10104000A20A82E491E00E94F20A00E010E0C801E6
:101050000E940C117C01009799F0FC0180818111A4
:101060000FC080910C0190910D01892BC9F561E0B1
:1010700080E00E94A20A89E591E00E94F20A4EC136
:10108000C7010E945901811105C0C7010E946D016D
:101090008823B9F080910C0190910D01880F991F60
:1010A000E0910008F0910108E80FF91F1183008317
:1010B00080910C0190910D01019690930D01809308
:1010C0000C010F5F1F4F80910C0190910D01883C26
:1010D00091053CF60039F1E01F0709F0B8CFC1CF08
:1010E00061E080E00E94A20A81E391E00E94F20A9E
:1010F00080910C0190910D0102978CF420910C01CC
:1011000030910D0140910A0150910B01E0910008CE
:10111000F091010800E010E080E090E063C0C12C95
:10112000D12C80910C0190910D010197C816D90620
:101130002CF700E010E0EE24E394F12C80910C01F8
:1011400090910D018C199D09E816F9060CF03FC02D
:101150005701AA0CBB1CE0910008F0910108EA0DB0
:10116000FB1D808191810E940C1148E050E0BC0180
:10117000CE0101960E945613E0910008F0910108FB
:10118000E00FF11F808191810E940C1148E050E036
:10119000BC01CE0101960E94491397FF12C0E09155
:1011A0000008F0910108DF01AA0DBB1D8D919C91F3
:1011B0001197E00FF11F208131812D933C93918392
:1011C00080832FEFE21AF20A0E5F1F4FB7CF3FEF77
:1011D000C31AD30AA6CF619171914617570709F434
:1011E0008C01019682179307B4F38FEF9FEF4B9911
:1011F00095C04F9916C04F9BFECF4FE3E2E4FFE04E
:101200004150E040F040E1F700C000000F5F1F4F89
:1012100020910C0130910D010217130711F400E029
:1012200010E01D9915C01D9BFECF2FE332E44FE067
:10123000215030404040E1F700C00000015011094A
:1012400017FF06C000910C0110910D01015011090A
:101250004E9925C04E9BFECF000F111FE091000854
:10126000F0910108E00FF11F808191810E940C1123
:101270007C010E946D01882331F0C7010E94971004
:101280000E94E6074BC0E0910008F0910108E00FD2
:10129000F11FB701808191810E94DF053FC00817CF
:1012A000190709F4A4CFE0910008F0910108C801E2
:1012B000880F991FE80FF91F808191810E940C11FE
:1012C0005C0161E080E00E94A20AC5010E946D01FC
:1012D000882321F083E091E00E94AC0A7501C12CC3
:1012E000D12CF70181917F01803211F00E94AA0A6E
:1012F000FFEFCF1ADF0A28E0C216D10491F7C5012B
:101300000E946D01882321F085E091E00E94AC0AE3
:101310008BEE90E00E94F20AC80169CF28960FB6C2
:10132000F894DEBF0FBECDBFDF91CF911F910F911B
:10133000FF90EF90DF90CF90BF90AF9008954B9BC0
:1013400021C080E095E04B9B67C001970097D9F7DB
:1013500080916E008E7F80936E00E8981092300826
:101360001092030860E080E00E94A20A8BE791E0FF
:101370000E94F20A61E080E00E94A20A8BEE90E0F7
:101380000C94F20A309B2CC04E9B02C04F9928C08F
:101390004E9912C084E690E021E04E9920E001973A
:1013A0000097D9F72223C1F14E9BFECFF8940E94FB
:1013B000E6074B9B26C030C04F992EC084E690E0D4
:1013C00021E04F9920E001970097D9F7222321F1DE
:1013D0004F9BFECFF8940E94DF044B991DC00FC0B5
:1013E00080913008811118C080E095E04B9914C0BD
:1013F00001970097D9F7F89481E00E94DE030E94DC
:10140000100780913008882331F080916E00816050
:1014100080936E00E89A78940895459880FF02C002
:10142000419A01C0419881FF02C0439A01C043988C
:1014300082FF02C05C9A01C05C9883FF02C05D9A83
:1014400001C05D98459A88E08A95F1F700004598BB
:1014500088E08A95F1F700000895CF93C82F599A34
:10146000449882958F700E940D0A8C2F8F700E9475
:101470000D0ACC7F29F086E791E00197F1F704C0CF
:1014800080E899E20197F1F700C00000CF9108953C
:10149000CF93C82F599A449A82958F700E940D0A53
:1014A0008C2F8F700E940D0A80E792E00197F1F770
:1014B00000C00000CF91089544982FE880ED93E09C
:1014C000215080409040E1F700C0000083E00E947E
:1014D0000D0A81E19AE70197F1F700C0000083E06F
:1014E0000E940D0A81E19AE70197F1F700C0000020
:1014F00083E00E940D0A81E19AE70197F1F700C0AD
:10150000000082E00E940D0A81E19AE70197F1F75D
:1015100000C0000088E20E942D0A88E00E942D0A87
:1015200081E00E942D0A82E00E942D0A86E00E943E
:101530002D0A8CE00C942D0A81E00E942D0A82E095
:101540000C942D0A8F7060FD02C0805801C0805439
:101550000C942D0A0C94480ACF93DF93EC018991E7
:10156000882319F00E94480AFACFDF91CF9108959D
:10157000CF93DF93CDB7DEB72A970FB6F894DEBFCF
:101580000FBECDBF4AE0BE016F5F7F4F0E946A135E
:10159000CE0101960E94AC0A2A960FB6F894DEBFDF
:1015A0000FBECDBFDF91CF910895CF93DF93CDB71D
:1015B000DEB72A970FB6F894DEBF0FBECDBF2AE084
:1015C000AE014F5F5F4F0E947513CE0101960E94DE
:1015D000AC0A2A960FB6F894DEBF0FBECDBFDF91DE
:1015E000CF910895CF93DF93FC018491EF01219671
:1015F000882321F00E94480AFE01F7CFDF91CF91A6
:101600000895519A549A559A509810923208089514
:1016100028E030E090E840E250E160E3792F782361
:1016200019F05BB96BB902C01BB84BB99695215044
:1016300031092115310591F71BB80895CF93DF9338
:101640001F92CDB7DEB780E18BB9198280E020E32D
:1016500030E19981983051F02BB999B1880F917090
:10166000892B3BB999819F5F9983F3CF0F90DF91CD
:10167000CF91089582E38BB982E18BB9089528E177
:1016800000002A95E9F70197D1F708950895DF92B0
:10169000EF92FF920F931F93CF93DF93082FC8E031
:1016A000D0E010E880E2F82E90E1E92E20E3D22E7F
:1016B000812F802339F0EBB881E090E00E943F0B4E
:1016C000DBB806C01BB881E090E00E943F0BFBB87E
:1016D00016952197209761F781E090E00E943F0BDB
:1016E0001BB8DF91CF911F910F91FF90EF90DF908A
:1016F000089590913208911103C00E94470B02C0D7
:101700000E94080B80E00895FF920F931F93CF93E0
:10171000DF931F92CDB7DEB780E18BB981E090E017
:101720000E943F0B198210E030E3F32E00E1898123
:10173000883091F0FBB881E090E00E943F0B89B1C6
:10174000110F8170182B0BB981E090E00E943F0BC4
:1017500089818F5F8983EBCF812F0F90DF91CF91AC
:101760001F910F91FF90089580913208811102C05E
:101770000C94840B0C941E0B82E38BB981E090E0F7
:101780000E943F0B82E18BB981E090E00C943F0B0B
:1017900081E08093320808951092320808950E94E3
:1017A0001E0B87FDFCCF08951F93CF93DF9300D0CE
:1017B00000D0CDB7DEB7182F0090340804C0440F16
:1017C000551F661F771F0A94D2F78FEF49835A83FC
:1017D0006B837C830E94080B812F80640E94080B1E
:1017E0007C81872F0E94080B6B81862F0E94080B3B
:1017F0005A81852F0E94080B4981842F0E94080B73
:1018000085E90E94080B8FEF0E94080B0E94CF0B06
:1018100080933F0881508E3FC8F30F900F900F9038
:101820000F90DF91CF911F910895AB01BC011092F1
:101830003D0881E10E94D40B0E941E0B809340085A
:101840008E3FD1F70895FF920F931F93CF93DF93AD
:1018500000D000D0CDB7DEB7082F80913C088111B1
:1018600013C08FEE800F823040F088EE800F823000
:1018700020F080EE800F823038F489E0440F551F4D
:10188000661F771F8A95D1F78FEF49835A836B8341
:101890007C830E94790B802F80640E94790B7C816D
:1018A000872F0E94790B6B81862F0E94790B5A81BA
:1018B000852F0E94790B4981842F0E94790B083073
:1018C00011F487E801C085E90E94790B10E00E94BD
:1018D000B40BF82E8FEFF81203C01150C1F71AC0E5
:1018E000F11018C00A33B1F40E94B40B10923408FE
:1018F00086FF04C081E080933C0805C010923C083C
:1019000089E0809334080E94B40B0E94B40B0E94BB
:10191000B40BF12C0E94B40B8F2D0F900F900F90F1
:101920000F90DF91CF911F910F91FF900895EF924B
:10193000FF920F931F93CF93DF9300D000D0CDB7CA
:10194000DEB7AB01BC018091360890913708A091B9
:101950003808B0913908481759076A077B0709F416
:1019600041C040933608509337086093380870930D
:1019700039088FEF49835A836B837C830E94790BEC
:101980008FEF0E94790B49815A816B817C8181E1C3
:101990000E94230C811127C000E010E00E94B40BCC
:1019A0008E3F39F00150110901151105B9F780E09A
:1019B0001AC0E12CF12C00913A0810913B080E0D51
:1019C0001F1D0E94B40BF8018083FFEFEF1AFF0A7E
:1019D000E11482E0F80679F70E94B40B0E94B40B80
:1019E0000E94B40B81E00F900F900F900F90DF9149
:1019F000CF911F910F91FF90EF900895CF93DF93B8
:101A0000AB01BC0188E10E94230C811137C08EEF2D
:101A10000E94790BC0E0D0E0E0913A08F0913B08D9
:101A2000EC0FFD1F80810E94790B2196C11522E0E9
:101A3000D20791F78FEF0E94790B8FEF0E94790BFD
:101A40000E94B40B982F9F719530C1F4C0E0D0E094
:101A50000E94B40B811104C02196D1F780E00EC022
:101A60008FEF0E94790B0E94B40B811106C0CE014A
:101A70000196219699F3EC01F6CF81E0DF91CF91A9
:101A80000895AB01BC0180E10C94230CCF92DF924E
:101A9000EF92FF921F93CF93DF9385E080933508F9
:101AA0000E94010B0E94CC0B4B99AEC080E185B91E
:101AB0008FE097E2A0E0B0E080933608909337087B
:101AC000A0933808B093390814E60E94BC0B11505B
:101AD000E1F78FEF0E94790B8FEF0E94790BC0E046
:101AE000D8E040E050E0BA0180E00E94230C21974A
:101AF000209719F415B881E046C0813091F78FEF37
:101B00000E94790B8FEF0E94790B82E080933E0850
:101B1000CFEFD1E04AEA51E060E070E088E00E9457
:101B2000230C2197209739F481E080933E08C12C43
:101B3000D12C760107C0813069F7C12CD12CE12C62
:101B400090E4F92E8FEF0E94790B8FEF0E94790BB2
:101B5000CFEFD1E040E050E0BA0187E30E94230CD0
:101B6000B701A60189E20E94230C2197209719F062
:101B70008111F0CF21C08823F9F0CD28CE28CF28BD
:101B800029F015B882E0809333083FC0CFEFD1E051
:101B900040E050E0BA0187E30E94230C40E050E0AF
:101BA000BA0181E00E94230C2197209719F081113E
:101BB000EFCF02C08111E5CF10923C0889E08093FD
:101BC000340880913E08823049F060E072E080E0A5
:101BD00090E00E94410D15B811E017C081E080939C
:101BE0003C0810923408CFEFD0E08FEF0E94790BC1
:101BF00040E050E0BA018AE30E94230C219720972D
:101C000021F38111F2CFE1CF10E0812FDF91CF914D
:101C10001F91FF90EF90DF90CF90089580E185B9FC
:101C2000089515B808950E941E0B4B9902C08F3F6E
:101C3000D1F708954F925F926F927F928F929F9209
:101C4000AF92BF92CF92DF92EF92FF921F93CF930A
:101C5000DF9360E070E0CB010E94970CE0913A08BE
:101C6000F0913B0880818D7F893E51F1DF01A250C8
:101C7000BE4F8D919C9185359A4A11F086E014C033
:101C8000E254FE4F8481809345086085718582858A
:101C900093850E94970CE0913A08F0913B0880816F
:101CA0008D7F893E29F083E08093330880E0A9C0CE
:101CB000809145088B3021F0863011F084E0F4CF1C
:101CC000C0913A08D0913B084385548550934F0802
:101CD00040934E0815851093540886859785C48CCB
:101CE000D58CE68CF78CC80ED91EE11CF11CC09275
:101CF0005008D0925108E0925208F0925308609137
:101D00004508663019F42689378902C02CA13DA107
:101D1000A089B0E02A9FC0012B9F900D3A9F900DA3
:101D2000112446015701880E991EA11CB11C8092F6
:101D3000410890924208A0924308B09244084CA4F3
:101D40005DA46EA47FA46630B9F0A3019201225075
:101D5000310941095109A12FB0E00E942913680DF2
:101D6000791D8A1D9B1D60934608709347088093D8
:101D700048089093490826C00E941A134B015C0141
:101D80008C0C9D1CAE1CBF1C80924608909247088C
:101D9000A0924808B09249088189928935E0880F5D
:101DA000991F3A95E1F7BA010E94E412860E971E38
:101DB000A11CB11C8092410890924208A092430855
:101DC000B0924408812F90E020E031E0320F813062
:101DD000910521F096958795232FF7CF20935508ED
:101DE0008091460890914708A0914808B091490811
:101DF00080934A0890934B08A0934C08B0934D08E9
:101E000081E0DF91CF911F91FF90EF90DF90CF9015
:101E1000BF90AF909F908F907F906F905F904F900A
:101E200008954F925F926F927F928F929F92AF929E
:101E3000BF92CF92DF92EF92FF92CF93209145080D
:101E4000263041F088248A94982CA82C5FE0B52E87
:101E500022E006C088248A94982CA12CB12C21E081
:101E600004C0660F771F881F991F2A95D2F720910B
:101E70004E0830914F0840E050E00E94F8122B01CC
:101E80003C01C0905008D0905108E0905208F0906A
:101E90005308C20ED31EE41EF51ECAE0C701B601E8
:101EA0000E94970C882311F0C150C1F7E0913A08C5
:101EB000F0913B08E40DF51D608171818281938171
:101EC000682179218A219B21CF91FF90EF90DF90AB
:101ED000CF90BF90AF909F908F907F906F905F90CA
:101EE0004F9008954F925F926F927F928F929F9240
:101EF000AF92BF92CF92DF92EF92FF92CF9368EEB4
:101F0000C62E63E0D62EE12CF12CC701B6010E944B
:101F1000110F611571058105910591F030EAC31625
:101F200036E8D30631E0E306F10431F02FEFC21AB0
:101F3000D20AE20AF20AE9CF60E070E0CB014EC0BB
:101F400040EAC41646E8D40641E0E406F10409F488
:101F500045C080914508863011F062E001C061E023
:101F6000A701960104C0220F331F441F551F6A9515
:101F7000D2F7CA01B90120914E0830914F0840E0D4
:101F800050E00E94F8122B013C0180905008909084
:101F90005108A0905208B0905308820E931EA41EC0
:101FA000B51ECAE0C501B4010E94970C882311F048
:101FB000C150C1F7E0913A08F0913B08E40DF51DDE
:101FC0008FEF90E0A0E0B0E080839183A283B383A1
:101FD000C501B4010E94FE0CC701B601CF91FF906C
:101FE000EF90DF90CF90BF90AF909F908F907F90B9
:101FF0006F905F904F9008958F929F92AF92BF9293
:10200000EF92FF920F931F93CF93DF937C01F5E044
:10201000EE0CFF1CFA95E1F7E701CD2FDD27C69501
:1020200020915408622F70E0CE010E94E4128B01CF
:1020300060914A0870914B0880914C0890914D082E
:102040000115110509F44AC030914508363071F484
:102050008090460890904708A0904808B0904908A2
:10206000681579058A059B0509F454C080904108DC
:1020700090904208A0904308B090440868197909EC
:102080008A099B0930E040E050E00E94F812CA0142
:10209000B9016E5F7F4F8F4F9F4FA12CB12C0E94D3
:1020A000110F2FEFA21AB20AA016B106C1F79B01B9
:1020B000AC012250310941095109A0915408B0E006
:1020C0000E9429138090410890904208A0904308F4
:1020D000B0904408680D791D8A1D9B1D9E01322F0A
:1020E0002227330FE21AF30A40915408409F9001CF
:1020F000419F300D1124C21BD30B6C0F7D1F811D1E
:10210000911D0E94970C80913A0890913B088E0D8A
:102110009F1D02C080E090E0DF91CF911F910F9151
:10212000FF90EF90BF90AF909F908F9008950F9386
:102130001F93FC01009789F480914608909147080D
:10214000A0914808B091490880934A0890934B08A1
:10215000A0934C08B0934D083FC09385892F8071A0
:1021600094FF3BC080914508428D538D8B3071F4B4
:1021700084899589A0E0B0E0DC019927882760E098
:1021800070E0842B952BA62BB72B03C0CA01A0E0CF
:10219000B0E00097A105B10579F29C01AD01225094
:1021A000310941095109A0915408B0E00E94291356
:1021B0000091410810914208209143083091440851
:1021C000600F711F821F931F60934A0870934B0822
:1021D00080934C0890934D0881E01F910F910895D2
:1021E000FC01009719F480E090E008958081882335
:1021F000D1F3853EC1F38E3221F481818E3219F004
:10220000F2CF853081F383858E3169F38F3059F3B6
:10221000883249F3CF0108950E94FC0F0C94F0100E
:1022200000000000000000000000000000000000AE
:102230000000089500000000000000002091350813
:102240002A95F1F70895AF93AFB7AF93BF932F934C
:10225000A0912F0820912E08A22BA8B9A4EBA6BD0F
:1022600020E0E8DFA0912E08A8B9B0910308BB23B5
:1022700041F020932F082F91BF91AF91AFBFAF9145
:102280001895A0E3ABB9A9B1A170AA0F2A2FA0E1BC
:10229000ABB9A091F607B091F7071196A093F60796
:1022A000B093F707A03989F4BC3079F4A1E0A0938A
:1022B0000308CF93C0E7A8E0B0E3BBB9B0E1BBB976
:1022C000AA95D1F7CA95B9F7CF9120932F082F91EE
:1022D000BF91AF91AFBFAF9118952F932FB72F93A9
:1022E00030995BC03F933091FD0726B124702327BE
:1022F000E1F326B124702093FD0728E02A95F1F739
:1023000000004F935F936F937F938F93EF93FF93AF
:1023100060E0E0910408F09105083DE541E00DC062
:102320005091FD0776B174707527E1F376B1747042
:102330007093FD077EE07A95F1F727E081E079B1AF
:102340007470D9F4000000007BE17A95F1F776B162
:1023500074705091FD077093FD07752776957695FB
:10236000880F872B2A9559F7853D09F461E0603085
:10237000B9F281933150404099F69F93AF93BF9348
:102380000E944E03BF91AF919F91FF91EF918F916A
:102390007F916F915F914F913F912F912FBF2F911F
:1023A000189581E00E9410018FEF80931C01CBE80B
:1023B0000E949F09309B03C00E94110EF9CF0E941A
:1023C0000E0E83B18F708093100190910F018917C9
:1023D00061F180930F01883049F0843009F4EBC03B
:1023E000823009F4EAC0813001F5E9C082E0209131
:1023F0000208820F982F97709695E92FF0E0E65922
:10240000FF4FE49180FFE295EF708E2F887009F006
:10241000E86F2E0F253C08F0D4C02093020880916D
:1024200002088C3810F0C09302088091300888238D
:1024300009F4BECF80910308882309F4B9CFF8943A
:102440003091F8073F5F3F703093F8072091020802
:10245000269526952093310840E1249FC001112440
:10246000830F911D9093FF078093FE0700905508FE
:1024700002C0969587950A94E2F790931E01809387
:102480001D01FC01EE0FFF1FEE0FFF1FEA5FF74F6C
:1024900080819181A281B3818093F9079093FA079B
:1024A000A093FB07B093FC0780911C01281799F0BB
:1024B00020931C0161E08AE00E94A20A8CEF90E068
:1024C0000E94F20A8091310890E00E94B80A87E0E9
:1024D00091E00E94AC0A8091F80790911101981345
:1024E00006C02091170190913108291741F1909170
:1024F0001201981306C020911801909131082917F4
:10250000F1F090911301981306C020911901909158
:1025100031082917A1F090911401981306C0209159
:102520001A0190913108291751F0909115019813D3
:1025300008C090911B0180913108981302C00E943D
:10254000E8026091F9077091FA078091FB0790917A
:10255000FC0762507109810991090090550804C077
:10256000660F771F881F991F0A94D2F700914108C0
:10257000109142082091430830914408600F711F68
:10258000821F931F2091540830E02150310940915F
:10259000FE075091FF0724233523620F731F811D0F
:1025A000911D0E94150C1092F7071092F6071092D9
:1025B00003087894FDCE84E01ACF86E018CF80E03F
:1025C00016CF109202082BCFAA1BBB1B51E107C0EC
:1025D000AA1FBB1FA617B70710F0A61BB70B881FB3
:1025E000991F5A95A9F780959095BC01CD01089542
:1025F000A1E21A2EAA1BBB1BFD010DC0AA1FBB1F07
:10260000EE1FFF1FA217B307E407F50720F0A21B78
:10261000B30BE40BF50B661F771F881F991F1A94E5
:1026200069F760957095809590959B01AC01BD010F
:10263000CF010895A29FB001B39FC001A39F700D69
:10264000811D1124911DB29F700D811D1124911DBA
:1026500008950E941A13A59F900DB49F900DA49FFA
:10266000800D911D11240895FB01DC0105900D9250
:102670000020E1F70895FB01DC014150504030F0AB
:102680008D910590801919F40020B9F7881B990BDA
:102690000895FB01DC0104C08D910190801921F4A3
:1026A00041505040C8F7881B990B0895DC01FB018D
:1026B0004150504058F049F001900D920020C1F770
:1026C000E61BF70B3197CF0108951C920190002073
:1026D000E9F7F6CFBB274A3031F4992322F4BDE263
:1026E000909581959F4F0C94A713BB272A3051F4E6
:1026F000992342F4BDE290958095709561957F4F46
:102700008F4F9F4F0C948513BB27FA01A62F62179A
:10271000710581059105330B30FB66F0AA27660F22
:10272000771F881F991FAA1FA21710F0A21B63957D
:102730003850A9F7A05DAA3308F0A95DA19336F738
:10274000B111B1931082CA010C94C013BB27FB01D5
:102750005527AA27880F991FAA1FA41710F0A41B9A
:1027600083955051B9F7A05DAA3308F0A95DA193F4
:10277000009779F7B111B1931192CB010C94C0136A
:10278000DC01FC01672F71917723E1F7329704C0D8
:102790007C916D9370836291AE17BF07C8F3089563
:0427A000F894FFCFDB
:0A27A400FFFFFE5B005D0020000057
:00000001FF
