:100000000C94E9000C94F6100C9406010C94060173
:100010000C9406010C9406010C9406010C94060144
:100020000C9406010C9406010C9406010C94060134
:100030000C9406010C9406010C9406010C94060124
:100040000C94AC100C9406010C9406010C9406015F
:100050000C9406010C9406010C9406010C94060104
:100060000C9406010C94060120000FED032153446B
:1000700049534B49492043464700DB00CA00B900B9
:10008000A80097008600436C7573742073697A65C5
:10009000204552524F5200506172746974696F6EFC
:1000A000204552524F52200046415420696E6974D7
:1000B000204552524F52202000534420696E6974EB
:1000C000204552524F522020200053442069646C36
:1000D00065204552524F5220202000202020202011
:1000E00020202020202020202020200054523A20B0
:1000F0000053656C6563742064656C61793A2020F7
:100100000044656C61793A2000464154313600461E
:100110004154333200506172746974696F6E3A20D1
:1001200000536F7274696E67206C6973742E2E2E83
:1001300020004275696C64696E67206C6973742E67
:100140002E2E004E49433A2000204E6F20696D61EB
:100150006765206865726521200053656C6563746E
:10016000204E494320696D61676500204E6F205322
:100170004420696E7365727465642000204E6F724E
:100180006D616C2053442063617264200020202044
:10019000205344484320636172642020200043615F
:1001A0006E206E6F7420696E6974205344200020A5
:1001B000204170706C652049492D4252202020005A
:1001C000534449534B32204C434420762E332E3136
:1001D000000011241FBECFEFD8E0DEBFCDBF11E07D
:1001E000A0E0B1E0E6EBF6E202C005900D92AA3085
:1001F000B107D9F728E0AAE0B1E001C01D92A63509
:10020000B207E1F70E945A110C9459130C940000A4
:1002100090E194B92AE327B922E32AB995B992E08B
:1002200098B99BB917BC14BC21E025BD95BF90932C
:1002300069001092F8071092300810922F0810925F
:100240002E081092F7071092F6071092FD072093E0
:100250000308109202081092160110921F0120E26A
:1002600031E030930508209304088823C9F00E94E8
:100270001B0A0E945B0A80EC91E00E94B10A61E0D7
:1002800080E00E94610A8FEA91E00E94B10A2FE3A8
:1002900082E49FE0215080409040E1F700C00000E0
:1002A0000895FC01009779F08081882369F0853EEC
:1002B00051F080858E3439F48185893421F481E0D0
:1002C0009285933409F080E00895FC01009749F08D
:1002D0008081882339F0853E21F083858295817065
:1002E000089580E00895CF92DF92EF92FF920F93EE
:1002F0001F93CF93DF938FEF9FEF90930101809334
:1003000000010E94FB0E6B017C01611571058105E6
:100310009105D9F180E090E00E94201000E010E00B
:10032000C8010E94850FEC01009749F18881853E44
:1003300011F0811124C08B858F3009F110930101D8
:10034000009300016EE670E0CE010E94BD1281E0D4
:100350008B87FD8AEC8ADB8ECA8E6091360870919D
:1003600037088091380890913908DF91CF911F911B
:100370000F91FF90EF90DF90CF900C94BD0C0F5F2A
:100380001F4F003981E0180759F6DF91CF911F9177
:100390000F91FF90EF90DF90CF900895FF920F9311
:1003A0001F93CF93DF93D82FF62EC42FA62FB0E044
:1003B00040E1C49FA00DB11D1124FD01009055081E
:1003C00002C0F695E7950A94E2F7EE0FFF1FEE0FD5
:1003D000FF1FEA5FF74F008111812281338182E0A4
:1003E0008BB91BB8E0915408F0E03197EA23FB2366
:1003F000409141085091420860914308709144082F
:100400004E0F5F1F611D711D025011092109310935
:100410000090550804C0000F111F221F331F0A94BB
:10042000D2F7400F511F621F731F88E10E94930B88
:100430008FEF0E94C70A8EEF0E94C70A80EB90E000
:1004400030E120E33BB92BB901970097D9F71BB8EE
:1004500083E00E94C70A8CEF0E94C70A8FEF0E94B8
:10046000C70A8FE30E94C70A8FEC0E94C70A83EF76
:100470000E94C70A8CEF0E94C70A8FEF0E94C70A2A
:100480008FE30E94C70A8FEC0E94C70A83EF0E9485
:10049000C70A8CEF0E94C70A85ED0E94C70A8AEA44
:1004A0000E94C70A86E90E94C70A8FEF0E94C70A06
:1004B0008EEF0E94C70A8C2F86958A6A0E94C70A0F
:1004C0008C2F8A6A0E94C70A8F2D86958A6A0E949D
:1004D000C70A8F2D8A6A0E94C70A1EEF1F251C2794
:1004E000812F86958A6A0E94C70A812F8A6A0E9494
:1004F000C70A8EED0E94C70A8AEA0E94C70A8BEEDD
:100500000E94C70A8FEF0E94C70A8FEF0E94C70A96
:100510008FEF0E94C70A8FEF0E94C70A8FEF0E94D9
:10052000C70A8EE591E0D89F9001D99F300D112424
:10053000205E3E4F80E090E070E2A0E1B0E3F90180
:10054000E80FF91FE08148E050E060E8F62FFE2355
:1005500019F0ABB9BBB902C01BB87BB96695415065
:1005600051094115510591F701968D3541E09407E8
:1005700031F71BB880E790E030E120E33BB92BB9BD
:1005800001970097D9F71BB880E093E020E21BB8F1
:100590002BB901970097D9F71BB88FEF0E94C70AB4
:1005A0008FEF0E94C70A0E94DD0A0E949E0D82E022
:1005B0008BB91BB8DF91CF911F910F91FF900895D8
:1005C000CF92DF92EF92FF920F931F93CF93DF931F
:1005D0004B9933C0E1E1F1E081918F3F51F1C7E1E7
:1005E000D1E092E2E92E91E0F92E01E111E0D12C67
:1005F000CC24CA94F80160816F3F21F048818D2D91
:100600000E94CE01F801C1928F01C992F7011082B8
:10061000D394F2EAEF1AFEEFFF0A85E0D812EACF90
:100620001092160180E291E09093050880930408EF
:1006300004C081E0E631F80779F6DF91CF911F9190
:100640000F91FF90EF90DF90CF9008958091F60783
:100650009091F70780399C40C0F480E18BB980917C
:10066000F6079091F70720E330E1803140E19407ED
:1006700030F44B990AC02BB93BB90196F6CF80E90B
:100680009CE09093F7078093F60708954B996EC00E
:1006900040911601842F90E02EE531E0829FF00119
:1006A000839FF00D929FF00D1124E05EFE4F22819A
:1006B0002D3A09F042C020911F01211131C0209133
:1006C000F807FC01EF5EFE4F2083FC01E95EFE4F60
:1006D00030910208369536953083822F8D7F8D308C
:1006E00011F482E001C081E0820F8F708093F807DF
:1006F000443029F40E9426030E94E0021BC04F5F91
:10070000409316012EE531E0429FC001439F900DBA
:100710001124805E9E4F90930508809304080DC0BD
:1007200080910E018093F80710921F018F3029F4F9
:100730000E94260381E080930308209116018EE534
:1007400091E0289FF001299FF00D1124E05EFE4FFB
:100750008281863959F487818575880F90859575D2
:10076000892B80930E0181E080931F01089520E280
:1007700031E080E090E0F901E80FF91F1082019666
:100780008E3541E09407B9F7225A3E4F87E0263F65
:10079000380779F7E7E1F1E0A1E1B1E08FEF81936C
:1007A0008D9391E0EC31F907D1F70895CF93C82FDD
:1007B0002FEF3FEF30930101209300010E948B0B3C
:1007C0004B9B0BC00E945B0A60E080E00E94610AC4
:1007D0008BE691E0CF910C94B10A20E231E03093A6
:1007E0003B0820933A080E94050D81111EC00E940B
:1007F0005B0A60E080E00E94610A8EE991E00E945D
:10080000B10A61E080E00E94610AE0913308F0E003
:10081000EE0FFF1FE658FF4F808191810E94B10AC1
:10082000109230084B9BFCCF87C0CC2389F00E94EC
:100830005B0A60E080E00E94610A80913E0882309D
:1008400019F48DE891E002C08CE791E00E94B10AB2
:100850000E94A50D81111EC00E945B0A60E080E02D
:100860000E94610A8EE991E00E94B10A61E080E095
:100870000E94610AE0913308F0E0EE0FFF1FE65896
:10088000FF4F808191810E94B10A109230084B9BEA
:10089000FCCF52C08091540840914E0850914F08AF
:1008A000849F9001859F300D11242115304708F554
:1008B00085E0809333080E945B0A60E080E00E943C
:1008C000610A8EE991E00E94B10A61E080E00E9435
:1008D000610AE0913308F0E0EE0FFF1FE658FF4F8A
:1008E000808191810E94B10A109230084B9BFCCF0D
:1008F00023C0CC23E1F061E080E00E94610A85E141
:1009000091E00E94B10A809145088B3019F48FE084
:1009100091E002C089E091E00E94B10A9FE925E2DE
:1009200086E2915020408040E1F700C000000E9424
:10093000B703CF910C94870BCF910895CF92DF929C
:10094000EF92FF920F931F930E945B0A60E080E09A
:100950000E94610A81EF90E00E94B10A61E080E0AC
:100960000E94610A81E091E00E94B10A80913508FD
:1009700090E00E94770A10913508912F0AE080914B
:100980003508891799F061E080E00E94610A81E0F2
:1009900091E00E94B10A8091350890E00E94770AA8
:1009A00088E690E00E94B10A909135084B99BFC04B
:1009B0004F9914C04F9BFECF2FE332E48FE02150BC
:1009C00030408040E1F700C0000080913508815040
:1009D00080933508811102C0009335081D9915C018
:1009E0001D9BFECFEFE3F2E42FE0E150F04020400A
:1009F000E1F700C00000809135088F5F80933508D3
:100A00008B3018F081E0809335084E99B8CF4E9B1B
:100A1000FECF3FE382E49FE0315080409040E1F719
:100A200000C0000080913508811709F480C08091D2
:100A3000000190910101019609F479C080E090E0F5
:100A40000E94201080E291E090933B0880933A0846
:100A50000E94B70310923608109237081092380897
:100A60001092390880910001909101010E94951027
:100A700020914508FC01428D538D2B3071F48489FF
:100A80009589A0E0B0E0DC019927882760E070E05C
:100A9000842B952BA62BB72B03C0CA01A0E0B0E096
:100AA0006C017D01F2E0CF1AD108E108F108A091B4
:100AB0005408B0E0A70196010E94B21200914108CB
:100AC000109142082091430830914408600F711F33
:100AD000821F931F0E94560CE0913A08F0913B0848
:100AE00080819181A281B3818D3C9240AB4AB1401B
:100AF000F1F4809135088483A0915408B0E0A701F7
:100B000096010E94B212C0904108D0904208E09035
:100B10004308F09044086C0D7D1D8E1D9F1D1F9194
:100B20000F91FF90EF90DF90CF900C94BD0C1F9130
:100B30000F91FF90EF90DF90CF900895CF92DF92CA
:100B4000EF92FF920F931F93CF93DF93EC017B0102
:100B50006115710519F480E090E018C160E080E053
:100B60000E94610A83E491E00E94B10A670100E0FB
:100B700010E0F60181916F01803211F00E94690A44
:100B80000F5F1F4F08301105A1F78BED90E00E9419
:100B9000B10A61E080E00E94610A8BED90E00E9462
:100BA000B10AD0930B01C0930A0180914508F70167
:100BB000028D138D8B3071F464897589CB01A0E0AF
:100BC000B0E07727662720E030E0602B712B822B86
:100BD000932B03C0B80180E090E061157105810599
:100BE000910509F4B8CFE6E0F8E011921192119264
:100BF000119228E0EE32F207C1F760930608709375
:100C00000708809308089093090811E0663FFFEFFA
:100C10007F0781059105A8F40E949A0E663FEFEFC9
:100C20007E078105910558F424E0129FF0011124FC
:100C3000EA5FF74F60837183828393831F5F1A306B
:100C400028F3C0904A08D0904B08E0904C08F090F0
:100C50004D088091000190910101019609F45BC05B
:100C600080E090E00E9420108FEF9FEFDC018093E6
:100C7000360890933708A0933808B09339088091CC
:100C80000001909101010E94951020914508FC01FE
:100C9000428D538D2B3071F484899589A0E0B0E0AA
:100CA000DC019927882760E070E0842B952BA62B28
:100CB000B72B03C0CA01A0E0B0E0E0913A08F09180
:100CC0003B084DEC52E06BEA71E040835183628354
:100CD0007383C582D682E782F086D287C18720914E
:100CE000350824839C01AD01225031094109510985
:100CF000A0915408B0E00E94B212009141081091F6
:100D000042082091430830914408600F711F821FF0
:100D1000931F0E94BD0CC0924A08D0924B08E092EB
:100D20004C08F0924D0861E080E00E94610A81E089
:100D300091E00E94B10A8091350890E00E94770A04
:100D40001092F7071092F60710922F081092FD07E5
:100D5000C1E0C0930308109202081092F8071092A5
:100D6000160110921F0180E291E090930508809394
:100D7000040840E052E060E070E080E10E94E20B95
:100D80000E94B703C093300881E090E0DF91CF91DB
:100D90001F910F91FF90EF90DF90CF900895CF9229
:100DA000DF92EF92FF920F931F93CF93DF9380E236
:100DB00091E090933B0880933A088FEF9FEFDC011E
:100DC0008093360890933708A0933808B093390879
:100DD00080E090E00E9420108FEF9FEF9093010140
:100DE0008093000100E010E0CFEFDFEFC8010E9428
:100DF00095107C01009709F483C0FC018081882351
:100E000009F485C0C7010E945101882329F0CF3F12
:100E1000FFEFDF0709F4E8014BE050E06EE670E019
:100E2000C7010E94C412892B09F06AC01093010106
:100E30000093000120914508F701828D938D2B309E
:100E400071F44489558960E070E0BA015527442760
:100E5000A0E0B0E0482B592B6A2B7B2B03C0AC01E0
:100E600060E070E09A01AB0122503109410951095B
:100E7000A0915408B0E00E94B212C0904108D090F6
:100E80004208E0904308F09044086C0D7D1D8E1DD3
:100E90009F1D0E94560CE0913A08F0913B0880811A
:100EA0009181A281B3818D3C9240AB4AB14001F562
:100EB00084818093350885819681A781B085809350
:100EC0004A0890934B08A0934C08B0934D08E184D6
:100ED000F284C7010E949510009731F00E945101E1
:100EE000882311F0E70113C080E090E00E942010F9
:100EF00080E090E00E942010CF3F8FEFD807B1F440
:100F00000F5F1F4F0039E1E01E0709F06FCFCF3FA1
:100F1000FFEFDF0759F410923008DF91CF911F9156
:100F20000F91FF90EF90DF90CF900895CE010E9437
:100F30009510BC01CE01DF91CF911F910F91FF90D1
:100F4000EF90DF90CF900C949E05AF92BF92CF921E
:100F5000DF92EF92FF920F931F93CF93DF93CDB762
:100F6000DEB728970FB6F894DEBF0FBECDBF109244
:100F70000D0110920C0180E291E090933B08809368
:100F80003A088CED93E090930108809300088FEF6E
:100F90009FEFDC018093360890933708A0933808C0
:100FA000B09339080E94B70360E080E00E94610AB4
:100FB0008AE591E00E94B10A61E080E00E94610A46
:100FC00082E391E00E94B10A00E010E0C8010E94B3
:100FD00095107C01009799F0FC01808181110FC070
:100FE00080910C0190910D01892BC9F561E080E0A1
:100FF0000E94610A89E491E00E94B10A4EC1C701D2
:101000000E945101811105C0C7010E94650188231A
:10101000B9F080910C0190910D01880F991FE0911A
:101020000008F0910108E80FF91F118300838091F7
:101030000C0190910D01019690930D0180930C018C
:101040000F5F1F4F80910C0190910D01883C91051D
:101050003CF60039F1E01F0709F0B8CFC1CF61E0DD
:1010600080E00E94610A81E291E00E94B10A8091D1
:101070000C0190910D0102978CF420910C0130919C
:101080000D0140910A0150910B01E0910008F0918F
:10109000010800E010E080E090E063C0C12CD12C9A
:1010A00080910C0190910D010197C816D9062CF77B
:1010B00000E010E0EE24E394F12C80910C0190917B
:1010C0000D018C199D09E816F9060CF03FC0570177
:1010D000AA0CBB1CE0910008F0910108EA0DFB1D71
:1010E000808191810E94951048E050E0BC01CE01C2
:1010F00001960E94DF12E0910008F0910108E00FD4
:10110000F11F808191810E94951048E050E0BC0160
:10111000CE0101960E94D21297FF12C0E091000802
:10112000F0910108DF01AA0DBB1D8D919C911197D3
:10113000E00FF11F208131812D933C9391838083B7
:101140002FEFE21AF20A0E5F1F4FB7CF3FEFC31A1D
:10115000D30AA6CF619171914617570709F48C0104
:10116000019682179307B4F38FEF9FEF4B9995C0C9
:101170004F9916C04F9BFECF4FE3E2E4FFE0415092
:10118000E040F040E1F700C000000F5F1F4F2091EA
:101190000C0130910D010217130711F400E010E06B
:1011A0001D9915C01D9BFECF2FE332E44FE0215067
:1011B00030404040E1F700C000000150110917FF26
:1011C00006C000910C0110910D01015011094E99BA
:1011D00025C04E9BFECF000F111FE0910008F0913B
:1011E0000108E00FF11F808191810E9495107C0120
:1011F0000E946501882331F0C7010E9420100E94DF
:10120000A5074BC0E0910008F0910108E00FF11F25
:10121000B701808191810E949E053FC00817190780
:1012200009F4A4CFE0910008F0910108C801880FEB
:10123000991FE80FF91F808191810E9495105C0130
:1012400061E080E00E94610AC5010E946501882377
:1012500021F083E091E00E946B0A7501C12CD12C32
:10126000F70181917F01803211F00E94690AFFEF3E
:10127000CF1ADF0A28E0C216D10491F7C5010E94F7
:101280006501882321F085E091E00E946B0A8BEDD7
:1012900090E00E94B10AC80169CF28960FB6F89471
:1012A000DEBF0FBECDBFDF91CF911F910F91FF9099
:1012B000EF90DF90CF90BF90AF9008954B9B21C0EF
:1012C00080E095E04B9B67C001970097D9F780912C
:1012D0006E008E7F80936E00E89810923008109216
:1012E000030860E080E00E94610A8BE691E00E94C2
:1012F000B10A61E080E00E94610A8BED90E00C94FD
:10130000B10A309B2CC04E9B02C04F9928C04E9909
:1013100012C084E690E021E04E9920E0019700970A
:10132000D9F72223C1F14E9BFECFF8940E94A50766
:101330004B9B26C030C04F992EC084E690E021E040
:101340004F9920E001970097D9F7222321F14F9B75
:10135000FECFF8940E949E044B991DC00FC080914F
:101360003008811118C080E095E04B9914C00197B6
:101370000097D9F7F89481E00E94D6030E94CF0627
:1013800080913008882331F080916E0081608093D5
:101390006E00E89A78940895459880FF02C0419ABB
:1013A00001C0419881FF02C0439A01C0439882FF67
:1013B00002C05C9A01C05C9883FF02C05D9A01C0C4
:1013C0005D98459A88E08A95F1F70000459888E095
:1013D0008A95F1F700000895CF93C82F599A449841
:1013E00082958F700E94CC098C2F8F700E94CC093F
:1013F000CC7F29F086E791E00197F1F704C080E8FF
:1014000099E20197F1F700C00000CF910895CF93C2
:10141000C82F599A449A82958F700E94CC098C2FBC
:101420008F700E94CC0980E792E00197F1F700C02D
:101430000000CF91089544982FE880ED93E021506B
:1014400080409040E1F700C0000083E00E94CC099A
:1014500081E19AE70197F1F700C0000083E00E9464
:10146000CC0981E19AE70197F1F700C0000083E021
:101470000E94CC0981E19AE70197F1F700C00000D2
:1014800082E00E94CC0981E19AE70197F1F700C060
:10149000000088E20E94EC0988E00E94EC0981E0EB
:1014A0000E94EC0982E00E94EC0986E00E94EC09AF
:1014B0008CE00C94EC0981E00E94EC0982E00C9431
:1014C000EC098F7060FD02C0805801C080540C94FC
:1014D000EC090C94070ACF93DF93EC0189918823E0
:1014E00019F00E94070AFACFDF91CF910895CF93A8
:1014F000DF93CDB7DEB72A970FB6F894DEBF0FBEE5
:10150000CDBF4AE0BE016F5F7F4F0E94F312CE0154
:1015100001960E946B0A2A960FB6F894DEBF0FBEA2
:10152000CDBFDF91CF910895CF93DF93CDB7DEB7D5
:101530002A970FB6F894DEBF0FBECDBF2AE0AE01EA
:101540004F5F5F4F0E94FE12CE0101960E946B0A10
:101550002A960FB6F894DEBF0FBECDBFDF91CF91B4
:101560000895CF93DF93FC018491EF0121968823A6
:1015700021F00E94070AFE01F7CFDF91CF91089575
:10158000519A549A559A509810923208089528E02A
:1015900030E090E840E250E160E3792F782319F0E1
:1015A0005BB96BB902C01BB84BB996952150310994
:1015B0002115310591F71BB80895CF93DF931F9242
:1015C000CDB7DEB780E18BB9198280E020E330E14E
:1015D0009981983051F02BB999B1880F9170892B6E
:1015E0003BB999819F5F9983F3CF0F90DF91CF91A2
:1015F000089582E38BB982E18BB9089528E1000058
:101600002A95E9F70197D1F708950895DF92EF92AF
:10161000FF920F931F93CF93DF93082FC8E0D0E082
:1016200010E880E2F82E90E1E92E20E3D22E812FFF
:10163000802339F0EBB881E090E00E94FE0ADBB82D
:1016400006C01BB881E090E00E94FE0AFBB8169528
:101650002197209761F781E090E00E94FE0A1BB875
:10166000DF91CF911F910F91FF90EF90DF90089540
:1016700090913208911103C00E94060B02C00E9493
:10168000C70A80E00895FF920F931F93CF93DF93D3
:101690001F92CDB7DEB780E18BB981E090E00E9468
:1016A000FE0A198210E030E3F32E00E189818830D0
:1016B00091F0FBB881E090E00E94FE0A89B1110F21
:1016C0008170182B0BB981E090E00E94FE0A89819D
:1016D0008F5F8983EBCF812F0F90DF91CF911F9187
:1016E0000F91FF90089580913208811102C00C94EF
:1016F000430B0C94DD0A82E38BB981E090E00E94F9
:10170000FE0A82E18BB981E090E00C94FE0A81E050
:101710008093320808951092320808950E94DD0ADD
:1017200087FDFCCF08951F93CF93DF9300D000D0A7
:10173000CDB7DEB7182F0090340804C0440F551FF2
:10174000661F771F0A94D2F78FEF49835A836B8302
:101750007C830E94C70A812F80640E94C70A7C8113
:10176000872F0E94C70A6B81862F0E94C70A5A8161
:10177000852F0E94C70A4981842F0E94C70A85E9E4
:101780000E94C70A8FEF0E94C70A0E948E0B8093A7
:101790003F0881508E3FC8F30F900F900F900F902D
:1017A000DF91CF911F910895AB01BC0110923D08CC
:1017B00081E10E94930B0E94DD0A809340088E3FD6
:1017C000D1F70895FF920F931F93CF93DF9300D02B
:1017D00000D0CDB7DEB7082F80913C08811113C02F
:1017E0008FEE800F823040F088EE800F823020F044
:1017F00080EE800F823038F489E0440F551F661F59
:10180000771F8A95D1F78FEF49835A836B837C8347
:101810000E94380B802F80640E94380B7C81872FB8
:101820000E94380B6B81862F0E94380B5A81852FBE
:101830000E94380B4981842F0E94380B083011F424
:1018400087E801C085E90E94380B10E00E94730B05
:10185000F82E8FEFF81203C01150C1F71AC0F11023
:1018600018C00A33B1F40E94730B1092340886FF3B
:1018700004C081E080933C0805C010923C0889E0D8
:10188000809334080E94730B0E94730B0E94730BA9
:10189000F12C0E94730B8F2D0F900F900F900F90D3
:1018A000DF91CF911F910F91FF900895EF92FF92DA
:1018B0000F931F93CF93DF9300D000D0CDB7DEB747
:1018C000AB01BC018091360890913708A09138088F
:1018D000B0913908481759076A077B0709F441C0D6
:1018E000409336085093370860933808709339084E
:1018F0008FEF49835A836B837C830E94380B8FEF71
:101900000E94380B49815A816B817C8181E10E9460
:10191000E20B811127C000E010E00E94730B8E3FA4
:1019200039F00150110901151105B9F780E01AC00D
:10193000E12CF12C00913A0810913B080E0D1F1D6F
:101940000E94730BF8018083FFEFEF1AFF0AE11486
:1019500082E0F80679F70E94730B0E94730B0E94D5
:10196000730B81E00F900F900F900F90DF91CF914C
:101970001F910F91FF90EF900895CF93DF93AB01EC
:10198000BC0188E10E94E20B811137C08EEF0E94FA
:10199000380BC0E0D0E0E0913A08F0913B08EC0F42
:1019A000FD1F80810E94380B2196C11522E0D207CD
:1019B00091F78FEF0E94380B8FEF0E94380B0E9437
:1019C000730B982F9F719530C1F4C0E0D0E00E9456
:1019D000730B811104C02196D1F780E00EC08FEF08
:1019E0000E94380B0E94730B811106C0CE01019634
:1019F000219699F3EC01F6CF81E0DF91CF91089524
:101A0000AB01BC0180E10C94E20B1F93CF93DF93F9
:101A100085E0809335080E94C00A0E948B0B4B9989
:101A200082C080E185B98FE097E2A0E0B0E08093CA
:101A3000360890933708A0933808B093390818EC0B
:101A40000E947B0B1150E1F78FEF0E94380B8FEF54
:101A50000E94380BC0E0D8E040E050E0BA0180E0DE
:101A60000E94E20B2197209719F415B881E031C04C
:101A7000813091F78FEF0E94380B8FEF0E94380B67
:101A800082E080933E08CFEFD7E04AEA51E060E081
:101A900070E088E00E94E20B2197209721F481E01A
:101AA00080933E0802C0813081F7CFEFD7E040E05D
:101AB00050E0BA0187E30E94E20B40E050E060E0B2
:101AC00070E489E20E94E20B2197209729F415B86F
:101AD00082E08093330828C08111E9CF10923C083E
:101AE00089E08093340880913E08823049F060E0BC
:101AF00072E080E090E00E94000D15B811E014C083
:101B000081E080933C0810923408CFEFD0E040E0B1
:101B100050E0BA018AE30E94E20B2197209739F343
:101B20008111F5CFE4CF10E0812FDF91CF911F918C
:101B3000089580E185B9089515B808950E94DD0AD9
:101B40004B9902C08F3FD1F708954F925F926F92E9
:101B50007F928F929F92AF92BF92CF92DF92EF923D
:101B6000FF921F93CF93DF9360E070E0CB010E9460
:101B7000560CE0913A08F0913B0880818D7F893EB8
:101B800041F1DF01A250BE4F8D919C9185359A4A5B
:101B900099F4E254FE4F84818093450860857185F5
:101BA000828593850E94560CE0913A08F0913B089B
:101BB00080818D7F893E11F083E007C080914508C8
:101BC0008B3039F0863029F084E08093330880E050
:101BD000A1C0C0913A08D0913B08438554855093E9
:101BE0004F0840934E0815851093540886859785B5
:101BF000C48CD58CE68CF78CC80ED91EE11CF11C68
:101C0000C0925008D0925108E0925208F0925308C6
:101C100060914508663019F42689378902C02CA1E5
:101C20003DA1A089B0E02A9FC0012B9F900D3A9F53
:101C3000900D112446015701880E991EA11CB11C5C
:101C40008092410890924208A0924308B0924408C2
:101C50004CA45DA46EA47FA46630B9F0A3019201E8
:101C60002250310941095109A12FB0E00E94B2125E
:101C7000680D791D8A1D9B1D609346087093470867
:101C8000809348089093490826C00E94A3124B01F4
:101C90005C018C0C9D1CAE1CBF1C8092460890926F
:101CA0004708A0924808B09249088189928935E096
:101CB000880F991F3A95E1F7BA010E946D12860EBE
:101CC000971EA11CB11C8092410890924208A092DC
:101CD0004308B0924408812F90E020E031E0320FB9
:101CE0008130910521F096958795232FF7CF20938A
:101CF00055088091460890914708A0914808B091F6
:101D0000490880934A0890934B08A0934C08B093DD
:101D10004D0881E0DF91CF911F91FF90EF90DF9010
:101D2000CF90BF90AF909F908F907F906F905F907B
:101D30004F9008954F925F926F927F928F929F92F1
:101D4000AF92BF92CF92DF92EF92FF92CF9320910A
:101D50004508263041F088248A94982CA82C5FE00E
:101D6000B52E22E006C088248A94982CA12CB12C90
:101D700021E004C0660F771F881F991F2A95D2F7AC
:101D800020914E0830914F0840E050E00E948112AF
:101D90002B013C01C0905008D0905108E0905208AF
:101DA000F0905308C20ED31EE41EF51ECAE0C70110
:101DB000B6010E94560C882311F0C150C1F7E09182
:101DC0003A08F0913B08E40DF51D60817181828134
:101DD0009381682179218A219B21CF91FF90EF90F7
:101DE000DF90CF90BF90AF909F908F907F906F903B
:101DF0005F904F9008954F925F926F927F928F9273
:101E00009F92AF92BF92CF92DF92EF92FF92CF93C9
:101E100068EEC62E63E0D62EE12CF12CC701B60188
:101E20000E949A0E611571058105910591F030EAC5
:101E3000C31636E8D30631E0E306F10431F02FEFA4
:101E4000C21AD20AE20AF20AE9CF60E070E0CB01DE
:101E50004EC040EAC41646E8D40641E0E406F10468
:101E600009F445C080914508863011F062E001C058
:101E700061E0A701960104C0220F331F441F551FC4
:101E80006A95D2F7CA01B90120914E0830914F08E6
:101E900040E050E00E9481122B013C0180905008EC
:101EA00090905108A0905208B0905308820E931E53
:101EB000A41EB51ECAE0C501B4010E94560C8823B9
:101EC00011F0C150C1F7E0913A08F0913B08E40DE0
:101ED000F51D8FEF90E0A0E0B0E080839183A283B6
:101EE000B383C501B4010E94BD0CC701B601CF91F7
:101EF000FF90EF90DF90CF90BF90AF909F908F902A
:101F00007F906F905F904F9008958F929F92AF92C5
:101F1000BF92EF92FF920F931F93CF93DF937C01B9
:101F2000F5E0EE0CFF1CFA95E1F7E701CD2FDD2778
:101F3000C69520915408622F70E0CE010E946D1268
:101F40008B0160914A0870914B0880914C089091E8
:101F50004D080115110509F44AC030914508363085
:101F600071F48090460890904708A0904808B0907F
:101F70004908681579058A059B0509F454C08090C5
:101F8000410890904208A0904308B0904408681916
:101F900079098A099B0930E040E050E00E948112F3
:101FA000CA01B9016E5F7F4F8F4F9F4FA12CB12C9B
:101FB0000E949A0E2FEFA21AB20AA016B106C1F71C
:101FC0009B01AC012250310941095109A0915408EB
:101FD000B0E00E94B2128090410890904208A09018
:101FE0004308B0904408680D791D8A1D9B1D9E0111
:101FF000322F2227330FE21AF30A40915408409FF0
:102000009001419F300D1124C21BD30B6C0F7D1F1B
:10201000811D911D0E94560C80913A0890913B08B9
:102020008E0D9F1D02C080E090E0DF91CF911F9147
:102030000F91FF90EF90BF90AF909F908F90089579
:102040000F931F93FC01009789F4809146089091AB
:102050004708A0914808B091490880934A08909396
:102060004B08A0934C08B0934D083FC09385892F2F
:10207000807194FF3BC080914508428D538D8B3019
:1020800071F484899589A0E0B0E0DC019927882764
:1020900060E070E0842B952BA62BB72B03C0CA0100
:1020A000A0E0B0E00097A105B10579F29C01AD0177
:1020B0002250310941095109A0915408B0E00E9411
:1020C000B2120091410810914208209143083091CA
:1020D0004408600F711F821F931F60934A0870931A
:1020E0004B0880934C0890934D0881E01F910F910D
:1020F0000895FC01009719F480E090E00895808134
:102100008823D1F3853EC1F38E3221F481818E3252
:1021100019F0F2CF853081F383858E3169F38F30EA
:1021200059F3883249F3CF0108950E94850F0C942A
:102130007910000000000000000000000000000016
:102140000000000008950000000000000000209141
:1021500035082A95F1F70895AF93AFB7AF93BF93C2
:102160002F93A0912F0820912E08A22BA8B9A4EBA1
:10217000A6BD20E0E8DFA0912E08A8B9B091030821
:10218000BB2341F020932F082F91BF91AF91AFBF98
:10219000AF911895A0E3ABB9A9B1A170AA0F2A2FEE
:1021A000A0E1ABB9A091F607B091F7071196A09303
:1021B000F607B093F707A03989F4BC3079F4A1E0B1
:1021C000A0930308CF93C0E7A8E0B0E3BBB9B0E1A8
:1021D000BBB9AA95D1F7CA95B9F7CF9120932F082B
:1021E0002F91BF91AF91AFBFAF9118952F932FB79C
:1021F0002F9330995BC03F933091FD0726B1247037
:102200002327E1F326B124702093FD0728E02A95C7
:10221000F1F700004F935F936F937F938F93EF934A
:10222000FF9360E0E0910408F09105083DE541E08E
:102230000DC05091FD0776B174707527E1F376B14A
:1022400074707093FD077EE07A95F1F727E081E0E6
:1022500079B17470D9F4000000007BE17A95F1F750
:1022600076B174705091FD077093FD0775277695D0
:102270007695880F872B2A9559F7853D09F461E0FB
:102280006030B9F281933150404099F69F93AF93FB
:10229000BF930E944603BF91AF919F91FF91EF9131
:1022A0008F917F916F915F914F913F912F912FBFB0
:1022B0002F91189581E00E9408018FEF80931C01F7
:1022C000CBE80E945E09309B03C00E949C0DF9CFB1
:1022D0000E94990D83B18F708093100190910F012E
:1022E000891761F180930F01883049F0843009F437
:1022F000EBC0823009F4EAC0813001F5E9C082E028
:1023000020910208820F982F97709695E92FF0E0A0
:10231000E659FF4FE49180FFE295EF708E2F8870B1
:1023200009F0E86F2E0F253C08F0D4C02093020876
:10233000809102088C3810F0C09302088091300818
:10234000882309F4BECF80910308882309F4B9CF0C
:10235000F8943091F8073F5F3F703093F807209171
:102360000208269526952093310840E1249FC0015C
:102370001124830F911D9093FF078093FE07009017
:10238000550802C0969587950A94E2F790931E012E
:1023900080931D01FC01EE0FFF1FEE0FFF1FEA5F90
:1023A000F74F80819181A281B3818093F907909347
:1023B000FA07A093FB07B093FC0780911C01281734
:1023C00099F020931C0161E08AE00E94610A8CEE82
:1023D00090E00E94B10A8091310890E00E94770A53
:1023E00087E091E00E946B0A8091F80790911101BB
:1023F000981306C02091170190913108291741F1D7
:1024000090911201981306C0209118019091310803
:102410002917F1F090911301981306C0209119012A
:10242000909131082917A1F090911401981306C0DA
:1024300020911A0190913108291751F090911501BE
:10244000981308C090911B0180913108981302C025
:102450000E94E0026091F9077091FA078091FB07F2
:102460009091FC076250710981099109009055080B
:1024700004C0660F771F881F991F0A94D2F7009136
:102480004108109142082091430830914408600FA0
:10249000711F821F931F2091540830E02150310991
:1024A0004091FE075091FF0724233523620F731FCD
:1024B000811D911D0E94D40B1092F7071092F60710
:1024C000109203087894FDCE84E01ACF86E018CFEE
:1024D00080E016CF109202082BCFAA1BBB1B51E144
:1024E00007C0AA1FBB1FA617B70710F0A61BB70B84
:1024F000881F991F5A95A9F780959095BC01CD0129
:102500000895A1E21A2EAA1BBB1BFD010DC0AA1F34
:10251000BB1FEE1FFF1FA217B307E407F50720F04C
:10252000A21BB30BE40BF50B661F771F881F991FC7
:102530001A9469F760957095809590959B01AC0110
:10254000BD01CF010895A29FB001B39FC001A39F19
:10255000700D811D1124911DB29F700D811D1124DC
:10256000911D08950E94A312A59F900DB49F900DF8
:10257000A49F800D911D11240895FB01DC0105909D
:102580000D920020E1F70895FB01DC01415050401D
:1025900030F08D910590801919F40020B9F7881B4F
:1025A000990B0895FB01DC0104C08D910190801905
:1025B00021F441505040C8F7881B990B0895DC0165
:1025C000FB014150504058F049F001900D9200201D
:1025D000C1F7E61BF70B3197CF0108951C920190CC
:1025E0000020E9F7F6CFBB274A3031F4992322F4D3
:1025F000BDE2909581959F4F0C943013BB272A30F4
:1026000051F4992342F4BDE29095809570956195BF
:102610007F4F8F4F9F4F0C940E13BB27FA01A62FAD
:102620006217710581059105330B30FB66F0AA270F
:10263000660F771F881F991FAA1FA21710F0A21BF1
:1026400063953850A9F7A05DAA3308F0A95DA1935E
:1026500036F7B111B1931082CA010C944913BB270C
:10266000FB015527AA27880F991FAA1FA41710F04E
:10267000A41B83955051B9F7A05DAA3308F0A95D5A
:10268000A193009779F7B111B1931192CB010C94FA
:102690004913DC01FC01672F71917723E1F7329731
:1026A00004C07C916D9370836291AE17BF07C8F32D
:0626B0000895F894FFCF2D
:0A26B600FFFFFE5B005D0020000046
:00000001FF
