:100000000C940A030C94091E0C9427030C942703E8
:100010000C9427030C9427030C9427030C942703B8
:100020000C9427030C9427030C9427030C942703A8
:100030000C9427030C9427030C9427030C94270398
:100040000C94BF1D0C9427030C9427030C942703D6
:100050000C9427030C9427030C9427030C94270378
:100060000C9427030C942703200020000FED03219C
:10007000534449534B494920434647004E6F205350
:100080004420696E7365727465640046415431366C
:1000900000464154333200547970653A2000436F72
:1000A00064653A2000534420426C6F636B204552D4
:1000B000524F52004D697373696E67204D42522052
:1000C000202000436C7573746572203C2033326BC2
:1000D00042004E6F742046415431362F3332202077
:1000E00000426F6F7420736563746F72202020006C
:1000F00053442063616E277420696E697420005335
:10010000442063616E27742069646C65200045207B
:10011000522052204F2052004E6F726D616C20535E
:1001200044206361726400534448432063617264F5
:1001300020202020200020536F7274696E67206693
:10014000696C6573202E2E2E20202000204E6F74A7
:1001500068696E6720666F756E64206865726521D8
:100160002000204275696C64696E67206C69737445
:10017000002053454C454354204E49432020202025
:1001800020202020202000547261636B3A20002040
:1001900053442053454C4543542044454C41592039
:1001A0002020202000204C434420434F4E545241F5
:1001B00053542020202020202020002056616C75E0
:1001C000653A200020526F74617465206469737011
:1001D0006C6179202020202020002053657420634A
:1001E0006F6E747261737420202020202020200004
:1001F000205365742053442064656C61792020206D
:10020000202020202000202020202020202020200E
:100210002020202020202020202020002053455472
:100220005550202020202020202020202020202069
:100230002000204E49432020202020202020202064
:10024000202020202020200076657273696F6E20A8
:10025000352E312028323031372900534449534B51
:10026000205D5B202D2042524153494C000000008C
:10027000000000000000000000000080C0E0F0F876
:10028000F83800000000000000000000000000003E
:10029000000000000000000000000000000000005E
:1002A000000000000000000000000000000000004E
:1002B0000000000000000000C0E0F0F0F8F8F8F8DE
:1002C000F8F8F8F0F0F7F7FFFBF9F8F8F8F8F8F8B5
:1002D000F0700000000000000000000000000000BE
:1002E000000000000000000000000000000000000E
:1002F000000000C0E0E0000000000000000000007E
:1003000000FFFFFFFFFFFFFFFFFFFFFFFFFFFFFFFC
:10031000FFFFFFFFFFFFFFFFFF83007CFEFFC7C75C
:10032000C70707FFFF00FFFFFF0787C7C7EFFEFEF6
:100330001800FFFFFF07C7C7C7FFFE7C00FFFFFFD6
:10034000007CFEFFC7C7E7F7FFFFDF071F7FFFFF48
:10035000FFFFFFFFFFFFFFFFFFFFFFFFFFFFFFFFAD
:10036000FFFFFFFFFEFC3801010101000001010059
:10037000070F0F0001010101000000000F0F07002F
:100380000101010100000001010100000001010163
:1003900001010101010000000103070F1F1F1F1FC2
:1003A0001F0F0F0F0F0F0F1F1F1F1F1F0F07030020
:1003B000000000000000000000000000000000003D
:1003C000000000000000000000000000000000002D
:1003D0000000000000000000000000000000000815
:1003E000141C1C1C1C1C1C366363220000FFFFF73E
:1003F000E3E3F7FFFD0000007432524242424A4CF0
:100400002E00000000000402FF02040000000000B3
:1004100000002040FF40200000000000002070A8E5
:100420002020203F0000000000FE8282828484FCA5
:10043000000000000000000000005F000000070056
:100440000700147F147F14242A7F2A1223130864C0
:100450006236495522500005030000001C2241006D
:100460000041221C0014083E081408083E08080039
:1004700050300000080808080800606000002010E4
:100480000804023E5149453E00427F40004261510E
:1004900049462141454B311814127F1027454545E7
:1004A000393C4A4949300171090503364949493601
:1004B000064949291E00363600000056360000085D
:1004C00014224100141414141400412214080201CF
:1004D000510906324979413E7E1111117E7F494909
:1004E00049363E414141227F4141221C7F494949D1
:1004F000417F090909013E4149497A7F0808087F7F
:1005000000417F41002040413F017F081422417F8C
:10051000404040407F020C027F7F0408107F3E4134
:1005200041413E7F090909063E4151215E7F09197B
:100530002946464949493101017F01013F40404078
:100540003F1F2040201F3F4038403F631408146382
:1005500007087008076151494543007F4141000287
:10056000040810200041417F0004020102044040C1
:10057000404040000102040020545454787F484415
:1005800044383844444420384444487F3854545410
:1005900018087E0901020C5252523E7F080404786A
:1005A00000447D40002040443D007F10284400006E
:1005B000417F40007C041804787C080404783844A7
:1005C0004444387C14141408081414187C7C08045F
:1005D00004084854545420043F4440203C404020E8
:1005E0007C1C2040201C3C4030403C4428102844C7
:1005F0000C5050503C4464544C44000836410000B8
:10060000007F0000004136080010080810080006AE
:100610000909060011241FBECFEFD8E0DEBFCDBF11
:1006200011E0A0E0B1E0E0E1F1E402C005900D923C
:10063000A630B107D9F726E0A6E0B1E001C01D92CF
:10064000A83FB207E1F70E946D1E0C9486200C941F
:1006500000000E94C51662E085E20E94C7168EE087
:1006600091E00E940E1764E086E10E94C7168CE7B5
:1006700090E00E940E174999FECF0895CF93C82F9E
:1006800014B817B81AB815B818B81BB8259A2D9A07
:10069000399A3B9A419A17BC14BC91E095BD22E06F
:1006A00025BF20936900109294061092CE061092F6
:1006B000CD061092CC0610929306109292061092DC
:1006C0009A069093A1061092A00610921101109222
:1006D00019012AE131E03093A3062093A20680E0BD
:1006E00090E00E946020823018F48093990607C041
:1006F0001092990660E080E090E00E946820CC2390
:1007000049F10E94C31680919906813011F40E942C
:1007100024160E94C51660E080E00E94C7160E9461
:10072000761766E08DE00E94C7168BE592E00E9486
:100730000E1767E087E00E94C71688E492E00E94E7
:100740000E172FED80E792E7215080409040E1F7AF
:1007500000C00000CF9108950F931F93CF93DF93B4
:100760001F92CDB7DEB7082F162F67E080E04983D0
:100770000E94C7160E94741786E092E00E940E172E
:1007800067E080E00E94C716802F90E00E941D174E
:1007900067E08AE30E94C716812F90E00E941D1730
:1007A00067E083E70E94C7164981842F90E00E948A
:1007B0001D170F90DF91CF911F910F910C9474171B
:1007C000FC01009779F08081882369F0853E51F023
:1007D00080858E3439F48185893421F481E09285D5
:1007E000933409F080E00895FC01009749F080817E
:1007F000882339F0853E21F08385829581700895A4
:1008000080E00895CF92DF92EF92FF920F931F93B3
:10081000CF93DF938FEF9FEF9093010180930001BF
:100820000E940E1C6B017C0161157105810591050B
:10083000D9F180E090E00E94331D00E010E0C80193
:100840000E94981CEC01009749F18881853E11F0C7
:10085000811124C08B858F3009F110930101009321
:10086000000160E770E0CE010E94D41F81E08B8719
:10087000FD8AEC8ADB8ECA8E6091D8067091D9060B
:100880008091DA069091DB06DF91CF911F910F9155
:10089000FF90EF90DF90CF900C94A6190F5F1F4F41
:1008A000003981E0180759F6DF91CF911F910F9120
:1008B000FF90EF90DF90CF900895FF920F931F93DA
:1008C000CF93DF93D82FF62EC42FA62FB0E040E1B0
:1008D000C49FA00DB11D1124FD010090F70602C0B8
:1008E000F695E7950A94E2F7EE0FFF1FEE0FFF1F54
:1008F000EC55F94F008111812281338180E18BB960
:100900001BB8E091F606F0E03197EA23FB23409113
:10091000E3065091E4066091E5067091E6064E0FFD
:100920005F1F611D711D02501109210931090090DD
:10093000F70604C0000F111F221F331F0A94D2F7BD
:10094000400F511F621F731F88E10E9475188FEFBF
:100950000E94A9178EEF0E94A91780EB90E038E063
:1009600028E23BB92BB901970097D9F71BB883E070
:100970000E94A9178CEF0E94A9178FEF0E94A91758
:100980008FE30E94A9178FEC0E94A91783EF0E94A2
:10099000A9178CEF0E94A9178FEF0E94A9178FE368
:1009A0000E94A9178FEC0E94A91783EF0E94A91734
:1009B0008CEF0E94A91785ED0E94A9178AEA0E9470
:1009C000A91786E90E94A9178FEF0E94A9178EEF39
:1009D0000E94A9178C2F86958A6A0E94A9178C2FCE
:1009E0008A6A0E94A9178F2D86958A6A0E94A91784
:1009F0008F2D8A6A0E94A9171EEF1F251C27812FA1
:100A000086958A6A0E94A917812F8A6A0E94A9176F
:100A10008EED0E94A9178AEA0E94A9178BEE0E9408
:100A2000A9178FEF0E94A9178FEF0E94A9178FEFC8
:100A30000E94A9178FEF0E94A9178FEF0E94A91794
:100A40008EE591E0D89F9001D99F300D1124265E4C
:100A50003E4F80E090E070E2A8E0B8E2F901E80FD4
:100A6000F91FE08148E050E060E8F62FFE2319F01E
:100A7000ABB9BBB902C01BB87BB9669541505109EF
:100A80004115510591F701968D3541E0940731F7F5
:100A90001BB880E790E038E028E23BB92BB901971A
:100AA0000097D9F71BB880E093E020E21BB82BB980
:100AB00001970097D9F71BB88FEF0E94A9178FEF06
:100AC0000E94A9170E94BF170E94AF1A80E18BB93C
:100AD0001BB8DF91CF911F910F91FF900895CF9296
:100AE000DF92EF92FF920F931F93CF93DF93499979
:100AF00033C0EDE0F1E081918F3F51F1C2E1D1E0EF
:100B00009CE1E92E91E0F92E0DE011E0D12CCC24EE
:100B1000CA94F80160816F3F21F048818D2D0E94B9
:100B20005D04F801C1928F01C992F7011082D3943C
:100B3000F2EAEF1AFEEFFF0A84E0D812EACF109231
:100B400011018AE191E09093A3068093A20604C06C
:100B500081E0E131F80779F6DF91CF911F910F9194
:100B6000FF90EF90DF90CF90089580919206909142
:100B7000930680399C40C0F488E08BB9809192063E
:100B80009091930628E238E0803140E1940730F4F8
:100B900049990AC02BB93BB90196F6CF80E99CE090
:100BA0009093930680939206089549996EC0409160
:100BB0001101842F90E02EE531E0829FF001839FA8
:100BC000F00D929FF00D1124E65EFE4F22812D3A2A
:100BD00009F042C020911901211131C020919406E1
:100BE000FC01E35FFE4F2083FC01EE5EFE4F30917F
:100BF000A006369536953083822F8D7F8D3011F487
:100C000082E001C081E0820F8F70809394064330B0
:100C100029F40E94B5050E946F051BC04F5F4093E9
:100C200011012EE531E0429FC001439F900D112438
:100C3000865E9E4F9093A3068093A2060DC080917E
:100C40000A0180939406109219018F3029F40E94B2
:100C5000B50581E08093A106209111018EE591E018
:100C6000289FF001299FF00D1124E65EFE4F82813E
:100C7000863959F487818575880F90859575892BFC
:100C800080930A0181E08093190108952AE131E0FF
:100C900080E090E0F901E80FF91F108201968E358F
:100CA00041E09407B9F7225A3E4F86E022393807CF
:100CB00079F78FEF8093120180930D0180931301D8
:100CC00080930E018093140180930F01809315018E
:100CD000809310010895CF93C82F2FEF3FEF3093EB
:100CE0000101209300010E946D185C98499B03C08C
:100CF0000E9429034CC02AE131E03093DD062093A5
:100D0000DC060E94F419811144C00E94C51662E0FD
:100D100085E20E94C7168EE091E00E940E1764E003
:100D200086E10E94C7168091D506813019F48FEFB5
:100D300090E004C0823029F480EF90E00E940E170A
:100D400022C0833019F481EE90E0F8CF843019F49A
:100D500082ED90E0F3CF853019F483EC90E0EECF94
:100D6000863019F484EB90E0E9CF873019F485EAF6
:100D700090E0E4CF8EE990E00E940E178091D506B6
:100D800090E00E94D4161092CE06499BFECF80E0E0
:100D9000B0C0CC23D9F00E94C51662E080E00E946A
:100DA000C7168091E006823019F487E291E002C014
:100DB00088E191E00E940E175C982FE38BE49CE49D
:100DC000215080409040E1F700C000000E94B61A18
:100DD000811143C00E94C51662E085E20E94C716D9
:100DE0008EE091E00E940E1764E086E10E94C71633
:100DF0008091D506813019F48FEF90E004C08230E5
:100E000029F480EF90E00E940E1722C0833019F47D
:100E100081EE90E0F8CF843019F482ED90E0F3CFCA
:100E2000853019F483EC90E0EECF863019F484EB32
:100E300090E0E9CF873019F485EA90E0E4CF8EE9BD
:100E400090E00E940E178091D50690E00E94D41683
:100E50001092CE06499BFECF9ACF8091F606409124
:100E6000F0065091F106849F9001859F300D11246A
:100E700021153047D0F485E08093D5060E94C51631
:100E800062E085E20E94C7168EE091E00E940E1794
:100E900064E086E10E94C71683EC90E00E940E1782
:100EA0001092CE06499BFECF72CFCC23E1F064E0D6
:100EB00080E00E94C71687E990E00E940E1780919B
:100EC000E7068B3019F481E990E002C08BE890E0EE
:100ED0000E940E179FE32BE48CE491502040804049
:100EE000E1F700C000005C980E9446060E94691865
:100EF00081E0CF9108958F929F92AF92BF92CF924F
:100F0000DF92EF92FF920F931F93CF93DF93EC0149
:100F10007B016115710519F480E090E051C10E94D8
:100F2000C51660E080E00E94C7160E94721782E337
:100F300092E00E940E1760E080E60E94C716809142
:100F4000E7068B3019F481E990E002C08BE890E06D
:100F50000E940E170E94721742E061E080E00E943A
:100F6000AC0362E080E00E94C71681E090E00E943E
:100F70001D17670100E010E0F60181916F018032DA
:100F800011F00E94C9150F5F1F4F08301105A1F71E
:100F9000D0930701C09306018091E706F701028D07
:100FA000138D8B3071F464897589CB01A0E0B0E0BA
:100FB0007727662720E030E0602B712B822B932B64
:100FC00003C0B80180E090E06115710581059105CD
:100FD00009F4A2CFE4EAF6E0119211921192119273
:100FE00026E0EC3CF207C1F76093A4067093A506D7
:100FF0008093A6069093A70611E0663FFFEF7F0758
:1010000081059105A8F40E94AD1B663FEFEF7E07B6
:101010008105910558F424E0129FF0011124EC554C
:10102000F94F60837183828393831F5F1A3028F3A3
:10103000C090EC06D090ED06E090EE06F090EF0642
:101040008091000190910101019609F48AC080E02D
:1010500090E00E94331D8FEF9FEFDC018093D80654
:101060009093D906A093DA06B093DB068091000135
:10107000909101010E94A81D2091E706FC01428D7C
:10108000538D2B3071F484899589A0E0B0E0DC01A8
:101090009927882760E070E0842B952BA62BB72B2F
:1010A00003C0CA01A0E0B0E04C015D01F2E08F1A7C
:1010B0009108A108B108A091F606B0E0A50194013D
:1010C0000E94C91F0091E3061091E4062091E506F5
:1010D0003091E606600F711F821F931F0E943C191A
:1010E000E091DC06F091DD068DEC92E0ABEAB1E038
:1010F00080839183A283B383458156816781708504
:10110000818592854C155D056E057F0519F48C1758
:101110009D0731F04387548765877687908B878753
:10112000C582D682E782F086D287C1878091D706B2
:10113000848380919D06818BA091F606B0E0A50185
:1011400094010E94C91F8090E3069090E406A0904D
:10115000E506B090E606680D791D8A1D9B1D0E946C
:10116000A619C092EC06D092ED06E092EE06F0923F
:10117000EF0610929306109292061092CD061092EE
:101180009A06C1E0C093A1061092A00610929406A0
:1011900010921101109219018AE191E09093A30637
:1011A0008093A2065C9840E052E060E070E080E14D
:1011B0000E94C4180E944606C093CE0681E090E0CB
:1011C000DF91CF911F910F91FF90EF90DF90CF9023
:1011D000BF90AF909F908F900895CF92DF92EF9243
:1011E000FF920F931F93CF93DF938AE191E0909347
:1011F000DD068093DC068FEF9FEFDC018093D8063D
:101200009093D906A093DA06B093DB0680E090E0D5
:101210000E94331D8FEF9FEF909301018093000197
:1012200000E010E0CFEFDFEFC8010E94A81D7C01B5
:10123000009709F48EC0FC018081882309F490C0D6
:10124000C7010E94E003882329F0CF3FFFEFDF07AB
:1012500009F4E8014BE050E060E770E0C7010E944C
:10126000DB1F892B09F075C0109301010093000169
:101270002091E706F701828D938D2B3071F444891C
:10128000558960E070E0BA0155274427A0E0B0E03E
:10129000482B592B6A2B7B2B03C0AC0160E070E01C
:1012A0009A01AB012250310941095109A091F6067A
:1012B000B0E00E94C91FC090E306D090E406E09021
:1012C000E506F090E6066C0D7D1D8E1D9F1D0E94AB
:1012D0003C19E090DC06F090DD06F70180819181F9
:1012E000A281B3818D3C9240AB4AB14051F5F701E8
:1012F00084818093D706818980939D060E949F15E3
:101300005C98F70185819681A781B0858093EC0672
:101310009093ED06A093EE06B093EF06D184F2848D
:101320008D2D9F2D0E94A81D009739F00E94E0038B
:10133000882319F0CD2DDF2D13C080E090E00E94AE
:10134000331D80E090E00E94331DCF3FFFEFDF07A9
:10135000B1F40F5F1F4F003921E0120709F064CF8D
:10136000CF3F8FEFD80759F41092CE06DF91CF917F
:101370001F910F91FF90EF90DF90CF900895CE01D5
:101380000E94A81DBC01CE01DF91CF911F910F914A
:10139000FF90EF90DF90CF900C947B07CF92DF927D
:1013A000EF92FF920F931F93CF93DF93C090EC06C1
:1013B000D090ED06E090EE06F090EF0680910001EF
:1013C00090910101019609F477C080E090E00E94BD
:1013D000331D8FEF9FEFDC018093D8069093D906E1
:1013E000A093DA06B093DB06809100019091010191
:1013F0000E94A81D2091E706FC01428D538D2B30E1
:1014000071F484899589A0E0B0E0DC0199278827F0
:1014100060E070E0842B952BA62BB72B03C0CA018C
:10142000A0E0B0E09C01AD01225031094109510911
:10143000A091F606B0E00E94C91F0091E30610914A
:10144000E4062091E5063091E606600F711F821FC9
:10145000931F0E943C19E091DC06F091DD068FEFAE
:101460009FEFDC018093D8069093D906A093DA060B
:10147000B093DB0683859485A585B6858093EC06BD
:101480009093ED06A093EE06B093EF0607851089C2
:10149000C8010E94A81DEC010E94E003882361F0AE
:1014A000BE01C801DF91CF911F910F91FF90EF9086
:1014B000DF90CF900C947B07C092EC06D092ED06A3
:1014C000E092EE06F092EF06DF91CF911F910F911F
:1014D000FF90EF90DF90CF9008955E9A2C9A5F9ADC
:1014E00008954F925F926F927F928F929F92AF92E8
:1014F000BF92CF92DF92EF92FF920F931F93CF9301
:10150000DF938091000190910101019619F4AFEAF7
:10151000CA2E5AC080E090E00E94331D8AE191E01B
:101520009093DD068093DC060E9446061092D80652
:101530001092D9061092DA061092DB068091000113
:10154000909101010E94A81D2091E706FC01428DA7
:10155000538D2B3071F484899589A0E0B0E0DC01D3
:101560009927882760E070E0842B952BA62BB72B5A
:1015700003C0CA01A0E0B0E09C01AD0122503109D6
:1015800041095109A091F606B0E00E94C91F4090A0
:10159000E3065090E4066090E5067090E606640D60
:1015A000751D861D971D0E943C19E091DC06F09187
:1015B000DD0680819181A281B3818D3C9240AB4A4E
:1015C000B14009F0A4CFC1880E94C51660E080E058
:1015D0000E94C7160E94721785EA91E00E940E17BA
:1015E0000E94721743E065E084E00E94AC0362E071
:1015F00080E00E94C7168BEB91E00E940E178C2DA5
:1016000090E00E94D4167C2CDC2CBB24B3940E9466
:101610006D0AD71481F062E080E00E94C7168BEB60
:1016200091E00E940E178D2D90E00E94D4168AE65C
:1016300090E00E940E1749996FC189B120919906D7
:1016400041E050E0222311F040E050E093B161E02E
:1016500070E0213011F060E070E092959F709B2562
:1016600090FB882480F8912C869E9001879E300DF7
:10167000969E300D1124992787FD90958095909521
:101680008827990F881F9927849FF001859FF00D67
:10169000949FF00D11242E2B3F2B232BB1F189B1F8
:1016A00093B192959F709B259170C92F90E0D92F8F
:1016B000C69F9001C79F300DD69F300D11249927EA
:1016C00087FD9095809590958827990F881F992779
:1016D000849FF001859FF00D949FF00D11242E2B17
:1016E0003F2B232BE1F6EFE3F2E42FE0E150F04053
:1016F0002040E1F700C00000AA24AA94AD0CA092FB
:101700009D068A2D0E949F1501C0AD2CE3B18091EA
:10171000990641E050E0882311F040E050E029B103
:1017200061E070E0813011F060E070E0332727FD68
:101730003095209530952227330F221F3327269F7F
:10174000C001279F900D369F900D11242E2F2295BA
:101750002F702B25022F017010E0049F9001059F30
:10176000300D149F300D1124822B932B892B99F16E
:10177000E3B129B1332727FD3095209530952227F5
:10178000330F221F3327269FC001279F900D369FBE
:10179000900D1124E295EF70EB25E0FBEE24E0F8CC
:1017A000F12CE49E9001E59E300DF49E300D112445
:1017B000822B932B892BE1F68FE392E4EFE08150AB
:1017C0009040E040E1F700C00000A394A0929D0685
:1017D0008A2D0E949F154E9B03C07D2CDA2C17CFBB
:1017E0004E9BFECFFFE322E48FE0F150204080408B
:1017F000E1F700C00000AC1409F48EC0A0929D0671
:101800008A2D0E949F155C988091000190910101A2
:10181000019609F481C080E090E00E94331D8AE1C6
:1018200091E09093DD068093DC060E9446061092BC
:10183000D8061092D9061092DA061092DB06809133
:101840000001909101010E94A81D2091E706FC0172
:10185000428D538D2B3071F484899589A0E0B0E0DE
:10186000DC019927882760E070E0842B952BA62B5C
:10187000B72B03C0CA01A0E0B0E06C017D01F2E02B
:10188000CF1AD108E108F108A091F606B0E0A7014F
:1018900096010E94C91F0091E3061091E406209171
:1018A000E5063091E606600F711F821F931F0E94AC
:1018B0003C19E091DC06F091DD0680819181A281E6
:1018C000B3818D3C9240AB4AB14031F5A18AA091E1
:1018D000F606B0E0A70196010E94C91F0091E30639
:1018E0001091E4062091E5063091E606600F711F25
:1018F000821F931FDF91CF911F910F91FF90EF9067
:10190000DF90CF90BF90AF909F908F907F906F901F
:101910005F904F900C94A619DF91CF911F910F917A
:10192000FF90EF90DF90CF90BF90AF909F908F90FF
:101930007F906F905F904F9008957F928F929F92CB
:10194000AF92BF92CF92DF92EF92FF920F931F93CD
:10195000CF93DF930E94C51660E080E00E94C71617
:101960000E9472178FE891E00E940E170E94721772
:1019700043E065E084E00E94AC0363E080E00E9405
:10198000C7168BEB91E00E940E178091D70690E06E
:101990000E94D4169090D706A92CBB24B394772428
:1019A0007394FAE08F2E0E946D0A8091D7068A15F3
:1019B00099F063E080E00E94C7168BEB91E00E94F3
:1019C0000E178091D70690E00E94D41688E690E02A
:1019D0000E940E17A090D706499969C189B120913C
:1019E000990641E050E0222311F040E050E093B12D
:1019F00061E070E0213011F060E070E092959F703E
:101A00009B259170C92F20E0D22FC69F9001C79FC0
:101A1000300DD69F300D1124992787FD9095809524
:101A200090958827990F881F9927849FF001859F9B
:101A3000F00D949FF00D11242E2B3F2B232BA9F199
:101A400089B193B192959F709B25092F017010E089
:101A5000069F9001079F300D169F300D1124992786
:101A600087FD9095809590958827990F881F9927D5
:101A7000849FF001859FF00D949FF00D11242E2B73
:101A80003F2B232BE9F68FE392E4EFE08150904067
:101A9000E040E1F700C000008091D70681508093BC
:101AA000D706811102C08092D706E3B190919906C2
:101AB00021E030E0992311F020E030E089B141E0ED
:101AC00050E0913011F040E050E0992787FD90956B
:101AD000809590958827990F881F9927849FB0013A
:101AE000859F700D949F700D11248E2F82958F709D
:101AF0008B2580FBEE24E0F8F12CE29EC001E39EF2
:101B0000900DF29E900D1124682B792B672BB1F16B
:101B1000E3B189B1992787FD9095809590958827A5
:101B2000990F881F9927849FB001859F700D949FFE
:101B3000700D1124E295EF70EB25E0FBCC24C0F88A
:101B4000D12CC29EC001C39E900DD29E900D112437
:101B5000682B792B672BE1F6FFE322E48FE0F1504D
:101B600020408040E1F700C000008091D7068F5FE1
:101B70008093D7068B3010F07092D7064E9913CF12
:101B80004E9BFECF9FE3E2E4FFE09150E040F04047
:101B9000E1F700C000008091D706891509F487C0DD
:101BA0008091000190910101019609F480C080E0CC
:101BB00090E00E94331D8AE191E09093DD068093CE
:101BC000DC060E9446061092D8061092D9061092A2
:101BD000DA061092DB0680910001909101010E94CB
:101BE000A81D2091E706FC01428D538D2B3071F426
:101BF00084899589A0E0B0E0DC019927882760E01E
:101C000070E0842B952BA62BB72B03C0CA01A0E054
:101C1000B0E06C017D01F2E0CF1AD108E108F108D3
:101C2000A091F606B0E0A70196010E94C91F00919D
:101C3000E3061091E4062091E5063091E606600F78
:101C4000711F821F931F0E943C19E091DC06F091E6
:101C5000DD0680819181A281B3818D3C9240AB4AA7
:101C6000B14029F58091D7068483A091F606B0E0B3
:101C7000A70196010E94C91F0091E3061091E40696
:101C80002091E5063091E606600F711F821F931FB9
:101C9000DF91CF911F910F91FF90EF90DF90CF9048
:101CA000BF90AF909F908F907F900C94A619DF917A
:101CB000CF911F910F91FF90EF90DF90CF90BF9049
:101CC000AF909F908F907F9008958F929F92AF9248
:101CD000BF92CF92DF92EF92FF921F93CF93DF9349
:101CE0000E94C51660E080E00E94C7160E9472172D
:101CF0008CE192E00E940E170E94721743E065E0AB
:101D000084E00E94AC0362E080E00E94C7160E945B
:101D1000701780EF91E00E940E170E94701763E029
:101D200080E00E94C7168AED91E00E940E1764E0E1
:101D300080E00E94C71684EC91E00E940E17C1E07B
:101D4000D1E00E946D0A89B12091990641E050E0EE
:101D5000222311F040E050E093B161E070E02130C7
:101D600011F060E070E092959F709D2790FBAA248F
:101D7000A0F8B12CA69E9001A79E300DB69E300D06
:101D80001124992787FD9095809590958827990F24
:101D9000881F9927849FF001859FF00D949FF00D77
:101DA00011242E2B3F2B232B09F45CC089B193B156
:101DB00092959F709D2790FB882480F8912C869E99
:101DC0009001879E300D969E300D1124992787FD36
:101DD0009095809590958827990F881F9927849FC3
:101DE000F001859FF00D949FF00D11242E2B3F2BB9
:101DF000232BE1F62FE382E49FE0215080409040C6
:101E0000E1F700C0000011E01C0F143068F511303C
:101E100011F40E94701762E080E00E94C71680EF04
:101E200091E00E940E17C23010F40E94701763E018
:101E300080E00E94C7168AED91E00E940E178FEF96
:101E40008C0F823010F40E94701764E080E00E94D2
:101E5000C71684EC91E00E940E17133031F40E94F3
:101E6000701703C01C2F01C013E0E3B190919906D5
:101E700041E050E0992311F040E050E089B161E089
:101E800070E0913011F060E070E0992787FD909547
:101E9000809590958827990F881F9927869F900194
:101EA000879F300D969F300D11248E2F82958F7055
:101EB0008D2780FBEE24E0F8F12CE49EC001E59E26
:101EC000900DF49E900D1124282B392B232B09F40F
:101ED0005DC0E3B189B1992787FD90958095909574
:101EE0008827990F881F9927869F9001879F300D1B
:101EF000969F300D1124E295EF70ED27E0FBCC2486
:101F0000C0F8D12CC49EC001C59E900DD49E900DEA
:101F10001124282B392B232BE1F62FE382E49FE0B9
:101F2000215080409040E1F700C00000CFEFC10F8A
:101F300079F1C13011F40E94701762E080E00E94D4
:101F4000C71680EF91E00E940E178EEF810F82304E
:101F500010F40E94701763E080E00E94C7168AEDBB
:101F600091E00E940E178DEF810F823010F40E94D5
:101F7000701764E080E00E94C71684EC91E00E9434
:101F80000E17C33031F40E94701703C0C12F01C077
:101F9000C1E04E99D6CE4E9BFECF2FE382E49FE068
:101FA000215080409040E1F700C00000C13069F44A
:101FB000DF91CF911F91FF90EF90DF90CF90BF9076
:101FC000AF909F908F900C949D0CC23069F4DF917C
:101FD000CF911F91FF90EF90DF90CF90BF90AF9087
:101FE0009F908F900C94710AC330F9F480919906F8
:101FF000811106C081E0809399060E94241604C0D6
:10200000109299060E942E166091990680E090E049
:10201000DF91CF911F91FF90EF90DF90CF90BF9015
:10202000AF909F908F900C946820DF91CF911F917B
:10203000FF90EF90DF90CF90BF90AF909F908F90E8
:1020400008952F923F924F925F926F927F928F925C
:102050009F92AF92BF92CF92DF92EF92FF920F9337
:102060001F93CF93DF93CDB7DEB728970FB6F894C1
:10207000DEBF0FBECDBF10920901109208018AE1A8
:1020800091E09093DD068093DC0686ED93E09093DB
:102090009F0680939E068FEF9FEFDC018093D8060A
:1020A0009093D906A093DA06B093DB060E94460609
:1020B0000E94721760E080E00E94C71681E791E0FD
:1020C0000E940E170E94721743E065E084E00E94B0
:1020D000AC0311E0612F80E00E94C71686E092E019
:1020E0000E940E171F5F1630A9F763E080E00E9480
:1020F000C71682E691E00E940E1700E010E0C801CA
:102100000E94A81D5C01009799F0FC01808181115B
:102110000FC08091080190910901892BC9F563E0F6
:1021200080E00E94C7168CE491E00E940E17FEC169
:10213000C5010E94E003811105C0C5010E94F4039E
:102140008823B9F08091080190910901880F991FA7
:10215000E0919E06F0919F06E80FF91F118300831E
:102160008091080190910901019690930901809353
:1021700008010F5F1F4F8091080190910901883C71
:1021800091053CF60039F1E01F0709F0B8CFC1CF47
:1021900063E080E00E94C71686E391E00E940E177C
:1021A000809108019091090102978CF42091080117
:1021B000309109014091060150910701E0919E067E
:1021C000F0919F0600E010E080E090E063C0812C79
:1021D000912C809108019091090101978816990628
:1021E0002CF700E010E0AA24A394B12C8091080100
:1021F0009091090188199909A816B9060CF03FC0F9
:102200003501660C771CE0919E06F0919F06E60D65
:10221000F71D808191810E94A81D48E050E0BC011B
:10222000CE0101960E94F61FE0919E06F0919F0656
:10223000E00FF11F808191810E94A81D48E050E0CD
:10224000BC01CE0101960E94E91F97FF12C0E091E8
:102250009E06F0919F06DF01A60DB71D8D919C9102
:102260001197E00FF11F208131812D933C939183D1
:1022700080832FEFA21AB20A0E5F1F4FB7CF8FEFE6
:10228000881A980AA6CF619171914617570709F4E9
:102290008C01019682179307B4F3AA24AA94BA2C4E
:1022A000992493940E946D0A499940C189B1209163
:1022B000990641E050E0222311F040E050E093B154
:1022C00061E070E0213011F060E070E092959F7065
:1022D000992590FB222420F8312C269E9001279EE0
:1022E000300D369E300D1124992787FD90958095ED
:1022F00090958827990F881F9927849FF001859FC3
:10230000F00D949FF00D11242E2B3F2B232BC1F1A8
:1023100089B193B192959F70992590FB442440F820
:10232000512C469E9001479E300D569E300D112433
:10233000992787FD9095809590958827990F881FFC
:102340009927849FF001859FF00D949FF00D112433
:102350002E2B3F2B232BE1F69FE3E2E4FFE091508D
:10236000E040F040E1F700C000000F5F1F4F809198
:102370000801909109010817190711F400E010E015
:10238000E3B19091990621E030E0992311F020E02B
:1023900030E089B141E050E0913011F040E050E090
:1023A000992787FD9095809590958827990F881F8C
:1023B0009927849FB001859F700D949F700D112403
:1023C0008E2F82958F70892580FBEE24E0F8F12C0A
:1023D000E29EC001E39E900DF29E900D1124682BA9
:1023E000792B672BB9F1E3B189B1992787FD9095D6
:1023F000809590958827990F881F9927849FB00111
:10240000859F700D949F700D1124E295EF70E92562
:10241000E0FBCC24C0F8D12CC29EC001C39E900D1D
:10242000D29E900D1124682B792B672BE1F62FE3B8
:1024300082E49FE0215080409040E1F700C000001E
:102440000150110917FF06C0009108011091090100
:10245000015011094E992EC04E9BFECFEFE3F2E4DE
:102460002FE0E150F0402040E1F700C00000000FF5
:10247000111FE0919E06F0919F06E00FF11F8081F1
:1024800091810E94A81D7C010E94F403882331F0F1
:10249000C7010E94331D0E94211048C0E0919E0692
:1024A000F0919F06E00FF11FB701808191810E949A
:1024B0007B073CC00A151B0509F4F4CEE0919E068B
:1024C000F0919F06C801880F991FE80FF91F8081BE
:1024D00091810E94A81D782E892E63E080E00E94E1
:1024E000C716872D982D0E94F403882319F086E0E3
:1024F00090E002C081E090E00E941D17A72CB82C4C
:10250000612C712CF50181915F01803211F00E94E4
:10251000C915FFEF6F1A7F0A28E06216710491F760
:1025200086E092E00E940E175801BCCE28960FB6A6
:10253000F894DEBF0FBECDBFDF91CF911F910F91F9
:10254000FF90EF90DF90CF90BF90AF909F908F90D3
:102550007F906F905F904F903F902F9008954F9293
:102560005F926F927F928F929F92AF92BF92CF9223
:10257000DF92EF92FF920F931F93CF93DF930E940E
:102580006D0A499B23C08FEF90E0499BBBC1019727
:102590000097D9F780916E008E7F80936E00E89847
:1025A0001092CE061092A106DF91CF911F910F914C
:1025B000FF90EF90DF90CF90BF90AF909F908F9063
:1025C0007F906F905F904F900C942903309B7DC15A
:1025D0004E9B58C089B16091990621E030E0662396
:1025E00011F020E030E093B141E050E0613011F0B3
:1025F00040E050E092959F70A1E09A2790FB8824DC
:1026000080F8912C849EB001859E700D949E700D73
:102610001124992787FD9095809590958827990F8B
:10262000881F9927829FF001839FF00D929FF00DE4
:1026300011246E2B7F2B672B29F5E3B189B19927E4
:1026400087FD9095809590958827990F881F9927E9
:10265000849FB001859F700D949F700D1124E295A9
:10266000EF70EA27E0FBAA24A0F8B12CA29EC001DB
:10267000A39E900DB29E900D1124682B792B672B91
:1026800009F423C14E9911C084E690E021E04E99EF
:1026900020E001970097D9F7222309F433C14E9B1C
:1026A000FECFF8940E9421100DC149B160919906A6
:1026B00081E090E0662311F080E090E053B121E0EA
:1026C00030E0613011F020E030E052955F70A1E021
:1026D0005A2750FBCC24C0F8D12CC29EB001C39E17
:1026E000700DD29E700D1124552747FD50954095D1
:1026F00050954427550F441F5527489FF001499F87
:10270000F00D589FF00D11246E2B7F2B672B09F4D1
:102710005BC064E670E0C1E0D1E049B153B15295CD
:102720005F705D2750FBEE24E0F8F12CE29EF00193
:10273000E39EF00DF29EF00D1124552747FD5095B4
:10274000409550954427550F441F5527489FD00169
:10275000499FB00D589FB00D1124EA2BFB2BEF2B96
:1027600009F4C0E06150710961157105B1F6CC231F
:1027700009F4C8C0A1E049B153B152955F705A271E
:10278000052F017010E0029FB001039F700D129F92
:10279000700D1124552747FD5095409550954427BD
:1027A000550F441F5527489FF001499FF00D589F32
:1027B000F00D11246E2B7F2B672BE9F6F8940E9405
:1027C000650E49999FC091C0E3B149B1552747FDB6
:1027D0005095409550954427550F441F5527429FCB
:1027E000B001439F700D529F700D1124E295EF7060
:1027F000EA27E170CE2F40E0D42FC89FA001C99FE7
:10280000500DD89F500D1124642B752B672B09F4A4
:1028100079C064E670E0B1E0C1E0A3B149B15527E9
:1028200047FD5095409550954427550F441F552717
:10283000429FF001439FF00D529FF00D1124A2958D
:10284000AF70AC27A0FB662460F8712C689EA001D5
:10285000699E500D789E500D1124E42BF52BEF2B23
:1028600009F4B0E06150710961157105B1F6BB233F
:1028700009F448C0F1E0E3B149B1552747FD50954F
:10288000409550954427550F441F5527429FB0014E
:10289000439F700D529F700D1124E295EF70EF274A
:1028A000E0FB442440F8512C489EA001499E500D65
:1028B000589E500D1124642B752B672BE1F6F8946C
:1028C0000E94CE09499B13C01DC08091CE06811184
:1028D00019C08FEF90E0499915C001970097D9F77B
:1028E000F89481E00E946B0681110E94ED088091AE
:1028F000CE06882331F080916E00816080936E0057
:10290000E89A7894DF91CF911F910F91FF90EF900B
:10291000DF90CF90BF90AF909F908F907F906F90FF
:102920005F904F90089595E09A95F1F70895089576
:10293000359BFECFA894089508953C983D984498FF
:10294000459888279927349B0895359B089581E001
:10295000089581E00895359BEBDF3C9AE4DF2AD0AF
:10296000089581E008953D9ADEDF3C98DCDF3D98D4
:10297000DADF359BDDDF3C9AD6DF1CD0089581E09D
:1029800008958F938F918F93359BD2DF3C9ACBDF45
:1029900011D0882311F404D0F5CF0F900895089535
:1029A0003D9A3C9AC0DF3D98BEDF359BC1DF3C9825
:1029B000BADF08950894881F01C0880FB9F03D9AC6
:1029C00000000000000018F400003C9802C03C9A8F
:1029D00000C0A9DF3D98A894000000000000359BCE
:1029E000A7DF12F4882712C09EDFE7CF3D9A0000D0
:1029F00000003C9898DF992788273D98A89400000C
:102A0000359B96DF7AF3349B81E08DDF0000000078
:102A10003D9A089581E0089571E03D9A3C98000048
:102A20000000000080DF3D987EDFA89400000000D9
:102A30000000359B7DDFB2F0889434990894771FAD
:102A400060F73D9A803011F03C9801C03C9A00003C
:102A50000000000068DF3D98A89400000000359B4E
:102A600067DF61DF000000003D9A872F99270895F6
:102A700080E20895CF93C82F88E70E94AB1480E0CE
:102A80000E94DA148C2F0E94DA14CF910C94D01487
:102A9000CF93C82F88E70E94AB1480E40E94DA1419
:102AA0008C2F0E94DA14CF910C94D014CF93DF9323
:102AB000EC0181E290E00E943A15CE010E943A15A5
:102AC0008FE790E0DF91CF910C943A15CF93DF938D
:102AD000EC0182E290E00E943A15CE010E943A1584
:102AE00087E090E0DF91CF910C943A15EF92FF923E
:102AF0000F931F93CF93DF938C017B0180E090E0D5
:102B00000E94561580E090E00E94661588E70E94BA
:102B1000AB1480E40E94DA14E801CE01801B910B13
:102B20008E159F0524F489910E94DA14F6CFDF9167
:102B3000CF911F910F91FF90EF900C94D014CF93F1
:102B4000C82F81E890E00E943A158C2F90E00E94F7
:102B50003A15C093D206CF910895CF93DF9380E0CA
:102B600090E00E94561580E090E00E94661588E78C
:102B70000E94AB1480E40E94DA14C0E0D4E080E04C
:102B80000E94DA1421972097D1F7DF91CF910C940E
:102B9000D0140F931F93CF93DF93082F88E70E94E1
:102BA000AB1480E40E94DA1485E0089F80011124B0
:102BB000C0E0D0E00D561C4FF801EC0FFD1FE49172
:102BC0008091D0068111E0958091D306813011F477
:102BD00090E801C090E081E02091D106213009F019
:102BE00080E08E2B892B0E94DA142196C530D10506
:102BF00019F781E09091D006913009F080E0282FFC
:102C000021958091D306813011F490E801C090E0C5
:102C100081E03091D106313009F080E0822B892BA0
:102C20000E94DA14DF91CF911F910F910C94D01470
:102C3000CF93DF93EC018991882319F00E94C91585
:102C4000FACFDF91CF91089581EA90E00E943A1582
:102C500088EC90E00E943A150C94AD1580EA90E063
:102C60000E943A1580EC90E00E943A150C94AD1544
:102C70000E949D148EEA90E00E943A1585ED90E046
:102C80000E943A1580E890E00E943A1588EA90E0A8
:102C90000E943A158FE390E00E943A1583ED90E090
:102CA0000E943A1580E090E00E943A1580E490E09E
:102CB0000E943A158DE890E00E943A1584E190E078
:102CC0000E943A1580E290E00E943A1580E090E080
:102CD0000E943A1581EA90E00E943A1588EC90E053
:102CE0000E943A158AED90E00E943A1582E190E048
:102CF0000E943A1581E890E00E943A158FEC90E02E
:102D00000E943A1589ED90E00E943A1581EF90E01B
:102D10000E943A158BED90E00E943A1580E490E015
:102D20000E943A1584EA90E00E943A1586EA90E003
:102D30000E943A158FEA90E00E943A158FEC80933A
:102D4000D20680939D061092D0061092D306109260
:102D5000D1060C942E1681E09091D006911180E05E
:102D60008093D006089581E09091D306911180E080
:102D70008093D306089581E09091D106911180E06F
:102D80008093D10608950C9438160C94AD15CF930A
:102D9000C82F862F90E00E9466158C2F90E0CF916F
:102DA0000C9456150C941816CF93DF93CDB7DEB75D
:102DB0002A970FB6F894DEBF0FBECDBF4AE0BE0122
:102DC0006F5F7F4F0E940A20CE0101960E94181665
:102DD0002A960FB6F894DEBF0FBECDBFDF91CF911C
:102DE0000895CF93DF93CDB7DEB72A970FB6F89447
:102DF000DEBF0FBECDBF2AE0AE014F5F5F4F0E9426
:102E00001520CE0101960E9418162A960FB6F89446
:102E1000DEBF0FBECDBFDF91CF910895CF93DF937B
:102E2000FC018491EF012196882321F00E94C915AD
:102E3000FE01F7CFDF91CF910895EF92FF920F93AC
:102E40001F93CF93DF937C018CE08E9D80018F9D3B
:102E5000100D1124C0E0D0E001521C4F8FEFE81696
:102E6000F10429F0F801EC0FFD1FE49101C0E0E04E
:102E70008091D0068111E0958091D306813011F4C4
:102E800090E801C090E081E02091D106213009F066
:102E900080E08E2B892B0E9448152196CC30D105DD
:102EA000E9F681E09091D006913009F080E0282F7A
:102EB00021958091D306813011F490E801C090E013
:102EC00081E03091D106313009F080E0822B892BEE
:102ED000DF91CF911F910F91FF90EF900C944815C7
:102EE0000C94AB160C94B3160C94BB16DF92EF92B5
:102EF000FF920F931F93CF93DF9300E010E0D12C4C
:102F00006D2D89E10E94C716C0E0D0E0C801835949
:102F10009D4F7C01F701EC0FFD1F84910E94481525
:102F20002196CA34D105B1F7D394065B1F4F95E0C3
:102F3000D912E6CFDF91CF911F910F91FF90EF90C3
:102F4000DF900895549A539A559A50981092D40647
:102F5000089528E030E090E840E258E068E2792FF8
:102F6000782319F05BB96BB902C01BB84BB99695C1
:102F7000215031092115310591F71BB80895CF93E0
:102F8000DF931F92CDB7DEB788E08BB9198280E05E
:102F900028E238E09981983051F02BB999B1880F27
:102FA0009170892B3BB999819F5F9983F3CF0F90E3
:102FB000DF91CF91089588E38BB988E18BB90895AB
:102FC00028E100002A95E9F70197D1F708950895BF
:102FD000DF92EF92FF920F931F93CF93DF93082F0F
:102FE000C8E0D0E010E880E2F82E98E0E92E28E270
:102FF000D22E812F802339F0EBB881E090E00E943F
:10300000E017DBB806C01BB881E090E00E94E01733
:10301000FBB816952197209761F781E090E00E9418
:10302000E0171BB8DF91CF911F910F91FF90EF90A8
:10303000DF9008959091D406911103C00E94E81783
:1030400002C00E94A91780E00895FF920F931F937A
:10305000CF93DF931F92CDB7DEB788E08BB981E0C5
:1030600090E00E94E017198210E038E2F32E08E0A9
:103070008981883091F0FBB881E090E00E94E017F0
:1030800089B1110F8170182B0BB981E090E00E947B
:10309000E01789818F5F8983EBCF812F0F90DF91BC
:1030A000CF911F910F91FF9008958091D4068111C7
:1030B00002C00C9425180C94BF1788E38BB981E0EB
:1030C00090E00E94E01788E18BB981E090E00C94D9
:1030D000E01781E08093D40608951092D4060895F5
:1030E0000E94BF1787FDFCCF08951F93CF93DF93F6
:1030F00000D000D0CDB7DEB7182F0090D60604C0A0
:10310000440F551F661F771F0A94D2F78FEF49832C
:103110005A836B837C830E94A917812F80640E944D
:10312000A9177C81872F0E94A9176B81862F0E9487
:10313000A9175A81852F0E94A9174981842F0E94BF
:10314000A91785E90E94A9178FEF0E94A9170E946D
:1031500070188093E10681508E3FC8F30F900F9056
:103160000F900F90DF91CF911F910895AB01BC019B
:103170001092DF0681E10E9475180E94BF178093AC
:10318000E2068E3FD1F70895FF920F931F93CF93DE
:10319000DF9300D000D0CDB7DEB7082F8091DE06D8
:1031A000811113C08FEE800F823040F088EE800FC7
:1031B000823020F080EE800F823038F489E0440FB6
:1031C000551F661F771F8A95D1F78FEF49835A8362
:1031D0006B837C830E941A18802F80640E941A18C7
:1031E0007C81872F0E941A186B81862F0E941A18E3
:1031F0005A81852F0E941A184981842F0E941A181B
:10320000083011F487E801C085E90E941A1810E01F
:103210000E945518F82E8FEFF81203C01150C1F715
:103220001EC0F1101CC00A33D1F40E945518109230
:10323000D60686FF05C081E08093DE0682E006C0E8
:103240001092DE0689E08093D60681E08093E00646
:103250000E9455180E9455180E945518F12C0E9482
:1032600055188F2D0F900F900F900F90DF91CF91E9
:103270001F910F91FF900895EF92FF920F931F936C
:10328000CF93DF9300D000D0CDB7DEB7AB01BC0148
:103290008091D8069091D906A091DA06B091DB060C
:1032A000481759076A077B0709F444C04093D806BA
:1032B0005093D9066093DA067093DB065C988FEF23
:1032C00049835A836B837C830E941A188FEF0E9474
:1032D0001A1849815A816B817C8181E10E94C4184E
:1032E000811129C000E010E00E9455188E3F41F086
:1032F0000150110901151105B9F75C9A80E01BC056
:10330000E12CF12C0091DC061091DD060E0D1F1D45
:103310000E945518F8018083FFEFEF1AFF0AE114AD
:1033200082E0F80679F70E9455180E9455180E940D
:1033300055185C9A81E00F900F900F900F90DF91DD
:10334000CF911F910F91FF90EF900895CF93DF934E
:10335000AB01BC0188E10E94C41881113DC05C989A
:103360008EEF0E941A18C0E0D0E0E091DC06F091E8
:10337000DD06EC0FFD1F80810E941A182196C115F1
:1033800082E0D80791F78FEF0E941A188FEF0E9402
:103390001A180E945518982F9F71953079F4C0E043
:1033A000D0E00E945518811103C02196D1F706C0C4
:1033B0005C9A8FEF0E941A185C9808C05C9A0CC047
:1033C0009E012F5F3F4F2196C9F3E9010E945518D6
:1033D0008823B1F35C9A81E0DF91CF910895AB012E
:1033E000BC0180E10C94C418CF92DF92EF92FF925F
:1033F0001F93CF93DF931092D50685E08093D70675
:103400000E94A2170E946D1849999AC080E285B95E
:103410005C9A8FE097E2A0E0B0E08093D8069093AA
:10342000D906A093DA06B093DB0614E60E945D1875
:103430001150E1F75C988FEF0E941A188FEF0E94ED
:103440001A18C0E0D8E040E050E0BA0180E00E94E5
:10345000C4182197209731F415B85C9A81E08093C5
:10346000D5066FC0813079F78FEF0E941A188FEF61
:103470000E941A18C1E0D2E04AEA51E060E070E030
:1034800088E00E94C4188A3A49F481E08093E006FB
:10349000C12CD12CE12C90E4F92E0AC08130A9F383
:1034A0002197209749F71092E006C12CD12C760184
:1034B0008FEF0E941A188FEF0E941A18C1E0D2E015
:1034C00040E050E0BA0187E30E94C418B701A601AA
:1034D00089E20E94C4182197209731F482E08093FA
:1034E000D50615B85C9A2DC08111EACF1092DE0680
:1034F00089E08093D6068091E006813081F040E03B
:1035000050E0BA018BE30E94C41860E072E080E0F2
:1035100090E00E94EF1915B85C9A11E012C0C5E660
:10352000D0E08FEF0E941A1840E050E0BA018AE321
:103530000E94C4182197209711F38111F2CFDFCF99
:1035400010E0812FDF91CF911F91FF90EF90DF90DE
:10355000CF90089580E285B9089515B808950E9426
:10356000BF17499902C08F3FD1F708954F925F92DC
:103570006F927F928F929F92AF92BF92CF92DF9283
:10358000EF92FF921F93CF93DF9360E070E0CB0147
:103590000E943C19E091DC06F091DD0680818D7F70
:1035A000893E51F1DF01A250BE4F8D919C9185352E
:1035B0009A4A11F086E014C0E254FE4F8481809351
:1035C000E70660857185828593850E943C19E091AC
:1035D000DC06F091DD0680818D7F893E29F083E055
:1035E0008093D50680E0A9C08091E7068B3021F05A
:1035F000863011F084E0F4CFC091DC06D091DD0676
:10360000438554855093F1064093F0061585109339
:10361000F60686859785C48CD58CE68CF78CC80E0B
:10362000D91EE11CF11CC092F206D092F306E09282
:10363000F406F092F5066091E706663019F42689E3
:10364000378902C02CA13DA1A089B0E02A9FC0010A
:103650002B9F900D3A9F900D112446015701880E23
:10366000991EA11CB11C8092E3069092E406A092E0
:10367000E506B092E6064CA45DA46EA47FA4663075
:10368000B9F0A30192012250310941095109A12F3A
:10369000B0E00E94C91F680D791D8A1D9B1D6093B3
:1036A000E8067093E9068093EA069093EB0626C03D
:1036B0000E94BA1F4B015C018C0C9D1CAE1CBF1CF0
:1036C0008092E8069092E906A092EA06B092EB0694
:1036D0008189928935E0880F991F3A95E1F7BA01FF
:1036E0000E94841F860E971EA11CB11C8092E306C7
:1036F0009092E406A092E506B092E606812F90E053
:1037000020E031E0320F8130910521F096958795C8
:10371000232FF7CF2093F7068091E8069091E906D2
:10372000A091EA06B091EB068093EC069093ED062B
:10373000A093EE06B093EF0681E0DF91CF911F9149
:10374000FF90EF90DF90CF90BF90AF909F908F90C1
:103750007F906F905F904F9008954F925F926F921D
:103760007F928F929F92AF92BF92CF92DF92EF9211
:10377000FF92CF932091E706263041F088248A9467
:10378000982CA82C5FE0B52E22E006C088248A94ED
:10379000982CA12CB12C21E004C0660F771F881F44
:1037A000991F2A95D2F72091F0063091F10640E05A
:1037B00050E00E94981F2B013C01C090F206D0906F
:1037C000F306E090F406F090F506C20ED31EE41E58
:1037D000F51ECAE0C701B6010E943C19882311F00A
:1037E000C150C1F7E091DC06F091DD06E40DF51D56
:1037F0006081718182819381682179218A219B2155
:10380000CF91FF90EF90DF90CF90BF90AF909F90BF
:103810008F907F906F905F904F9008954F925F923E
:103820006F927F928F929F92AF92BF92CF92DF92D0
:10383000EF92FF92CF9368EEC62E63E0D62EE12C76
:10384000F12CC701B6010E94AD1B61157105810500
:10385000910591F030EAC31636E8D30631E0E3066D
:10386000F10431F02FEFC21AD20AE20AF20AE9CFCC
:1038700060E070E0CB014EC040EAC41646E8D406D2
:1038800041E0E406F10409F445C08091E706863082
:1038900011F062E001C061E0A701960104C0220FAF
:1038A000331F441F551F6A95D2F7CA01B9012091F1
:1038B000F0063091F10640E050E00E94981F2B0185
:1038C0003C018090F2069090F306A090F406B09030
:1038D000F506820E931EA41EB51ECAE0C501B401F2
:1038E0000E943C19882311F0C150C1F7E091DC0619
:1038F000F091DD06E40DF51D8FEF90E0A0E0B0E063
:1039000080839183A283B383C501B4010E94A61969
:10391000C701B601CF91FF90EF90DF90CF90BF909D
:10392000AF909F908F907F906F905F904F90089591
:103930008F929F92AF92BF92EF92FF920F931F933D
:10394000CF93DF937C01F5E0EE0CFF1CFA95E1F7D5
:10395000E701CD2FDD27C6952091F606622F70E096
:10396000CE010E94841F8B016091EC067091ED06E0
:103970008091EE069091EF060115110509F44AC0F9
:103980003091E706363071F48090E8069090E906B1
:10399000A090EA06B090EB06681579058A059B05AC
:1039A00009F454C08090E3069090E406A090E506E8
:1039B000B090E606681979098A099B0930E040E071
:1039C00050E00E94981FCA01B9016E5F7F4F8F4F70
:1039D0009F4FA12CB12C0E94AD1B2FEFA21AB20A4F
:1039E000A016B106C1F79B01AC0122503109410973
:1039F0005109A091F606B0E00E94C91F8090E3062D
:103A00009090E406A090E506B090E606680D791D5A
:103A10008A1D9B1D9E01322F2227330FE21AF30AC3
:103A20004091F606409F9001419F300D1124C21B2A
:103A3000D30B6C0F7D1F811D911D0E943C1980913D
:103A4000DC069091DD068E0D9F1D02C080E090E0A7
:103A5000DF91CF911F910F91FF90EF90BF90AF90AA
:103A60009F908F9008950F931F93FC01009789F406
:103A70008091E8069091E906A091EA06B091EB06E4
:103A80008093EC069093ED06A093EE06B093EF06BC
:103A90003FC09385892F807194FF3BC08091E706DA
:103AA000428D538D8B3071F484899589A0E0B0E00C
:103AB000DC019927882760E070E0842B952BA62BEA
:103AC000B72B03C0CA01A0E0B0E00097A105B10583
:103AD00079F29C01AD012250310941095109A091AF
:103AE000F606B0E00E94C91F0091E3061091E406BB
:103AF0002091E5063091E606600F711F821F931F2B
:103B00006093EC067093ED068093EE069093EF06BB
:103B100081E01F910F910895FC01009719F480E056
:103B200090E0089580818823D1F3853EC1F38E32E1
:103B300021F481818E3219F0F2CF853081F38385B3
:103B40008E3169F38F3059F3883249F3CF010895EC
:103B50000E94981C0C948C1D0000000000000000C6
:103B600000000000000000000000089500000000B8
:103B7000000000002091D7062A95F1F70895AF9331
:103B8000AFB7AF93BF932F93A091CD062091CC06F2
:103B9000A22BA8B9A4EBA6BD20E0E8DFA091CC063B
:103BA000A8B9B091A106BB2341F02093CD062F9177
:103BB000BF91AF91AFBFAF911895A8E2ABB9A9B1D2
:103BC000A170AA0F2A2FA8E0ABB9A0919206B091DC
:103BD00093061196A0939206B0939306A03989F4A8
:103BE000BC3079F4A1E0A093A106CF93C0E7A8E090
:103BF000B8E2BBB9B8E0BBB9AA95D1F7CA95B9F795
:103C0000CF912093CD062F91BF91AF91AFBFAF91D0
:103C100018952F932FB72F9330995BC03F93309116
:103C20009A0626B124702327E1F326B1247020934D
:103C30009A0628E02A95F1F700004F935F936F935F
:103C40007F938F93EF93FF9360E0E091A206F09152
:103C5000A3063DE541E00DC050919A0676B174701F
:103C60007527E1F376B1747070939A067EE07A95C9
:103C7000F1F727E081E079B17470D9F40000000019
:103C80007BE17A95F1F776B1747050919A06709352
:103C90009A06752776957695880F872B2A9559F77A
:103CA000853D09F461E06030B9F2819331504040C4
:103CB00099F69F93AF93BF930E94D505BF91AF91A3
:103CC0009F91FF91EF918F917F916F915F914F91B4
:103CD0003F912F912FBF2F91189581E00E943E03B5
:103CE0008FEF80931601CBE80E94AF12309B03C088
:103CF0000E94AD1AF9CF0E94AA1A83B18F708093E7
:103D00000C0190910B01891761F180930B018830B0
:103D100049F0843009F4EFC0823009F4EEC08130FC
:103D200001F5EDC082E02091A006820F982F9770D8
:103D30009695E92FF0E0E459FF4FE49180FFE2957A
:103D4000EF708E2F887009F0E86F2E0F253C08F079
:103D5000D8C02093A0068091A0068C3810F0C093A4
:103D6000A0068091CE06882309F4BECF8091A106DB
:103D7000882309F4B9CFF894309194063F5F3F70DF
:103D8000309394062091A006269526952093CF0681
:103D900040E1249FC0011124830F911D90939C0644
:103DA00080939B060090F70602C0969587950A942B
:103DB000E2F79093180180931701FC01EE0FFF1FAB
:103DC000EE0FFF1FEC55F94F80819181A281B381E5
:103DD0008093950690939606A0939706B0939806C5
:103DE000809116012817B9F02093160164E08CE049
:103DF0000E94C71687E891E00E940E178091CF06B7
:103E00008A3020F483E091E00E94D2168091CF06A0
:103E100090E00E94D4168091940690910D01981321
:103E200006C0209112019091CF06291741F190917F
:103E30000E01981306C0209113019091CF06291707
:103E4000F1F090910F01981306C020911401909108
:103E5000CF062917A1F090911001981306C0209168
:103E600015019091CF06291751F0909111019813E7
:103E700008C0909116018091CF06981302C00E944D
:103E80006F056091950670919606809197069091C6
:103E9000980662507109810991090090F70604C0E3
:103EA000660F771F881F991F0A94D2F70091E306C7
:103EB0001091E4062091E5063091E606600F711F2F
:103EC000821F931F2091F60630E021503109409166
:103ED0009B0650919C0624233523620F731F811D7E
:103EE000911D0E94B618109293061092920610929D
:103EF000A1067894F9CE84E016CF86E014CF80E056
:103F000012CF1092A00627CFAA1BBB1B51E107C0FE
:103F1000AA1FBB1FA617B70710F0A61BB70B881F59
:103F2000991F5A95A9F780959095BC01CD010895E8
:103F3000A1E21A2EAA1BBB1BFD010DC0AA1FBB1FAD
:103F4000EE1FFF1FA217B307E407F50720F0A21B1F
:103F5000B30BE40BF50B661F771F881F991F1A948C
:103F600069F760957095809590959B01AC01BD01B6
:103F7000CF010895A29FB001B39FC001A39F700D10
:103F8000811D1124911DB29F700D811D1124911D61
:103F900008950E94BA1FA59F900DB49F900DA49FF5
:103FA000800D911D11240895FB01DC0105900D92F7
:103FB0000020E1F70895FB01DC014150504030F052
:103FC0008D910590801919F40020B9F7881B990B81
:103FD0000895FB01DC0104C08D910190801921F44A
:103FE00041505040C8F7881B990B0895DC01FB0134
:103FF0004150504058F049F001900D920020C1F717
:10400000E61BF70B3197CF0108951C920190002019
:10401000E9F7F6CFBB274A3031F4992322F4BDE209
:10402000909581959F4F0C944720BB272A3051F4DF
:10403000992342F4BDE290958095709561957F4FEC
:104040008F4F9F4F0C942520BB27FA01A62F621794
:10405000710581059105330B30FB66F0AA27660FC9
:10406000771F881F991FAA1FA21710F0A21B639524
:104070003850A9F7A05DAA3308F0A95DA19336F7DF
:10408000B111B1931082CA010C947620BB27FB01B9
:104090005527AA27880F991FAA1FA41710F0A41B41
:1040A00083955051B9F7A05DAA3308F0A95DA1939B
:1040B000009779F7B111B1931192CB010C9476204E
:1040C000F999FECF92BD81BDF89A992780B50895E0
:1040D000262FF999FECF1FBA92BD81BD20BD0FB624
:1040E000F894FA9AF99A0FBE01960895DC01FC0142
:1040F000672F71917723E1F7329704C07C916D931C
:1041000070836291AE17BF07C8F30895F894FFCF8C
:06411000FFFFFE2000008D
:00000001FF
